:040000007CEF01F0A0
:080008000000000000000000F0
:100010000000000000000000046ED8CF05F0E0CF23
:1000200006F00001E9CF0CF0EACF07F0E1CF08F0CD
:10003000E2CF09F0D9CF0AF0DACF0BF0F3CF12F00C
:10004000F4CF13F0FACF14F0F5CF15F0F6CF16F089
:10005000F7CF17F000C00EF001C00FF002C010F093
:1000600003C011F09DAA38EF00F09EBAB9EF00F07E
:100070000EC000F00FC001F010C002F011C003F07C
:100080000CC0E9FF07C0EAFF078E08C0E1FF09C006
:10009000E2FF0AC0D9FF0BC0DAFF12C0F3FF13C0A2
:1000A000F4FF14C0FAFF15C0F5FF16C0F6FF17C025
:1000B000F7FF045006C0E0FF05C0D8FF1000FF0E98
:1000C000D8804954F16F000E4A54F26F4B50F15FE3
:1000D0004C50F25B4D50F15F4E50F25B4F50F15F70
:1000E0005050F25B5150F15DEB6F5250F259EC6F92
:1000F000D8904934026E4A34036E0250190FE96EEB
:10010000000E0320EA6EECCFEEF0ED52EFCFEDF0F3
:100110005350EB5D2BE15450EC5D28E1F16B4F50F7
:10012000F125EF6F50505120F06FD8904934026E96
:100130004A34036E0250230FE96E000E0320EA6E6C
:10014000F0C0ECFFED52EFC0EFFFD8904934026EE3
:100150004A34036E0250190FE96E000E0320EA6E56
:10016000F0C0ECFFED52EFC0EFFF83908390DFEF24
:1001700000F083809EAAFED7AECFEAF0D890563426
:10018000036A450FE96E000E0320EA6EEC6AED5239
:10019000EAC0EFFF565005E0010A08E0060A0DE04C
:1001A00010D0EA3D02D0010E566E0CD0EA3D03D0CD
:1001B000020E566E01D0566A05D0566A80D7558217
:1001C00001D0562A83909E9A38EF00F08E0E946EDE
:1001D000800E956E8394839283909D8AC00EF21256
:1001E00012EF02F0EA6AE10EE96EEF500DE0060E42
:1001F000016E006A002EFED7012EFBD77B0E006E2B
:10020000002EFED7EF2EF3D712009EA8FED7AD6EBC
:100210001200030EE95F09E3EA6AE90EE96EEF50A6
:1002200004E001D000D0EF2EFDD712004268828892
:10023000FF0EEBDFFF0EE9DFE451E7DF020EE525FD
:10024000E96FE951E2DF030EE0DFE651DEDFE7515F
:10025000DCDFE551030804E1E851D7DFE851425EF5
:10026000E451425CD880E555FE0FFD0FD880E6557D
:10027000D880E755426E4250C8DFC80EE96FC9DF2B
:10028000829853EF01F0E051E26FE46BE1C0E3F0DC
:10029000FE0EE46F030EE56F200EE66FE2C0E7F09E
:1002A000E3C0E8F0C3D7A60E006E002EFED7000014
:1002B0001DEF02F042688288FF0EA7DFFF0EA5DF68
:1002C000E051A3DF040EA1DFE1519FDFE2519DDF8A
:1002D000E3519BDFE051425CFC0FD880E155D880B0
:1002E000E255D880E355426E42508FDFC80EE96F69
:1002F00090DF829826EF02F0F86A9F9AD08E078EE0
:10030000B8862A0EAF6E000EB06EA60EAC6E900EC2
:10031000AB6E2D6A2F6A2E6A42685590586A596AE8
:1003200055825A6A0F01386B396B3A6B3B6B3C6BE9
:10033000776A786A796A55D00440190001803209D9
:10034000C00001803205C0000C4030000680011161
:1003500009030E001240430085005B010209030EF1
:1003600064005000000096007800C80096009600D7
:100370009600960096005000C8009600780078001D
:100380005000C8005A007800B4005000C800D200E5
:100390007800E1005000000096007800E10096002F
:1003A000960096009600E10050000000960078004C
:1003B000B4005A00C800D200780096005000C8006F
:1003C00096007800960050000000960078000E001D
:1003D000900100000200020201000900FA00020080
:1003E0000000000EF86E030EF76E380EF66E090070
:1003F000F550006E000A13E00900F550016EE8BEEA
:1004000005D00F0BEA6E0900F5CFE9FF01BC09002A
:1004100001AC0900F5CFEEFF004EE9D7F9D7F86A35
:100420000001D4D6040EE06FFA0EE16FDBDEE02FA0
:10043000FBD7E16B320EE06F26D7010EE06F020EA4
:10044000E16F240EE26F020EE36F34D7140EE16FFA
:06045000C9DEF3D7FFD75F
:020000040030CA
:0E00000000E2191C00BF00000FC00FE00F400F
:00000001FF
;PIC18F45K22
;CRC=071A  CREATED="17-déc.-18 15:00"
