:040000005AEF02F0C1
:08000800046ED8CF05F0E0CF33
:1000100006F00001E9CF0CF0EACF07F0E1CF08F0DD
:10002000E2CF09F0D9CF0AF0DACF0BF0F3CF12F01C
:10003000F4CF13F0FACF14F0F5CF15F0F6CF16F099
:10004000F7CF17F000C00EF001C00FF002C010F0A3
:1000500003C011F09DA630EF00F09EB686EF00F0D1
:100060000EC000F00FC001F010C002F011C003F08C
:100070000CC0E9FF07C0EAFF078E08C0E1FF09C016
:10008000E2FF0AC0D9FF0BC0DAFF12C0F3FF13C0B2
:10009000F4FF14C0FAFF15C0F5FF16C0F6FF17C035
:1000A000F7FF045006C0E0FF05C0D8FF1000F76A54
:1000B000BE0FF66E000EF7220900F5501200380C44
:1000C0000106F76AD20FF66E000EF7220900F5500E
:1000D0001200746573742061726475696E6F2031EB
:1000E00032330000F76AF40FF66E000EF7220900B3
:1000F000F550120068656C6C6F00F76A0A0FF66EB7
:10010000010EF7220900F55012005A00C7A004D0D2
:10011000C9CF1AF0C96A1B809E9630EF00F0544593
:10012000535420535049000076616C203A202578C2
:1001300020006374726C203A2025752000006374DF
:10014000726C203A2025752000006374726C203A8E
:10015000202575200000DF0E926E93689568966AE0
:10016000D60E946ED190CD6ACC6A000EBA6E000E97
:10017000BB6EC150F00BC16E000E0F01386F3C6FAB
:10018000396F3A6F3B6F000173EF02F0EA6A350E88
:10019000E96EEF500DE0060E016E006A002EFED7EC
:1001A000012EFBD77B0E006E002EFED7EF2EF3D76D
:1001B0001200FF0E956E8482000084840000956812
:1001C00083CF3AF08494000E956E3AC001F0EBEFC5
:1001D00000F08490EED701C03AF001BEFBD738A002
:1001E000849038B084800000849200008494000ED3
:1001F000956E956A39C08CFF00008484080E006EED
:10020000002EFED7849412008490849284940F0E62
:10021000356EBCDF316A315003080DE3036A31509B
:1002200046DF326E386A396ED4DF080E006E002E5B
:10023000FED7312AF0D774EF02F03650010A03E0FE
:10024000030A04E006D0800E376E05D0C00E376E6C
:1002500002D0800E376E010E355C3726386A37C003
:1002600039F0B7DF120034500C0A05E0060A0DE041
:10027000020A12E016D0386A010E396EAADF010EAA
:10028000196E0A0E356E82DF11D0192A010E356EF5
:1002900019C036F0D2DF0AD0386A100E396E99DFF5
:1002A00005D0010E386E34C039F093DF120009001A
:1002B000F5520CE0F6CF31F0F7CF32F0F5CF34F055
:1002C000D2DF31C0F6FF32C0F7FFF1D77DEF02F089
:1002D0000900F6CF32F0F7CF33F0F5CF34F0C3DFBB
:1002E00032C0F6FF33C0F7FF312EF2D7120032BE14
:1002F0000FD00F0E006E313800160A0E005C03E2BC
:10030000300E002602D03250002600C034F0ABDFA1
:100310000F0E31160A0E315C02E2300E02D0329E10
:100320003250312631C034F09EDF93EF02F0356A4F
:1003300082803250100802E2100E326E809A00D095
:1003400000D00000C95031C0C9FFC730FEE331C042
:1003500037F0C95032C0C9FFC730FEE332503726EC
:10036000366A3250365C17E236503324E96E000E9E
:100370003420EA6EEFCF3AF0C9503AC0C9FFC73017
:10038000FEE336503324E96E000E3420EA6EEF505F
:100390003726362AE6D7FF0ED8803754010F376E3E
:1003A000C95037C0C9FFC730FEE3100E006E002EE3
:1003B000FED70000808A82901200336A809A00D0B3
:1003C00000D00000C950C96AC730FEE3C9CF33F07E
:1003D00031C0E9FF32C0EAFF3350070BEF6E010E68
:1003E0003124E96E000E3220EA6E3350180B006E95
:1003F0000032003200321F0E001600C0EFFF020E66
:100400003124E96E000E3220EA6E3350E00B006EAC
:10041000003A0032070E001600C0EFFF00D000D0F7
:100420000000808A12003450016A335C03E233C05A
:1004300000F00CD0006A080E356E333600363450AA
:10044000005CD8B0006E0136352EF7D7120001508F
:1004500031C033F0640E346EE6DF00C031F001507D
:10046000300E07E132A20CD032B60AD032B8200EDC
:1004700003D0329632983280012601C034F0F3DE88
:1004800031C033F00A0E346ECEDF00C031F00150BF
:10049000300E06E132B608D032A006D032B8200EB7
:1004A000012601C034F0DFDE300E312631C034F0D9
:1004B000DADE1200F86AD09E078E1B90C69A400EB4
:1004C000C76E200EC66E949A94889496306A2F6AEE
:1004D0000F01386B396B3A6B3B6B3C6B776A786A10
:1004E000796A000138D690D6010E356E366EA5DEDB
:1004F0001E0EF66E010EF76EDAD62C6A2D6A2E6A83
:100500001BA015D0010E356E020E366E96DE280E3B
:10051000F66E010EF76E060E316EDADE1AC031F09D
:10052000570E326EE4D6200E346E9DDE1B90EA6AC2
:100530001C0EE96E100E016EF76A000EC2DD0A0095
:100540000900F5CFEEFF012EFBD7050E316E100E20
:10055000326E346A1C0E336EEADE326A2C0E316E55
:100560002CDF010E356E020E366E67DE320EF66E31
:10057000010EF76E070E316EABDE2DC031F01B0E93
:10058000326E65DF200E346E6EDE040E316EFA0EB2
:10059000356EFCDD312EFBD7EA6A1C0EE96E100EBB
:1005A000016EF76A000E9EDD0A000900F5CFEEFF2E
:1005B000012EFBD7020E316E050E326E346A1C0E10
:1005C000336EB5DE326A2C0E316EF7DE010E356EFB
:1005D000020E366E32DE3E0EF66E010EF76E070E1E
:1005E000316E76DE2DC031F01B0E326E30DF200E04
:1005F000346E39DE040E316EFA0E356EC7DD312EE3
:10060000FBD7EA6A1C0EE96E100E016EF76A000E47
:1006100074DD0A000900F5CFEEFF012EFBD7130EA3
:10062000316E010E326E346A1C0E336E80DE326A19
:100630002C0E316EC2DE010E356E020E366EFDDD01
:100640004A0EF66E010EF76E070E316E41DE2DC0BA
:1006500031F01B0E326EFBDE200E346E04DE040E13
:10066000316EFA0E356E92DD312EFBD749D7FFD7AA
:020000040030CA
:0E00000000E2193C00BF00000FC00FE00F40EF
:00000001FF
;PIC18F45K22
;CRC=7A1C  CREATED="21-févr.-19 08:54"
