:08000000D858040000000000C4
:04003400A60A000018
:08004000580500009A0B0000B6
:04004C00DA080000CE
:040088007E050000F1
:100200003220EF00C3102000008041001040BA00EF
:100210000160EF0000000600524500005345000059
:100220005420000033320000313600003534000025
:1002300039380000372000000D0000003220EF00A8
:10024000A3122000008041001040BA000160EF00BE
:10025000000006007E4B000050200000312000000E
:100260000D0000003220EF00E31320000080410069
:100270001040BA000160EF00000006007E4B000055
:1002800049200000312000000D0000003220EF0066
:1002900023152000008041001040BA000160EF00EB
:1002A000000006007E4B00004420000031200000CA
:1002B0000D0000003220EF00631620000080410096
:1002C0001040BA000160EF00000006007E4B000005
:1002D00050200000322000000D0000003220EF000E
:1002E000A3172000008041001040BA000160EF0019
:1002F000000006007E4B0000492000003220000074
:100300000D0000003220EF00E318200000804100C3
:100310001040BA000160EF00000006007E4B0000B4
:1003200044200000322000000D0000003220EF00C9
:10033000231A2000008041001040BA000160EF0045
:10034000000006007E4D0000414300002031000007
:10035000200D0000000000003220EF00831B200071
:10036000008041001040BA000160EF00000006006C
:100370007E4D000044450000432000003120000075
:100380000D0000003220EF00E31C2000008041003F
:100390001040BA000160EF00000006007E4D000032
:1003A0004143000020320000200D0000000000004A
:1003B0003220EF00431E2000008041001040BA00B0
:1003C0000160EF00000006007E4D00004445000083
:1003D00043200000322000000D0000003220EF001A
:1003E000630220008301500005003100A32020009B
:1003F000008041001040BA000160EF0000000600DC
:10040000A020200083814100808141001380BA0038
:10041000000006005E4B49005020200031203200D1
:10042000257520005F5E25004B49750020315F0077
:1004300020255E00755F4B005E4B44004420200089
:1004400031203200257520005F5E25004B5075007D
:100450002032200020250D00755F00005E4B00005B
:100460003220EF00E301200083015000050031003D
:10047000C3242000008041001040BA000160EF005A
:1004800000000600C02420008381410080814100DB
:100490001380BA00000006005E4D5F0041435E001D
:1004A00020314D0020254400755F45005E4D43001E
:1004B00044452000432032003120200025752500CE
:1004C0005F5E75004D41200043200D00322000008A
:1004D000257500003220EF006327200000804100D6
:1004E0001040BA000160EF00000006004545000022
:1004F00053410000562000000D0000003220EF00A4
:10050000A3282000008041001040BA000160EF00E5
:10051000000006003F440000520D000000000000F3
:100520003220EF00C3292000008041001040BA00B3
:100530000160EF00000006003F4100002031000094
:100540000D0000003220EF00E32A2000008041006F
:100550001040BA000160EF00000006003F410000BB
:10056000203200000D0000003220EF00032C20009C
:10057000008041001040BA000160EF00000006005A
:1005800021530000203100002025000030340000FD
:10059000755F00002153000020320000202500007C
:1005A00030340000752000000D0000003220EF0004
:1005B000232E2000008041001040BA000160EF00AF
:1005C00000000600215000005220000031200000F1
:1005D000256400005F21000050520000203200001E
:1005E00020250000642000000D0000003220EF00F4
:1005F00023302000008041001040BA000160EF006D
:1006000000000600215300002031000020330000CC
:10061000303000005F210000532000003220000035
:1006200033300000300D0000000000003220EF00E9
:1006300023322000008041001040BA000160EF002A
:100640000000060021500000522000003120000070
:10065000315F0000215000005220000032200000D5
:10066000310D0000000000003220EF0003342000B4
:10067000008041001040BA000160EF000000060059
:1006800021500000522000003120000025300000E1
:10069000376400005F21000050520000203200004B
:1006A0002025000030370000642000000D0000000D
:1006B0003220EF0043362000008041001040BA0095
:1006C0000160EF0000000600214D000053200000F3
:1006D000310D0000000000003220EF0083372000C1
:1006E000008041001040BA000160EF0000000600E9
:1006F000214D000053200000320D000000000000DA
:100700003220EF00C3382000008041001040BA00C2
:100710000160EF00000006005E4D00004D4F00003C
:100720004420000031200000305F00005E4D0000DA
:100730004D4F00004420000032200000300D00002A
:10074000000000003220EF00E33A2000008041006A
:100750001040BA000160EF00000006005E4D00008E
:100760004D4F00004420000031200000335F0000A6
:100770005E4D00004D4F000044200000322000007C
:10078000330D0000000000003220EF00033D200088
:10079000008041001040BA000160EF000000060038
:1007A0004361000072740000652000005072000078
:1007B000696E000063690000706100006C650000F4
:1007C000203A0000204300006F6D00006D610000C2
:1007D0006E64000065200000496E0000636F000039
:1007E0006E6E0000756500000D0000003220EF0005
:1007F00023402000008041001040BA000160EF005B
:1008000000000600214D0000470D00000000000020
:100810003220EF0043412000008041001040BA0028
:100820000160EF00000006005E4D0000444500003E
:10083000432000003120000039300000303000003B
:100840005F5E00004D440000454300002032000080
:100850002039000030300000300D000000000000A2
:100860003220EF00C3432000008041001040BA0056
:100870000160EF000000060021530000203100005D
:10088000203000005F2100005320000032200000D3
:10089000300D0000000000003220EF0083452000F2
:1008A000008041001040BA000160EF000000060027
:1008B0005E4D000044450000432000003120000050
:1008C00036300000303000005F5E00004D44000014
:1008D0004543000020320000203600003030000088
:1008E000300D0000000000003220EF00034820001F
:1008F000008041001040BA000160EF0000000600D7
:10090000215300002031000020250000755F000009
:10091000215300002032000020250000750D00004A
:10092000000000003220EF00E34920000080410079
:100930001040BA000160EF000000060021450000F1
:10094000582000000D000000669BBF000080B20030
:100950000100320008003700681BE20002003A0084
:10096000D682A90001003700D682A800D282A90051
:10097000C004040000000000C004040000000000E7
:1009800000000600851F7800861F7800643BEF009A
:1009900024DB80006120E10042003D0024DB800078
:1009A0006820B8008002780062804200E44821009C
:1009B000040040009002780024DB80006823B80027
:1009C000E44821000400430000027800140078008D
:1009D0000028E1000F003D00641BF800661BF900D1
:1009E0001400200044DB8800A40402000000000082
:1009F00024DB80006820B80080027800628042001A
:100A0000E448210084024000950AE8004C050400F7
:100A10000000000024DB80006820B800800278001D
:100A200062804200E4482100040040009002780007
:100A3000540C20000520E1000E003400641BF80077
:100A4000661BF900683BEF00A404020000000000F0
:100A500024DB80006820B8008002780062804200B9
:100A6000E448210084024000950AE8004C05040097
:100A70000000000024DB80006820B80080027800BD
:100A800062804200E448210084024000804AEB007A
:100A900000C0B30090429800643BEC00C80404001E
:100AA000000000004F037800CF027800000006002D
:100AB0004200F8003600F8003200F800801F78008D
:100AC000200020000C000900B01F78000621EF0074
:100AD000C20402000000000084C0A900A0012000A0
:100AE0000C0009004F1078004F0078003200F90028
:100AF0003600F9004200F900004006004200F8000C
:100B00003600F8003200F800801F78002000200036
:100B10000C000900B01F78001802AE00FEFF37007D
:100B2000E01080003EFBB700B4A880004822DE0041
:100B300003882000830242003E9BBF008042980051
:100B40001775EC00F4D980006D24E10003003A0031
:100B500017D5BF0016F5B7001775EF008700A9007D
:100B6000A00120000C0009004F1078004F00780011
:100B70003200F9003600F9004200F900004006009A
:100B8000851F78000498200014DA8800407BEF006D
:100B900004DA80000960EF0013DA8000048041006D
:100BA000104278006D24E1001400320004DA800065
:100BB0000960EF0013DA80000480410010427800E1
:100BC0006324E1000D00320004DA80000960EF00C8
:100BD00013DA8000048041009042780005407800DC
:100BE0000F22AF00FEFF370010E2B7001162EF00E6
:100BF000407BEC00C80504000000000004DA80001F
:100C00000960EF0013DA8000048041009042780010
:100C1000054078000F22AF00FEFF370010E2B7005A
:100C20001162EF0004DA80000960EF0003982000F1
:100C30008302420004DA80000960EF0013DA8000CA
:100C400004804100904A7800CF027800000006003E
:100C5000851F7800C500200003000900B51F78003B
:100C60000202B80003F0A600020037000383B900B7
:100C7000010037000303B8004200A90085024300C9
:100C800060844B0001F0A60002003700028BB9001F
:100C900001003700020BB80085024B0008844B00AE
:100CA0000980B000038BB90008044B0087834C0017
:100CB000870178000801780085007800040078003A
:100CC0002501200003000900CF127800CF02780030
:100CD00000000600851F7800861F7800871F7800B7
:100CE000603BEF005C3BEF00A4002000F4DA8800DA
:100CF000583BEF005A3BEF00541BE20003003A0060
:100D00000000200001002000E8003700609BBF00C9
:100D1000603BEC008002780005007800541BB400B2
:100D2000B4DA800000429000B4DA8800B4DA8000BF
:100D3000D4C2B2000C003A0014002000E4DA8800AB
:100D4000609BBF00603BEC008002780005007800EB
:100D5000541BB400B4DA800000429000B4DA88007A
:100D6000CA06040000000000B4DA8000B4C2B20079
:100D700008003A00609BBF00603BEC0080027800F6
:100D800005007800541BB400B4DA800000429000E3
:100D9000B4DA8800B4DA800003032000041CE10008
:100DA000B2003C00B4DA800093032000041CE10090
:100DB000AE003500B4DA800004C3B20015003A007A
:100DC000609BBF00541BB4001042780084C7B2007F
:100DD00005003200609BBF00541BB4001042780035
:100DE00084C5B2000B003A0004012000F4DA880048
:100DF000603BEC00609BBF00603BEC008002780031
:100E000005007800541BB400B4DA80000042900062
:100E1000B4DA8800F4DA80006A20E10028003A00A1
:100E2000B4DA800003032000041CE10022003C002F
:100E3000B4DA800093032000041CE1001E0035009A
:100E4000A000200001002000C2DA8000D3DA800078
:100E500028060200000000008002780001037800EC
:100E6000B4DA80000443B1000440780000E0B70029
:100E70000000FB008000EB0000F0A7008080EB008A
:100E80000500400058BBB700068048005ABBB700B9
:100E9000609BBF00603BEC0080027800050078009A
:100EA000541BB400B4DA800000429000B4DA880029
:100EB00010070400000000003608040000000000D5
:100EC000F4DA80007020E10068003A00B4DA8000B3
:100ED00013062000041CE10007003E00B4DA800085
:100EE000A3072000041CE1000300390056DBBF000B
:100EF000F04DB2000100370056DBBF0056FBB700D3
:100F0000B4DA800003032000041CE10005003C006B
:100F1000B4DA800093032000041CE10001003500D6
:100F200008003700B4DA800013042000041CE1003C
:100F30004E003C00B4DA800063042000041CE10091
:100F40004A003500B4DA800003032000041CE100ED
:100F50001B003C00B4DA800093032000041CE10075
:100F60001700350044002000C5DA8000D6DA800082
:100F70000402E8000402E900030032008502D00008
:100F80000683D200FBFF3700B4DA80000443B100CF
:100F90000440780000E0B7000000FB008000EB0098
:100FA00000F0A7008080EB000500400058BBB700B0
:100FB000068048005ABBB700080804000000000083
:100FC00044002000C5DA8000D6DA80000402E80080
:100FD0000402E900030032008502D0000683D2003B
:100FE000FBFF3700B4DA80001444B10004407800FD
:100FF00000E0B7000080FB006A00400005004000F0
:1010000058BBB7000400200006004A005ABBB700D6
:10101000609BBF00603BEC00800278000500780018
:10102000541BB400B4DA800000429000B4DA8800A7
:10103000B4DA800013062000041CE10007003E0023
:10104000B4DA8000A3072000041CE100030039008B
:1010500056DBBF00F04DB2000100370056DBBF0089
:1010600056FBB7008007040000000000F4DA80009F
:101070006A20E1000B003A00E4DA80006120E10020
:1010800008003A0004002000C3DA80000300520088
:1010900058BBB70004002000D3DA800003005A00D8
:1010A0005ABBB700589BBF00D1DA8000CF0378004D
:1010B0004F037800CF02780000000600851F7800FB
:1010C00010C0B30044FBB700457BEF00467BEF0048
:1010D000483BEF004A3BEF004C3BEF004E3BEF003C
:1010E000503BEF00527BEF0024DA80000960EF00F4
:1010F00004007800401BB400104278006324E10033
:101100002A00320024DA80000960EF000400780031
:10111000401BB4001042780004C2B2000D0032003F
:1011200024DA80004822DE0083B4210083024200DA
:1011300024DA80000960EF0004007800401BB4004E
:10114000904A7800447BEC00457BEC008208040068
:101150000000000024DA80004822DE0083B4210071
:1011600083024200804AEB00447BEC00457BEF00A9
:1011700046DBBF000160EF004200DD0014DA8000B2
:101180008402400084B42100A4DA88006A060200C8
:101190000000000004002000B41A7800B41A78009F
:1011A000467BEC007408040000000000CF027800C9
:1011B000000006004200F8003600F8003200F80097
:1011C000801F7800200020000C000900B01F78006C
:1011D000BFD4AF00AA003700BFF4A8000E02AE00D3
:1011E000A70037000E02AE00FEFF3700901080000F
:1011F0003EFBB7002F16AE0007003700F4D9800081
:101200006624E10004003A002F16A900307AEF00AE
:101210003C0A0400000000002F16AE001100370049
:10122000F4D980007524E1000E003A0030DABF00E6
:10123000549E80004822DE000024E10005003600B4
:10124000C005020000000000307AEC002E09040006
:10125000000000002F16A900307AEF003C0A0400BD
:1012600000000000F4D980006224E1000A003A0086
:101270002E56E20008003A00347AEF0034DABF005C
:1012800033FAB70010C0B3002EF6B7002D75EF008B
:101290003C0A040000000000F4D980006324E1004F
:1012A0003F003A0074B180006524E1003C003A0040
:1012B00094D180004822DE006324E1000400320063
:1012C00094D180004822DE006D24E10001003A0044
:1012D000337AEC00A4D180006324E10003003200E3
:1012E000A4D180006D24E10001003A00347AEC00C2
:1012F00033DABF00315AE3001E003A0034DABF008F
:10130000325AE3001B003A0064A980004822DE0044
:10131000E35221008302420030C0B300804A7800CB
:10132000E452210004DA88000463210014DA880002
:101330005E080200000000003096BF00CC13E300FE
:101340000A003A003296BF00CE13E30007003A00CD
:10135000BFD4A80060C0B3000F22AF00FEFF37006B
:1013600010E2B7001162EF002F16A800C4090400B4
:101370000000000050C1B3000F22AF00FEFF370095
:1013800010E2B7001162EF002E76EF002D75EF002E
:10139000307AEF00BFF4A9003C0A0400000000000E
:1013A00074B180006124E10004003A0020C0B30061
:1013B0002EF6B7003C0A04000000000074B1800063
:1013C0006224E10006003A003EDBBF0031FAB700BC
:1013D00030C0B3002EF6B7003C0A04000000000045
:1013E00074B180006324E10004003A0040C0B300FF
:1013F0002EF6B7003C0A04000000000074B1800023
:101400006424E10006003A003EDBBF0032FAB70078
:1014100050C0B3002EF6B7003C0A040000000000E4
:1014200074B180006524E10013003A0033DABF0094
:101430003E5BB40033FAB70034DABF003E5BB40061
:101440000AE0B70064A980004822DE006100420083
:101450000B60EF000028B80034FAB70064A98000E0
:101460004822DE00E3522100830242003E9BBF007F
:10147000804298002D75EC00EE080400000000008A
:101480008520A900A00120000C0009004F10780061
:101490004F0078003200F9003600F9004200F900F0
:1014A00000400600851F7800C500200003000900E9
:1014B000B51F7800090020004300AF00190020008C
:1014C000891F78000002EB008002EB000003EB00B4
:1014D0008003EB00030469001100320008022000C1
:1014E0004200A9000080D2008180D2000482D20094
:1014F0008582D2000328E10001003A0002A0E10049
:10150000030039000202520083825A004200A80000
:101510000683D2008783D2000804E900F0FF3A0076
:101520008700780006007800CF0478000900E0000A
:10153000010032000400BE00250120000300090064
:10154000CF127800CF027800000006004200F800B9
:101550003600F8003200F800801F780020002000DC
:101560000C000900B01F78006228EC004220AF0098
:101570006428EC006608E20002003A006808E20015
:1015800016003200144380003343800003005200F1
:101590006AA8B700244380004343800003005A0038
:1015A0006CA8B7004300A8006A88BF0061438000B0
:1015B000823E200003002000520A020000000000CA
:1015C00080027800010378000500E00003003A0083
:1015D0000600E00001003A006168EC00044380006E
:1015E0004822DE00C4C5B20001003A005A08A80033
:1015F0006608E20002003A006808E2000E003200CD
:101600004300A8006A88BF0061438000929E80006A
:1016100003002000520A020000000000800278004F
:10162000010378000500E00003003A000600E00036
:1016300001003A005A48A8006608E20002003A0099
:101640006808E2000E0032004300A8006A88BF006C
:1016500061438000421F200003002000520A020064
:101660000000000080027800010378000500E0001F
:1016700003003A000600E00001003A005A88AA0080
:10168000BFF4AE000D0037003A3AEC00CAD3BF00F9
:101690000160EF00D4D180000020E1000500390096
:1016A0002E76EF002D75EF00307AEF002F16A9008F
:1016B000BFF4A900600B0400000000003A3AEF00FC
:1016C0006608E20002003A006808E2000600320004
:1016D000044380004822DE0083052000041CE10052
:1016E00001003E005A28A8006608E20002003A0005
:1016F0006808E20006003200044380004822DE0051
:10170000C3052000041CE10001003E005A08A800A7
:101710008460A900A00120000C0009004F1078008F
:101720004F0078003200F9003600F9004200F9005D
:10173000004006004200F8003600F8003200F800D1
:10174000801F7800200020000C000900B01F7800E6
:101750005A68AE00010037002F36AA0084E0A900C5
:10176000A00120000C0009004F1078004F00780005
:101770003200F9003600F9004200F900004006008E
:10178000881F78002801200004000900B81F780095
:101790008005EB006066B8000304780087047800D9
:1017A000FA7F20004200A9004220A90044C4DE00C4
:1017B000080465000800E000710032004200A90042
:1017C0004220A900C4CCDE00890465000900E000C5
:1017D0006B0032000884440009B0A7000400370001
:1017E000F83FB100660032006500390003003700A1
:1017F0001A4020008542450061003100878669005B
:101800004200A9004220A900F300B2000340A0005A
:10181000F700B2000740A000881F78000124B8003C
:10182000002DB8000A0544008B854C000C80B000E8
:101830000224B8008B0544000C864C00012CB80033
:101840000005EB008B0544000C864C000A80B000BC
:101850000034B8008B0544000C864C000A80B000B0
:101860008005EB000324B8000C0644000A854C00F8
:101870000B80B000022CB8000C0644000A854C0016
:101880000B80B0000134B8000C0644000A854C00FF
:101890000B80B000003CB8000C0644000A854C00E8
:1018A0000B80B0000C0078000006EB00032CB800A1
:1018B0000A0544008B854C000C80B0000234B8004F
:1018C0000A0544008B854C000C80B0000334B8003E
:1018D0008B0544000C864C00013CB8000A0544000E
:1018E0008B854C000C80B000023CB8008B05440096
:1018F0000C864C00033CB8000C0644008A007800BB
:101900000B0178008C017800540020004200A900EF
:101910008381D3000281D3008180D3000080D30073
:101920000402E900F9FF3A004F0478000804E800D7
:101930000103700001003200020037000303710050
:10194000080032000340A700060037004200A9004B
:101950000080D2008180D2000281D2008381D20037
:101960000804E9004444DD0003F0A1000DF0A700E5
:1019700003F0A0000340A10083016C0003003700C6
:101980006000B8006001B80000003700A801200026
:10199000040009004F1478004F047800000006008E
:1019A000881F78002801200004000900B81F780073
:1019B000878669000304780087047800FA7F200096
:1019C0004200A9004220A90044C4DE0008046500CA
:1019D0000800E0006C0032004200A9004220A9008B
:1019E000C4CCDE00890465000900E0006600320016
:1019F0000005EB000906540003003900FC3FB0006D
:101A000061003100040037001B4020000B06560027
:101A10005D0039005C0032000004EB008004EB0044
:101A20000005EB008005EB00F301B2000340A000CD
:101A3000F701B2000740A0008C1F78006C03200063
:101A40000400500085805800060159008781590024
:101A5000020033000600310006003A000400400096
:101A60008580480006014900878149000100370050
:101A70000800A0000C06E9000B0032004200A9009B
:101A80000080D2008180D2000281D2008381D20006
:101A90004200A9000884D2008984D2000A85D200BD
:101AA0008B85D200E6FF37004F0678000B50A70069
:101AB00001003700060037004200A9008B85D300E3
:101AC0000A85D3008984D3000884D300030037003B
:101AD0000C06E9004200A9002B0032004200AF00D2
:101AE000090037000080D2008180D2000281D2003C
:101AF0008381D200040250008582580006035900F9
:101B000087835900150039000804E80013003A00E3
:101B10008904E80011003A000A05E8000F003A00C5
:101B20008B05E8000D003A000C06E80016003200B4
:101B30000A0037000C06E900130032000B40A70032
:101B4000060037004200A9000884D2008984D20030
:101B50000A85D2008B85D200F8FF37004466DD008D
:101B60004200A9000CF0A1000DF0A7000CF0A000AD
:101B70000B40A1008B016E000A01780089007800FB
:101B80000800780005003700000020000100200058
:101B9000020020000300200000003700A801200000
:101BA000040009004F1478004F047800000006007C
:101BB000F0FF2F000862AE000500370009C2AF0039
:101BC000FEFF37001110880009C2AF00FEFF37008A
:101BD0000000200009E2AF000000E800000006005D
:101BE00040DABF003FFAB70041DABF0046FAB7005B
:101BF00042DABF0047FAB70043DABF0048FAB7003D
:101C000044DABF0049FAB70045DABF004AFAB70024
:101C10000862AE00040037000622A8000622AF00CA
:101C2000FEFF3700030037000602A8000602AF00DF
:101C3000FEFF37003EDABF0002E0B700D80D020019
:101C4000000000000004E0001D003A0071C3B30072
:101C5000D80D0200000000003FDABF00804078008D
:101C6000D80D02000000000046DABF0002E0B70015
:101C7000D80D02000000000047DABF008040780065
:101C8000D80D02000000000048DABF0002E0B700F3
:101C9000D80D02000000000049DABF008040780043
:101CA000D80D0200000000004ADABF0002E0B700D1
:101CB000D80D020000000000720E040000000000B9
:101CC000F00120000602B600FDFF3A000642A8001F
:101CD0000642AF00FEFF370020C0B30000E0B700AF
:101CE00008003700F00120000602B600FDFF3A00B0
:101CF0000642A8000642AF00FEFF370010C0B30046
:101D000000E0B700000006000000E0004220AF0045
:101D1000060037001B0E090000000000FE3F09000E
:101D2000000000000000E900FAFF3A000000060091
:101D300040DABF003FFAB70041DABF0048FAB70007
:101D400042DABF0049FAB70043DABF004AFAB700E7
:101D500044DABF004BFAB70045DABF004CFAB700CF
:101D600046DABF004DFAB70047DABF004EFAB700B7
:101D70000862AE00040037000622A8000622AF0069
:101D8000FEFF3700030037000602A8000602AF007E
:101D9000FEFF37003EDABF0002E0B700D80D0200B8
:101DA000000000000004E00025003A0091C2B300EA
:101DB000D80D0200000000003FDABF00804078002C
:101DC000D80D02000000000048DABF0002E0B700B2
:101DD000D80D02000000000049DABF008040780002
:101DE000D80D0200000000004ADABF0002E0B70090
:101DF000D80D0200000000004BDABF0080407800E0
:101E0000D80D0200000000004CDABF0002E0B7006D
:101E1000D80D0200000000004DDABF0080407800BD
:101E2000D80D0200000000004EDABF0002E0B7004B
:101E3000D80D020000000000320F04000000000076
:101E4000F00120000602B600FDFF3A000642A8009D
:101E50000642AF00FEFF370020C0B30000E0B7002D
:101E600008003700F00120000602B600FDFF3A002E
:101E70000642A8000642AF00FEFF370010C0B300C4
:101E800000E0B70000000600046C23000416880080
:101E9000C222EF00C403200034168800C822EF00DD
:101EA000CC22EF00CE22EF00D222EF00D422EF00AE
:101EB00044012000F4168800E022EF00C400200056
:101EC00024178800E622EF00F40028003410880070
:101ED0000421EF0004E22400140888000400280014
:101EE000240888001221EF0024A12700740888002C
:101EF00004022800940888008C60A8008CE0A800E8
:101F00008F00A80081E0A9004220EF0081E0A80036
:101F100000CCB3003EFAB700840C200004D2880045
:101F20001400200014D28800443AEF00F00D0200A3
:101F30000000000020CCB3003EFAB700840C200063
:101F400004D288001400200014D28800443AEF0024
:101F5000F00D020000000000A0002000840E02002E
:101F60000000000000CCB3003EFAB7008438210026
:101F700004D288008438210014D28800843E2000D6
:101F800024D28800C41C210034D28800980E02009C
:101F90000000000020CCB3003EFAB70084382100D6
:101FA00004D288008438210014D28800047D2000E7
:101FB00024D28800463AEF00980E0200000000008C
:101FC00040CCB3003EFAB7008438210004D2880028
:101FD0008438210014D28800843E200024D2880056
:101FE000463AEF00980E020000000000A00020001A
:101FF000840E020000000000000006008D20A800F2
:10200000000006004ADABF0070E8B7005B48A8008D
:1020100000000600851F7800861F78003E7AEF00DA
:102020003E7AEF003E5AE20014003A003EDABF006A
:102030000160EF00C302DD00E44821000483420098
:10204000004BEB0000C0B300104398003EDABF0025
:102050000160EF00C302DD0062804200E44821001D
:1020600084024000804AEB0000C0B3009042980018
:102070003E7AEC0012100400000000001021EF0076
:10208000547B20006408880004002800840888002D
:102090008CC0A8004F037800CF0278000000060033
:1020A000851F7800861F780004D280006920E10037
:1020B00002003D009400200004D2880004D2800079
:1020C0007420E100020034004401200004D28800A2
:1020D000F4D180006820B80080027800E448210034
:1020E0000483420004D28000040398008CC0A8003E
:1020F000401F2000840E0200000000008CC0A900D8
:102100004F037800CF027800000006000862AE009E
:10211000040037000622A8000622AF00FEFF3700A9
:10212000030037000602A8000602AF00FEFF3700DA
:1021300001C2B300D80D02000000000001C1B300CD
:10214000D80D0200000000003EDABF0002E0B70038
:10215000D80D0200000000003FDABF008040780088
:10216000D80D02000000000040DABF0002E0B70016
:10217000D80D02000000000001C4B300D80D020019
:1021800000000000F00120000602B600FDFF3A004A
:102190000642A8000642AF00FEFF3700000006001E
:1021A000F0FF2F000862AE001100370032108000EF
:1021B0007F016100FDFF3A000662A8000100A70050
:1021C00006A2A9000100A60006A2A8003210800005
:1021D0007F016100FDFF3A000682A8000822AE00E0
:1021E000FEFF37000082BF0008C2AF0008C2A9008E
:1021F00000000600851F7800557AEF00567AEF0040
:102200000862AE00040037000622A8000622AF00D4
:10221000FEFF3700030037000602A8000602AF00E9
:10222000FEFF370054DABF000000FB00E10240006F
:1022300085407800D80D02000000000056FAB70073
:1022400056DABF000000FB000000E00006003A0084
:102250008040EB00D01002000000000055FAB700EB
:10226000381104000000000050C0B30055FAB70058
:10227000F00120000602B600FDFF3A000642A80069
:102280000642AF00FEFF370055DABF00CF027800EC
:1022900000000600851F78004B7AEF004ADABF0085
:1022A00054FAB700FA100200000000006104E100D7
:1022B0003C0032000862AE00040037000622A8008D
:1022C0000622AF00FEFF3700030037000602A80019
:1022D0000602AF00FEFF37004ADABF000000FB0035
:1022E000E102400085407800D80D020000000000A7
:1022F0004BFAB7004BDABF000000FB000000E00023
:102300001D003A0011C0B300D01002000000000010
:1023100011C0B300D0100200000000004CFAB7005A
:1023200011C0B300D0100200000000004DFAB70049
:1023300011C0B300D0100200000000004EFAB70038
:102340008040EB00D0100200000000004FFAB70000
:102350004FDABF0053FAB7004EDABF0052FAB700A7
:102360004DDABF0051FAB7004CDABF0050FAB7009F
:10237000C211040000000000503AEF0004002800E1
:1023800094D28800F00120000602B600FDFF3A005A
:102390000642A8000642AF00FEFF3700D811040035
:1023A0000000000050BAEF00F4FF270094D288002C
:1023B000509ABF0091D28000CF0278000000060042
:1023C000851F7800861F78004EDABF000000FB00F2
:1023D000E7026000C52ADD004DDABF000000FB0007
:1023E000610360004430DD00850240004FDABF0029
:1023F0000000FB0067006000050040005CFAB700C9
:1024000050DABF0056FAB70051DABF0057FAB700EA
:1024100052DABF0058FAB70053DABF0059FAB700D2
:1024200054DABF005AFAB70055DABF005BFAB700BA
:102430000862AE00040037000622A8000622AF00A2
:10244000FEFF3700030037000602A8000602AF00B7
:10245000FEFF37004CDABF0002E0B700D80D0200E3
:10246000000000000004E00021003A0081C4B30035
:10247000D80D0200000000005CDABF0002E0B700E7
:10248000D80D02000000000056DABF0002E0B700DD
:10249000D80D02000000000057DABF00804078002D
:1024A000D80D02000000000058DABF0002E0B700BB
:1024B000D80D02000000000059DABF00804078000B
:1024C000D80D0200000000005ADABF0002E0B70099
:1024D000D80D0200000000005BDABF0080407800E9
:1024E000D80D0200000000008A1204000000000065
:1024F000F00120000602B600FDFF3A000642A800E7
:102500000642AF00FEFF370020C0B30000E0B70076
:1025100008003700F00120000602B600FDFF3A0077
:102520000642A8000642AF00FEFF370010C0B3000D
:1025300000E0B7004F037800CF02780000000600EB
:10254000851F78000862AE00040037000622A8004C
:102550000622AF00FEFF3700030037000602A80086
:102560000602AF00FEFF37004ADABF0002E0B70004
:10257000D80D0200000000000004E0000A003A004C
:1025800055D28000C82ADE00C42ADD00F082620035
:10259000E182420085407800D80D02000000000072
:1025A000E612040000000000F00120000602B60060
:1025B000FDFF3A000642A8000642AF00FEFF3700CA
:1025C00020C0B30000E0B70008003700F001200091
:1025D0000602B600FDFF3A000642A8000642AF0020
:1025E000FEFF370010C0B30000E0B700CF02780054
:1025F00000000600851F7800861F7800C2E2AF0049
:1026000009003700BED4BF000000FB000000E0005E
:1026100005003A0010C0B30000E0B70044003700E6
:102620009813040000000000BED4BF000000FB00AF
:102630006100E10027003200BF14AF000A0037003C
:1026400000CCB3004AFAB7004A11020000000000B3
:10265000BAB4B700E1A5880040012000840E020052
:1026600000000000BF14A80080512100BA14B4007B
:102670008002780000002000BC94B40000037800C1
:1026800000CCB3004CFAB7004D7AEF0010C0B30095
:102690004EFAB70010C0B3004FFAB7009A14F80012
:1026A000501AF90095D28800A6D28800E0110200E5
:1026B00000000000BEF4B70040012000840E0200BC
:1026C000000000000060EF001900370098130400BC
:1026D00000000000C2E2AF0013003700BE74EF003C
:1026E000BF14A90000CCB3004AFAB7004B7AEF0040
:1026F000A012020000000000F49D80006820E100AC
:1027000003003A005BC8A9008A130400000000001F
:102710005BC8A80010C0B30000E0B7000400370099
:1027200098130400000000000060EF000000370074
:102730004F037800CF02780000000600C942A800CD
:10274000C962A8004B5AE2000800320000002F00C6
:10275000C822B700C942A900C962A900C942A8009D
:10276000C962A800F0130400000000004ADABF00AC
:102770000000FB0000027800A30020001100090007
:102780000302D800A4B4B7004ADABF000000FB007F
:1027900000027800A3002000110009000302D80005
:1027A00001007800A6B4B700A494BF004C00DD007F
:1027B000A4B4B700A694BF004C00DD00A6B4B700D7
:1027C000C942A900A414F800C802F900C942A8002F
:1027D000C962A900A614F800C802F900C962A800DD
:1027E00000000600851F7800861F7800483AEF0039
:1027F00046DABF0054FAB700FA10020000000000E9
:10280000C7F4B70040012000840E02000000000061
:10281000C7D4BF000160EF000080B2000B0032009F
:102820001080B200110032003080B2002F00320060
:102830001080B200B20032007080B2009C01320001
:102840001080B200BA013200D80137007F68EF0073
:10285000C034EF00C234EF0010C0B30000E0B70096
:10286000D2013700D61704000000000034D28000E7
:1028700004CCB20007003A00A0C0B3004AFAB70087
:102880004B7AEF009E130200000000006E1404005B
:102890000000000034D2800024CCB20007003A00CF
:1028A000B0C0B3004AFAB7004B7AEF009E130200A3
:1028B000000000006E1404000000000034D280000C
:1028C00044CCB20005003A00C0C0B3004AFAB700D9
:1028D0004B7AEF009E130200000000000060EF0042
:1028E000B2013700D61704000000000034D2800087
:1028F00004CCB2006D003A00BF34AF00690037006D
:10290000C8D4BF000160EF000080B20003003200B5
:102910001080B2002E00320060003700BF54AF00BC
:102920000B00370000CCB3004AFAB7004B7AEF0037
:10293000A01202000000000000CCB3004AFAB70069
:102940004A1102000000000048BAB700BF54A800B6
:1029500044A680004822DE006124E1001700320016
:1029600044D28000A40FB1008402780000CCB300F0
:102970004CFAB70010C0B3004DFAB70010C0B30056
:102980004EFAB70010C0B3004FFAB7009C14F8001D
:10299000501AF90095D288000002EB0053FAAF00FC
:1029A0000082EB00A4D28800E011020000000000C9
:1029B000C9F4B700E414040000000000C974EF007B
:1029C000C874EC00BF54A9004E15040000000000BC
:1029D00000CCB30054FAB700FA1002000000000067
:1029E000C7F4B700C754E2002A003A00BF54AF0052
:1029F0000D00370044D28000A40FB10044D28800FB
:102A0000489ABF008000EB0000F0A7008080EB0038
:102A1000F4A480000000520004A5800081005A0048
:102A2000C4B4B700BF54A80044A680004822DE000A
:102A30006124E10016003200489ABF00C414B400BB
:102A40008002780000CCB3004CFAB7004D7AEF005A
:102A500010C0B3004EFAB70010C0B3004FFAB70071
:102A60009C14F800501AF90095D288000002EB007F
:102A700053FAAF000082EB00A4D28800E0110200FC
:102A800000000000C9F4B7004A150400000000006F
:102A9000BF34A8004E150400000000007C140400A0
:102AA00000000000761504000000000034D2800011
:102AB00024CCB20006003A00B0C0B3004AFAB70016
:102AC0000210020000000000761504000000000063
:102AD00034D2800044CCB20004003A00C0C0B3003D
:102AE0004AFAB7000210020000000000BF34A9003B
:102AF0000060EF002D013700D61704000000000031
:102B000034D2800004CCB20007003A0000C1B30008
:102B10004AFAB7004B7AEF009E1302000000000053
:102B2000B81504000000000034D2800024CCB200AC
:102B300007003A0010C1B3004AFAB7004B7AEF0021
:102B40009E13020000000000B81504000000000001
:102B500034D2800044CCB20005003A0020C1B3005A
:102B60004AFAB7004B7AEF009E1302000000000003
:102B7000C014E20008003A00C214E20006003A0065
:102B80006A08F800C014F9006C08F800C214F900D3
:102B900050170400000000005443800003A680008A
:102BA000830252006443800013A6800003035A008E
:102BB0006030E100BA00390003003E000454800098
:102BC0000520E100B6003E00C034EF00C234EF0043
:102BD00034D2800004CCB2002D003A0000CCB30007
:102BE0004AFAB7004A1102000000000048BAB700D4
:102BF000489ABF008000EB0000F0A7008080EB0047
:102C0000F4A480008402500004A5800004835800CE
:102C10000500E00002003A000600E0001A00320061
:102C2000489ABF008000EB0000F0A7008080EB0016
:102C3000F4A480000000520004A5800081005A0026
:102C4000C4B4B70000CCB3004CFAB7004D7AEF0023
:102C500010C0B3004EFAB70010C0B3004FFAB7006F
:102C60009C14F800501AF900C414F800521AF90024
:102C70000002EB0053FAAF000082EB00A4D2880000
:102C8000E011020000000000141704000000000022
:102C900034D2800024CCB20041003A00544380007A
:102CA0001354800083025200644380002354800048
:102CB00003035A00445480000620E1003600390026
:102CC00003003E00345480000520E100320036004D
:102CD000544380001354800003005200644380007A
:102CE0002354800083005A003454800000005200B6
:102CF00086AAB7004454800001005A0088AAB70091
:102D0000849E80004822DE006124E10012003A0027
:102D100020CCB3004CFAB70010C0B3004DFAB70096
:102D200020C0B3004EFAB70030C0B3004FFAB7006E
:102D30004406200084D28800860AF800521AF9005E
:102D4000880AF800541AF900E0110200000000009F
:102D5000CC1604000000000020CCB3004CFAB700F1
:102D600010C0B3004DFAB70020C0B3004EFAB70050
:102D700030C0B3004FFAB7009401200084D288001D
:102D8000860AF800521AF900880AF800541AF90065
:102D9000E011020000000000141704000000000011
:102DA00034D2800044CCB2001F003A00A214AE001E
:102DB0000F00370040CCB3004CFAB7004D7AEF005B
:102DC00020C0B3004EFAB7004F7AEF00440620004F
:102DD00084D28800840C200094D28800543AEF00FA
:102DE000E0110200000000001417040000000000C1
:102DF00040CCB3004CFAB70010C0B3004DFAB70096
:102E000020C0B3004EFAB7004F7AEF00440620000E
:102E100084D28800840C200094D28800543AEF00B9
:102E2000E011020000000000C674EC007FC8BF0083
:102E300034A680000024E1001900360034D280005E
:102E400004CCB20006003A00D0C0B3004AFAB70082
:102E500002100200000000005017040000000000F3
:102E600034D2800024CCB20006003A00E0C0B300A7
:102E70004AFAB700021002000000000050170400D8
:102E80000000000034D2800044CCB20004003A00BC
:102E9000F0C0B3004AFAB7000210020000000000C0
:102EA0000060EF0041003700D6170400000000006A
:102EB00034D2800004CCB20007003A00D0C0B30086
:102EC0004AFAB7004B7AEF009E13020000000000A0
:102ED000901704000000000034D2800024CCB2001F
:102EE00007003A00E0C0B3004AFAB7004B7AEF009F
:102EF0009E13020000000000901704000000000074
:102F000034D2800044CCB20005003A00F0C0B300D7
:102F10004AFAB7004B7AEF009E130200000000004F
:102F20000060EF0021003700D61704000000000009
:102F300034D2800004CCB20006003A0000C1B300D5
:102F40004AFAB7000210020000000000CE17040089
:102F50000000000034D2800024CCB20006003A0009
:102F600010C1B3004AFAB7000210020000000000CE
:102F7000CE1704000000000034D2800044CCB20020
:102F800006003A0020C1B3004AFAB700021002005E
:102F900000000000CE170400000000000060EF00F9
:102FA00002003700D6170400000000004F0378002D
:102FB000CF02780000000600447AEF00B8D4BF00CA
:102FC0000000FB000080B200050032001080B2005B
:102FD000260032003080B20048003200570037002F
:102FE000C4A580004822DE006124E1001400320004
:102FF00020CCB3004CFAB7004D7AEF0020C0B300EC
:103000004EFAB70030C0B3004FFAB70044062000B4
:1030100084D28800440B200094D28800543AEF00F8
:10302000E011020000000000B9F4B70050002000D9
:10303000840E0200000000003218040000000000AE
:1030400020C0B300B8F4B700440620003454880010
:10305000882AEF006A08F800820AF9006C08F80074
:10306000840AF9009E18040000000000C4A5800036
:103070004822DE006124E1001400320020CCB300BD
:103080004CFAB7004D7AEF0020C0B3004EFAB700FB
:1030900030C0B3004FFAB7002403200084D2880068
:1030A000841B200094D28800543AEF00E011020003
:1030B00000000000B9F4B70050002000840E0200A8
:1030C000000000007E1804000000000044062000FC
:1030D00034548800882AEF006A08F800820AF90050
:1030E0006C08F800840AF900B974EF00B874EF00B6
:1030F00010C0B30000E0B7001100370020CCB300CF
:1031000046FAB700F21302000000000044FAB700CC
:1031100024D280006124E10006003A0010C0B30010
:10312000B8F4B70050002000840E02000000000038
:10313000B974EF009E180400000000000060EF006A
:1031400000000600851F780004D280008313200051
:103150000320B8008002780014D280007820B800E4
:1031600085024000A4A8200004804200901F78003F
:10317000B213F90004D28000831320000320B800AA
:103180008002780014D280007820B80085024000C8
:1031900062804200A4A8200004004000901F780034
:1031A000B413F90004D28000831320000320B80078
:1031B0008002780014D280007820B8008502400098
:1031C00064804200A4A8200004004000901F780002
:1031D000B613F90004D28000831320000320B80046
:1031E0008002780014D280007820B8008502400068
:1031F00066804200A4A8200004004000901F7800D0
:10320000B813F90004D28000831320000320B80013
:103210008002780014D280007820B8008502400037
:1032200068804200A4A8200004004000901F78009D
:10323000BA13F90004D28000831320000320B800E1
:103240008002780014D280007820B8008502400007
:103250006A804200A4A8200004004000901F78006B
:10326000BC13F90004D28000831320000320B800AF
:103270008002780014D280007820B80085024000D7
:103280006C804200A4A8200004004000901F780039
:10329000BE13F90004D28000831320000320B8007D
:1032A0008002780014D280007820B80085024000A7
:1032B0006E804200A4A8200004004000901F780007
:1032C000C013F90004D28000831320000320B8004B
:1032D0008002780014D280007820B8008502400077
:1032E00070804200A4A8200004004000901F7800D5
:1032F000C213F90004D28000831320000320B80019
:103300008002780014D280007820B8008502400046
:1033100072804200A4A8200004004000901F7800A2
:10332000C413F90004D28000831320000320B800E6
:103330008002780014D280007820B8008502400016
:1033400074804200A4A8200004004000901F780070
:10335000C613F90004D28000831320000320B800B4
:103360008002780014D280007820B80085024000E6
:1033700076804200A4A8200004004000901F78003E
:10338000C813F9005B68AE002D003700B693BF008C
:103390000080B200030032001080B2001100320041
:1033A00025003700949D8000430B20000418E100A5
:1033B00006003500440B2000939D8000030052005E
:1033C000B2B3B700EE19040000000000C4212000D1
:1033D000939D800003005200B2B3B700201A04008E
:1033E00000000000E4438000939D80000300520031
:1033F000B2B3B700D49D80006120E10004003A0020
:1034000024002000D49D8800181A04000000000049
:10341000D49D80006220E10004003A0014002000E6
:10342000D49D8800181A040000000000BA33EF0091
:10343000201A040000000000201A04000000000010
:10344000CF0278000000060001002F0083814000B9
:10345000F1072000E0804800910188000500A100EC
:103460000500E00003003200331ABA008582E9004B
:10347000FCFF3A0000000600851F7800861F7800D8
:103480004A3AEF004C3AEF004E3AEF00503AEF0064
:103490004C1AE20042003A0053A5800004002000CC
:1034A00025002000241A02000000000050BAB700D6
:1034B00054A58000E2024200851F78008501780053
:1034C0000400200025002000241A02000000000053
:1034D000CF0278004EBAB70084D28000F3FF2F00ED
:1034E0000418E1002A0032004A3AEF0054D280006A
:1034F0007820E1001F00310084D280008313200077
:103500000320B8008002780074D280007820B800D0
:103510008502400056D280004133DE004130DD009C
:1035200005004000A4A820008402400054D280007E
:103530006403420006007800AA14B4000003780077
:10354000851F7800860178000400200025002000F7
:10355000241A020000000000CF027800800A7800E0
:1035600054D28000620042004ABAB700761A0400C2
:103570000000000054A580007C004200AAB4B700FF
:10358000501AF800D413F900CC1A0400000000000F
:103590001400200064D28800481A040000000000D3
:1035A0004F037800CF02780000000600851F7800E6
:1035B000C500200003000900B51F78000002780054
:1035C0008102780002037800830378000000EB009A
:1035D0008000EB000001EB008001EB000800A1007F
:1035E00007F0A600080037000800A0008783EA0063
:1035F0000683EA008582EA000402EA00E0824A00CB
:1036000060034B00E0834B008504720002003A0027
:103610008704730015003200394720000340A700DB
:103620000B0037004200A9000482D2008582D2003C
:103630000683D2008783D2000080D2008180D2002E
:103640000281D2008381D2008904E900F3FF3A00AD
:10365000C44CDD004200A90009F0A1000340A10014
:1036600083816C000800A70003F0A0002501200062
:1036700003000900CF127800CF0278000000060096
:10368000851F7800861F7800871F7800881F7800C4
:10369000033220000400200025002000241A02002C
:1036A00000000000D8B4B70023322000040020003E
:1036B00025002000241A020000000000DAB4B70040
:1036C000433220000400200025002000241A0200BC
:1036D00000000000DCB4B700C382AE001200370067
:1036E000E4438000C3A6800003005200D8B4B700B2
:1036F000E4A68000430B20000418E100060035001A
:10370000440B2000E3A6800003005200DCB4B700A5
:10371000941B040000000000C4212000E3A68000E8
:1037200003005200DCB4B700DC94BF008001EB0062
:1037300000F0A7008081EB0083007800030178008F
:10374000D61A02000000000084D122004544250062
:10375000B61F220097002400C00B020000000000EA
:103760008002780001037800820378000304780067
:10377000851F7800861F7800871F78000500780075
:103780008600780007017800880178000400200096
:10379000050020000600280067062400D00C020067
:1037A00000000000CF0378004F037800CF027800BC
:1037B000E6B4B70041A7880052A7880063A7880035
:1037C0004F047800CF0378004F037800CF027800D1
:1037D00000000600881F780028012000040009006E
:1037E000B81F7800080028004300AF0087036C0072
:1037F0000000E00007003A000100E00005003A0088
:103800000200E00003003A00FAFF27000A85610089
:103810004220AE00030578008A856B00030478001F
:103820008704780007067800FD7F20004220A90069
:103830004200A90044C4DE00088466000800E000DD
:10384000BC0032004220A9004200A900C4CCDE0026
:10385000898466000900E000BE0032008006EB00AB
:103860004220A9004200A9000848E100BA00320045
:10387000C10033000D00A1000D10A0000884540009
:10388000F300B2000340A000F700B2000740A00020
:103890004803B10016003B004803B0004220A900D5
:1038A0004200A9008381D3000281D3008180D3002C
:1038B0000080D3000804E900F8FF3A001400370044
:1038C0004803B1000F003B004803B0004220A900AC
:1038D0004200A9008783D3000683D3008582D300EA
:1038E0000482D3000804E900F8FF3A001B00370007
:1038F00004007800850078000601780087017800D0
:103900000C866D000CF0A7000BF0A20079003700C8
:103910000BF0A6001F0037000D40A7008C057800B3
:103920000080EA008180EA000281EA0083C1EA00A7
:10393000F341B2000000E80005003A008100E80011
:1039400003003A000201E80001003A008341E80068
:103950000D40A700320037000E0037000BF0A60024
:103960000C0037000482EA008582EA000683EA0040
:1039700087C3EA00F741B2000402E80005003A00FC
:103980008502E80003003A000603E80001003A005F
:103990008743E8004220A9004200A900040040003B
:1039A000858048000601490087C149000350A700EF
:1039B0000D30A0000D00A700090037000D10A70072
:1039C000010037000B0037000BF0A7001400370090
:1039D0000D30A700290037000D60A000210037003E
:1039E0000BF0A7000E0037000D30A70023003700B2
:1039F0001C0037000BF0A700040037008A05780090
:103A00000D30A7001D0037003A0037000D40A00020
:103A100003C1B2000340A700BFFF37008A0578004A
:103A2000F301B2000284710002003A0000847000C9
:103A30000C0032000340A7000A0037004220A90012
:103A40004200A9000080D2008180D2000281D20011
:103A50008381D2008904E9004220AF0032003700A0
:103A6000F4FF37000D00A7008A0578000D10A700AD
:103A70008C0578000D50A6001E0037004200A900FA
:103A800083C1D3000281D3008180D3000080D300A2
:103A90004200AF000D50A0008904E8004220AF00B2
:103AA000210037000D50A6000E0037000000E8008E
:103AB0000C003A008100E8000A003A000201E80028
:103AC00008003A008301E80006003A0083C1D300F1
:103AD0000281D3008180D3000080D3008904E800F4
:103AE000110032000D00A7008A0578000D10A70014
:103AF0008C0578000102700002003A000302710098
:103B0000260032000340A1004220A9004200A90083
:103B1000C44CDD0083816C0003F0A0000BF0A60014
:103B200003F0A1001D0037006000B8006011B8006C
:103B30001A003700080028000AF0A70087036C006D
:103B4000850078000400780006017800870178007D
:103B50001200370011003700F700B2000740A00044
:103B6000F300B2000340A0000BF0A7000740A10043
:103B70000D20A00079FF3700F300B2000340A00041
:103B8000F700B2000740A000090454008904440073
:103B90000D10A1000D00A00049FF3700A801200072
:103BA000040009004F1478004F047800000006005C
:103BB000881F7800891F78008A1F78008784690031
:103BC00009F0A600060037004200A9004220A90023
:103BD00003F0A600340037004200A800320037008E
:103BE000FA7F2000030478008704780044C4DE00D4
:103BF00008046500C4CCDE00890465000885540013
:103C00000500320003F0A600270037001000200056
:103C100042E0B600240037000304780087047800EF
:103C2000F301B200F701B2000340A1000740A10078
:103C300003C553000500320008F0A6001A00370043
:103C40001000200042E0B6001700370002055300C4
:103C50000500320008F0A600130037001000200015
:103C600042E0B60010003700018552000500320026
:103C700008F0A6000C0037001000200042E0B6005B
:103C800009003700000552000500320008F0A600C8
:103C9000050037001000200042E0B60002003700A7
:103CA0004200A900000037004F057800CF047800DB
:103CB0004F04780000000600851F7800861F7800FA
:103CC00003027800030378004200A90044A2DE004A
:103CD000F57F20000482620003003A006000B80013
:103CE0000001EB00130037000438B100F300B2000C
:103CF000370020004200A9000080D2008180D2005D
:103D00000281D2008381D2008703E900F9FF3A00E3
:103D100001007800820078000370A1000480FD009B
:103D20004200A9000482D30006F0A70004F0A0001E
:103D300003016A004F037800CF02780000000600FC
:103D4000851F7800861F7800871F7800038268002F
:103D500004F0A600060037004200A9004220A90096
:103D600001F0A600260037004200A800240037001A
:103D70000102780080027800030378008203780053
:103D80008180D2000180FD008381D2000380FD008C
:103D900081C051000500320004F0A6001800370071
:103DA0001000200042E0B600150037008440780083
:103DB000864178000170A1000370A10081C051000C
:103DC0000500320004F0A6000D00370010002000AE
:103DD00042E0B6000A00370085805300050032003B
:103DE00004F0A600060037001000200042E0B600F4
:103DF000030037004200A90001003700000037002F
:103E0000CF0378004F037800CF027800000006004F
:103E10000001780081017800014078000080FD00F9
:103E200000F0A0008180D2000180FD008180FB00B5
:103E3000E408200081405200060032000000E0004B
:103E4000040032004200A9000080D3008100E90094
:103E5000FAFF3A0003F0A600020037000000EA0073
:103E60000000370000000600851F7800861F7800DC
:103E7000E10820000000E0001200320000F0A7007E
:103E8000040037004200A9000080D2008100E90050
:103E9000FAFF37000180FD004200A9008180D300B5
:103EA00000F0A1000080FD00814068000040B200E9
:103EB00007003700014078000170A0000140B20007
:103EC000030037000000EB008000EB00000037002B
:103ED0004F037800CF02780000000600851F7800AD
:103EE000C500200004000900B51F7800000278001A
:103EF0008102780083037800020378004200A90061
:103F00004220A9008180D2000180FD00F10FB200A3
:103F10000100E0004B0032004200A9004220A9004D
:103F20008381D2000380FD00F30FB2000300E000A4
:103F3000440032000080FB0001C041000400310059
:103F4000F007B1003F0032003E00390002003700A8
:103F50001048B0003B00310007856A004200A9000C
:103F60004220A900F50FB2000570A0004200A90090
:103F7000F70FB2000770A0000621B800062CB800A9
:103F800083014C00890078004200AF008100E80006
:103F90004200A900043CB80083014C0081804C0021
:103FA000072CB80081004C000000E8000100E00090
:103FB0004220AF0001003700030037000300E0009B
:103FC0004220AF000500370001F0A70003003700D2
:103FD0008381D2008180D2000000E90001017800D5
:103FE0004200A9000370A6000900370007F02F0067
:103FF000878161000310B000600149000200E00009
:1040000003003A000300E00001003A000000E8006D
:104010000080FD004200A9004220A9008080D3005A
:104020000AF0A70001F0A00002F0A1000280FD004C
:10403000814069000380FD000341780002007800A0
:1040400003003700000020000100200000003700BE
:104050004501200004000900CF127800CF0278004B
:1040600000000600851F7800C5002000030009003D
:10407000B51F78008004EB00080028004300AF0063
:1040800083016C000000E00003003A00FAFF270003
:104090000A8560004220AE00010578008A8569002B
:1040A0000103780083037800030678004220A9000A
:1040B0004200A9000683D2000680FD00F60FB20080
:1040C0000600E000A10032004220A9004200A90041
:1040D0008783D2000780FD00F70FB2000700E000E1
:1040E0009F0032004220A9004200A9000638E100EA
:1040F0009C003200A30033000900A1000910A000B9
:104100000684530007037800F10FB2000170A0008D
:10411000F30FB2000370A000870220000838E1000E
:10412000110033004220A9004200A9008180D30081
:104130000080D3000804E900FAFF3A000D003700C0
:10414000870220000838E100090033004220A9005E
:104150004200A9008381D3000281D3000804E90052
:10416000FAFF3A000F003700020078008300780061
:10417000430037000BF0A600110037000940A700EC
:104180008C0578000000EA000200320081C0EA00DD
:10419000010037008100EA000940A7002B0037002A
:1041A000070037000BF0A600050037000201EA0007
:1041B0000200320083C1EA00010037008301EA00F7
:1041C000F50FB2004220A9004200A9000200400001
:1041D00083C048004200AF000930A0000900A700DA
:1041E000090037000910A700010037000B00370055
:1041F0000BF0A700150037000930A7002900370091
:104200000960A0001E0037000BF0A7000F00370068
:104210000930A70023003700190037000920A1004A
:104220000BF0A700040037008A0578000930A700CA
:104230001C003700360037000940A00001C8B2005A
:104240000170A700CDFF37008A057800F10FB2009A
:10425000810370000A0032000170A70008003700D7
:104260004220A9004200A9000080D2008180D20033
:104270000603E9004220AF0031003700F6FF3700A7
:104280000900A7008A0578000910A7008C057800AE
:104290000950A6001A0037000AF0A7000080A0000D
:1042A0001B0037004200A80081C0D3000080D3006B
:1042B0004200AF000950A0000603E80020003200D1
:1042C0000950A600080037000000E80006003A0088
:1042D0008140E80004003A0081C0D3000080D30090
:1042E0000603E800160032000900A7008A057800DE
:1042F0000910A7008C0578004220AF00100037009D
:104300000960A7008A0578000970A7008C0578006D
:1043100001017000230032000170A1000680FD0041
:104320004220A9004200A9000683D30081006B004F
:1043300001F0A0000BF0A60001F0A1001900370069
:104340000000200001002000160037000AF0A7003E
:1043500083016C00020078008300780011003700B0
:1043600010003700F30FB2000370A000F10FB2008D
:104370000170A0000BF0A7000370A1000920A000AD
:1043800088FF370007045300F10FB2000170A0004E
:10439000F30FB2000370A0000910A1000900A000F3
:1043A00067FF37002501200003000900CF127800C5
:1043B000CF02780000000600851F7800861F780075
:1043C000971AA900921AF800981AF900941AF8009E
:1043D0009A1AF900929ABF00A1D48000020020002E
:1043E00003002000A01E02000000000006003900AB
:1043F000971AA80080A9210081A9210003000900C3
:10440000B01878009BFAAA00989ABF00D1D4800017
:104410000200200003702400A01E02000000000023
:10442000010031000A003A00989ABF00D1D4800000
:10443000081F020000000000341F020000000000FE
:104440009CBAB700F1D48800BC2204000000000030
:10445000989ABF00D1D480000268290083B124005B
:10446000A01E0200000000003F003900989ABF0023
:10447000D1D4800002002000038023006E1F0200C0
:1044800000000000081F020000000000A0BAB700F2
:10449000989ABF00D1D4800002002000038023003E
:1044A0006E1F020000000000800278000103780007
:1044B000A09ABF00341F0200000000004300A800C3
:1044C00000017800810178000500780086007800FE
:1044D0003220020000000000000178008101780015
:1044E00000002000017024006E1F02000000000088
:1044F00098BAB700D1D48800A09ABF00341F020038
:104500000000000000017800810178000000200018
:10451000017024006E1F0200000000009CBAB7006A
:10452000F1D48800989ABF00D1D48000081F0200FF
:1045300000000000341F0200000000004300A9003A
:1045400000017800810178009C9ABF00F1D48000BE
:1045500032200200000000009CBAB700F1D48800AD
:10456000BC22040000000000981AF8009C1AF90010
:104570009A1AF8009E1AF900989ABF00D1D48000C8
:10458000081F020000000000341F020000000000AD
:104590004300A8000001780081017800989ABF00CC
:1045A000D1D48000322002000000000098BAB70089
:1045B000D1D48800971AAE0005003700C0A92100A9
:1045C000C1A9210003000900B01878009FFAAA00D1
:1045D000989ABF00D1D48000020020000300200080
:1045E000A01E0200000000001B003200971AAE005F
:1045F0000B003700965AE20009003A004300A80079
:104600009C9ABF00F1D480000200200003F8230030
:1046100032200200000000009CBAB700F1D48800EC
:10462000971AAF000C003700B4D480006124E10079
:1046300009003A004300A9009C9ABF00F1D4800011
:104640000200200003F823003220020000000000D6
:104650009CBAB700F1D48800929ABF00A1D4800020
:104660000200200003002000A01E02000000000045
:1046700002003A009C3AEF009E3AEF009C9ABF007D
:10468000F1D480004F037800CF02780000000600CC
:10469000967AEF00881AF800921AF9008A1AF80040
:1046A000941AF900DC210200000000000000BE00A6
:1046B0000000060010C0B30096FAB700881AF80090
:1046C000921AF9008A1AF800941AF900DC21020003
:1046D000000000000000BE0000000600851F7800FA
:1046E0008102780000017800640B20008180D200F4
:1046F0000180FD00F10FB2000142520085417800B7
:104700000370A000F30FB2000000EB008000EB008C
:104710007820E1000F0033004200A9008381D3001C
:104720000281D3008180D3000080D3000402E9001D
:10473000F9FF3A0005F0A600060037000000EA0085
:10474000020032008180EA00020037008100EA00A6
:1047500000003700CF02780000000600801AF80041
:10476000881AF900821AF8008A1AF9004823020010
:10477000000000004300A8000001780081017800DB
:10478000809ABF0011D48000322002000000000097
:1047900084BAB70031D488000000200001F0230063
:1047A00022D4800033D48000A01E0200000000004C
:1047B000010031000C003A00801AF800881AF90054
:1047C000821AF8008A1AF9005A2302000000000039
:1047D0006E230200000000000000BE000C00370045
:1047E0000824040000000000801AF800881AF9006C
:1047F000821AF8008A1AF90048230200000000001B
:104800006E230200000000000000BE000000370020
:1048100000000600851F7800C50020000300090085
:10482000B51F7800800378008404780004F0A100AC
:104830000400E00006003A0009F0A700020037007B
:104840000500200011003700050020000F00370090
:10485000E64252000C0039000003200009F0A600D7
:1048600000022000801F78001922AF00FEFF3700F1
:104870001AA2B7004F0078008502E900F9FF3B005B
:1048800055002000010037008402780064002000F9
:1048900005E0A00009F0A70005F0A00008712200C3
:1048A000110009008883D80088240200000000005D
:1048B00081037800883E2000110009008883D80019
:1048C00088240200000000008103780048062000D0
:1048D000110009008883D80088240200000000002D
:1048E00081037800A8002000110009008883D80007
:1048F00088240200000000000003200000C04000E7
:104900001922AF00FEFF37001AA2B70017003700C8
:10491000060320000000E0000E003A0005E0A600BB
:104920000D0037000402E9000524E1000200320016
:104930004200AF00000006000000E00005003A0061
:1049400005E0A6000400370005F0A60006022000DE
:104950000100370005E0A100004043001922AF002C
:10496000FEFF37001AA2B700000006002501200054
:1049700003000900CF127800CF0278000000060083
:10498000861F7800871F7800881F7800891F7800AD
:104990000002EB008002EB000003EB008003EB0061
:1049A0000304690011003200080220004200A9003F
:1049B0000080D2008180D2000482D2008582D200A1
:1049C0000328E10001003A0002A0E10003003900E1
:1049D0000202520083825A004200A8000683D200DD
:1049E0008783D2000804E900F0FF3A0087007800CE
:1049F00006007800CF0478004F047800CF037800D9
:104A00004F03780000000600851F7800C5002000D5
:104A100007000900B51F780001F0A6000700370065
:104A20000000EA000100320002003A008100EA00C2
:104A3000010037008180EA000480A0008002EB00C2
:104A400000037800810378000406780004F0A100D8
:104A50000404E00001003A001A003700EB42520063
:104A600018003900054252000CF0A6000B00370078
:104A70000480A60007003700D00220001922AF00F2
:104A8000FEFF37001AA2B7000480A1008502E900EA
:104A90000C0033000003200001003700000220005A
:104AA000801F78001922AF00FEFF37001AA2B7005E
:104AB0004F0078008502E900F9FF3B000480A70061
:104AC0000442E900E8002000090020001000FA007C
:104AD0000C377C000884E900FDFF3B00840278006D
:104AE000A40020000580A7000402E80005E0A00063
:104AF0000CF0A70005F0A0000504E0000100320062
:104B00008542E900040F7800150798000600780038
:104B10008700780002A02C00A3B9230008712200AE
:104B20000DF0A1004300A900C02402000000000015
:104B30000DF0A2000DF0A700070037004007980015
:104B40005107980000017800810178002E00900044
:104B5000BE009000F3FF370042079800530798000B
:104B600024079800350798001E0278009E029000E6
:104B7000060320000000E00011003A0005E0A60056
:104B8000110037000402E900040F78000400E0007F
:104B90000D0032000524E100020032004200AF00A7
:104BA0001800370005F0A600030037000580A600B6
:104BB0001000370007003700060220000D00370004
:104BC00005E0A100150798009E0290000580A60050
:104BD000080037000580A10015079800000578003F
:104BE000D00220001922AF00FEFF37001AA2B70042
:104BF0000A007800004043001922AF00FEFF370092
:104C00001AA2B7004E009000DE009000A200200023
:104C10008001EB006100E10001003200C1FF3700BC
:104C20000080FA00A501200007000900CF127800DB
:104C3000CF02780000000600851F7800861F7800EC
:104C4000871F7800881F7800423AEF00443AEF004F
:104C5000463AEF00483AEF004A3AEF004C3AEF008C
:104C60004E3AEF00503AEF00523AEF00543AEF005C
:104C7000563AEF00583AEF005A3AEF005C3AEF002C
:104C8000409ABF008001EB0000F0A7008081EB009C
:104C90008300780003017800D61A020000000000AB
:104CA00074A8800085A8800096A88000A7A880002E
:104CB000C00B0200000000008002780001037800B1
:104CC00082037800030478004300A800851F780061
:104CD000861F7800871F780005007800860078001E
:104CE000070178008801780034A7800045A780007C
:104CF00056A7800067A78000EA1B020000000000A2
:104D0000CF0378004F037800CF02780042BAB70093
:104D100021D2880032D2880043D28800D49D8000FE
:104D20006220E1001C003A00000020000100200089
:104D3000020020000300200014D2800025D2800051
:104D400036D2800047D28000D81D0200000000004B
:104D5000110039004300A900429ABF0021D280000F
:104D600032D2800043D2800084D122004544250005
:104D7000B61F220097012C00EA1B02000000000071
:104D800042BAB70021D2880032D2880043D28800CC
:104D90000627040000000000D49D80006120E1008F
:104DA0001A003A00429ABF0021D2800032D280001D
:104DB00043D28000040020000500200006002000EF
:104DC00007002000D81D0200000000000F0039007D
:104DD0004300A900429ABF0021D2800032D2800055
:104DE00043D2800084D1220045442500B61F220012
:104DF00097012400EA1B02000000000042BAB7003D
:104E000021D2880032D2880043D2880080D122008B
:104E100041442500B21F22009300240014D28000D8
:104E200025D2800036D2800047D28000D81D0200F3
:104E30000000000013003900BA13E20011003A002C
:104E40004300A800429ABF0021D2800032D28000E5
:104E500043D2800084D1220045442500B61F2200A1
:104E600097012400EA1B02000000000042BAB700CC
:104E700021D2880032D2880043D288007A270400E9
:104E800000000000429ABF0021D2800032D2800090
:104E900043D2800084D1220045442500B61F220061
:104EA00097002C00D81D02000000000011003900FE
:104EB000BA13E2000F003A004300A900429ABF0073
:104EC00021D2800032D2800043D2800084D12200DF
:104ED00045442500B61F220097012400EA1B02006A
:104EE0000000000042BAB70021D2880032D2880008
:104EF00043D28800D0322400C1B12E00226E23009C
:104F0000A3F12B0014D2800025D2800036D280007D
:104F100047D28000D81D0200000000000F003900B9
:104F2000429ABF0021D2800032D2800043D280005A
:104F3000D4322400C5B12E00266E2300A7F1230031
:104F4000D81D02000000000004003900423AEF00C2
:104F5000443AEF00463AEF00483AEF00FE94BF00B3
:104F600001A8800012A8800023A8800074A78000F8
:104F700085A7800096A78000A7A78000D00C02001C
:104F8000000000000002780081027800020378002F
:104F900083037800429ABF0021D2800032D2800081
:104FA00043D28000C00B02000000000080027800A5
:104FB000010378008203780003047800851F7800DD
:104FC000861F7800871F780005007800860078002B
:104FD0000701780088017800B4A78000C5A7800089
:104FE000D6A78000E7A78000C00B020000000000E9
:104FF000CF0378004F037800CF027800800278005A
:10500000010378008203780003047800851F78008C
:10501000861F7800871F78000500780086007800DA
:1050200007017800880178000400200005002000B6
:105030000600200007002400C00B02000000000052
:10504000CF0378004F037800CF0278008002780009
:10505000010378008203780003047800851F78003C
:10506000861F7800871F780005007800860078008A
:10507000070178008801780084D12200454425008A
:10508000B61F220097002400D00C02000000000090
:10509000CF0378004F037800CF02780056BAB700EC
:1050A000C1D28800D2D28800E3D28800569ABF00CD
:1050B000C1D28000D2D28000E3D280005C1E020008
:1050C00000000000810278000203780005D4880007
:1050D00016D48800AE230200000000004ABAB700D0
:1050E00061D2880001002000010078000160EF001B
:1050F000B4020200000000008100E8001922AF00A5
:10510000FEFF37001AA2B700400020000008E600AA
:10511000F5FF3700BC93BF00440028000A240200BA
:105120000000000091002000010078000160EF0005
:10513000B4020200000000008100E8001922AF0064
:10514000FEFF37001AA2B700E00020000008E600CA
:10515000F5FF3700BC93BF00440028000A2402007A
:10516000000000001922AF00FEFF370004022000FB
:10517000D41088001922AF00FEFF3700D4002000B1
:10518000D41088005B28A9004A1AF8004E1AF900CA
:105190004C1AF800501AF9000400200053D2800085
:1051A0000300520052BAB7000400200063D280000E
:1051B00003005A0054BAB700010020000100780033
:1051C0000160EF00D6020200000000008100E8004C
:1051D0001922AF00FEFF37001AA2B70050002000CE
:1051E0000008E600F5FF37004E9ABF0081D280002C
:1051F00004002000042502000000000081002000BF
:10520000010078000160EF00D602020000000000FB
:105210008100E8001922AF00FEFF37001AA2B70094
:10522000E00020000008E600F5FF3700529ABF00BA
:10523000A1D280000400200004250200000000002C
:105240001922AF00FEFF370004022000D4108800AE
:105250001922AF00FEFF3700D4002000D4108800D0
:105260005B88A800409ABF008001EB0000F0A70017
:105270008081EB008300780003017800D61A0200D9
:105280000000000074A8800085A8800096A8800017
:10529000A7A88000C00B020000000000E6B4B70021
:1052A00041A7880052A7880063A788004F047800B0
:1052B000CF0378004F037800CF027800000006008B
:1052C000851F7800861F7800871F7800D09ABF005E
:1052D00091D68000A2D68000B3D6800004002000C2
:1052E000050020000600200007002000D81D020055
:1052F000000000000100310005003A00000020001D
:10530000010020000200200003002000760037008A
:10531000D01AF800D81AF900D21AF800DA1AF900EF
:10532000D41AF800DC1AF900D61AF800DE1AF900CF
:10533000E4AD210044D78800E89ABF00901F7800B0
:10534000EA1AF900E89ABF00901F7800EC1AF900F9
:10535000A4AE210014F0A10055D78000C42ADE00BD
:10536000F43F200004804200EABAB700EA3AD500D0
:1053700055D78000C42ADD0000FF2F000500600023
:10538000EABAB700EDFAAE0002003700A4AE210081
:1053900014F0A000EC9ABF006F006000ECBAB700F8
:1053A000EC9ABF00EABAB60045D7800054D7800017
:1053B00084029800D81AF800E01AF900DA1AF80006
:1053C000E21AF900DC1AF800E41AF900DE1AF80013
:1053D000E61AF900D09ABF0091D68000A2D68000CC
:1053E000B3D68000C4D68000D5D68000E6D6800033
:1053F000F7D68000D00C0200000000004300A90096
:1054000000027800810278000203780083037800AC
:10541000D89ABF00D1D68000E2D68000F3D68000B3
:10542000EA1B020000000000D8BAB700D1D68800FD
:10543000E2D68800F3D68800E89ABF00901F780073
:10544000EA1AF900E89ABF00901F7800EC1AF900F8
:10545000A4AE210014F0A100EA9ABF004400DE00CF
:10546000EABAB700EA3AED0055D78000C42ADD0059
:1054700000FF2F0005006000EABAB700EDFAAE00A9
:1054800002003700A4AE210014F0A000EC9ABF0087
:105490006F006000ECBAB700EC9ABF00EABAB60041
:1054A00045D7800054D7800084029800E09ABF005E
:1054B00011D7800022D7800033D78000C4D6800067
:1054C000D5D68000E6D68000F7D68000D81D020031
:1054D00000000000B7FF3A00E09ABF0011D780003B
:1054E00022D7800033D78000CF0378004F037800A5
:1054F000CF02780000000600851F7800C50020005C
:1055000005000900B51F78000304780082037800C5
:105510000103780080027800830478003B47200074
:10552000C499DE00FA7F2000830165008385550061
:10553000F801B2000840A0000000EB008000EB0082
:105540000001EB008001EB004200A9000884D300B9
:105550008783D3000683D3008582D3008381D30061
:105560000281D3008180D3000080D3008B05E90045
:10557000F5FF3A0009F0A600090037000080EA00B4
:105580008180EA000281EA008381EA000000E800ED
:105590000180B0000280B0000380B000000037003E
:1055A0006501200005000900CF127800CF027800C5
:1055B00000000600851F7800861F7800871F78008E
:1055C000881F7800A71AA9009E1AF800A81AF900E7
:1055D000A01AF800AA1AF900A21AF800AC1AF900E9
:1055E000A41AF800AE1AF9009E9ABF0001D58000F7
:1055F00012D5800023D58000040020000500200083
:105600000600200007002000D81D02000000000056
:1056100006003900A71AA80080AA210081AA21004B
:1056200007000900B0187800AFFAAA0000002000B7
:10563000010020000200200003FE230044D580006A
:1056400055D5800066D5800077D58000D81D020032
:1056500000000000300039004300A80000002000D6
:10566000010020000200200003FF230044D5800039
:1056700055D5800066D5800077D58000EA1B0200F2
:1056800000000000800278000103780082037800A7
:1056900003047800851F7800861F7800871F780034
:1056A00005007800860078000701780088017800FE
:1056B00004002000050020000600200007FE230053
:1056C000C00B020000000000CF0378004F037800F9
:1056D000CF0278008002780001037800820378000E
:1056E0000304780085D6880096D68800A7D688005F
:1056F000B8D688006029020000000000A8BAB700F0
:1057000051D5880062D5880073D5880034D58000D3
:1057100062404200A6FAB700A89ABF0051D58000A7
:1057200062D5800073D5800044D5800055D58000B7
:1057300066D5800077D58000C00B02000000000015
:10574000C0BAB70011D6880022D6880033D68800A8
:10575000F893BF00D19F8000E29F8000F39F8000FC
:1057600004D6800015D6800026D6800037D680006B
:10577000C00B0200000000008002780001037800E6
:1057800082037800030478004300A900851F780095
:10579000861F7800871F7800050078008600780053
:1057A0000701780088017800849F8000959F800021
:1057B000A69F8000B79F8000EA1B02000000000047
:1057C000CF0378004F037800CF027800B0BAB7005B
:1057D00091D58800A2D58800B3D58800B09ABF00C3
:1057E00091D58000A2D58000B3D5800004D680007A
:1057F00015D6800026D6800037D68000C00B020068
:105800000000000080027800010378008203780025
:10581000030478004300A900851F7800861F7800E4
:10582000871F78000500780086007800070178005F
:1058300088017800449F8000559F8000669F80000B
:10584000779F8000EA1B020000000000CF03780071
:105850004F037800CF027800B0BAB70091D5880026
:10586000A2D58800B3D58800B09ABF0091D580003A
:10587000A2D58000B3D5800004D6800015D6800064
:1058800026D6800037D68000C00B02000000000042
:105890008002780001037800820378000304780016
:1058A0004300A900851F7800861F7800871F7800B5
:1058B00005007800860078000701780088017800EC
:1058C000049F8000159F8000269F8000379F8000E6
:1058D000EA1B020000000000CF0378004F037800AD
:1058E000CF027800B0BAB70091D58800A2D5880061
:1058F000B3D58800B09ABF0091D58000A2D58000B2
:10590000B3D5800004D6800015D6800026D680004E
:1059100037D68000C00B0200000000008002780033
:105920000103780082037800030478004300A90093
:10593000851F7800861F7800871F78000500780093
:10594000860078000701780088017800C49E8000F6
:10595000D59E8000E69E8000F79E8000EA1B020034
:1059600000000000CF0378004F037800CF027800DA
:10597000B0BAB70091D58800A2D58800B3D5880009
:105980002094BF0011A1800022A1800033A18000DB
:1059900004D6800015D6800026D6800037D6800039
:1059A000C00B0200000000008002780001037800B4
:1059B00082037800030478004300A900851F780063
:1059C000861F7800871F7800050078008600780021
:1059D0000701780088017800C4A08000D5A080006D
:1059E000E6A08000F7A08000EA1B02000000000093
:1059F000CF0378004F037800CF027800B8BAB70021
:105A0000D1D58800E2D58800F3D58800B89ABF00C8
:105A1000D1D58000E2D58000F3D5800004D6800087
:105A200015D6800026D6800037D68000C00B020035
:105A300000000000800278000103780082037800F3
:105A4000030478004300A900851F7800861F7800B2
:105A5000871F78000500780086007800070178002D
:105A60008801780084A0800095A08000A6A0800016
:105A7000B7A08000EA1B020000000000CF037800FE
:105A80004F037800CF027800B8BAB700D1D58800AC
:105A9000E2D58800F3D58800B89ABF00D1D5800040
:105AA000E2D58000F3D5800004D6800015D68000B2
:105AB00026D6800037D68000C00B02000000000010
:105AC00080027800010378008203780003047800E4
:105AD0004300A900851F7800861F7800871F780083
:105AE00005007800860078000701780088017800BA
:105AF00044A0800055A0800066A0800077A08000B0
:105B0000EA1B020000000000CF0378004F0378007A
:105B1000CF027800B8BAB700D1D58800E2D58800A6
:105B2000F3D58800B89ABF00D1D58000E2D58000B7
:105B3000F3D5800004D6800015D6800026D68000DC
:105B400037D68000C00B0200000000008002780001
:105B50000103780082037800030478004300A90061
:105B6000851F7800861F7800871F78000500780061
:105B700086007800070178008801780004A0800082
:105B800015A0800026A0800037A08000EA1B02003C
:105B900000000000CF0378004F037800CF027800A8
:105BA000B8BAB700D1D58800E2D58800F3D588000F
:105BB000B89ABF00D1D58000E2D58000F3D580002F
:105BC00004D6800015D6800026D6800037D6800007
:105BD000C00B020000000000800278000103780082
:105BE00082037800030478004300A900851F780031
:105BF000861F7800871F78000500780086007800EF
:105C000007017800880178000400200005002000CA
:105C10000600200007FF2300EA1B0200000000002E
:105C2000CF0378004F037800CF027800B8BAB700EE
:105C3000D1D58800E2D58800F3D58800A89ABF00A6
:105C400051D5800062D5800073D5800084D5800056
:105C500095D58000A6D58000B7D58000C00B020086
:105C600000000000800278000103780082037800C1
:105C700003047800851F7800861F7800871F78004E
:105C80000500780086007800070178008801780018
:105C9000C4D58000D5D58000E6D58000F7D580003A
:105CA000D00C020000000000CF0378004F03780002
