:0800000020AC04000000000028
:04003400E20A0000DC
:0800400084050000D40B000050
:04004C00080900009F
:04008800AA050000C5
:100200003220EF00C3102000008041001040BA00EF
:100210000160EF00000006003F440000520D0000A6
:10022000000000003220EF00E311200000804100B8
:100230001040BA000160EF00000006003F410000DE
:10024000203100000D0000003220EF0003132000D9
:10025000008041001040BA000160EF00000006007D
:100260003F410000203200000D0000003220EF006E
:1002700023142000008041001040BA000160EF000C
:10028000000006005E4D00004D4F000044200000BD
:1002900031200000305F00005E4D00004D4F000037
:1002A0004420000032200000300D0000000000005B
:1002B0003220EF0043162000008041001040BA00B9
:1002C0000160EF00000006005E4D00004D4F000091
:1002D0004420000031200000335F00005E4D00002C
:1002E0004D4F00004420000032200000330D00007C
:1002F000000000003220EF00631820000080410061
:100300001040BA000160EF00000006002153000019
:10031000203100002025000030340000755F00000F
:10032000215300002032000020250000303400005E
:10033000752000000D0000003220EF00831A20001D
:10034000008041001040BA000160EF00000006008C
:1003500021500000522000003120000025640000E0
:100360005F210000505200002032000020250000D4
:10037000642000000D0000003220EF00831C2000EC
:10038000008041001040BA000160EF00000006004C
:1003900021530000203100002031000030300000E7
:1003A0005F210000532000003220000031300000A7
:1003B000300D0000000000003220EF00831E2000FE
:1003C000008041001040BA000160EF00000006000C
:1003D000215000005220000031200000315F000059
:1003E000215000005220000032200000310D00009A
:1003F000000000003220EF00632020000080410058
:100400001040BA000160EF0000000600215000001B
:100410005220000031200000253000003764000029
:100420005F21000050520000203200002025000013
:1004300030370000642000000D0000003220EF0083
:10044000A3222000008041001040BA000160EF00AC
:1004500000000600214D000053200000310D000077
:10046000000000003220EF00E32320000080410064
:100470001040BA000160EF0000000600214D0000AE
:1004800053200000320D0000000000003220EF0079
:1004900023252000008041001040BA000160EF00D9
:1004A00000000600524500005345000054200000A3
:1004B0003332000031360000353400003938000096
:1004C000372000000D0000003220EF00032720003D
:1004D000008041001040BA000160EF0000000600FB
:1004E0007E4B000050200000312000000D00000075
:1004F0003220EF0043282000008041001040BA0065
:100500000160EF00000006007E4B00004920000063
:10051000312000000D0000003220EF008329200070
:10052000008041001040BA000160EF0000000600AA
:100530007E4B000044200000312000000D00000030
:100540003220EF00C32A2000008041001040BA0092
:100550000160EF00000006007E4B0000502000000C
:10056000322000000D0000003220EF00032C20009C
:10057000008041001040BA000160EF00000006005A
:100580007E4B000049200000322000000D000000DA
:100590003220EF00432D2000008041001040BA00BF
:1005A0000160EF00000006007E4B000044200000C8
:1005B000322000000D0000003220EF00832E2000CA
:1005C000008041001040BA000160EF00000006000A
:1005D0007E4D00004143000020310000200D00004E
:1005E000000000003220EF00E32F200000804100D7
:1005F0001040BA000160EF00000006007E4D0000D0
:100600004445000043200000312000000D000000A0
:100610003220EF0043312000008041001040BA003A
:100620000160EF00000006007E4D00004143000025
:1006300020320000200D0000000000003220EF00FA
:10064000A3322000008041001040BA000160EF009A
:10065000000006007E4D00004445000043200000DD
:10066000322000000D0000003220EF006302200065
:100670008301500005003100033520000080410057
:100680001040BA000160EF000000060000352000B5
:1006900083814100808141001380BA000000060080
:1006A0005E4B49005020200031203200257520008B
:1006B0005F5E25004B49750020315F0020255E00FC
:1006C000755F4B005E4B4400442020003120320017
:1006D000257520005F5E25004B50750020322000FC
:1006E00020250D00755F00005E4B00003220EF00FA
:1006F000E301200083015000050031002339200070
:10070000008041001040BA000160EF0000000600C8
:100710002039200083814100808141001380BA008C
:10072000000006005E4D5F0041435E0020314D0039
:1007300020254400755F45005E4D43004445200080
:100740004320320031202000257525005F5E7500B2
:100750004D41200043200D0032200000257500008F
:100760003220EF00C33B2000008041001040BA005F
:100770000160EF0000000600454500005341000005
:10078000562000000D0000003220EF00033D200045
:10079000008041001040BA000160EF000000060038
:1007A00021530000203100002025000030370000D8
:1007B000645F00002153000020320000202500006B
:1007C00030370000642000000D0000003220EF00F0
:1007D000233F2000008041001040BA000160EF007C
:1007E00000000600436100007274000065200000F4
:1007F00050720000696E00006369000070610000C3
:100800006C650000203A0000204300006F6D00007E
:100810006D6100006E64000065200000496E0000FC
:10082000636F00006E6E0000756500000D00000033
:100830003220EF0043422000008041001040BA0007
:100840000160EF0000000600214D0000470D000090
:10085000000000003220EF006343200000804100D0
:100860001040BA000160EF00000006005E4D00007D
:1008700044450000432000003120000039300000D2
:10088000303000005F5E00004D4400004543000032
:10089000203200002039000030300000300D000010
:1008A000000000003220EF00E345200000804100FE
:1008B0001040BA000160EF00000006002153000064
:1008C00020310000203000005F2100005320000094
:1008D00032200000300D0000000000003220EF0048
:1008E000A3472000008041001040BA000160EF00E3
:1008F000000006005E4D000044450000432000005B
:100900003120000036300000303000005F5E000013
:100910004D44000045430000203200002036000016
:1009200030300000300D0000000000003220EF00E9
:10093000234A2000008041001040BA000160EF000F
:100940000000060021530000203100002025000097
:10095000755F0000215300002032000020250000B8
:10096000750D0000000000003220EF00034C200055
:10097000008041001040BA000160EF000000060056
:1009800021450000582000000D000000BC9DBF0064
:100990000080B2000100320008003700BE1DE200F6
:1009A00002003A00D682A90001003700D682A800D2
:1009B000D282A900E204040000000000E204040066
:1009C0000000000000000600851F7800861F7800E8
:1009D000B83DEF00C4ED80006120E10047003D001C
:1009E000C4ED80006820B80080027800E2824200F6
:1009F0000500780044572100040040009002780070
:100A0000C4ED80006823B80044572100040043006F
:100A100000027800140078000028E10010003D007A
:100A2000B81DF800BC1DF90014002000F4ED88008A
:100A3000C604020000000000C4ED80006820B80079
:100A400080027800E28242000500780044572100CD
:100A500084024000950AE8007805040000000000C8
:100A6000C4ED80006820B80080027800E282420075
:100A700005007800445721000400400090027800EF
:100A8000540C20000520E1000F003400B81DF800D0
:100A9000BC1DF900BE3DEF00C604020000000000CE
:100AA000C4ED80006820B80080027800E282420035
:100AB000050078004457210084024000950AE800B0
:100AC0007805040000000000C4ED80006820B80034
:100AD00080027800E282420005007800445721003D
:100AE00084024000804AEB0000C0B30090429800AE
:100AF000B83DEC00EA040400000000004F03780059
:100B0000CF027800000006004200F8003600F8002E
:100B10003200F800801F7800200020000C0009003F
:100B2000B01F78000621EF00E4040200000000007E
:100B300084C0A900A00120000C0009004F1078001B
:100B40004F0078003200F9003600F9004200F90049
:100B5000004006004200F8003600F8003200F800BD
:100B6000801F7800200020000C000900B01F7800D2
:100B70001802AE00FEFF3700E01080008CFDB700C9
:100B800054AE80004822DE00238820008302420009
:100B90008C9DBF0080429800CB75EC0064EC800017
:100BA0006D24E10003003A00CBD5BF00CAF5B700C1
:100BB000CB75EF008700A900A00120000C00090000
:100BC0004F1078004F0078003200F9003600F9002D
:100BD0004200F90000400600851F7800249820009C
:100BE00094EC8800947DEF00A4EC80000960EF0095
:100BF00093EC800004804100104278006D24E100F5
:100C000014003200A4EC80000960EF0093EC800037
:100C100004804100104278006324E1000D0032009E
:100C2000A4EC80000960EF0093EC80000480410098
:100C300090427800054078000F22AF00FEFF370099
:100C400010E2B7001162EF00947DEC00F40504009F
:100C500000000000A4EC80000960EF0093EC80002D
:100C60000480410090427800054078000F22AF00D8
:100C7000FEFF370010E2B7001162EF00A4EC800025
:100C80000960EF002398200083024200A4EC80005A
:100C90000960EF0093EC800004804100904A7800E6
:100CA000CF02780000000600851F7800C5002000F4
:100CB00003000900B51F78000202B80003F0A60087
:100CC000020037000383B900010037000303B800B6
:100CD0004200A9008502430060844B0001F0A60099
:100CE00002003700028BB90001003700020BB80088
:100CF00085024B0008844B000980B000038BB900CB
:100D000008044B0087834C008701780008017800B5
:100D10008500780004007800250120000300090008
:100D2000CF127800CF02780000000600851F7800FF
:100D3000861F7800871F7800B63DEF00B23DEF00B8
:100D4000A4002000A4ED8800AE3DEF00B03DEF0010
:100D5000AC1DE20003003A0000002000010020006A
:100D6000E9003700B69DBF00B63DEC008002780078
:100D700005007800AC1DB400C4ED80000042900076
:100D8000C4ED8800C4ED8000D4C2B2000C003A006B
:100D90001400200094ED8800B69DBF00B63DEC0025
:100DA0008002780005007800AC1DB400C4ED80001E
:100DB00000429000C4ED8800F60604000000000028
:100DC000C4ED8000B4C2B20008003A00B69DBF0076
:100DD000B63DEC008002780005007800AC1DB40040
:100DE000C4ED800000429000C4ED8800C4ED800096
:100DF00003032000041CE100B3003C00C4ED8000AC
:100E000093032000041CE100AF003500C4ED800016
:100E100004C3B20015003A00B69DBF00AC1DB4007B
:100E20001042780084C7B20005003200B69DBF00B2
:100E3000AC1DB4001042780084C5B2000B003A002B
:100E400004012000A4ED8800B63DEC00B69DBF0073
:100E5000B63DEC008002780005007800AC1DB400BF
:100E6000C4ED800000429000C4ED8800A4ED800035
:100E70006A20E10028003A00C4ED8000030320004E
:100E8000041CE10022003C00C4ED8000930320001C
:100E9000041CE1001E003500A0002000010020001D
:100EA00072ED800083ED8000540602000000000017
:100EB0008002780001037800C4ED80000443B10093
:100EC0000440780000E0B7000000FB008000EB0069
:100ED00000F0A7008080EB0005004000AEBDB70029
:100EE00006804800B0BDB700B69DBF00B63DEC001F
:100EF0008002780005007800AC1DB400C4ED8000CD
:100F000000429000C4ED88003C070400000000008F
:100F10006408040000000000A4ED80007020E100DF
:100F200069003A00C4ED800013062000041CE100B3
:100F300007003E00C4ED8000A3072000041CE10070
:100F400003003900B8DDBF00F04DB20001003700EA
:100F5000B8DDBF00B8FDB700C4ED8000030320007A
:100F6000041CE10005003C00C4ED80009303200058
:100F7000041CE1000100350008003700C4ED8000CA
:100F800013042000041CE1004F003C00C4ED80006D
:100F900063042000041CE1004B003500C4ED800018
:100FA00003032000041CE1001B003C00C4ED800092
:100FB00093032000041CE1001700350044002000CA
:100FC00075ED800086ED80000402E8000402E9006F
:100FD000030032008502D0000683D200FBFF3700F9
:100FE000C4ED80000443B1000440780000E0B70085
:100FF0000000FB008000EB0000F0A7008080EB0009
:1010000005004000AEBDB70006804800B0BDB70087
:1010100036080400000000004400200075ED800048
:1010200086ED80000402E8000402E90003003200BB
:101030008502D0000683D200FBFF3700C4ED80009C
:101040001444B1000440780000E0B7000080FB00C9
:101050000160EF006A00400005004000AEBDB7002F
:101060000400200006004A00B0BDB700B69DBF00D6
:10107000B63DEC008002780005007800AC1DB4009D
:10108000C4ED800000429000C4ED8800C4ED8000F3
:1010900013062000041CE10007003E00C4ED8000A0
:1010A000A3072000041CE10003003900B8DDBF00E5
:1010B000F04DB20001003700B8DDBF00B8FDB70049
:1010C000AC07040000000000A4ED80006A20E100ED
:1010D0000B003A0094ED80006120E10008003A0026
:1010E0000400200073ED800003005200AEBDB70085
:1010F0000400200083ED800003005A00B0BDB7005B
:10110000AE9DBF0081ED8000CF0378004F037800D3
:10111000CF02780000000600851F780010C0B300E1
:1011200092FDB700937DEF00947DEF00963DEF00B8
:10113000983DEF009A3DEF009C3DEF009E3DEF0093
:10114000A07DEF0094EC80000960EF0004007800BF
:101150008E1DB400104278006324E1002A003200A2
:1011600094EC80000960EF00040078008E1DB4004C
:101170001042780004C2B2000D00320094EC8000EE
:101180004822DE0063D921008302420094EC8000F3
:101190000960EF00040078008E1DB400904A7800CA
:1011A000927DEC00937DEC00B0080400000000008C
:1011B00094EC80004822DE0063D9210083024200C3
:1011C000804AEB00927DEC00937DEF0094DDBF0040
:1011D0000160EF004200DD0084EC800084024000EA
:1011E00064D9210064ED880096060200000000002A
:1011F00004002000B41A7800B41A7800947DEC0042
:10120000A208040000000000CF02780000000600E1
:101210004200F8003600F8003200F800801F780025
:10122000200020000C000900B01F78001B56AF0002
:10123000B10037001B76A8000E02AE00AE003700EA
:101240000E02AE00FEFF3700901080008CFDB7004C
:101250001B96AE000700370064EC80006624E100B6
:1012600004003A001B96A900207BEF00780A0400D6
:10127000000000001B96AE001100370064EC8000F7
:101280007524E1000E003A0020DBBF0084A5800039
:101290004822DE000024E10005003600EC050200D3
:1012A00000000000207BEC005C090400000000004E
:1012B0001B96A900207BEF00780A040000000000C4
:1012C00064EC80006224E1000A003A001F57E2004B
:1012D00008003A00247BEF0024DBBF0023FBB700AB
:1012E00010C0B3001FF7B7001E77EF00780A0400A4
:1012F0000000000064EC80006324E10040003A003C
:10130000F4B880004822DE006524E1003C003A0089
:1013100014D980004822DE006324E100040032007A
:1013200014D980004822DE006D24E10001003A005B
:10133000237BEC0024D980006324E1000300320009
:1013400024D980006D24E10001003A00247BEC00E8
:1013500023DBBF00215BE3001E003A0024DBBF005B
:10136000225BE3001B003A00F4B880000960EF0044
:10137000E36121008302420030C0B300804A78005C
:10138000E461210074EC88000472210084EC880080
:101390008C080200000000002097BF00B214E30098
:1013A0000A003A002297BF00B414E30007003A0095
:1013B0001B56A80060C0B3000F22AF00FEFF37002D
:1013C00010E2B7001162EF001B96A800F4090400B8
:1013D0000000000050C1B3000F22AF00FEFF370035
:1013E00010E2B7001162EF001F77EF001E77EF00E9
:1013F000207BEF001B76A900780A040000000000A3
:10140000F4B880004822DE006124E10004003A00C4
:1014100020C0B3001FF7B700780A040000000000E6
:10142000F4B880004822DE006224E10006003A00A1
:101430008CDDBF0021FBB70030C0B3001FF7B70041
:10144000780A040000000000F4B880004822DE00A2
:101450006324E10004003A0040C0B3001FF7B70066
:10146000780A040000000000F4B880004822DE0082
:101470006424E10006003A008CDDBF0022FBB700C7
:1014800050C0B3001FF7B700780A04000000000046
:10149000F4B880004822DE006524E10014003A0020
:1014A00023DBBF008C5DB40023FBB70024DBBF004F
:1014B0008C5DB4000AE0B700F4B880000960EF006A
:1014C00061024200040078000B60EF000028B800C1
:1014D00024FBB700F4B880000960EF00E36121004D
:1014E000830242008C9DBF00804298001E77EC0072
:1014F0001C090400000000008520A900A0012000B4
:101500000C0009004F1078004F0078003200F900FD
:101510003600F9004200F90000400600851F7800FF
:10152000C500200003000900B51F78000900200055
:101530004300AF0019002000891F78000002EB0073
:101540008002EB000003EB008003EB000304690062
:1015500011003200080220004200A9000080D200E1
:101560008180D2000482D2008582D2000328E1006B
:1015700001003A0002A0E10003003900020252001B
:1015800083825A004200A8000683D2008783D200DB
:101590000804E900F0FF3A008700780006007800B0
:1015A000CF0478000900E000010032000400BE0012
:1015B0002501200003000900CF127800CF02780037
:1015C000000006004200F8003600F8003200F80083
:1015D000801F7800200020000C000900B01F780058
:1015E0006228EC004220AF006428EC006608E200AC
:1015F00002003A006808E20016003200144380003E
:1016000033438000030052006AA8B70024438000DF
:101610004343800003005A006CA8B7004300A800B1
:101620006A88BF0061438000823E200003002000E2
:101630008E0A02000000000080027800010378009A
:101640000500E00003003A000600E00001003A0057
:101650006168EC00044380004822DE00C4C5B2008B
:1016600001003A005A08A8006608E20002003A00A9
:101670006808E2000E0032004300A8006A88BF003C
:1016800061438000C2A58000030020008E0A020092
:101690000000000080027800010378000500E000EF
:1016A00003003A000600E00001003A005A48A80092
:1016B0006608E20002003A006808E2000E0032000C
:1016C0004300A8006A88BF0061438000421F2000D9
:1016D000030020008E0A0200000000008002780053
:1016E000010378000500E00003003A000600E00076
:1016F00001003A005A88AA001B76AE000D003700A0
:101700004A3BEC00B0D4BF000160EF0054DA800027
:101710000020E100050039001F77EF001E77EF0081
:10172000207BEF001B96A9001B76A9009C0B0400F0
:10173000000000004A3BEF006608E20002003A00A9
:101740006808E20006003200044380004822DE0000
:1017500023062000041CE10001003E005A28A800D6
:101760006608E20002003A006808E2000500320064
:10177000044380004822DE00C3052000041CE10071
:1017800000003E008460A900A00120000C000900B8
:101790004F1078004F0078003200F9003600F90051
:1017A0004200F900004006004200F8003600F80050
:1017B0003200F800801F7800200020000C00090093
:1017C000B01F78005A68AE00010037001BB6AA00AF
:1017D00084E0A900A00120000C0009004F1078004F
:1017E0004F0078003200F9003600F9004200F9009D
:1017F00000400600881F780028012000040009002E
:10180000B81F78008005EB006066B800030478001C
:1018100087047800FA7F20004200A9004220A90036
:1018200044C4DE00080465000800E00071003200D6
:101830004200A9004220A900C4CCDE008904650052
:101840000900E0006B0032000884440009B0A700E2
:1018500004003700F83FB10066003200650039002F
:10186000030037001A402000854245006100310026
:10187000878669004200A9004220A900F300B20057
:101880000340A000F700B2000740A000881F7800C6
:101890000124B800002DB8000A0544008B854C00D7
:1018A0000C80B0000224B8008B0544000C864C006C
:1018B000012CB8000005EB008B0544000C864C00A1
:1018C0000A80B0000034B8008B0544000C864C0040
:1018D0000A80B0008005EB000324B8000C06440029
:1018E0000A854C000B80B000022CB8000C064400A6
:1018F0000A854C000B80B0000134B8000C0644008F
:101900000A854C000B80B000003CB8000C06440077
:101910000A854C000B80B0000C0078000006EB003C
:10192000032CB8000A0544008B854C000C80B000E5
:101930000234B8000A0544008B854C000C80B000CE
:101940000334B8008B0544000C864C00013CB80001
:101950000A0544008B854C000C80B000023CB800A6
:101960008B0544000C864C00033CB8000C06440078
:101970008A0078000B0178008C0178005400200068
:101980004200A9008381D3000281D3008180D3006B
:101990000080D3000402E900F9FF3A004F04780008
:1019A0000804E80001037000010032000200370063
:1019B00003037100080032000340A700060037004F
:1019C0004200A9000080D2008180D2000281D200B2
:1019D0008381D2000804E9004444DD0003F0A10043
:1019E0000DF0A70003F0A0000340A10083016C00EC
:1019F000030037006000B8006001B8000000370045
:101A0000A8012000040009004F1478004F0478005A
:101A100000000600881F780028012000040009004B
:101A2000B81F78008786690003047800870478006F
:101A3000FA7F20004200A9004220A90044C4DE0031
:101A4000080465000800E0006C0032004200A900B4
:101A50004220A900C4CCDE00890465000900E00032
:101A6000660032000005EB0009065400030039004F
:101A7000FC3FB00061003100040037001B40200033
:101A80000B0656005D0039005C0032000004EB00DC
:101A90008004EB000005EB008005EB00F301B200D1
:101AA0000340A000F701B2000740A0008C1F78009F
:101AB0006C03200004005000858058000601590086
:101AC00087815900020033000600310006003A0009
:101AD00004004000858048000601490087814900D4
:101AE000010037000800A0000C06E9000B003200DE
:101AF0004200A9000080D2008180D2000281D20081
:101B00008381D2004200A9000884D2008984D200D7
:101B10000A85D2008B85D200E6FF37004F06780099
:101B20000B50A70001003700060037004200A90053
:101B30008B85D3000A85D3008984D3000884D30021
:101B4000030037000C06E9004200A9002B00320018
:101B50004200AF00090037000080D2008180D2002F
:101B60000281D2008381D200040250008582580095
:101B70000603590087835900150039000804E8005E
:101B800013003A008904E80011003A000A05E80051
:101B90000F003A008B05E8000D003A000C06E80043
:101BA000160032000A0037000C06E900130032006C
:101BB0000B40A700060037004200A9000884D200AD
:101BC0008984D2000A85D2008B85D200F8FF3700C5
:101BD0004466DD004200A9000CF0A1000DF0A70052
:101BE0000CF0A0000B40A1008B016E000A017800F0
:101BF0008900780008007800050037000000200008
:101C00000100200002002000030020000000370037
:101C1000A8012000040009004F1478004F04780048
:101C200000000600F0FF2F000862AE00050037003C
:101C300009C2AF00FEFF37001110880009C2AF00D3
:101C4000FEFF37000000200009E2AF000000E800BE
:101C50000000060056DBBF0055FBB70057DBBF0096
:101C60005CFBB70058DBBF005DFBB70059DBBF0072
:101C70005EFBB7005ADBBF005FFBB7005BDBBF005A
:101C800060FBB7000862AE00040037000622A8001F
:101C90000622AF00FEFF3700030037000602A8004F
:101CA0000602AF00FEFF370054DBBF0002E0B700C2
:101CB000120E0200000000000004E0001D003A00C7
:101CC00071C3B300120E02000000000055DBBF001C
:101CD00080407800120E0200000000005CDBBF00B4
:101CE00002E0B700120E0200000000005DDBBF0042
:101CF00080407800120E0200000000005EDBBF0092
:101D000002E0B700120E0200000000005FDBBF001F
:101D100080407800120E02000000000060DBBF006F
:101D200002E0B700120E020000000000AC0E04003A
:101D300000000000F00120000602B600FDFF3A009E
:101D40000642A8000642AF00FEFF370020C0B300E5
:101D500000E0B70008003700F00120000602B600DE
:101D6000FDFF3A000642A8000642AF00FEFF370022
:101D700010C0B30000E0B700000006000000E00063
:101D80004220AF00060037001B0E090000000000D3
:101D9000FE3F0900000000000000E900FAFF3A00E1
:101DA0000000060056DBBF0055FBB70057DBBF0045
:101DB0005EFBB70058DBBF005FFBB70059DBBF001D
:101DC00060FBB7005ADBBF0061FBB7005BDBBF0005
:101DD00062FBB7005CDBBF0063FBB7005DDBBF00ED
:101DE00064FBB7000862AE00040037000622A800BA
:101DF0000622AF00FEFF3700030037000602A800EE
:101E00000602AF00FEFF370054DBBF0002E0B70060
:101E1000120E0200000000000004E00025003A005D
:101E200091C2B300120E02000000000055DBBF009B
:101E300080407800120E0200000000005EDBBF0050
:101E400002E0B700120E0200000000005FDBBF00DE
:101E500080407800120E02000000000060DBBF002E
:101E600002E0B700120E02000000000061DBBF00BC
:101E700080407800120E02000000000062DBBF000C
:101E800002E0B700120E02000000000063DBBF009A
:101E900080407800120E02000000000064DBBF00EA
:101EA00002E0B700120E0200000000006C0F0400F8
:101EB00000000000F00120000602B600FDFF3A001D
:101EC0000642A8000642AF00FEFF370020C0B30064
:101ED00000E0B70008003700F00120000602B6005D
:101EE000FDFF3A000642A8000642AF00FEFF3700A1
:101EF00010C0B30000E0B70000000600046C23002F
:101F000004168800C222EF00C403200034168800A3
:101F1000C822EF00CC22EF00CE22EF00040F2000F9
:101F200094168800D422EF0044012000F4168800A3
:101F3000E022EF00C400200024178800E622EF0012
:101F4000F4002800341088000421EF0004E224008B
:101F50001408880004002800240888001221EF00DB
:101F600024A127007408880004022800940888002F
:101F70008C60A8008CE0A8008F00A80081E0A90078
:101F80004220EF0081E0A80000CCB30054FBB70072
:101F9000840C2000B4DA880014002000C4DA880021
:101FA0005A3BEF002A0E02000000000020CCB300D4
:101FB00054FBB700840C2000B4DA88001400200021
:101FC000C4DA88005A3BEF002A0E0200000000002D
:101FD000A0002000BE0E02000000000000CCB300F4
:101FE00054FBB70084382100B4DA8800843821001B
:101FF000C4DA8800047D2000D4DA8800048025003B
:10200000E4DA8800D20E02000000000020CCB30009
:1020100054FBB70084382100B4DA880084382100EA
:10202000C4DA8800047D2000D4DA880004E02200AD
:10203000E4DA8800D20E020000000000A0002000B8
:10204000BE0E020000000000000006008D20A80067
:10205000000006005CDBBF0070E8B7005B48A8002A
:10206000000006000862AE00040037000622A80047
:102070000622AF00FEFF3700030037000602A8006B
:102080000602AF00FEFF370001C2B300120E0200CD
:102090000000000001C1B300120E020000000000A9
:1020A00054DBBF0002E0B700120E02000000000087
:1020B00055DBBF0080407800120E020000000000D7
:1020C00056DBBF0002E0B700120E02000000000065
:1020D00001C4B300120E020000000000F001200055
:1020E0000602B600FDFF3A000642A8000642AF0015
:1020F000FEFF370000000600851F7800007D2000ED
:10210000BE0E020000000000667BEF0061DBBF0036
:102110000160EF00C402DD0062DBBF000160EF0080
:102120004300DD008502400063DBBF000160EF007B
:102130004200DD008502400064DBBF000160EF006B
:102140004100DD008502400005007800655BB400B9
:1021500066FBB7000862AE00040037000622A80044
:102160000622AF00FEFF3700030037000602A8007A
:102170000602AF00FEFF370060DBBF0002E0B700E1
:10218000120E0200000000000004E00006003A0009
:1021900066DBBF0002E0B700120E02000000000084
:1021A000E410040000000000F00120000602B60068
:1021B000FDFF3A000642A8000642AF00FEFF3700CE
:1021C0000060EF000B003700F00120000602B600AF
:1021D000FDFF3A000642A8000642AF00FEFF3700AE
:1021E000007D2000BE0E02000000000010C0B30001
:1021F00000E0B700CF02780000000600851F7800DD
:10220000861F780062DBBF000000FB00E702600071
:10221000C52ADD0061DBBF000000FB006103600038
:102220004430DD008502400063DBBF000000FB009E
:10223000670060000500400070FBB70064DBBF0072
:102240006AFBB70065DBBF006BFBB70066DBBF0056
:102250006CFBB70067DBBF006DFBB70068DBBF003E
:102260006EFBB70069DBBF006FFBB7000862AE0012
:10227000040037000622A8000622AF00FEFF370048
:10228000030037000602A8000602AF00FEFF370079
:1022900060DBBF0002E0B700120E02000000000089
:1022A0000004E00021003A0081C4B300120E0200D5
:1022B0000000000070DBBF0002E0B700120E020059
:1022C000000000006ADBBF0002E0B700120E02004F
:1022D000000000006BDBBF0080407800120E02009F
:1022E000000000006CDBBF0002E0B700120E02002D
:1022F000000000006DDBBF0080407800120E02007D
:10230000000000006EDBBF0002E0B700120E02000A
:10231000000000006FDBBF0080407800120E02005A
:1023200000000000A811040000000000F0012000DF
:102330000602B600FDFF3A000642A8000642AF00C2
:10234000FEFF370020C0B30000E0B70008003700F0
:10235000F00120000602B600FDFF3A000642A80088
:102360000642AF00FEFF370010C0B30000E0B70028
:102370004F037800CF02780000000600851F780028
:102380000862AE00040037000622A8000622AF0053
:10239000FEFF3700030037000602A8000602AF0068
:1023A000FEFF37005CDBBF0002E0B700120E020048
:1023B000000000000004E0000A003A00E5DA8000B6
:1023C000C82ADE00C42ADD00F0826200E1824200F9
:1023D00085407800120E0200000000000412040084
:1023E00000000000F00120000602B600FDFF3A00E8
:1023F0000642A8000642AF00FEFF370020C0B3002F
:1024000000E0B70008003700F00120000602B60027
:10241000FDFF3A000642A8000642AF00FEFF37006B
:1024200010C0B30000E0B700CF0278000000060043
:10243000851F7800B794AF000500370004DC2B003F
:1024400074B088001036EF002E1204000000000067
:102450000424240074B0880010B6EF00C2E2AF007C
:102460000900370012D6BF000000FB000000E000AA
:1024700005003A0010C0B30000E0B7003A00370092
:10248000B41204000000000012D6BF000000FB00E0
:102490006100E1001D00320004F6AF0004003700C7
:1024A00040012000BE0E02000000000004F6A8005B
:1024B00020CCB30060FBB700617BEF0010C0B3001D
:1024C00062FBB70020C0B30063FBB70044062000E6
:1024D00024DB88000E16F800661BF9001016F800C1
:1024E000681BF900FE1002000000000012F6B700A1
:1024F00040012000BE0E0200000000000060EF005E
:1025000019003700B412040000000000C2E2AF005E
:10251000130037001276EF0004F6A90020CCB300B8
:102520005CFBB7005D7BEF00BE1102000000000005
:1025300024A580006820E10003003A005BE8A900C0
:10254000A6120400000000005BE8A80010C0B30061
:1025500000E0B70004003700B412040000000000DF
:102560000060EF0000003700CF0278000000060096
:10257000F0FF2F000862AE0011003700321080001B
:102580007F016100FDFF3A000662A8000100A7007C
:1025900006A2A9000100A60006A2A8003210800031
:1025A0007F016100FDFF3A000682A8000822AE000C
:1025B000FEFF37000082BF0008C2AF0008C2A900BA
:1025C00000000600851F78006B7BEF006C7BEF003E
:1025D0000862AE00040037000622A8000622AF0001
:1025E000FEFF3700030037000602A8000602AF0016
:1025F000FEFF37006ADBBF000000FB006100400007
:102600008002780085407800120E02000000000071
:102610006CFBB7006CDBBF000000FB000000E000BB
:1026200008003A0001002000811F7800CF007800E8
:10263000B8120200000000006BFBB7002613040074
:102640000000000050C0B3006BFBB700F001200099
:102650000602B600FDFF3A000642A8000642AF009F
:10266000FEFF37006BDBBF00CF02780000000600E2
:10267000C942A800C962A8005D5BE2000800320000
:1026800000002F00C822B700C942A900C962A900F2
:10269000C942A800C962A8008A1304000000000013
:1026A0005CDBBF000000FB0000027800A3002000FC
:1026B000110009000302D800EAB5B7005CDBBF00D7
:1026C0000000FB0000027800A300200011000900B8
:1026D0000302D80001007800ECB5B700EA95BF000E
:1026E0004C00DD00EAB5B700EC95BF004C00DD0002
:1026F000ECB5B700C942A900EA15F800C802F90014
:10270000C942A800C962A900EC15F800C802F90086
:10271000C962A80000000600851F78005D7BEF00FD
:102720005CDBBF006AFBB700E212020000000000A1
:102730006104E100470032000862AE000400370087
:102740000622A8000622AF00FEFF37000300370074
:102750000602A8000602AF00FEFF37005CDBBF00E8
:102760000000FB0061004000800278008540780096
:10277000120E0200000000005DFBB7005DDBBF0031
:102780000000FB000000E00027003A0011002000DC
:10279000811F7800CF007800B8120200000000000E
:1027A00011002000811F7800CF007800B8120200CD
:1027B000000000005EFBB70011002000811F7800C0
:1027C000CF007800B8120200000000005FFBB700E5
:1027D00011002000811F7800CF007800B81202009D
:1027E0000000000060FBB70001002000811F78009E
:1027F000CF007800B81202000000000061FBB700B3
:1028000061DBBF0065FBB70060DBBF0064FBB700A6
:102810005FDBBF0063FBB7005EDBBF0062FBB7009E
:102820001A14040000000000623BEF0004002800BE
:1028300024DB8800F00120000602B600FDFF3A000C
:102840000642A8000642AF00FEFF37003014040025
:102850000000000062BBEF00F4FF270024DB8800CB
:10286000629BBF0021DB8000CF02780000000600E1
:10287000851F7800861F78005A3BEF0058DBBF00A9
:102880006AFBB700E2120200000000001AF6B7006F
:1028900040012000BE0E0200000000001AD6BF005A
:1028A0000160EF000080B2000B0032001080B20027
:1028B000110032003080B2002F0032001080B200D0
:1028C000B20032007080B2009D0132001080B20070
:1028D000BB013200D90137008168EF001436EF00E8
:1028E0001636EF0010C0B30000E0B700D301370088
:1028F0001E18040000000000C4DA800004CCB200FE
:1029000007003A00A0C0B3005CFBB7005D7BEF009E
:102910003813020000000000B4140400000000009E
:10292000C4DA800024CCB20007003A00B0C0B30083
:102930005CFBB7005D7BEF00381302000000000075
:10294000B414040000000000C4DA800044CCB200DB
:1029500005003A00C0C0B3005CFBB7005D7BEF0030
:1029600038130200000000000060EF00B3013700E0
:102970001E18040000000000C4DA800004CCB2007D
:102980006D003A001B16AF00690037001CD6BF006F
:102990000160EF000080B200030032001080B2003E
:1029A0002E003200600037001B36AF000B003700EE
:1029B00000CCB3005CFBB7005D7BEF00BE110200F2
:1029C0000000000000CCB3005CFBB7008C130200D9
:1029D000000000005ABBB7001B36A800E4B080001E
:1029E0004822DE006124E10017003200D4DA8000C2
:1029F000A40FB1008402780000CCB30060FBB700E4
:102A000010C0B30061FBB70010C0B30062FBB70099
:102A100010C0B30063FBB700E415F800641BF900B5
:102A200035DB88000002EB0067FBAF000082EB00A3
:102A300044DB8800FE100200000000001DF6B70015
:102A40002A150400000000001D76EF001C76EC0043
:102A50001B36A900941504000000000000CCB30050
:102A60006AFBB700E2120200000000001AF6B7008D
:102A70001A56E2002A003A001B36AF000D0037005C
:102A8000D4DA8000A40FB100D4DA88005A9BBF00CA
:102A90008000EB0000F0A7008080EB0034AF8000E6
:102AA0000000520044AF800081005A0018B6B70001
:102AB0001B36A800E4B080004822DE006124E1005B
:102AC000160032005A9BBF001816B400800278002E
:102AD00000CCB30060FBB700617BEF0010C0B30017
:102AE00062FBB70010C0B30063FBB700E415F80049
:102AF000641BF90035DB88000002EB0067FBAF00C8
:102B00000082EB0044DB8800FE10020000000000A1
:102B10001DF6B70090150400000000001B16A80069
:102B20009415040000000000C2140400000000001E
:102B3000BC15040000000000C4DA800024CCB20000
:102B400006003A00B0C0B3005CFBB7002A100200D8
:102B500000000000BC15040000000000C4DA800082
:102B600044CCB20004003A00C0C0B3005CFBB70024
:102B70002A100200000000001B16A9000060EF00F0
:102B80002E0137001E18040000000000C4DA800087
:102B900004CCB20007003A0000C1B3005CFBB700F0
:102BA0005D7BEF003813020000000000FE150400FA
:102BB00000000000C4DA800024CCB20007003A0014
:102BC00010C1B3005CFBB7005D7BEF00381302005F
:102BD00000000000FE15040000000000C4DA8000C0
:102BE00044CCB20005003A0020C1B3005CFBB70042
:102BF0005D7BEF0038130200000000001416E200B5
:102C000008003A001616E20006003A006A08F800CA
:102C10001416F9006C08F8001616F900981704004D
:102C20000000000054438000A3B0800083025200E3
:102C300064438000B3B0800003035A006030E100B9
:102C4000BB00390003003E00346080000520E10035
:102C5000B7003E001436EF001636EF00C4DA8000ED
:102C600004CCB2002D003A0000CCB3005CFBB700EE
:102C70008C130200000000005ABBB7005A9BBF0033
:102C80008000EB0000F0A7008080EB0034AF8000F4
:102C90008402500044AF8000048358000500E00027
:102CA00002003A000600E0001A0032005A9BBF0002
:102CB0008000EB0000F0A7008080EB0034AF8000C4
:102CC0000000520044AF800081005A0018B6B700DF
:102CD00000CCB30060FBB700617BEF0010C0B30015
:102CE00062FBB70010C0B30063FBB700E415F80047
:102CF000641BF9001816F800661BF9000002EB00CF
:102D000067FBAF000082EB0044DB8800FE1002008E
:102D1000000000005A17040000000000C4DA800020
:102D200024CCB20041003A0054438000436080004C
:102D300083025200644380005360800003035A0002
:102D4000746080000620E1003600390003003E0078
:102D5000646080000520E1003200360054438000AA
:102D60004360800003005200644380005360800091
:102D700083005A0064608000000052000CACB70071
:102D80007460800001005A000EACB70004AF8000F0
:102D90004822DE006124E10012003A0020CCB3009A
:102DA00060FBB70010C0B30061FBB70020C0B300E8
:102DB00062FBB70030C0B30063FBB70044062000DD
:102DC00024DB88000C0CF800661BF9000E0CF800E0
:102DD000681BF900FE10020000000000121704003A
:102DE0000000000020CCB30060FBB70010C0B300AF
:102DF00061FBB70020C0B30062FBB70030C0B30076
:102E000063FBB7009401200024DB88000C0CF80061
:102E1000661BF9000E0CF800681BF900FE1002009A
:102E2000000000005A17040000000000C4DA80000F
:102E300044CCB2001F003A00B7B4AE000F00370018
:102E400040CCB30060FBB700617BEF0020C0B30053
:102E500062FBB700637BEF004406200024DB8800A0
:102E6000840C200034DB8800683BEF00FE10020079
:102E7000000000005A1704000000000040CCB3001E
:102E800060FBB70010C0B30061FBB70020C0B30007
:102E900062FBB700637BEF004406200024DB880060
:102EA000840C200034DB8800683BEF00FE10020039
:102EB000000000001376EC0081C8BF0094B08000D1
:102EC0004822DE000024E10019003600C4DA800048
:102ED00004CCB20006003A00D0C0B3005CFBB700DF
:102EE0002A100200000000009817040000000000F3
:102EF000C4DA800024CCB20006003A00E0C0B3007F
:102F00005CFBB7002A1002000000000098170400C4
:102F100000000000C4DA800044CCB20004003A0093
:102F2000F0C0B3005CFBB7002A10020000000000F4
:102F30000060EF00410037001E1804000000000090
:102F4000C4DA800004CCB20007003A00D0C0B3005D
:102F50005CFBB7005D7BEF0038130200000000004F
:102F6000D817040000000000C4DA800024CCB200AE
:102F700007003A00E0C0B3005CFBB7005D7BEF00E8
:102F80003813020000000000D81704000000000001
:102F9000C4DA800044CCB20005003A00F0C0B300AF
:102FA0005CFBB7005D7BEF003813020000000000FF
:102FB0000060EF00210037001E1804000000000030
:102FC000C4DA800004CCB20006003A0000C1B300AD
:102FD0005CFBB7002A100200000000001618040075
:102FE00000000000C4DA800024CCB20006003A00E1
:102FF00010C1B3005CFBB7002A1002000000000003
:103000001618040000000000C4DA800044CCB200AE
:1030100006003A0020C1B3005CFBB7002A10020092
:103020000000000016180400000000000060EF001F
:10303000020037001E180400000000004F03780053
:10304000CF0278000000060007D6BF000160EF0045
:103050000080B200030032001080B2002100320074
:103060004800370008D6BF000000FB006100E10007
:103070001200320000CCB30060FBB700617BEF00B0
:1030800020C0B30062FBB700637BEF004406200062
:1030900024DB8800E42E200034DB8800683BEF004E
:1030A000FE1002000000000008F6B7000060EF000C
:1030B000340037006E180400000000000876EF00AE
:1030C00010C0B30007F6B70040062000BE0E020095
:1030D000000000000060EF002A003700C218040062
:1030E0000000000000CCB30058FBB7003814020009
:1030F0000000000009F6B70009D6BF000000FB0081
:103100006100E1001D003A0008D6BF000000FB008E
:103110006100E1001400320000CCB30060FBB70096
:1031200010C0B30061FBB70010C0B30062FBB70072
:1031300020C0B30063FBB7008438210024DB880083
:103140000453270034DB8800683BEF00FE100200C8
:103150000000000008F6B7000060EF00090037002B
:10316000BE180400000000000876EF000776EF00AC
:1031700010C0B30000E0B70002003700C21804001E
:103180000000000000000600851F7800B4DA80000F
:10319000831320000320B80080027800C4DA800086
:1031A0007820B8008502400004C12000048042005D
:1031B000901F78009814F900B4DA8000831320007F
:1031C0000320B80080027800C4DA80007820B800BC
:1031D00085024000E28242000500780004C1200020
:1031E00004004000901F78009A14F900B4DA8000BF
:1031F000831320000320B80080027800C4DA800026
:103200007820B80085024000E48242000500780082
:1032100004C1200004004000901F78009C14F900B5
:10322000B4DA8000831320000320B8008002780005
:10323000C4DA80007820B80085024000E6824200AF
:103240000500780004C1200004004000901F7800B1
:103250009E14F900B4DA8000831320000320B80024
:1032600080027800C4DA80007820B800850240002F
:10327000E88242000500780004C1200004004000FC
:10328000901F7800A014F900B4DA800083132000A6
:103290000320B80080027800C4DA80007820B800EB
:1032A00085024000EA8242000500780004C1200047
:1032B00004004000901F7800A214F900B4DA8000E6
:1032C000831320000320B80080027800C4DA800055
:1032D0007820B80085024000EC82420005007800AA
:1032E00004C1200004004000901F7800A414F900DD
:1032F000B4DA8000831320000320B8008002780035
:10330000C4DA80007820B80085024000EE824200D6
:103310000500780004C1200004004000901F7800E0
:10332000A614F900B4DA8000831320000320B8004B
:1033300080027800C4DA80007820B800850240005E
:10334000F08242000500780004C120000400400023
:10335000901F7800A814F900B4DA800083132000CD
:103360000320B80080027800C4DA80007820B8001A
:1033700085024000F28242000500780004C120006E
:1033800004004000901F7800AA14F900B4DA80000D
:10339000831320000320B80080027800C4DA800084
:1033A0007820B80085024000F482420005007800D1
:1033B00004C1200004004000901F7800AC14F90004
:1033C000B4DA8000831320000320B8008002780064
:1033D000C4DA80007820B80085024000F6824200FE
:1033E0000500780004C1200004004000901F780010
:1033F000AE14F9005B68AE002D0037009C94BF004E
:103400000080B200030032001080B20011003200D0
:1034100025003700C4A48000430B20000418E100FD
:1034200006003500440B2000C3A4800003005200B6
:1034300098B4B700261A040000000000C421200040
:10344000C3A480000300520098B4B700581A0400C7
:1034500000000000F4438000C3A480000300520079
:1034600098B4B70004A580006120E10004003A0090
:103470002400200004A58800501A04000000000069
:1034800004A580006220E10004003A00140020003E
:1034900004A58800501A040000000000A034EF00CA
:1034A000581A040000000000581A04000000000030
:1034B000CF0278000000060001002F008381400049
:1034C000F1072000E0804800910188000500A1007C
:1034D0000500E00003003200331ABA008582E900DB
:1034E000FCFF3A0000000600851F7800861F780068
:1034F000783BEF007A3BEF007C3BEF007E3BEF0038
:103500007A1BE20044003A0083AF800004002000F0
:10351000250020005C1A0200000000007EBBB700FE
:1035200084AF80006202420084027800851F780028
:103530008501780004002000250020005C1A0200AC
:1035400000000000CF0278007CBBB700F4DB8000F5
:10355000F3FF2F000418E1002B003200783BEF004E
:10356000C4DB80007820E10020003100F4DB800023
:10357000831320000320B80080027800E4DB800081
:103580007820B80085024000C6DB80004133DE00B1
:103590004130DD000500400004C1200084024000ED
:1035A000C4DB800064024200040378000600780057
:1035B000F015B40000037800851F780086017800BC
:1035C00004002000250020005C1A0200000000001A
:1035D000CF027800800A7800C4DB800062024200DB
:1035E000C4DB8800B01A04000000000084AF800033
:1035F0007C02420084AF88007E1BF800BA14F900F8
:10360000081B04000000000014002000D4DB880028
:10361000801A0400000000004F037800CF027800F9
:1036200000000600851F7800861F7800871F78003D
:10363000783BEF007A3BEF007C3BEF007A1BE20027
:103640001F013A0093AF80000400200025002000F5
:103650005C1A0200000000007CBBB700E4DB8000C5
:10366000F3FF2F000418E10011013200783BEF0056
:10367000C4DB80007020E1001F003100E5DB80002A
:10368000C52ADD00C6DB80004133DE004230DD00AC
:103690000500400064BE200084024000C4DB8000BE
:1036A000620242000403780006007800F215B400BC
:1036B00000037800851F7800860178000400200050
:1036C000250020005C1A020000000000CF027800F4
:1036D000800A780000C0B300A042980000C0B30088
:1036E000B0429800C4DB800062024200C4DB880064
:1036F000381B040000000000E4DB8000E1025200FF
:10370000C42ADD0064B4200004834200E7DB8000AB
:10371000C53BDD0064BE200004804300301B780000
:10372000301B7800E4DB8000E1025200C42ADD0097
:10373000E48242000500780064B420008402400066
:10374000E6DB80004533DD006403430006007800BB
:1037500064BE200004004000B01A7800B01A78005F
:10376000E4DB8000E1025200C42ADD00E88242006E
:103770000500780064B4200084024000E6DB80008D
:103780004533DD00700343000600780064BE20006E
:1037900004004000B01A7800B01A7800E4DB800022
:1037A000E1025200C42ADD00EC82420005007800EC
:1037B00064B4200084024000E6DB80004533DD0075
:1037C000740343000600780064BE2000040040003B
:1037D000B01A7800B01A7800E4DB8000E1025200F1
:1037E000C42ADD0064B4200004804200C40020002C
:1037F000301A7800301A78006038E10012003C007E
:1038000003003500841620000620E1000E0036007B
:10381000E4DB8000E1025200C42ADD0064B4200031
:1038200004834200004BEB0000C0B300104398003B
:1038300000C0B3002043980000C0B300304398009C
:103840003A1C040000000000E4DB8000E1025200AA
:10385000C42ADD0064B4200004834200160278000C
:10386000440BB100040B78005602780060005A0047
:1038700000039800E4DB8000E1025200C42ADD006E
:10388000E48242000500780064B420000400400097
:10389000A4002000301A7800301A78006030E1006F
:1038A00014003C0003003500841620000520E100D0
:1038B00010003600E4DB8000E1025200C42ADD0083
:1038C000E48242000500780064B4200084024000D5
:1038D000804AEB0000C0B3009042980000C0B300E3
:1038E000A042980000C0B300B0429800941C0400AD
:1038F00000000000E4DB8000E1025200C42ADD0089
:10390000E48242000500780064B420008402400094
:1039100015027800440BB100840A78005502780043
:1039200060005A0080029800E4DB8000E10252004F
:10393000C42ADD00E88242000500780064B420005B
:1039400004004000A4002000301A7800301A7800EB
:103950006030E1001500350003003C0004A52000A4
:103960000520E10011003100E4DB8000E10252009B
:10397000C42ADD00E88242000500780064B420001B
:103980008402400080CBB300804A7800B0C0B3000E
:103990009042980000C0B300A042980000C0B3005D
:1039A000B0429800F01C040000000000E4DB80003E
:1039B000E1025200C42ADD00E882420005007800DE
:1039C00064B420008402400015027800440BB0006B
:1039D000840A78005502780060024A00840A780060
:1039E000E4DB8000E1025200C42ADD00EC824200E8
:1039F0000500780064B4200004004000A40020000A
:103A0000301A7800301A78006030E1001500350077
:103A100003003C00846620000520E1001100310015
:103A2000E4DB8000E1025200C42ADD00EC824200A7
:103A30000500780064B420008402400000CDB3008B
:103A4000804A780070C0B3009042980000C0B30074
:103A5000A042980000C0B300B04298004C1D040082
:103A600000000000E4DB8000E1025200C42ADD0017
:103A7000EC8242000500780064B42000840240001B
:103A800015027800440BB000840A780055027800D3
:103A900060024A00840A780094AF800072024200FB
:103AA00094AF88008068EC005C1D040000000000FA
:103AB00014002000D4DB88001E1B0400000000005E
:103AC000CF0378004F037800CF0278000000060093
:103AD000851F7800C500200003000900B51F78008D
:103AE00000027800810278000203780083037800E6
:103AF0000000EB008000EB000001EB008001EB0018
:103B00000800A10007F0A600050037000800A0008B
:103B10000402EA008582EA000683EA008783EA005D
:103B20008504720002003A00870473001500320019
:103B3000394720000340A7000B0037004200A900CE
:103B40000482D2008582D2000683D2008783D2000D
:103B50000080D2008180D2000281D2008381D20015
:103B60008904E900F3FF3A00C44CDD004200A900DB
:103B700009F0A1000340A10083816C000800A700A8
:103B800003F0A0002501200003000900CF127800F7
:103B9000CF02780000000600851F7800861F78009D
:103BA000871F7800881F780003322000040020005F
:103BB000250020005C1A0200000000008CB5B70050
:103BC0002332200004002000250020005C1A02009F
:103BD000000000008EB5B700433220000400200032
:103BE000250020005C1A02000000000090B5B7001C
:103BF0005B68AE0012003700F443800063AC8000C5
:103C0000030052008CB5B70084AC8000430B200049
:103C10000418E10006003500440B200083AC80004E
:103C20000300520090B5B700201E04000000000001
:103C3000C421200083AC80000300520090B5B7007F
:103C40009095BF008001EB0000F0A7008081EB00A1
:103C50008300780003017800681D02000000000066
:103C600084D1220045442500B61F2200970024007D
:103C7000FA0B0200000000008002780001037800C7
:103C80008203780003047800851F7800861F78007F
:103C9000871F78000500780086007800070178000B
:103CA000880178000400200005002000060028009C
:103CB000670624000A0D020000000000CF03780010
:103CC0004F037800CF0278009AB5B700E1AC8800C6
:103CD000F2AC880003AD88004F047800CF03780071
:103CE0004F037800CF02780000000600851F78009F
:103CF000C500200003000900B51F7800090020005E
:103D00004300AF0019002000891F780083846800F9
:103D100001F0A600030037008180EA000000EA00FD
:103D2000E080480003F0A600030037008381EA002A
:103D30000201EA00E0814900030269001500320037
:103D40000002EB008002EB000003EB008003EB00BD
:103D5000080220004200A9000080D2008180D20029
:103D60000482D2008582D2000328E10001003A00DB
:103D700002A0E100030039000202520083825A00CF
:103D80004200A8000683D2008783D2000804E9001D
:103D9000F0FF3A0009F0A600070037000600EA002D
:103DA0000100320002003A008700EA0005003700F7
:103DB0008780EA000300370087007800060078005B
:103DC00000003700CF0478000900E0000100320055
:103DD0000400BE002501200003000900CF12780076
:103DE000CF02780000000600851F7800861F78004B
:103DF000871F7800881F78006C3BEF00822AEF0055
:103E00006E3BEF0074DB80006A20E1000A003D0099
:103E100074DB80006220B80024A9200084024000E6
:103E2000804AEB0000C0B300904298006E3BEC006B
:103E3000021F04000000000044DB800023DB800040
:103E4000030052008000EB0000F0A7008080EB0030
:103E500070BBB70091DB880054DB800033DB80004F
:103E6000030052008000EB0000F0A7008080EB0010
:103E700074BBB700B1DB8800783BEF00783BEC0007
:103E8000789BBF008000EB0000F0A7008080EB0073
:103E90004200F80081E0A90042E0EF0081E0A800C4
:103EA0000001780081017800709BBF0091DB8000E9
:103EB000540602000000000081E0A9004200F90061
:103EC00081E0A80080027800010378004300A90087
:103ED00005007800860078004206200003002000DC
:103EE000761E02000000000042BBB70021DA880005
:103EF000789BBF008000EB0000F0A7008080EB0003
:103F00004200F80081E0A90042E0EF0081E0A80053
:103F10000001780081017800749BBF00B1DB800054
:103F2000540602000000000081E0A9004200F900F0
:103F300081E0A80080027800010378004300A90016
:103F4000050078008600780042062000030020006B
:103F5000761E02000000000046BBB70041DA880070
:103F60006C3BEF0064DB80006A20E10067003D00ED
:103F7000649BBF008000EB0000F0A7008080EB0096
:103F800014DA80008402400024DA800004834800B0
:103F900064DB80007020B8008003780064B42000E7
:103FA000048043000002780003002000B419780068
:103FB000B41978000608E10051003C000200350009
:103FC0000500E1004E003100649BBF008000EB0063
:103FD00000F0A7008080EB0014DA8000840240002B
:103FE00024DA80000483480064DB80007024B80079
:103FF000680444000800780064B420000400400015
:104000000002780003002000B4197800B419780089
:104010000130E1003A003C00020035000028E100D8
:1040200037003100669BBF008000EB0000F0A70066
:104030008080EB0034DA80008402400044DA8000A3
:104040000483480064DB80007020B800800378009F
:10405000E48343000700780064B4200004004000BB
:104060000002780003002000B4197800B419780029
:104070000608E10022003C00020035000500E100D6
:104080001F003100669BBF008000EB0000F0A7001E
:104090008080EB0034DA80008402400044DA800043
:1040A0000483480064DB80007020B800800378003F
:1040B000EC8343000700780064B420000400400053
:1040C0000002780003002000B4197800B4197800C9
:1040D0000130E1000A003C00020035000028E10048
:1040E00007003100145480006220B80024A9200089
:1040F0008402400064DB800084029800822AEC0085
:104100006C3BEC00B21F040000000000C4DB800028
:10411000430620000418E10002003400820AE20095
:1041200056FF3200145480006020E1000300340088
:10413000842AEF00A22004000000000014002000E8
:10414000245488004F047800CF0378004F03780090
:10415000CF02780000000600851F7800861F7800D7
:10416000871F7800881F7800842AEF008C95BF0095
:104170008000EB0000F0A7008080EB0032BBB700AE
:10418000A1D988008E95BF008000EB0000F0A70049
:104190008080EB0036BBB700C1D988009894BF007F
:1041A0008000EB0000F0A7008080EB003ABBB70076
:1041B000E1D988009A94BF008000EB0000F0A700CE
:1041C0008080EB003EBBB70001DA880095D9800003
:1041D000B6D98000D7D98000F8D9800025DB8800C7
:1041E00036DB880047DB880058DB8800F41E0200BD
:1041F00000000000145480006020E100030034003F
:10420000842AEF000A2104000000000014002000AE
:1042100024548800840AF8000000F9004F04780054
:10422000CF0378004F037800CF027800000006002B
:10423000949BBF0064DC80000020E1001400340087
:10424000969BBF0074DC80000020E1000400340075
:1042500044002000C4DC8800442104000000000069
:10426000929BBF0074DC80000020E1000400340059
:1042700034002000C4DC8800442104000000000059
:1042800024002000C4DC88009A2104000000000003
:10429000909BBF0064DC80000020E100140034002B
:1042A000969BBF0074DC80000020E1000400340015
:1042B00054002000C4DC88007421040000000000C9
:1042C000929BBF0074DC80000020E10004003400F9
:1042D00084002000C4DC8800742104000000000079
:1042E00014002000C4DC88009A21040000000000B3
:1042F000969BBF0074DC80000020E10004003400C5
:1043000064002000C4DC88009A2104000000000042
:10431000929BBF0074DC80000020E10004003400A8
:1043200074002000C4DC88009A2104000000000012
:10433000983BEF00981BF8000000F9000000060011
:10434000851F7800861F7800E10820000600A10084
:1043500000F0A600030037000600A0000000EA00FD
:10436000000037000000E0001400320000F0A70059
:10437000040037004200A9000080D2008100E9005B
:10438000FAFF37000180FD004200A9008180D300C0
:1043900000F0A1000080FD00814068000040B200F4
:1043A0000600A70001F0A0000700370001407800D8
:1043B0000170A0000140B200030037000000EB00D4
:1043C0008000EB00000037004F037800CF02780038
:1043D00000000600851F7800861F7800871F780080
:1043E0000382680004F0A600060037004200A9001E
:1043F0004220A90001F0A600260037004200A800D4
:10440000240037000102780080027800030378005E
:10441000820378008180D2000180FD008381D20078
:104420000380FD0081C051000500320004F0A600A9
:10443000180037001000200042E0B60015003700D9
:1044400084407800864178000170A1000370A100CB
:1044500081C051000500320004F0A6000D003700B5
:104460001000200042E0B6000A00370085805300AB
:104470000500320004F0A6000600370010002000FE
:1044800042E0B600030037004200A90001003700F7
:1044900000003700CF0378004F037800CF02780088
:1044A00000000600851F7800C500200004000900F8
:1044B000B51F78008004EB00838468000103780056
:1044C0008002780003047800820378008180D200A3
:1044D0000180FD008180FB000100E0004E00320001
:1044E0008381D2000380FD008381FB000300E00094
:1044F000490032000000EB0003C050000300390007
:10450000F047B00044003100030037001048B1000C
:104510004100390040003200850078000601780033
:104520000270A000F20FB200F80FB2000870A000F5
:104530009A0120008001EB000002EB008780500010
:1045400008015900020033000400310004003A0061
:104550008780400008014900010037000400A000E6
:104560000A05E900070032004200A9008180D2005C
:104570000281D2004200A9000482D2008381D200CD
:10458000EEFF37000005EB000380A70001003700B5
:10459000060037004200A9008381D3000370A10008
:1045A0000482D3000A85D200020037000000E9002F
:1045B000190032000AF0A700050039008180D200FE
:1045C0000281D2008780500008015900090039009B
:1045D0000402E80007003A008301E80005003A0001
:1045E0000000E8000C003200020037000000E90083
:1045F000090032000080FD008080D30001F0A0009F
:1046000009F0A60001F0A1000370A10081C06900BB
:1046100004007800030037000000200001002000A3
:10462000000037004501200004000900CF12780087
:10463000CF027800000006000001780081017800B8
:10464000014078000080FD0000F0A0008180D200D1
:104650000180FD008180FB00E408200081405200C1
:10466000060032000000E000040032004200A90011
:104670000080D3008100E900FAFF3A0003F0A600B1
:10468000020037000000EA000000370000000600CA
:10469000851F7800861F7800E10820000000E000F8
:1046A0001200320000F0A700040037004200A90009
:1046B0000080D2008100E900FAFF37000180FD0090
:1046C0004200A9008180D30000F0A1000080FD001D
:1046D000814068000040B2000700370001407800C8
:1046E0000170A0000140B200030037000000EB00A1
:1046F0008000EB00000037004F037800CF02780005
:1047000000000600851F7800C50020000400090095
:10471000B51F7800000278008102780083037800DA
:10472000020378004200A9004220A9008180D20043
:104730000180FD00F10FB2000100E0004B003200EB
:104740004200A9004220A9008381D2000380FD001D
:10475000F30FB2000300E000440032000080FB00D1
:1047600001C0410004003100F007B1003F003200F9
:104770003E003900020037001048B0003B00310015
:1047800007856A004200A9004220A900F50FB20087
:104790000570A0004200A900F70FB2000770A0004A
:1047A0000621B800062CB80083014C00890078006F
:1047B0004200AF008100E8004200A900043CB800BC
:1047C00083014C0081804C00072CB80081004C0014
:1047D0000000E8000100E0004220AF0001003700C7
:1047E000030037000300E0004220AF00050037005F
:1047F00001F0A700030037008381D2008180D2003E
:104800000000E900010178004200A9000370A60041
:104810000900370007F02F00878161000310B00006
:10482000600149000200E00003003A000300E000DC
:1048300001003A000000E8000080FD004200A900ED
:104840004220A9008080D3000AF0A70001F0A00058
:1048500002F0A1000280FD00814069000380FD009C
:1048600003417800020078000300370000002000B8
:10487000010020000000370045012000040009006D
:10488000CF127800CF02780000000600851F780064
:10489000C500200003000900B51F78008004EB006C
:1048A000080028004300AF0083016C000000E00016
:1048B00003003A00FAFF27000A8560004220AE009C
:1048C000010578008A856900010378008303780078
:1048D000030678004220A9004200A9000683D20006
:1048E0000680FD00F60FB2000600E000A1003200D5
:1048F0004220A9004200A9008783D2000780FD0062
:10490000F70FB2000700E0009F0032004220A9002C
:104910004200A9000638E1009C003200A3003300E9
:104920000900A1000910A0000684530007037800C5
:10493000F10FB2000170A000F30FB2000370A000ED
:10494000870220000838E100110033004220A9004E
:104950004200A9008180D3000080D3000804E90050
:10496000FAFF3A000D003700870220000838E10006
:10497000090033004220A9004200A9008381D3002E
:104980000281D3000804E900FAFF3A000F00370063
:104990000200780083007800430037000BF0A60087
:1049A000110037000940A7008C0578000000EA00DC
:1049B0000200320081C0EA00010037008100EA00F5
:1049C0000940A7002B003700070037000BF0A600B6
:1049D000050037000201EA000200320083C1EA004C
:1049E000010037008301EA00F50FB2004220A90060
:1049F0004200A9000200400083C048004200AF000E
:104A00000930A0000900A700090037000910A7001D
:104A1000010037000B0037000BF0A700150037002E
:104A20000930A700290037000960A0001E003700E8
:104A30000BF0A7000F0037000930A7002300370054
:104A4000190037000920A1000BF0A700040037006F
:104A50008A0578000930A7001C00370036003700AF
:104A60000940A00001C8B2000170A700CDFF3700C7
:104A70008A057800F10FB200810370000A0032004D
:104A80000170A700080037004220A9004200A900D9
:104A90000080D2008180D2000603E9004220AF00EE
:104AA00031003700F6FF37000900A7008A057800BB
:104AB0000910A7008C0578000950A6001A003700DD
:104AC0000AF0A7000080A0001B0037004200A800E9
:104AD00081C0D3000080D3004200AF000950A00085
:104AE0000603E800200032000950A6000800370045
:104AF0000000E80006003A008140E80004003A00A7
:104B000081C0D3000080D3000603E8001600320005
:104B10000900A7008A0578000910A7008C05780015
:104B20004220AF00100037000960A7008A05780016
:104B30000970A7008C057800010170002300320085
:104B40000170A1000680FD004220A9004200A900DA
:104B50000683D30081006B0001F0A0000BF0A600DB
:104B600001F0A10019003700000020000100200022
:104B7000160037000AF0A70083016C0002007800DD
:104B8000830078001100370010003700F30FB200E7
:104B90000370A000F10FB2000170A0000BF0A7009D
:104BA0000370A1000920A00088FF3700070453000C
:104BB000F10FB2000170A000F30FB2000370A0006B
:104BC0000910A1000900A00067FF3700250120009F
:104BD00003000900CF127800CF0278000000060021
:104BE000851F7800861F7800E51BA900E01BF800F0
:104BF000E61BF900E21BF800E81BF900E09BBF0090
:104C000011DF80000200200003002000EA210200E2
:104C10000000000006003900E51BA80060BE21006E
:104C200061BE210003000900B0187800E9FBAA006A
:104C3000E69BBF0041DF80000200200003702400DB
:104C4000EA21020000000000010031000A003A00E1
:104C5000E69BBF0041DF80001C2302000000000033
:104C60004823020000000000EABBB70061DF8800B3
:104C7000D026040000000000E69BBF0041DF80005A
:104C80000268290083B12400EA210200000000002C
:104C90003F003900E69BBF0041DF8000020020009A
:104CA0000380230082230200000000001C23020076
:104CB00000000000EEBBB700E69BBF0041DF8000B4
:104CC0000200200003802300822302000000000075
:104CD0008002780001037800EE9BBF0048230200A9
:104CE000000000004300A800000178008101780066
:104CF00005007800860078004624020000000000CD
:104D0000000178008101780000002000017024007B
:104D10008223020000000000E6BBB70041DF8800EC
:104D2000EE9BBF0048230200000000000001780055
:104D3000810178000000200001702400822302001D
:104D400000000000EABBB70061DF8800E69BBF00FF
:104D500041DF80001C230200000000004823020005
:104D6000000000004300A9000001780081017800E4
:104D7000EA9BBF0061DF80004624020000000000C3
:104D8000EABBB70061DF8800D02604000000000005
:104D9000E61BF800EA1BF900E81BF800EC1BF90021
:104DA000E69BBF0041DF80001C23020000000000E2
:104DB00048230200000000004300A8000001780022
:104DC00081017800E69BBF0041DF8000462402009D
:104DD00000000000E6BBB70041DF8800E51BAE0025
:104DE00005003700A0BE2100A1BE2100030009007C
:104DF000B0187800EDFBAA00E69BBF0041DF800001
:104E00000200200003002000EA2102000000000050
:104E10001B003200E51BAE000B003700E45BE20034
:104E200009003A004300A800EA9BBF0061DF800050
:104E30000200200003F823004624020000000000C6
:104E4000EABBB70061DF8800E51BAF000C0037004C
:104E500024DF80006124E10009003A004300A9003A
:104E6000EA9BBF0061DF80000200200003F82300FE
:104E70004624020000000000EABBB70061DF8800A2
:104E8000E09BBF0011DF8000020020000300200033
:104E9000EA2102000000000002003A00EA3BEF00B5
:104EA000EC3BEF00EA9BBF0061DF80004F0378001E
:104EB000CF0278000000060010C0B300E4FBB7008A
:104EC000D41BF800E01BF900D61BF800E21BF90028
:104ED000F0250200000000000000BE0000000600F7
:104EE000E47BEF00D41BF800E01BF900D61BF800B0
:104EF000E21BF900F0250200000000000000BE00E7
:104F000000000600851F7800861F7800BE9BBF004A
:104F100001DE80000200200003002000EA210200E0
:104F2000000000003C003200BA9BBF00E1DD8000C1
:104F3000F2DD800003DE800052220200000000004B
:104F40008002780001037800050078008600780070
:104F50000200200003002000EA21020000000000FF
:104F60000E003900BA9BBF00E1DD8000F2DD800059
:104F700003DE800052220200000000008002780060
:104F800001037800A5DE8800B6DE88005C270200F9
:104F900000000000E627040000000000BA9BBF00EC
:104FA000E1DD8000F2DD800003DE8000522202009D
:104FB000000000008002780001037800A5DE880070
:104FC000B6DE88007027020000000000C2BBB700F8
:104FD00021DE8800C29BBF0021DE8000F2DD800060
:104FE00003DE800082230200000000004300A800CE
:104FF0000001780081017800BA9BBF00E1DD8000EC
:1050000046240200000000000000BE00020037003D
:105010000C280400000000004F037800CF02780045
:1050200000000600851F7800861F7800BA1BF80074
:10503000BE1BF900BC1BF800C01BF900BE9BBF00E3
:1050400001DE80000200200003F82300EA210200B4
:1050500000000000C5003200E5BB2100E3824200F1
:1050600005007800801F780010407800CFFBB70063
:105070004F007800E5BB2100E38242000500780084
:1050800080027800F0C3B300804A7800E5BB2100BD
:10509000E28242000500780074DE80000042900049
:1050A00074DE8800E4BC21001470A100E5BB21007F
:1050B000E28242000500780080027800CE9BBF00AB
:1050C00080429800CFFBAE0007003700E5BB21000F
:1050D000E3824200050078008002780015427800E3
:1050E0000448B300844298004300A800BE9BBF0060
:1050F00001DE80000200200003F8230046240200A5
:105100000000000080027800010378004300A9003D
:10511000BE9BBF0001DE80000200200003F82300D8
:1051200046240200000000000001780081017800A0
:10513000050078008600780052220200000000007E
:10514000BEBBB70001DE8800BE9BBF0001DE800051
:10515000F2DD800003DE80008223020000000000F8
:10516000CABBB70061DE880090792400A1F82B004B
:1051700052DE800063DE8000822302000000000017
:1051800080027800010378004300A9000500780040
:10519000860078000200200003002400462402005C
:1051A00000000000C2BBB70021DE8800C0342F0021
:1051B000A1DB230052DE800063DE80008223020038
:1051C0000000000080027800010378004300A9007D
:1051D0000500780086007800B2D22900F3F52B0094
:1051E0004624020000000000C6BBB70041DE880074
:1051F000C69BBF0041DE800052DE800063DE80007F
:105200008223020000000000800278000103780081
:105210004300A90005007800860078000200200005
:1052200003F823004624020000000000C6BBB700BC
:1052300041DE8800BE9BBF0001DE800012DE8000E0
:1052400023DE80008223020000000000800278003C
:1052500001037800050078008600780032DE8000C7
:1052600043DE80005222020000000000C2BBB700F3
:1052700021DE8800A5BB2100E38242000500780002
:1052800074DE80000042900074DE8800E1BC2100E2
:105290009158D200A5BB2100E282420005007800AF
:1052A000801F780010407800CFFBB7004F007800D7
:1052B000CFFBAE0002003700E4BC21001400A000C8
:1052C00074DE80000960EF00E30720000300520055
:1052D000D0FBB700D0DBBF000000FB006000E100A6
:1052E0000B003D000400200083DE800003405200DC
:1052F0000000FB00A021020000000000C6BBB700B8
:1053000041DE8800C9FBAA009429040000000000C7
:10531000D0DBBF000000FB00A02102000000000065
:10532000C6BBB70041DE8800C69BBF0041DE8000DF
:105330008221270013F323008223020000000000D3
:105340004300A9000001780081017800C29BBF00E2
:1053500021DE80004624020000000000C2BBB7002E
:1053600021DE8800BA29040000000000C23BEF00E3
:10537000C43BEF00C29BBF0021DE80004F037800DA
:10538000CF02780000000600851F7800861F780095
:10539000BA9BBF00E1DD8000B2A32A0083FB23009B
:1053A00082230200000000001C2302000000000015
:1053B000CBFBB700CC1BA900BA1BF800BE1BF90041
:1053C000BC1BF800C01BF900BA9BBF00E1DD8000E8
:1053D0000200200003002000EA210200000000007B
:1053E0000B003900CC1BA8000400200053DE800015
:1053F000C819DE0003405200CBFBB700E0BB210020
:10540000E1BB210003000900B0187800C1FBAA002D
:10541000C23BEF00C43BEF00CBDBBF000000FB0052
:10542000F007B000CAFBB700CA1BAE000700370088
:1054300025BC2100E282420005007800800278004D
:10544000154278000448B30084429800A1BC2100B2
:105450009150D300A4BC21001470A10025BC2100F0
:10546000E38242000500780080027800CA9BBF00FA
:1054700080429800BE9BBF0001DE8000B2A32A00DC
:1054800083FB2300822302000000000080027800DA
:1054900001037800CBDBBF000000FB00A02102006D
:1054A000000000004300A80000017800810178009E
:1054B0000500780086007800462402000000000005
:1054C000BEBBB70001DE8800C0872800919523008D
:1054D000F2DD800003DE8000822302000000000075
:1054E00080027800010378004300A90005007800DD
:1054F00086007800027E290063AA23004624020069
:1055000000000000C6BBB70041DE8800C69BBF009C
:1055100041DE8000F2DD800003DE80008223020095
:105520000000000080027800010378004300A90019
:10553000050078008600780042DC2100E3C12300EA
:105540004624020000000000C6BBB70041DE880010
:10555000C69BBF0041DE8000F2DD800003DE8000DC
:10556000822302000000000080027800010378001E
:105570004300A9000500780086007800E2052500B8
:1055800033D623004624020000000000C6BBB7004B
:1055900041DE8800C69BBF0041DE8000F2DD800056
:1055A00003DE8000822302000000000080027800F9
:1055B000010378004300A900050078008600780008
:1055C000A2E12F0053E72300462402000000000060
:1055D000C6BBB70041DE8800C69BBF0041DE80002D
:1055E000F2DD800003DE8000822302000000000064
:1055F00080027800010378004300A90005007800CC
:10560000860078008221270013F32300462402003D
:1056100000000000C6BBB70041DE8800BE9BBF0093
:1056200001DE800032DE800043DE80008223020043
:10563000000000004300A90000017800810178000B
:105640000000200001F823004624020000000000B2
:105650000001780081017800C29BBF0021DE80003C
:105660008223020000000000C2BBB70021DE8800D8
:10567000CC1BAE00080037000000200001F823001A
:1056800012DE800023DE80005222020000000000B3
:10569000C2BBB70021DE8800C29BBF0021DE8000B4
:1056A0004F037800CF02780000000600851F7800C5
:1056B000861F7800871F7800881F7800A69BBF0090
:1056C00041DD80000200200003002000EA210200EA
:1056D0000000000058003900AA1BF800BA1BF900AE
:1056E000AC1BF800BC1BF900BE3BEF0004F8230024
:1056F00004DE88008227020000000000800378009A
:10570000010478000700780088007800020020007B
:1057100003002000EA2102000000000046003A00D9
:10572000AA1BF800BA1BF900AC1BF800BC1BF9005F
:10573000BE3BEF000400240004DE88008227020044
:105740000000000080037800010478000700780062
:10575000880078000200200003002000EA210200F7
:105760000000000019003A0035DD800046DD8000B1
:1057700006F0A200D5DD8800E6DD880012280200D0
:105780000000000080027800010378000500780026
:105790008600780052DD800063DD800082230200F5
:1057A000000000008002780001037800D5DD880049
:1057B000E6DD8800C4290200000000000000BE00F1
:1057C00060003700182C04000000000035DD800068
:1057D00046DD800006F0A200D5DD8800E6DD880009
:1057E0001228020000000000800278000103780007
:1057F000050078008600780052DD800063DD8000BF
:10580000822302000000000080027800010378007B
:10581000D5DD8800E6DD8800C42902000000000014
:105820000000BE0001F0A2000000BE0045003700ED
:10583000A22C040000000000A69BBF0041DD8000F8
:105840000200200003002000EA2102000000000006
:1058500017003900AA1BF800BA1BF900AC1BF800AE
:10586000BC1BF900BE3BEF0004F8230004DE8800F7
:105870008227020000000000800378000104780005
:105880000700780088007800020020000300200054
:10589000EA210200000000000500320000002000A4
:1058A0000100200027003700A22C040000000000A7
:1058B000A69BBF0041DD8000020020000300200005
:1058C000EA2102000000000008003A00AA9BBF0085
:1058D00061DD80000200200003002000EA210200B8
:1058E000000000000100310016003A00A61BF8007D
:1058F000BA1BF900A81BF800BC1BF9001228020013
:1059000000000000800278000103780005007800A4
:105910008600780052DD800063DD80008223020073
:10592000000000008002780001037800D5DD8800C7
:10593000E6DD8800C4290200000000000000BE006F
:10594000000037004F047800CF0378004F03780041
:10595000CF02780000000600851F7800A29BBF00E0
:1059600021DD80000200200003002000EA21020067
:10597000000000000100310003003A000000200098
:105980000100200077003700A21BF800A61BF900D9
:10599000A41BF800A81BF90065BA2100E3824200AD
:1059A00095DD880065BA2100E38242000500780099
:1059B00074DD80000042900074DD8800AF7BEF0052
:1059C00065BA2100E28242000500780084DD800093
:1059D0000042900084DD8800B17BEF00E1BA210035
:1059E0009158D200B0FBAE0002003700E4BA2100AB
:1059F0001400A000F407200073DD800084824100C1
:105A000075DD8800AE3BD50004BB21001470A100F9
:105A1000AE1BAE000200370004BB21001470A000D2
:105A2000AE3BD50065BA2100E38242000500780054
:105A300080027800AE9BBF008042980065BA2100CA
:105A4000E28242000500780080027800B09BBF002F
:105A500080429800A61BF800AA1BF900A81BF800BA
:105A6000AC1BF900A29BBF0021DD800032DD80006D
:105A700043DD800052220200000000004300A90024
:105A80000001780081017800A69BBF0041DD800005
:105A90004624020000000000A6BBB70041DD8800DC
:105AA00065BA2100E38242000500780074DD8000C1
:105AB0000042900074DD8800AF7BEF0065BA2100E2
:105AC000E28242000500780084DD80000042900000
:105AD00084DD8800B17BEF00E1BA21009158D2004B
:105AE000B0FBAE0002003700E4BA21001400A000B1
:105AF000AE3BED0004BB21001470A100AE1BAE0054
:105B00000200370004BB21001470A000AE3BD5009A
:105B100065BA2100E3824200050078008002780027
:105B2000AE9BBF008042980065BA2100E28242002D
:105B30000500780080027800B09BBF00804298008A
:105B4000AA9BBF0061DD800032DD800043DD800064
:105B5000EA21020000000000BEFF3A00AA9BBF003D
:105B600061DD8000CF02780000000600851F78000C
:105B7000861F7800871F7800881F780084DC8000EB
:105B800063DC8000830252000500780000F0A6006C
:105B9000020037000400200005005200A02102008E
:105BA00000000000800278000103780035DD8800E5
:105BB00046DD8800AA3BEF000400240064DD880075
:105BC000562B0200000000008002780001037800DC
:105BD00015DD880026DD8800AC2C020000000000E6
:105BE000800278000103780094DC800073DC800080
:105BF000830352000700780000F0A600020037007F
:105C00000400200007005200A02102000000000054
:105C1000800378000104780037DD880048DD8800C3
:105C2000AA3BEF000400240064DD8800562B02002C
:105C3000000000004300A900000178008101780005
:105C4000050078008600780046240200000000006D
:105C50001C2302000000000000A0B7004F047800E1
:105C6000CF0378004F037800CF02780000000600D1
:105C7000851F7800C500200004000900B51F7800CA
:105C800084DB80006220B80024A9200004004000CA
:105C900090027800050278007020B8008002780039
:105CA00064B42000048042001003780084DB80008C
