:08000000089804000000000054
:04003400B20A00000C
:0800400062050000A40B0000A2
:04004C00E6080000C2
:0400880088050000E7
:100200003220EF00C3102000008041001040BA00EF
:100210000160EF00000006003F440000520D0000A6
:10022000000000003220EF00E311200000804100B8
:100230001040BA000160EF00000006003F410000DE
:10024000203100000D0000003220EF0003132000D9
:10025000008041001040BA000160EF00000006007D
:100260003F410000203200000D0000003220EF006E
:1002700023142000008041001040BA000160EF000C
:10028000000006005E4D00004D4F000044200000BD
:1002900031200000305F00005E4D00004D4F000037
:1002A0004420000032200000300D0000000000005B
:1002B0003220EF0043162000008041001040BA00B9
:1002C0000160EF00000006005E4D00004D4F000091
:1002D0004420000031200000335F00005E4D00002C
:1002E0004D4F00004420000032200000330D00007C
:1002F000000000003220EF00631820000080410061
:100300001040BA000160EF00000006002153000019
:10031000203100002025000030340000755F00000F
:10032000215300002032000020250000303400005E
:10033000752000000D0000003220EF00831A20001D
:10034000008041001040BA000160EF00000006008C
:1003500021500000522000003120000025640000E0
:100360005F210000505200002032000020250000D4
:10037000642000000D0000003220EF00831C2000EC
:10038000008041001040BA000160EF00000006004C
:1003900021530000203100002031000030300000E7
:1003A0005F210000532000003220000031300000A7
:1003B000300D0000000000003220EF00831E2000FE
:1003C000008041001040BA000160EF00000006000C
:1003D000215000005220000031200000315F000059
:1003E000215000005220000032200000310D00009A
:1003F000000000003220EF00632020000080410058
:100400001040BA000160EF0000000600215000001B
:100410005220000031200000253000003764000029
:100420005F21000050520000203200002025000013
:1004300030370000642000000D0000003220EF0083
:10044000A3222000008041001040BA000160EF00AC
:1004500000000600214D000053200000310D000077
:10046000000000003220EF00E32320000080410064
:100470001040BA000160EF0000000600214D0000AE
:1004800053200000320D0000000000003220EF0079
:1004900023252000008041001040BA000160EF00D9
:1004A00000000600524500005345000054200000A3
:1004B0003332000031360000353400003938000096
:1004C000372000000D0000003220EF00032720003D
:1004D000008041001040BA000160EF0000000600FB
:1004E0007E4B000050200000312000000D00000075
:1004F0003220EF0043282000008041001040BA0065
:100500000160EF00000006007E4B00004920000063
:10051000312000000D0000003220EF008329200070
:10052000008041001040BA000160EF0000000600AA
:100530007E4B000044200000312000000D00000030
:100540003220EF00C32A2000008041001040BA0092
:100550000160EF00000006007E4B0000502000000C
:10056000322000000D0000003220EF00032C20009C
:10057000008041001040BA000160EF00000006005A
:100580007E4B000049200000322000000D000000DA
:100590003220EF00432D2000008041001040BA00BF
:1005A0000160EF00000006007E4B000044200000C8
:1005B000322000000D0000003220EF00832E2000CA
:1005C000008041001040BA000160EF00000006000A
:1005D0007E4D00004143000020310000200D00004E
:1005E000000000003220EF00E32F200000804100D7
:1005F0001040BA000160EF00000006007E4D0000D0
:100600004445000043200000312000000D000000A0
:100610003220EF0043312000008041001040BA003A
:100620000160EF00000006007E4D00004143000025
:1006300020320000200D0000000000003220EF00FA
:10064000A3322000008041001040BA000160EF009A
:10065000000006007E4D00004445000043200000DD
:10066000322000000D0000003220EF006302200065
:100670008301500005003100033520000080410057
:100680001040BA000160EF000000060000352000B5
:1006900083814100808141001380BA000000060080
:1006A0005E4B49005020200031203200257520008B
:1006B0005F5E25004B49750020315F0020255E00FC
:1006C000755F4B005E4B4400442020003120320017
:1006D000257520005F5E25004B50750020322000FC
:1006E00020250D00755F00005E4B00003220EF00FA
:1006F000E301200083015000050031002339200070
:10070000008041001040BA000160EF0000000600C8
:100710002039200083814100808141001380BA008C
:10072000000006005E4D5F0041435E0020314D0039
:1007300020254400755F45005E4D43004445200080
:100740004320320031202000257525005F5E7500B2
:100750004D41200043200D0032200000257500008F
:100760003220EF00C33B2000008041001040BA005F
:100770000160EF0000000600454500005341000005
:10078000562000000D0000003220EF00033D200045
:10079000008041001040BA000160EF000000060038
:1007A0004361000072740000652000005072000078
:1007B000696E000063690000706100006C650000F4
:1007C000203A0000204300006F6D00006D610000C2
:1007D0006E64000065200000496E0000636F000039
:1007E0006E6E0000756500000D0000003220EF0005
:1007F00023402000008041001040BA000160EF005B
:1008000000000600214D0000470D00000000000020
:100810003220EF0043412000008041001040BA0028
:100820000160EF00000006005E4D0000444500003E
:10083000432000003120000039300000303000003B
:100840005F5E00004D440000454300002032000080
:100850002039000030300000300D000000000000A2
:100860003220EF00C3432000008041001040BA0056
:100870000160EF000000060021530000203100005D
:10088000203000005F2100005320000032200000D3
:10089000300D0000000000003220EF0083452000F2
:1008A000008041001040BA000160EF000000060027
:1008B0005E4D000044450000432000003120000050
:1008C00036300000303000005F5E00004D44000014
:1008D0004543000020320000203600003030000088
:1008E000300D0000000000003220EF00034820001F
:1008F000008041001040BA000160EF0000000600D7
:10090000215300002031000020250000755F000009
:10091000215300002032000020250000750D00004A
:10092000000000003220EF00E34920000080410079
:100930001040BA000160EF000000060021450000F1
:10094000582000000D0000007E9DBF000080B20016
:100950000100320008003700801DE20002003A006A
:10096000D682A90001003700D682A800D282A90051
:10097000C004040000000000C004040000000000E7
:1009800000000600851F7800861F78007A3DEF0082
:10099000D4EB80006120E10047003D00D4EB8000F3
:1009A0006820B80080027800E282420005007800EA
:1009B000845821000400400090027800D4EB8000AD
:1009C0006823B80084582100040043000002780026
:1009D000140078000028E10010003D007A1DF800A6
:1009E0007E1DF9001400200004EC8800A40402001D
:1009F00000000000D4EB80006820B800800278007E
:100A0000E282420005007800845821008402400000
:100A1000950AE8005605040000000000D4EB8000B1
:100A20006820B80080027800E28242000500780069
:100A3000845821000400400090027800540C2000EB
:100A40000520E1000F0034007A1DF8007E1DF9003A
:100A5000803DEF00A404020000000000D4EB800001
:100A60006820B80080027800E28242000500780029
:100A70008458210084024000950AE80056050400CD
:100A800000000000D4EB80006820B80080027800ED
:100A9000E282420005007800845821008402400070
:100AA000804AEB0000C0B300904298007A3DEC0011
:100AB000C8040400000000004F037800CF02780053
:100AC000000006004200F8003600F8003200F8008E
:100AD000801F7800200020000C000900B01F780063
:100AE0000621EF00C20402000000000084C0A9003B
:100AF000A00120000C0009004F1078004F00780082
:100B00003200F9003600F9004200F900004006000A
:100B10004200F8003600F8003200F800801F78002C
:100B2000200020000C000900B01F78001802AE0061
:100B3000FEFF3700E01080004AFDB700F4AE8000F1
:100B40004822DE0023882000830242004A9DBF0025
:100B500080429800DF75EC0054EA80006D24E100CB
:100B600003003A00DFD5BF00DEF5B700DF75EF0008
:100B70008700A900A00120000C0009004F10780098
:100B80004F0078003200F9003600F9004200F90009
:100B900000400600851F78002498200064EA880041
:100BA0004E7DEF0074EA80000960EF0063EA800088
:100BB00004804100104278006D24E10014003200EE
:100BC00074EA80000960EF0063EA8000048041005D
:100BD000104278006324E1000D00320074EA8000C6
:100BE0000960EF0063EA80000480410090427800D1
:100BF000054078000F22AF00FEFF370010E2B7007B
:100C00001162EF004E7DEC00D205040000000000F0
:100C100074EA80000960EF0063EA8000048041000C
:100C200090427800054078000F22AF00FEFF3700A9
:100C300010E2B7001162EF0074EA80000960EF0073
:100C4000239820008302420074EA80000960EF00CC
:100C500063EA800004804100904A7800CF02780067
:100C600000000600851F7800C50020000300090071
:100C7000B51F78000202B80003F0A600020037009A
:100C80000383B900010037000303B8004200A90044
:100C90008502430060844B0001F0A600020037008B
:100CA000028BB90001003700020BB80085024B002F
:100CB00008844B000980B000038BB90008044B0086
:100CC00087834C0087017800080178008500780050
:100CD000040078002501200003000900CF127800ED
:100CE000CF02780000000600851F7800861F78007C
:100CF000871F7800763DEF00723DEF00A4002000D2
:100D0000A4EB88006E3DEF00703DEF006C1DE2002B
:100D100003003A000000200001002000E900370035
:100D2000769DBF00763DEC008002780005007800DB
:100D30006C1DB400C4EB800000429000C4EB88003E
:100D4000C4EB8000D4C2B2000C003A0014002000B2
:100D500094EB8800769DBF00763DEC008002780021
:100D6000050078006C1DB400C4EB800000429000C8
:100D7000C4EB8800D406040000000000C4EB80002F
:100D8000B4C2B20008003A00769DBF00763DEC0088
:100D900080027800050078006C1DB400C4EB800070
:100DA00000429000C4EB8800C4EB800003032000E5
:100DB000041CE100B3003C00C4EB8000930320005E
:100DC000041CE100AF003500C4EB800004C3B20096
:100DD00015003A00769DBF006C1DB40010427800EB
:100DE00084C7B20005003200769DBF006C1DB400C0
:100DF0001042780084C5B2000B003A0004012000C4
:100E0000A4EB8800763DEC00769DBF00763DEC00BB
:100E100080027800050078006C1DB400C4EB8000EF
:100E200000429000C4EB8800A4EB80006A20E1003F
:100E300028003A00C4EB800003032000041CE100FA
:100E400022003C00C4EB800093032000041CE1005E
:100E50001E003500A00020000100200072EB800081
:100E600083EB800032060200000000008002780060
:100E700001037800C4EB80000443B1000440780013
:100E800000E0B7000000FB008000EB0000F0A700CE
:100E90008080EB00050040006EBDB7000680480072
:100EA00070BDB700769DBF00763DEC0080027800F3
:100EB000050078006C1DB400C4EB80000042900077
:100EC000C4EB88001A070400000000004208040078
:100ED00000000000A4EB80007020E10069003A00EF
:100EE000C4EB800013062000041CE10007003E0054
:100EF000C4EB8000A3072000041CE10003003900BC
:100F000078DDBF00F04DB2000100370078DDBF0092
:100F100078FDB700C4EB800003032000041CE1004F
:100F200005003C00C4EB800093032000041CE1009A
:100F30000100350008003700C4EB800013042000D6
:100F4000041CE1004F003C00C4EB8000630420005F
:100F5000041CE1004B003500C4EB800003032000BB
:100F6000041CE1001B003C00C4EB80009303200044
:100F7000041CE100170035004400200075EB8000E0
:100F800086EB80000402E8000402E900030032005E
:100F90008502D0000683D200FBFF3700C4EB80003F
:100FA0000443B1000440780000E0B7000000FB00FB
:100FB0008000EB0000F0A7008080EB0005004000FF
:100FC0006EBDB7000680480070BDB700140804006D
:100FD000000000004400200075EB800086EB8000DC
:100FE0000402E8000402E900030032008502D00098
:100FF0000683D200FBFF3700C4EB80001444B1002D
:101000000440780000E0B7000080FB000160EF00C2
:101010006A004000050040006EBDB70004002000DB
:1010200006004A0070BDB700769DBF00763DEC001B
:1010300080027800050078006C1DB400C4EB8000CD
:1010400000429000C4EB8800C4EB8000130620002F
:10105000041CE10007003E00C4EB8000A307200051
:10106000041CE1000300390078DDBF00F04DB20040
:101070000100370078DDBF0078FDB7008A07040063
:1010800000000000A4EB80006A20E1000B003A00A1
:1010900094EB80006120E10008003A000400200089
:1010A00073EB8000030052006EBDB7000400200007
:1010B00083EB800003005A0070BDB7006E9DBF0037
:1010C00081EB8000CF0378004F037800CF027800D7
:1010D00000000600851F780010C0B30050FDB70067
:1010E000517DEF00527DEF00543DEF00563DEF0083
:1010F000583DEF005A3DEF005C3DEF005E7DEF0094
:1011000084EA80000960EF00040078004C1DB40000
:10111000104278006324E1002A00320084EA800053
:101120000960EF00040078004C1DB4001042780004
:1011300004C2B2000D00320084EA80004822DE00C2
:1011400043D521008302420084EA80000960EF0059
:10115000040078004C1DB400904A7800507DEC00EB
:10116000517DEC008E0804000000000084EA80003D
:101170004822DE0043D5210083024200804AEB0072
:10118000507DEC00517DEF0052DDBF000160EF00AB
:101190004200DD0074EA80008402400044D5210052
:1011A00064EB8800740602000000000004002000C8
:1011B000B41A7800B41A7800527DEC00800804005C
:1011C00000000000CF027800000006004200F80096
:1011D0003600F8003200F800801F78002000200060
:1011E0000C000900B01F78000416AF00AA003700F9
:1011F0000436A8000E02AE00A70037000E02AE00B3
:10120000FEFF3700901080004AFDB7000456AE0084
:101210000700370054EA80006624E10004003A0029
:101220000456A9000777EF00480A040000000000F8
:101230000456AE001000370054EA80007524E10027
:101240000D003A0007D7BF0034A680000024E1005B
:1012500005003600CA050200000000000777EC0018
:1012600038090400000000000456A9000777EF00C9
:10127000480A04000000000054EA80006224E100F3
:101280000A003A000657E20008003A000B7BEF0024
:101290000BDBBF000AFBB70010C0B30006F7B700B6
:1012A0000576EF00480A04000000000054EA8000C0
:1012B0006324E1003F003A0034B880006524E10077
:1012C0003C003A0054D880006324E100030032005F
:1012D00054D880006D24E10001003A000A7BEC0044
:1012E00054D880004822DE006324E100040032006C
:1012F00054D880004822DE006D24E10001003A004D
:101300000B7BEC000ADBBF00085BE3001E003A0029
:101310000BDBBF00095BE3001B003A0024B0800038
:101320004822DE00636021008302420030C0B30027
:10133000804A78006460210064EA8800847021009B
:1013400074EA88006A080200000000000897BF00E5
:10135000C814E3000A003A000A97BF00CA14E30069
:1013600007003A000416A80060C0B3000F22AF00C7
:10137000FEFF370010E2B7001162EF000456A8002C
:10138000CE0904000000000050C1B3000F22AF00DE
:10139000FEFF370010E2B7001162EF000677EF00A2
:1013A0000576EF000777EF000436A900480A04002D
:1013B0000000000034B880006124E10004003A001D
:1013C00020C0B30006F7B700480A04000000000080
:1013D00034B880006224E10006003A004ADDBF0014
:1013E00008FBB70030C0B30006F7B700480A040096
:1013F0000000000034B880006324E10004003A00DB
:1014000040C0B30006F7B700480A0400000000001F
:1014100034B880006424E10006003A004ADDBF00D1
:1014200009FBB70050C0B30006F7B700480A040034
:101430000000000034B880006524E10014003A0088
:101440000ADBBF004A5DB4000AFBB7000BDBBF003C
:101450004A5DB4000AE0B70024B080004822DE00F4
:1014600061024200040078000B60EF000028B80021
:101470000BFBB70024B080004822DE00636021002F
:10148000830242004A9DBF00804298000576EC002E
:10149000FA080400000000008520A900A001200037
:1014A0000C0009004F1078004F0078003200F9005E
:1014B0003600F9004200F90000400600851F780060
:1014C000C500200003000900B51F780009002000B6
:1014D0004300AF0019002000891F78000002EB00D4
:1014E0008002EB000003EB008003EB0003046900C3
:1014F00011003200080220004200A9000080D20042
:101500008180D2000482D2008582D2000328E100CB
:1015100001003A0002A0E10003003900020252007B
:1015200083825A004200A8000683D2008783D2003B
:101530000804E900F0FF3A00870078000600780010
:10154000CF0478000900E000010032000400BE0072
:101550002501200003000900CF127800CF02780097
:10156000000006004200F8003600F8003200F800E3
:10157000801F7800200020000C000900B01F7800B8
:101580006028EC004220AF006228EC006408E20012
:1015900002003A006608E2001600320004438000B0
:1015A000234380000300520068A8B7001443800062
:1015B0003343800003005A006AA8B7004300A80024
:1015C0006888BF0051438000823E20000300200055
:1015D0005E0A02000000000080027800010378002B
:1015E0000500E00003003A000600E00001003A00B8
:1015F0006D68EC00644380004822DE00C4C5B20080
:1016000001003A005A08A8006408E20002003A000B
:101610006608E2000E0032004300A8006888BF00A0
:101620005143800062A68000030020005E0A020091
:101630000000000080027800010378000500E0004F
:1016400003003A000600E00001003A005A48A800F2
:101650006408E20002003A006608E2000E00320070
:101660004300A8006888BF0051438000421F20004B
:10167000030020005E0A02000000000080027800E3
:10168000010378000500E00003003A000600E000D6
:1016900001003A005AA8AA000436AE000D00370037
:1016A000303BEC0025CCBF000160EF0084D9800006
:1016B0000020E100050039000677EF000576EF0015
:1016C0000777EF000456A9000436A9006C0B04004C
:1016D00000000000303BEF006408E20002003A0026
:1016E0006608E20006003200644380004822DE0003
:1016F00023062000041CE10001003E005A28A80037
:101700006408E20002003A006608E20005003200C8
:10171000644380004822DE00C3052000041CE10071
:1017200000003E008460A900A00120000C00090018
:101730004F1078004F0078003200F9003600F900B1
:101740004200F900004006004200F8003600F800B0
:101750003200F800801F7800200020000C000900F3
:10176000B01F78005A68AE00010037000476AA0066
:1017700084E0A900A00120000C0009004F107800AF
:101780004F0078003200F9003600F9004200F900FD
:1017900000400600881F780028012000040009008E
:1017A000B81F78008005EB006066B800030478007D
:1017B00087047800FA7F20004200A9004220A90097
:1017C00044C4DE00080465000800E0007100320037
:1017D0004200A9004220A900C4CCDE0089046500B3
:1017E0000900E0006B0032000884440009B0A70043
:1017F00004003700F83FB100660032006500390090
:10180000030037001A402000854245006100310086
:10181000878669004200A9004220A900F300B200B7
:101820000340A000F700B2000740A000881F780026
:101830000124B800002DB8000A0544008B854C0037
:101840000C80B0000224B8008B0544000C864C00CC
:10185000012CB8000005EB008B0544000C864C0001
:101860000A80B0000034B8008B0544000C864C00A0
:101870000A80B0008005EB000324B8000C06440089
:101880000A854C000B80B000022CB8000C06440006
:101890000A854C000B80B0000134B8000C064400EF
:1018A0000A854C000B80B000003CB8000C064400D8
:1018B0000A854C000B80B0000C0078000006EB009D
:1018C000032CB8000A0544008B854C000C80B00046
:1018D0000234B8000A0544008B854C000C80B0002F
:1018E0000334B8008B0544000C864C00013CB80062
:1018F0000A0544008B854C000C80B000023CB80007
:101900008B0544000C864C00033CB8000C064400D8
:101910008A0078000B0178008C01780054002000C8
:101920004200A9008381D3000281D3008180D300CB
:101930000080D3000402E900F9FF3A004F04780068
:101940000804E800010370000100320002003700C3
:1019500003037100080032000340A70006003700AF
:101960004200A9000080D2008180D2000281D20012
:101970008381D2000804E9004444DD0003F0A100A3
:101980000DF0A70003F0A0000340A10083016C004C
:10199000030037006000B8006001B80000003700A5
:1019A000A8012000040009004F1478004F047800BB
:1019B00000000600881F78002801200004000900AC
:1019C000B81F7800878669000304780087047800D0
:1019D000FA7F20004200A9004220A90044C4DE0092
:1019E000080465000800E0006C0032004200A90015
:1019F0004220A900C4CCDE00890465000900E00093
:101A0000660032000005EB000906540003003900AF
:101A1000FC3FB00061003100040037001B40200093
:101A20000B0656005D0039005C0032000004EB003C
:101A30008004EB000005EB008005EB00F301B20031
:101A40000340A000F701B2000740A0008C1F7800FF
:101A50006C032000040050008580580006015900E6
:101A600087815900020033000600310006003A0069
:101A70000400400085804800060149008781490034
:101A8000010037000800A0000C06E9000B0032003E
:101A90004200A9000080D2008180D2000281D200E1
:101AA0008381D2004200A9000884D2008984D20038
:101AB0000A85D2008B85D200E6FF37004F067800FA
:101AC0000B50A70001003700060037004200A900B4
:101AD0008B85D3000A85D3008984D3000884D30082
:101AE000030037000C06E9004200A9002B00320079
:101AF0004200AF00090037000080D2008180D20090
:101B00000281D2008381D2000402500085825800F5
:101B10000603590087835900150039000804E800BE
:101B200013003A008904E80011003A000A05E800B1
:101B30000F003A008B05E8000D003A000C06E800A3
:101B4000160032000A0037000C06E90013003200CC
:101B50000B40A700060037004200A9000884D2000D
:101B60008984D2000A85D2008B85D200F8FF370025
:101B70004466DD004200A9000CF0A1000DF0A700B2
:101B80000CF0A0000B40A1008B016E000A01780050
:101B90008900780008007800050037000000200068
:101BA0000100200002002000030020000000370098
:101BB000A8012000040009004F1478004F047800A9
:101BC000000006000000E0004220AF0006003700E1
:101BD0001B0E090000000000FE3F0900000000008D
:101BE0000000E900FAFF3A0000000600046C230040
:101BF00004168800C222EF008407200034168800F3
:101C0000C822EF00CC22EF00CE22EF00D222EF005C
:101C1000D422EF0044092000F4168800E022EF00EF
:101C20000408200024178800E622EF00F4002800B2
:101C3000341088000421EF0004E224001408880016
:101C400004002800240888001221EF0024A12700A6
:101C50007408880004022800940888008C60A8009A
:101C60008CE0A8008F00A80081E0A9004220EF00CE
:101C700081E0A800A0002000E20D020000000000AA
:101C8000A0002000E20D020000000000000006009D
:101C90008D20A80000000600F0FF2F000862AE00B3
:101CA0000500370009C2AF00FEFF370011108800A1
:101CB00009C2AF00FEFF37000000200009E2AF00BC
:101CC0000000E800000006000862AE0004003700D3
:101CD0000622A8000622AF00FEFF370003003700EF
:101CE0000602A8000602AF00FEFF370001C2B300E3
:101CF0004C0E02000000000001C1B3004C0E0200B7
:101D0000000000003ADBBF0002E0B7004C0E02000A
:101D1000000000003BDBBF00804078004C0E02005A
:101D2000000000003CDBBF0002E0B7004C0E0200E8
:101D30000000000001C4B3004C0E020000000000CF
:101D4000F00120000602B600FDFF3A000642A8009E
:101D50000642AF00FEFF370000000600851F780036
:101D6000E4D98000831320000320B80080027800AB
:101D7000F4D980007820B8008502400064C22000B9
:101D800004804200901F7800AE14F900E4D980006E
:101D9000831320000320B80080027800F4D980006B
:101DA0007820B80085024000E282420005007800F9
:101DB00064C2200004004000901F7800B014F900B5
:101DC000E4D98000831320000320B800800278004B
:101DD000F4D980007820B80085024000E4824200F7
:101DE0000500780064C2200004004000901F7800C5
:101DF000B214F900E4D98000831320000320B80056
:101E000080027800F4D980007820B8008502400074
:101E1000E68242000500780064C220000400400011
:101E2000901F7800B414F900E4D9800083132000D7
:101E30000320B80080027800F4D980007820B80030
:101E400085024000E88242000500780064C220005C
:101E500004004000901F7800B614F900E4D9800017
:101E6000831320000320B80080027800F4D980009A
:101E70007820B80085024000EA8242000500780020
:101E800064C2200004004000901F7800B814F900DC
:101E9000E4D98000831320000320B800800278007A
:101EA000F4D980007820B80085024000EC8242001E
:101EB0000500780064C2200004004000901F7800F4
:101EC000BA14F900E4D98000831320000320B8007D
:101ED00080027800F4D980007820B80085024000A4
:101EE000EE8242000500780064C220000400400039
:101EF000901F7800BC14F900E4D9800083132000FF
:101F00000320B80080027800F4D980007820B8005F
:101F100085024000F08242000500780064C2200083
:101F200004004000901F7800BE14F900E4D980003E
:101F3000831320000320B80080027800F4D98000C9
:101F40007820B80085024000F28242000500780047
:101F500064C2200004004000901F7800C014F90003
:101F6000E4D98000831320000320B80080027800A9
:101F7000F4D980007820B80085024000F482420045
:101F80000500780064C2200004004000901F780023
:101F9000C214F900E4D98000831320000320B800A4
:101FA00080027800F4D980007820B80085024000D3
:101FB000F68242000500780064C220000400400060
:101FC000901F7800C414F9005B88AE002D00370024
:101FD000B294BF000080B200030032001080B20053
:101FE000110032002500370074A58000430B20004B
:101FF0000418E10006003500440B200073A58000A2
:1020000003005200AEB4B70010100400000000003E
:10201000C421200073A5800003005200AEB4B700B5
:102020004210040000000000F443800073A580000B
:1020300003005200AEB4B700B4A580006120E100F7
:1020400004003A0024002000B4A588003A100400DF
:1020500000000000B4A580006220E10004003A0006
:1020600014002000B4A588003A100400000000000D
:10207000B634EF00421004000000000042100400DB
:1020800000000000CF0278000000060001002F00D1
:1020900083814000F1072000E08048009101880022
:1020A0000500A1000500E00003003200331ABA0069
:1020B0008582E900FCFF3A0000000600851F7800D9
:1020C000861F78005E3BEF00627BEF00643BEF0011
:1020D000663BEF00683BEF00607BEF0004DB8000B5
:1020E0006724E10024003100617BEF0004DB800005
:1020F0004822DE006D24E1001C003100627BEF000D
:1021000014DB80006C24E1001500310004DB80004A
:102110000960EF00831320000320B80080027800DC
:1021200004DB80004822DE007820B80085024000F1
:1021300062DBBF000160EF004100DD0005004000F0
:1021400064C2200084024000804AEB0000C0B3005B
:1021500090429800627BEC008010040000000000B8
:10216000617BEC007610040000000000607BEC0056
:102170006E10040000000000E3FF200004002000B7
:1021800025002000461002000000000081E8B70092
:10219000044480004822DE00F4CFB20001003A007F
:1021A0008168EF000036EF00643BEF0081C8BF009C
:1021B0000160EF0024DB80000020E1003B003100E3
:1021C00003B080000400200025002000461002001B
:1021D0000000000068BBB70004B08000620242004B
:1021E00084027800851F78008501780004002000B3
:1021F000250020004610020000000000CF027800F9
:1022000066BBB7005E3BEF00F4DA80007820E100A7
:102210002000310044DB8000831320000320B8003D
:102220008002780034DB80007820B800850240000E
:10223000F6DA80004133DE004130DD000500400069
:1022400064C2200084024000F4DA8000640242008C
:1022500004037800060078000016B400000378003C
:10226000851F7800860178000400200025002000EA
:102270004610020000000000CF027800800A7800BB
:10228000F4DA800062024200F4DA880004110400EB
:102290000000000004B080007C02420004B088000E
:1022A000643BEC00D61004000000000081C8BF00B1
:1022B000CEF4B700CF74EF004F037800CF02780060
:1022C00000000600851F7800861F7800871F7800B1
:1022D0005E3BEF00603BEF00623BEF00643BEF00D2
:1022E000601BE2000C013A0013B0800004002000E3
:1022F00025002000461002000000000064BBB7006B
:1023000024DB8000F3FF2F000418E100FE00320000
:102310005E3BEF00F4DA80007020E1001E00310027
:10232000F4DA80006202420084027800050078003E
:102330000216B40080027800851F780085017800BD
:1023400004002000250020004610020000000000CC
:10235000CF02780062BBB700F5DA8000C12ADE0048
:102360004228DD00A4BF20008402400014DB80006E
:102370008402980000C0B300A042980000C0B300DF
:10238000B0429800F4DA800062024200F4DA880079
:102390008A1104000000000024DB8000E1025200EA
:1023A000C42ADD00A4B5200004834200A4BF20009D
:1023B000341B7800341B780024DB8000E1025200DB
:1023C000C42ADD00E482420005007800A4B52000A4
:1023D00084024000E4BF2000B41A7800B41A7800E8
:1023E00024DB8000E1025200C42ADD00E8824200C2
:1023F00005007800A4B5200084024000A4C020009D
:10240000B41A7800B41A780024DB8000E10252008C
:10241000C42ADD00EC82420005007800A4B520004B
:1024200084024000E4C02000B41A7800B41A780096
:1024300024DB8000E1025200C42ADD00A4B52000A4
:1024400004804200C4002000301A7800301A78005E
:102450006038E10012003C000300350084162000C3
:102460000620E1000E00360024DB8000E10252006D
:10247000C42ADD00A4B5200004834200004BEB0019
:1024800000C0B3001043980000C0B3002043980080
:1024900000C0B30030439800661204000000000042
:1024A00024DB8000E1025200C42ADD00A4B5200034
:1024B0000483420016027800440BB100040B78003C
:1024C0005602780060005A000003980024DB800068
:1024D000E1025200C42ADD00E482420005007800D7
:1024E000A4B5200004004000A4002000301A7800A9
:1024F000301A78006030E10014003C000300350021
:10250000841620000520E1001000360024DB800046
:10251000E1025200C42ADD00E48242000500780096
:10252000A4B5200084024000804AEB0000C0B30044
:102530009042980000C0B300A042980000C0B300D1
:10254000B0429800C01204000000000024DB8000AC
:10255000E1025200C42ADD00E48242000500780056
:10256000A4B520008402400015027800440BB1009D
:10257000840A78005502780060005A0080029800B2
:1025800024DB8000E1025200C42ADD00E882420020
:1025900005007800A4B5200004004000A40020003D
:1025A000301A7800301A78006030E10015003500EC
:1025B00003003C0004A520000520E10011003100CB
:1025C00024DB8000E1025200C42ADD00E8824200E0
:1025D00005007800A4B520008402400080CBB30041
:1025E000804A7800B0C0B3009042980000C0B300A9
:1025F000A042980000C0B300B04298001C13040031
:102600000000000024DB8000E1025200C42ADD004B
:10261000E882420005007800A4B520008402400052
:1026200015027800440BB000840A78005502780047
:1026300060024A00840A780024DB8000E102520034
:10264000C42ADD00EC82420005007800A4B5200019
:1026500004004000A4002000301A7800301A7800EE
:102660006030E1001500350003003C008466200066
:102670000520E1001100310024DB8000E10252005E
:10268000C42ADD00EC82420005007800A4B52000D9
:102690008402400000CDB300804A780070C0B300CF
:1026A0009042980000C0B300A042980000C0B30060
:1026B000B0429800781304000000000024DB800082
:1026C000E1025200C42ADD00EC82420005007800DD
:1026D000A4B520008402400015027800440BB0002D
:1026E000840A78005502780060024A00840A780063
:1026F00014B080007202420014B088008068EC00C0
:1027000088130400000000001400200004DB88008F
:102710007011040000000000CF0378004F03780020
:10272000CF02780000000600851F7800C500200059
:1027300003000900B51F78000002780081027800CC
:1027400002037800830378000000EB008000EB00B8
:102750000001EB008001EB000800A10007F0A600DB
:10276000050037000800A0000402EA008582EA00A4
:102770000683EA008783EA008504720002003A00BB
:102780008704730015003200394720000340A7007A
:102790000B0037004200A9000482D2008582D200DB
:1027A0000683D2008783D2000080D2008180D200CD
:1027B0000281D2008381D2008904E900F3FF3A004C
:1027C000C44CDD004200A90009F0A1000340A100B3
:1027D00083816C000800A70003F0A0002501200001
:1027E00003000900CF127800CF0278000000060035
:1027F000851F7800861F7800871F7800881F780063
:1028000003FF2000040020002500200046100200E5
:1028100000000000A0B5B70023FF20000400200046
:10282000250020004610020000000000A2B5B700FD
:1028300043FF200004002000250020004610020075
:1028400000000000A4B5B7005B88AE00120037009E
:10285000F443800003AD800003005200A0B5B70030
:1028600024AD8000430B20000418E1000600350071
:10287000440B200023AD800003005200A4B5B70034
:102880004C14040000000000C421200023AD80008F
:1028900003005200A4B5B700A495BF008001EB006F
:1028A00000F0A7008081EB0083007800030178002E
:1028B000941302000000000084D12200454425004A
:1028C000B61F220097002400CA0B0200000000007F
:1028D0008002780001037800820378000304780006
:1028E000851F7800861F7800871F78000500780014
:1028F0008600780007017800880178000400200035
:10290000050020000600280067062400DA0C0200FB
:1029100000000000CF0378004F037800CF0278005A
:10292000AEB5B70081AD880092AD8800A3AD880038
:102930004F047800CF0378004F037800CF0278006F
:1029400000000600851F7800C50020000300090074
:10295000B51F7800090020004300AF0019002000D7
:10296000891F78008384680001F0A6000300370007
:102970008180EA000000EA00E080480003F0A60041
:10298000030037008381EA000201EA00E081490088
:1029900003026900150032000002EB008002EB0028
:1029A0000003EB008003EB00080220004200A900B6
:1029B0000080D2008180D2000482D2008582D200C1
:1029C0000328E10001003A0002A0E1000300390001
:1029D0000202520083825A004200A8000683D200FD
:1029E0008783D2000804E900F0FF3A0009F0A6004E
:1029F000070037000600EA000100320002003A003A
:102A00008700EA00050037008780EA0003003700EE
:102A1000870078000600780000003700CF047800B7
:102A20000900E000010032000400BE002501200082
:102A300003000900CF127800CF02780000000600E2
:102A4000851F7800861F7800871F7800881F780010
:102A5000523BEF00962AEF00543BEF00A4DA8000CF
:102A60006A20E1000A003D00A4DA80006220B8007C
:102A700064AA200084024000804AEB0000C0B3003A
:102A800090429800543BEC002E150400000000001A
:102A900074DA800053DA8000030052008000EB00FB
:102AA00000F0A7008080EB0056BBB700C1DA8800B9
:102AB00084DA800063DA8000030052008000EB00BB
:102AC00000F0A7008080EB005ABBB700E1DA880075
:102AD0005E3BEF005E3BEC005E9BBF008000EB00C6
:102AE00000F0A7008080EB004200F80081E0A90020
:102AF00042E0EF0081E0A800000178008101780049
:102B0000569BBF00C1DA80003206020000000000C0
:102B100081E0A9004200F90081E0A800800278006D
:102B2000010378004300A9000500780086007800C2
:102B30004206200003002000A21402000000000052
:102B400028BBB70051D988005E9BBF008000EB0016
:102B500000F0A7008080EB004200F80081E0A900AF
:102B600042E0EF0081E0A8000001780081017800D8
:102B70005A9BBF00E1DA800032060200000000002C
:102B800081E0A9004200F90081E0A80080027800FD
:102B9000010378004300A900050078008600780052
:102BA0004206200003002000A214020000000000E2
:102BB0002CBBB70071D98800523BEF0094DA80003B
:102BC0006A20E10067003D004A9BBF008000EB00E7
:102BD00000F0A7008080EB0044D980008402400010
:102BE00054D980000483480094DA80007020B80033
:102BF00080037800A4B52000048043000002780020
:102C000003002000B4197800B41978000608E10028
:102C100051003C00020035000500E1004E0031008B
:102C20004A9BBF008000EB0000F0A7008080EB0013
:102C300044D980008402400054D9800004834800B5
:102C400094DA80007024B80068044400080078001A
:102C5000A4B520000400400000027800030020001A
:102C6000B4197800B41978000130E1003A003C0052
:102C7000020035000028E100370031004C9BBF0006
:102C80008000EB0000F0A7008080EB0064D980009A
:102C90008402400074D980000483480094DA8000E4
:102CA0007020B80080037800E483430007007800B8
:102CB000A4B52000040040000002780003002000BA
:102CC000B4197800B41978000608E10022003C002D
:102CD000020035000500E1001F0031004C9BBF00E1
:102CE0008000EB0000F0A7008080EB0064D980003A
:102CF0008402400074D980000483480094DA800084
:102D00007020B80080037800EC834300070078004F
:102D1000A4B5200004004000000278000300200059
:102D2000B4197800B41978000130E1000A003C00C1
:102D3000020035000028E10007003100B454800093
:102D40006220B80064AA20008402400094DA800067
:102D500084029800962AEC00523BEC00DE15040039
:102D600000000000F4DA8000430620000418E100AF
:102D700002003400960AE20056FF3200B45480008C
:102D80006020E10003003400982AEF00CE16040012
:102D90000000000014002000C45488004F04780094
:102DA000CF0378004F037800CF02780000000600C0
:102DB000851F7800861F7800871F7800881F78009D
:102DC000982AEF00A095BF008000EB0000F0A7005C
:102DD0008080EB0018BBB700D1D88800A295BF0057
:102DE0008000EB0000F0A7008080EB001CBBB70068
:102DF000F1D88800AE94BF008000EB0000F0A7007F
:102E00008080EB0020BBB70011D98800B094BF00D0
:102E10008000EB0000F0A7008080EB0024BBB7002F
:102E200031D98800C5D88000E6D8800007D9800055
:102E300028D9800055DA880066DA880077DA8800B9
:102E400088DA88002015020000000000B4548000D9
:102E50006020E10003003400982AEF0036170400D8
:102E60000000000014002000C4548800980AF800F4
:102E70000000F9004F047800CF0378004F0378007A
:102E8000CF027800000006007A9BBF0094DB800030
:102E90000020E100140034007C9BBF00A4DB800014
:102EA0000020E1000400340044002000F4DB88002E
:102EB0007017040000000000789BBF00A4DB8000B6
:102EC0000020E1000400340034002000F4DB88001E
:102ED000701704000000000024002000F4DB8800CC
:102EE000C617040000000000769BBF0094DB800042
:102EF0000020E100140034007C9BBF00A4DB8000B4
:102F00000020E1000400340054002000F4DB8800BD
:102F1000A017040000000000789BBF00A4DB800025
:102F20000020E1000400340084002000F4DB88006D
:102F3000A01704000000000014002000F4DB88004B
:102F4000C6170400000000007C9BBF00A4DB8000CB
:102F50000020E1000400340064002000F4DB88005D
:102F6000C617040000000000789BBF00A4DB8000AF
:102F70000020E1000400340074002000F4DB88002D
:102F8000C6170400000000007E3BEF007E1BF80027
:102F90000000F90000000600851F7800861F7800F9
:102FA000E10820000600A10000F0A60003003700A1
:102FB0000600A0000000EA00000037000000E0006A
:102FC0001400320000F0A700040037004200A900FE
:102FD0000080D2008100E900FAFF37000180FD0087
:102FE0004200A9008180D30000F0A1000080FD0014
:102FF000814068000040B2000600A70001F0A00078
:1030000007003700014078000170A0000140B200C5
:10301000030037000000EB008000EB0000003700E9
:103020004F037800CF02780000000600851F78006B
:10303000861F7800871F78000382680004F0A600CE
:10304000060037004200A9004220A90001F0A600B6
:10305000260037004200A800240037000102780053
:103060008002780003037800820378008180D20018
:103070000180FD008381D2000380FD0081C05100EA
:103080000500320004F0A6001800370010002000F0
:1030900042E0B60015003700844078008641780091
:1030A0000170A1000370A10081C051000500320031
:1030B00004F0A6000D0037001000200042E0B6002A
:1030C0000A003700858053000500320004F0A60096
:1030D000060037001000200042E0B6000300370071
:1030E0004200A9000100370000003700CF0378003C
:1030F0004F037800CF02780000000600851F78009B
:10310000C500200004000900B51F78008004EB0012
:10311000838468000103780080027800030478004B
:10312000820378008180D2000180FD008180FB0055
:103130000100E0004E0032008381D2000380FD00D8
:103140008381FB000300E000490032000000EB0037
:1031500003C0500003003900F047B00044003100C4
:10316000030037001048B100410039004000320030
:1031700085007800060178000270A000F20FB2000E
:10318000F80FB2000870A0009A0120008001EB0047
:103190000002EB0087805000080159000200330054
:1031A0000400310004003A00878040000801490013
:1031B000010037000400A0000A05E9000700320002
:1031C0004200A9008180D2000281D2004200A90001
:1031D0000482D2008381D200EEFF37000005EB00AD
:1031E0000380A70001003700060037004200A90055
:1031F0008381D3000370A1000482D3000A85D2002A
:10320000020037000000E900190032000AF0A700B0
:10321000050039008180D2000281D20087805000F1
:1032200008015900090039000402E80007003A00CB
:103230008301E80005003A000000E8000C003200BD
:10324000020037000000E900090032000080FD00A4
:103250008080D30001F0A00009F0A60001F0A100D9
:103260000370A10081C069000400780003003700EA
:103270000000200001002000000037004501200070
:1032800004000900CF127800CF0278000000060089
:103290000001780081017800014078000080FD0085
:1032A00000F0A0008180D2000180FD008180FB0041
:1032B000E408200081405200060032000000E000D7
:1032C000040032004200A9000080D3008100E90020
:1032D000FAFF3A0003F0A600020037000000EA00FF
:1032E0000000370000000600851F7800861F780068
:1032F000E10820000000E0001200320000F0A7000A
:10330000040037004200A9000080D2008100E900DB
:10331000FAFF37000180FD004200A9008180D30040
:1033200000F0A1000080FD00814068000040B20074
:1033300007003700014078000170A0000140B20092
:10334000030037000000EB008000EB0000003700B6
:103350004F037800CF02780000000600851F780038
:10336000C500200004000900B51F780000027800A5
:103370008102780083037800020378004200A900EC
:103380004220A9008180D2000180FD00F10FB2002F
:103390000100E0004B0032004200A9004220A900D9
:1033A0008381D2000380FD00F30FB2000300E00030
:1033B000440032000080FB0001C0410004003100E5
:1033C000F007B1003F0032003E0039000200370034
:1033D0001048B0003B00310007856A004200A90098
:1033E0004220A900F50FB2000570A0004200A9001C
:1033F000F70FB2000770A0000621B800062CB80035
:1034000083014C00890078004200AF008100E80091
:103410004200A900043CB80083014C0081804C00AC
:10342000072CB80081004C000000E8000100E0001B
:103430004220AF0001003700030037000300E00026
:103440004220AF000500370001F0A700030037005D
:103450008381D2008180D2000000E9000101780060
:103460004200A9000370A6000900370007F02F00F2
:10347000878161000310B000600149000200E00094
:1034800003003A000300E00001003A000000E800F9
:103490000080FD004200A9004220A9008080D300E6
:1034A0000AF0A70001F0A00002F0A1000280FD00D8
:1034B000814069000380FD0003417800020078002C
:1034C000030037000000200001002000000037004A
:1034D0004501200004000900CF127800CF027800D7
:1034E00000000600851F7800C500200003000900C9
:1034F000B51F78008004EB00080028004300AF00EF
:1035000083016C000000E00003003A00FAFF27008E
:103510000A8560004220AE00010578008A856900B6
:103520000103780083037800030678004220A90095
:103530004200A9000683D2000680FD00F60FB2000B
:103540000600E000A10032004220A9004200A900CC
:103550008783D2000780FD00F70FB2000700E0006C
:103560009F0032004220A9004200A9000638E10075
:103570009C003200A30033000900A1000910A00044
:103580000684530007037800F10FB2000170A00019
:10359000F30FB2000370A000870220000838E1009A
:1035A000110033004220A9004200A9008180D3000D
:1035B0000080D3000804E900FAFF3A000D0037004C
:1035C000870220000838E100090033004220A900EA
:1035D0004200A9008381D3000281D3000804E900DE
:1035E000FAFF3A000F0037000200780083007800ED
:1035F000430037000BF0A600110037000940A70078
:103600008C0578000000EA000200320081C0EA0068
:10361000010037008100EA000940A7002B003700B5
:10362000070037000BF0A600050037000201EA0092
:103630000200320083C1EA00010037008301EA0082
:10364000F50FB2004220A9004200A900020040008C
:1036500083C048004200AF000930A0000900A70065
:10366000090037000910A700010037000B003700E0
:103670000BF0A700150037000930A700290037001C
:103680000960A0001E0037000BF0A7000F003700F4
:103690000930A70023003700190037000920A100D6
:1036A0000BF0A700040037008A0578000930A70056
:1036B0001C003700360037000940A00001C8B200E6
:1036C0000170A700CDFF37008A057800F10FB20026
:1036D000810370000A0032000170A7000800370063
:1036E0004220A9004200A9000080D2008180D200BF
:1036F0000603E9004220AF0031003700F6FF370033
:103700000900A7008A0578000910A7008C05780039
:103710000950A6001A0037000AF0A7000080A00098
:103720001B0037004200A80081C0D3000080D300F6
:103730004200AF000950A0000603E800200032005C
:103740000950A600080037000000E80006003A0013
:103750008140E80004003A0081C0D3000080D3001B
:103760000603E800160032000900A7008A05780069
:103770000910A7008C0578004220AF001000370028
:103780000960A7008A0578000970A7008C057800F9
:1037900001017000230032000170A1000680FD00CD
:1037A0004220A9004200A9000683D30081006B00DB
:1037B00001F0A0000BF0A60001F0A10019003700F5
:1037C0000000200001002000160037000AF0A700CA
:1037D00083016C000200780083007800110037003C
:1037E00010003700F30FB2000370A000F10FB20019
:1037F0000170A0000BF0A7000370A1000920A00039
:1038000088FF370007045300F10FB2000170A000D9
:10381000F30FB2000370A0000910A1000900A0007E
:1038200067FF37002501200003000900CF12780050
:10383000CF02780000000600851F7800861F780000
:10384000CB1BA900C61BF800CC1BF900C81BF80055
:10385000CE1BF900C69BBF0041DE800002002000A5
:1038600003002000161802000000000006003900C6
:10387000CB1BA800C0BC2100C1BC21000300090073
:10388000B0187800CFFBAA00CC9BBF0071DE80008F
:10389000020020000370240016180200000000003F
:1038A000010031000A003A00CC9BBF0071DE8000AD
:1038B0004819020000000000741902000000000016
:1038C000D0BBB70091DE8800FC1C040000000000A3
:1038D000CC9BBF0071DE80000268290083B1240008
:1038E00016180200000000003F003900CC9BBF000A
:1038F00071DE80000200200003802300AE19020068
:10390000000000004819020000000000D4BBB7000E
:10391000CC9BBF0071DE80000200200003802300EA
:10392000AE19020000000000800278000103780058
:10393000D49BBF0074190200000000004300A800DF
:103940000001780081017800050078008600780089
:10395000721A020000000000000178008101780066
:103960000000200001702400AE19020000000000D9
:10397000CCBBB70071DE8800D49BBF007419020075
:1039800000000000000178008101780000002000A4
:1039900001702400AE19020000000000D0BBB70087
:1039A00091DE8800CC9BBF0071DE800048190200C8
:1039B0000000000074190200000000004300A9008C
:1039C0000001780081017800D09BBF0091DE80006B
:1039D000721A020000000000D0BBB70091DE880020
:1039E000FC1C040000000000CC1BF800D01BF900F8
:1039F000CE1BF800D21BF900CC9BBF0071DE80000B
:103A000048190200000000007419020000000000C4
:103A10004300A8000001780081017800CC9BBF0022
:103A200071DE8000721A020000000000CCBBB700FB
:103A300071DE8800CB1BAE000500370000BD210001
:103A400001BD210003000900B0187800D3FBAA00D3
:103A5000CC9BBF0071DE800002002000030020002C
:103A600016180200000000001B003200CB1BAE0045
:103A70000B003700CA5BE20009003A004300A800CF
:103A8000D09BBF0091DE80000200200003F82300DD
:103A9000721A020000000000D0BBB70091DE88005F
:103AA000CB1BAF000C00370054DE80006124E10026
:103AB00009003A004300A900D09BBF0091DE8000BE
:103AC0000200200003F82300721A02000000000028
:103AD000D0BBB70091DE8800C69BBF0041DE8000EE
:103AE0000200200003002000161802000000000061
:103AF00002003A00D03BEF00D23BEF00D09BBF006A
:103B000091DE80004F037800CF02780000000600AD
:103B100010C0B300CAFBB700BA1BF800C61BF900FF
:103B2000BC1BF800C81BF9001C1C020000000000B0
:103B30000000BE0000000600CA7BEF00BA1BF800C0
:103B4000C61BF900BC1BF800C81BF9001C1C0200B6
:103B5000000000000000BE0000000600851F780085
:103B6000861F7800A49BBF0031DD8000020020008A
:103B70000300200016180200000000003C00320084
:103B8000A09BBF0011DD800022DD800033DD8000BE
:103B90007E18020000000000800278000103780017
:103BA0000500780086007800020020000300200055
:103BB00016180200000000000E003900A09BBF0094
:103BC00011DD800022DD800033DD80007E180200E0
:103BD000000000008002780001037800D5DD880035
:103BE000E6DD8800881D020000000000121E0400AF
:103BF00000000000A09BBF0011DD800022DD8000DE
:103C000033DD80007E180200000000008002780092
:103C100001037800D5DD8800E6DD88009C1D0200E8
:103C200000000000A8BBB70051DD8800A89BBF00C2
:103C300051DD800022DD800033DD8000AE190200FE
:103C4000000000004300A800000178008101780016
:103C5000A09BBF0011DD8000721A0200000000006E
:103C60000000BE0002003700381E04000000000003
:103C70004F037800CF02780000000600851F78000F
:103C8000861F7800A01BF800A41BF900A21BF800F7
:103C9000A61BF900A49BBF0031DD800002002000BC
:103CA00003F823001618020000000000C5003200CF
:103CB00045BA2100E382420005007800801F7800A9
:103CC00010407800B5FBB7004F00780045BA2100DE
:103CD000E38242000500780080027800F0C3B30060
:103CE000804A780045BA2100E2824200050078004F
:103CF000A4DD800000429000A4DD880044BB2100C8
:103D00001470A10045BA2100E2824200050078004B
:103D100080027800B49BBF0080429800B5FBAE00E3
:103D20000700370045BA2100E38242000500780011
:103D300080027800154278000448B300844298005D
:103D40004300A800A49BBF0031DD800002002000DA
:103D500003F82300721A02000000000080027800BD
:103D6000010378004300A900A49BBF0031DD80005F
:103D70000200200003F82300721A02000000000075
:103D80000001780081017800050078008600780045
:103D90007E18020000000000A4BBB70031DD8800DF
:103DA000A49BBF0031DD800022DD800033DD800078
:103DB000AE19020000000000B0BBB70091DD880022
:103DC00090792400A1F82B0082DD800093DD800033
:103DD000AE190200000000008002780001037800A4
:103DE0004300A9000500780086007800020020004A
:103DF00003002400721A020000000000A8BBB700F4
:103E000051DD8800C0342F00A1DB230082DD80005B
:103E100093DD8000AE1902000000000080027800EF
:103E2000010378004300A9000500780086007800AF
:103E3000B2D22900F3F52B00721A02000000000034
:103E4000ACBBB70071DD8800AC9BBF0071DD8000AA
:103E500082DD800093DD8000AE19020000000000CA
:103E600080027800010378004300A9000500780073
:103E7000860078000200200003F82300721A020076
:103E800000000000ACBBB70071DD8800A49BBF0040
:103E900031DD800042DD800053DD8000AE1902007C
:103EA000000000008002780001037800050078001F
:103EB0008600780062DD800073DD80007E180200DD
:103EC00000000000A8BBB70051DD880005BA210042
:103ED000E382420005007800A4DD800000429000EB
:103EE000A4DD880041BB21009158D20005BA210011
:103EF000E282420005007800801F780010407800C0
:103F0000B5FBB7004F007800B5FBAE0002003700EC
:103F100044BB21001400A000A4DD80000960EF0074
:103F2000E307200003005200B6FBB700B6DBBF007A
:103F30000000FB006000E1000B003D0004002000D9
:103F4000B3DD8000034052000000FB00CC170200EC
:103F500000000000ACBBB70071DD8800AFFBAA0019
:103F6000C01F040000000000B6DBBF000000FB0023
:103F7000CC17020000000000ACBBB70071DD880068
:103F8000AC9BBF0071DD80008221270013F323006A
:103F9000AE190200000000004300A90000017800F3
:103FA00081017800A89BBF0051DD8000721A0200D9
:103FB00000000000A8BBB70051DD8800E61F040028
:103FC00000000000A83BEF00AA3BEF00A89BBF0049
:103FD00051DD80004F037800CF027800000006001A
:103FE000851F7800861F7800A09BBF0011DD800030
:103FF000B2A32A0083FB2300AE19020000000000D8
:104000004819020000000000B1FBB700B21BA90074
:10401000A01BF800A41BF900A21BF800A61BF900C6
:10402000A09BBF0011DD80000200200003002000E3
:1040300016180200000000000B003900B21BA80097
:104040000400200083DD8000C819DE000340520018
:10405000B1FBB70040BA210041BA210003000900BA
:10406000B0187800A7FBAA00A83BEF00AA3BEF001E
:10407000B1DBBF000000FB00F007B000B0FBB700F1
:10408000B01BAE000700370085BA2100E282420073
:104090000500780080027800154278000448B300DB
:1040A0008442980001BB21009150D30004BB210041
:1040B0001470A10085BA2100E38242000500780057
:1040C00080027800B09BBF0080429800A49BBF0094
:1040D00031DD8000B2A32A0083FB2300AE19020069
:1040E000000000008002780001037800B1DBBF000F
:1040F0000000FB00CC170200000000004300A800F5
:1041000000017800810178000500780086007800C1
:10411000721A020000000000A4BBB70031DD880065
:10412000C08728009195230022DD800033DD8000C8
:10413000AE19020000000000800278000103780040
:104140004300A9000500780086007800027E29005F
:1041500063AA2300721A020000000000ACBBB70083
:1041600071DD8800AC9BBF0071DD800022DD800026
:1041700033DD8000AE1902000000000080027800EC
:10418000010378004300A90005007800860078004C
:1041900042DC2100E3C12300721A0200000000008B
:1041A000ACBBB70071DD8800AC9BBF0071DD800047
:1041B00022DD800033DD8000AE1902000000000027
:1041C00080027800010378004300A9000500780010
:1041D00086007800E205250033D62300721A02001B
:1041E00000000000ACBBB70071DD8800AC9BBF00D5
:1041F00071DD800022DD800033DD8000AE19020019
:104200000000000080027800010378004300A9004C
:104210000500780086007800A2E12F0053E7230014
:10422000721A020000000000ACBBB70071DD88000C
:10423000AC9BBF0071DD800022DD800033DD80009B
:10424000AE1902000000000080027800010378002F
:104250004300A9000500780086007800822127002D
:1042600013F32300721A020000000000ACBBB70079
:1042700071DD8800A49BBF0031DD800062DD80001D
:1042800073DD8000AE190200000000004300A900A9
:1042900000017800810178000000200001F823006F
:1042A000721A02000000000000017800810178000D
:1042B000A89BBF0051DD8000AE1902000000000085
:1042C000A8BBB70051DD8800B21BAE000800370064
:1042D0000000200001F8230042DD800053DD800053
:1042E0007E18020000000000A8BBB70051DD880066
:1042F000A89BBF0051DD80004F037800CF027800FB
:1043000000000600851F7800861F7800871F780050
:10431000881F78008C9BBF0071DC800002002000A9
:1043200003002000161802000000000058003900A9
:10433000901BF800A01BF900921BF800A21BF900CB
:10434000A43BEF0004F8230034DD8800AE1D02001A
:104350000000000080037800010478000700780066
:1043600088007800020020000300200016180200D8
:104370000000000046003A00901BF800A01BF90066
:10438000921BF800A21BF900A43BEF0004002400DC
:1043900034DD8800AE1D02000000000080037800BC
:1043A00001047800070078008800780002002000EF
:1043B00003002000161802000000000019003A0057
:1043C00065DC800076DC800006F0A20005DD880058
:1043D00016DD88003E1E020000000000800278000A
:1043E00001037800050078008600780082DC8000F8
:1043F00093DC8000AE19020000000000800278000B
:104400000103780005DD880016DD8800F01F02003A
:10441000000000000000BE006000370044220400DD
:104420000000000065DC800076DC800006F0A20061
:1044300005DD880016DD88003E1E02000000000039
:10444000800278000103780005007800860078007B
:1044500082DC800093DC8000AE19020000000000C6
:10446000800278000103780005DD880016DD8800F1
:10447000F01F0200000000000000BE0001F0A200DA
:104480000000BE0045003700CE22040000000000FE
:104490008C9BBF0071DC8000020020000300200024
:1044A000161802000000000017003900901BF800E9
:1044B000A01BF900921BF800A21BF900A43BEF001F
:1044C00004F8230034DD8800AE1D02000000000067
:1044D00080037800010478000700780088007800E5
:1044E0000200200003002000161802000000000057
:1044F00005003200000020000100200027003700E6
:10450000CE220400000000008C9BBF0071DC800004
:104510000200200003002000161802000000000026
:1045200008003A00909BBF0091DC80000200200050
:1045300003002000161802000000000001003100F6
:1045400016003A008C1BF800A01BF9008E1BF80027
:10455000A21BF9003E1E020000000000800278004D
:1045600001037800050078008600780082DC800076
:1045700093DC8000AE190200000000008002780089
:104580000103780005DD880016DD8800F01F0200B9
:10459000000000000000BE00000037004F0478005B
:1045A000CF0378004F037800CF02780000000600A8
:1045B000851F7800889BBF0051DC8000020020002E
:1045C0000300200016180200000000000100310066
:1045D00003003A00000020000100200077003700AF
:1045E000881BF8008C1BF9008A1BF8008E1BF90051
:1045F000C5B82100E3824200C5DC8800C5B82100AF
:10460000E382420005007800A4DC800000429000B4
:10461000A4DC8800957BEF00C5B82100E28242004F
:1046200005007800B4DC800000429000B4DC880013
:10463000977BEF0041B921009158D20096FBAE0064
:104640000200370044B921001400A000F407200044
:10465000A3DC800084824100A5DC8800943BD50067
:1046600064B921001470A100941BAE000200370051
:1046700064B921001470A000943BD500C5B8210096
:10468000E38242000500780080027800949BBF001E
:1046900080429800C5B82100E282420005007800FF
:1046A00080027800969BBF00804298008C1BF80027
:1046B000901BF9008E1BF800921BF900889BBF002D
:1046C00051DC800062DC800073DC80007E18020018
:1046D000000000004300A90000017800810178007B
:1046E0008C9BBF0071DC8000721A02000000000089
:1046F0008CBBB70071DC8800C5B82100E3824200A2
:1047000005007800A4DC800000429000A4DC880052
:10471000957BEF00C5B82100E282420005007800D9
:10472000B4DC800000429000B4DC8800977BEF008E
:1047300041B921009158D20096FBAE00020037002B
:1047400044B921001400A000943BED0064B921009D
:104750001470A100941BAE000200370064B9210060
:104760001470A000943BD500C5B82100E38242003C
:104770000500780080027800949BBF00804298007A
:10478000C5B82100E282420005007800800278006E
:10479000969BBF0080429800909BBF0091DC8000F8
:1047A00062DC800073DC800016180200000000004C
:1047B000BEFF3A00909BBF0091DC8000CF027800E2
:1047C00000000600851F7800861F7800871F78008C
:1047D000881F7800B4DB800093DB800083025200E6
:1047E0000500780000F0A600020037000400200059
:1047F00005005200CC170200000000008002780083
:104800000103780065DC880076DC8800903BEF00CF
:104810000400240094DC88008221020000000000D3
:10482000800278000103780045DC880056DC8800AF
:10483000D822020000000000800278000103780006
:10484000C4DB8000A3DB80008303520007007800F4
:1048500000F0A6000200370004002000070052000C
:10486000CC170200000000008003780001047800EB
:1048700067DC880078DC8800903BEF0004002400AF
:1048800094DC880082210200000000004300A9009F
:10489000000178008101780005007800860078002A
:1048A000721A020000000000481902000000000017
:1048B00000A0B7004F047800CF0378004F037800C2
:1048C000CF02780000000600851F7800C500200098
:1048D00004000900B51F7800B4DA80006220B80037
:1048E00064AA2000040040009002780005027800CD
:1048F0007020B80080027800A4B520000480420037
:1049000010037800B4DA80006220B80064AA2000A6
:104910000400400090037800070278007020B8007F
:1049200080037800E483430007007800A4B52000EA
:104930000400400090037800B4DA80006220B800E0
:1049400064AA2000040040001004780008027800E7
:104950007024B8006804440008007800A4B5200062
:104960000400400010047800B4DA80006220B8002F
:1049700064AA200004004000900478000902780036
:104980007020B80080047800EC84440009007800AE
:10499000A4B5200004004000900478004E1BF800ED
:1049A000721BF900501BF800741BF900B6DB88007D
:1049B000C7DB8800D8DB8800E9DB880044170200E9
:1049C0000000000058BBB700B4DA80006220B800D5
:1049D00064AA20000400400010037800060278005A
:1049E0007023B800A4B520000400430090037800B1
:1049F000B4DA80006220B80064AA200004004000FD
:104A000010047800080278007024B80064044400A0
:104A100008007800A4B520000400400010047800CD
:104A2000B4DA80006220B80064AA200004004000CC
:104A300090047800090278007020B80080047800A3
:104A4000E884440009007800A4B520000400400078
:104A500090047800B4DA80006220B80064AA2000D4
:104A600004004000100578000A0278007025B800A4
:104A70006C0545000A007800A4B520000400400041
:104A800010057800521BF800721BF900541BF80047
:104A9000741BF900B7DB8800C8DB8800D9DB88000D
:104AA000EADB880044170200000000005ABBB70090
:104AB000A02AEF00C4DA80006820E1000300320081
:104AC000D4DA80006820E10003003A00982AEF0061
:104AD0002A63040000000000589BBF000080B20061
:104AE000110032001080B200420332003080B20068
:104AF000020832001080B200B10A32007080B200A9
:104B00006D0F32001080B2006B1232003080B200A4
:104B1000271732001080B200031A3200F080B20072
:104B2000C31E3200C51E37009C0AE200AF013200EE
:104B3000D4DA80006320E1005C003A001455800064
:104B40006820B80080027800A4AB200004834200F3
:104B5000B4DA80006220B80064AA2000040040009B
:104B600090037800070278007020B8008003780076
:104B700084D880006420B80007004000A4B520005D
:104B800004004000301B7800301B78001455800072
:104B90006820B80080027800E482420005007800B6
:104BA000A4AB200084024000B4DA80006220B80088
:104BB00064AA200004004000100378000602780078
:104BC0007023B80094D880006420B800060040002C
:104BD000A4B5200004004000B01A7800B01A780094
:104BE00014558000610242008402780005027800BA
:104BF0006820B80080027800A4AB20000483420043
:104C0000B4DA80006220B80064AA200004004000EA
:104C100090037800070278007020B80080037800C5
:104C2000E883430007007800A4B52000040040009A
:104C3000301B7800301B7800145580006102420060
:104C400084027800050278006820B80080027800AD
:104C5000E482420005007800A4AB200084024000FA
:104C6000B4DA80006220B80064AA2000040040008A
:104C700010037800060278007023B8006C0343002C
:104C800006007800A4B5200004004000B01A7800A7
:104C9000B01A780024002000045588001400200079
:104CA000C4548800F228040000000000D4DA800018
:104CB0006420E100EE003A00B4DA80006220B8001F
:104CC00064AA2000040040009002780005027800E9
:104CD0007020B8008002780084D880006420B8007A
:104CE00005004000A4B520000400400090027800B8
:104CF000B4DA80006220B80064AA200004004000FA
:104D000010037800060278007023B80094D8800061
:104D10006420B80006004000A4B520000400400054
:104D2000100378004E1BF800721BF900501BF800AE
:104D3000741BF900B5DB8800C6DB8800E2230200A3
:104D40000000000080027800B4DA80006220B80021
:104D500064AA2000040040001003780006027800D6
:104D60007023B80084D880006420B800060040009A
:104D7000A4B520000400400010037800B4DA8000DD
:104D80006220B80064AA200004004000900378006C
:104D9000070278007020B8008003780094D8800063
:104DA0006420B80007004000A4B5200004004000C3
:104DB0009003780096DB8800A7DB8800521BF80080
:104DC000761BF900541BF800781BF900E22302005F
:104DD0000000000085024000B4DA80006220B800C4
:104DE00064AA200004004000100378000602780046
:104DF0007023B800A4D880006420B80006004000EA
:104E0000A4B520000400400010037800B4DA80004C
:104E10006220B80064AA20000400400090037800DB
:104E2000070278007020B80080037800B4D88000B2
:104E30006420B80007004000A4B520000400400032
:104E4000900378004E1BF800721BF900501BF8000D
:104E5000741BF900B6DB8800C7DB8800E223020080
:104E60000000000000037800B4DA80006220B8007F
:104E700064AA200004004000900378000702780034
:104E80007020B80080037800A4D880006420B800A7
:104E900007004000A4B52000040040009003780003
:104EA000B4DA80006220B80064AA20000400400048
:104EB00010047800080278007024B800B4D880008C
:104EC0006420B80008004000A4B5200004004000A1
:104ED0001004780097DB8800A8DB8800521BF800DC
:104EE000761BF900541BF800781BF900E22302003E
:104EF00000000000060040000500E1002D003D001C
:104F0000145580006820B80080027800A4AB20000F
:104F100004834200B4DA80006220B80064AA200052
:104F20000400400090037800070278007020B80069
:104F30008003780084D880006420B8000700400017
:104F4000A4B5200004004000301B7800301B78001E
:104F5000145580006820B80080027800E482420086
:104F600005007800A4AB200084024000B4DA800081
:104F70006220B80064AA20000400400010037800FA
:104F8000060278007023B80094D880006420B8002E
:104F900006004000A4B5200004004000B01A7800CC
:104FA000B01A78001400200004558800302804004E
:104FB00000000000145580006820B80080027800CE
:104FC000A4AB200004834200B4DA80006220B80061
:104FD00064AA2000040040009003780007027800D3
:104FE0007020B80080037800A4D880006420B80046
:104FF00007004000A4B5200004004000301B7800EA
:10500000301B7800145580006820B80080027800BA
:10501000E482420005007800A4AB20008402400036
:10502000B4DA80006220B80064AA200004004000C6
:1050300010037800060278007023B800B4D880000E
:105040006420B80006004000A4B520000400400021
:10505000B01A7800B01A78001400200004558800B7
:1050600014002000C4548800F2280400000000004E
:10507000D4DA80006520E1005A003A00145580001F
:105080006820B80080027800A4AB200004834200AE
:10509000B4DA80006220B80064AA20000400400056
:1050A00090037800070278007020B8008003780031
:1050B000A4D880006420B80007004000A4B52000F8
:1050C00004004000301B7800301B7800145580002D
:1050D0006820B80080027800E48242000500780071
:1050E000A4AB200084024000B4DA80006220B80043
:1050F00064AA200004004000100378000602780033
:105100007023B800B4D880006420B80006004000C6
:10511000A4B5200004004000B01A7800B01A78004E
:105120001455800061024200840278000502780074
:105130006820B80080027800A4AB200004834200FD
:10514000B4DA80006220B80064AA200004004000A5
:1051500090037800070278007020B8008003780080
:10516000E883430007007800A4B520000400400055
:10517000301B7800301B780014558000610242001B
:1051800084027800050278006820B8008002780068
:10519000E482420005007800A4AB200084024000B5
:1051A000B4DA80006220B80064AA20000400400045
:1051B00010037800060278007023B8006C034300E7
:1051C00006007800A4B5200004004000B01A780062
:1051D000B01A780024002000045588001400200034
:1051E000C4548800F62B040000000000D4DA8000CC
:1051F0006320E1002F003A00145580006820B800B9
:1052000080027800A4AB200004834200B4DA80005E
:105210006220B80064AA20000400400090037800D7
:10522000070278007020B80080037800A4D88000BE
:105230006420B80007004000A4B52000040040002E
:10524000301B7800301B7800145580006820B800AF
:1052500080027800E482420005007800A4AB2000C0
:1052600084024000B4DA80006220B80064AA200002
:105270000400400010037800060278007023B80094
:10528000B4D880006420B80006004000A4B5200017
:1052900004004000B01A7800B01A78001400200012
:1052A0000455880014002000C4548800F62B040024
:1052B00000000000D4DA80006420E100EE003A0033
:1052C000B4DA80006220B80064AA20000400400024
:1052D00090027800050278007020B8008002780003
:1052E00084D880006420B80005004000A4B52000E8
:1052F0000400400090027800B4DA80006220B80018
:1053000064AA200004004000100378000602780020
:105310007023B80094D880006420B80006004000D4
:10532000A4B5200004004000100378004E1BF800D4
:10533000721BF900501BF800741BF900B5DB8800E4
:10534000C6DB8800E2230200000000008002780033
:10535000B4DA80006220B80064AA20000400400093
:1053600010037800060278007023B80084D880000B
:105370006420B80006004000A4B5200004004000EE
:1053800010037800B4DA80006220B80064AA20001C
:105390000400400090037800070278007020B800F5
:1053A0008003780094D880006420B8000700400093
:1053B000A4B52000040040009003780096DB88002C
:1053C000A7DB8800521BF800761BF900541BF8007D
:1053D000781BF900E2230200000000008502400073
:1053E000B4DA80006220B80064AA20000400400003
:1053F00010037800060278007023B800A4D880005B
:105400006420B80006004000A4B52000040040005D
:1054100010037800B4DA80006220B80064AA20008B
:105420000400400090037800070278007020B80064
:1054300080037800B4D880006420B80007004000E2
:10544000A4B5200004004000900378004E1BF80033
:10545000721BF900501BF800741BF900B6DB8800C2
:10546000C7DB8800E2230200000000000003780090
:10547000B4DA80006220B80064AA20000400400072
:1054800090037800070278007020B800800378004D
:10549000A4D880006420B80007004000A4B5200014
:1054A0000400400090037800B4DA80006220B80065
:1054B00064AA20000400400010047800080278006C
:1054C0007024B800B4D880006420B8000800400000
:1054D000A4B52000040040001004780097DB880089
:1054E000A8DB8800521BF800761BF900541BF8005B
:1054F000781BF900E22302000000000006004000D3
:105500000500E1002D003D00145580006820B80022
:1055100080027800A4AB200004834200B4DA80004B
:105520006220B80064AA20000400400090037800C4
:10553000070278007020B80080037800A4D88000AB
:105540006420B80007004000A4B52000040040001B
:10555000301B7800301B7800145580006820B8009C
:1055600080027800E482420005007800A4AB2000AD
:1055700084024000B4DA80006220B80064AA2000EF
:105580000400400010037800060278007023B80081
:10559000B4D880006420B80006004000A4B5200004
:1055A00004004000B01A7800B01A780014002000FF
:1055B00004558800342B04000000000014558000BE
:1055C0006820B80080027800A4AB20000483420069
:1055D000B4DA80006220B80064AA20000400400011
:1055E00090037800070278007020B80080037800EC
:1055F00084D880006420B80007004000A4B52000D3
:1056000004004000301B7800301B780014558000E7
:105610006820B80080027800E4824200050078002B
:10562000A4AB200084024000B4DA80006220B800FD
:1056300064AA2000040040001003780006027800ED
:105640007023B80094D880006420B80006004000A1
:10565000A4B5200004004000B01A7800B01A780009
:10566000140020000455880014002000C454880051
:10567000F62B040000000000D4DA80006520E10071
:105680005A003A00145580006820B8008002780063
:10569000A4AB200004834200B4DA80006220B8008A
:1056A00064AA2000040040009003780007027800FC
:1056B0007020B80080037800A4D880006420B8006F
:1056C00007004000A4B5200004004000301B780013
:1056D000301B7800145580006820B80080027800E4
:1056E000E482420005007800A4AB20008402400060
:1056F000B4DA80006220B80064AA200004004000F0
:1057000010037800060278007023B800B4D8800037
:105710006420B80006004000A4B52000040040004A
:10572000B01A7800B01A7800145580006102420067
:1057300084027800050278006820B80080027800B2
:10574000A4AB200004834200B4DA80006220B800D9
:1057500064AA20000400400090037800070278004B
:105760007020B80080037800E883430007007800C9
:10577000A4B5200004004000301B7800301B7800E6
:10578000145580006102420084027800050278000E
:105790006820B80080027800E482420005007800AA
:1057A000A4AB200084024000B4DA80006220B8007C
:1057B00064AA20000400400010037800060278006C
:1057C0007023B8006C03430006007800A4B52000E5
:1057D00004004000B01A7800B01A780024002000BD
:1057E0000455880014002000C45488002463040079
:1057F000000000009C0AE20016033200D4DA8000A8
:105800006320E10087003A00145580006820B8004A
:1058100080027800A4AB200004834200B4DA800048
:105820006220B80064AA20000400400090037800C1
:10583000070278007020B80080037800A4B520002B
:1058400004804300301B7800301B78001455800022
:105850006820B80080027800E482420005007800E9
:10586000A4AB200084024000B4DA80006220B800BB
:1058700064AA2000040040001003780006027800AB
:105880007023B8006403430006007800A4B520002C
:1058900004004000B01A7800B01A78001455800057
:1058A0006102420084027800050278006820B80096
:1058B00080027800A4AB200004834200B4DA8000A8
:1058C0006220B80064AA2000040040009003780021
:1058D000070278007020B8008003780084D8800028
:1058E0006420B80007004000A4B520000400400078
:1058F000301B7800301B7800145580006102420094
:1059000084027800050278006820B80080027800E0
:10591000E482420005007800A4AB2000840240002D
:10592000B4DA80006220B80064AA200004004000BD
:1059300010037800060278007023B80094D8800025
:105940006420B80006004000A4B520000400400018
:10595000B01A7800B01A7800145580006202420034
:1059600084027800050278006820B8008002780080
:10597000A4AB200004834200B4DA80006220B800A7
:1059800064AA200004004000900378000702780019
:105990007020B80080037800E88343000700780097
:1059A000A4B5200004004000301B7800301B7800B4
:1059B00014558000620242008402780005027800DB
:1059C0006820B80080027800E48242000500780078
:1059D000A4AB200084024000B4DA80006220B8004A
:1059E00064AA20000400400010037800060278003A
:1059F0007023B8006C03430006007800A4B52000B3
:105A000004004000B01A7800B01A7800340020007A
:105A10000455880014002000C45488002632040075
:105A200000000000D4DA80006420E1005A003A004F
:105A3000145580006820B80080027800A4AB2000D4
:105A400004834200B4DA80006220B80064AA200017
:105A50000400400090037800070278007020B8002E
:105A600080037800A4B5200004804300301B780038
:105A7000301B7800145580006820B8008002780040
:105A8000E482420005007800A4AB200084024000BC
:105A9000B4DA80006220B80064AA2000040040004C
:105AA00010037800060278007023B80064034300F6
:105AB00006007800A4B5200004004000B01A780069
:105AC000B01A780014558000610242008402780008
:105AD000050278006820B80080027800A4AB20009E
:105AE00004834200B4DA80006220B80064AA200077
:105AF0000400400090037800070278007020B8008E
:105B00008003780084D880006420B800070040003B
:105B1000A4B5200004004000301B7800301B780042
:105B2000145580006102420084027800050278006A
:105B30006820B80080027800E48242000500780006
:105B4000A4AB200084024000B4DA80006220B800D8
:105B500064AA2000040040001003780006027800C8
:105B60007023B80094D880006420B800060040007C
:105B7000A4B5200004004000B01A7800B01A7800E4
:105B8000240020000455880014002000C45488001C
:105B90002632040000000000D4DA80006520E10015
:105BA00041013A00B4DA80006220B80064AA200003
:105BB0000400400090027800050278007020B800D0
:105BC00080027800A4B52000048042001003780011
:105BD000B4DA80006220B80064AA2000040040000B
:105BE00090037800070278007020B80080037800E6
:105BF000E483430007007800A4B5200004004000BF
:105C0000900378004E1BF800721BF900501BF8003F
:105C1000741BF900B6DB8800C7DB8800E2230200B2
:105C20000000000000037800B4DA80006220B800B1
:105C300064AA200004004000900378000702780066
:105C40007020B8008003780084D880006420B800F9
:105C500007004000A4B52000040040009003780035
:105C6000B4DA80006220B80064AA2000040040007A
:105C700010047800080278007024B80094D88000DE
:105C80006420B80008004000A4B5200004004000D3
:105C90001004780097DB8800A8DB8800521BF8000E
:105CA000761BF900541BF800781BF900E223020070
