:100000002BEF15F08E0E946E800E956E936E83948A
:10001000839283909D8AA38AC00EF2126BEF15F033
:10002000EA6A410EE96EEF500DE0060E016E006ABD
:10003000002EFED7012EFBD77B0E006E002EFED7C2
:10004000EF2EF3D712009EA8FED7AD6E1200030E5E
:100050004F5E09E3EA6A4F0EE96EEF5004E001D00B
:1000600000D0EF2EFDD773EF00F04E6A4D68828806
:10007000FF0EE9DFFF0EE7DF4850E5DF020E4924FF
:100080004F6E4F50E0DF030EDEDF4A50DCDF4B5097
:10009000DADF4950030806E14C50D5DF4C504D5E85
:1000A000000E4E5A48504D5C4F6E000E4E58506E2A
:1000B00049504F5E000E505A020E4F5E000E505ACD
:1000C000030E4F5E000E505A4A504F5E000E505ABB
:1000D0004B504F5C4D6E000E50584E6E4D50B3DF7E
:1000E000C80E4F6EB4D7829812002C502E6E306A14
:1000F0002DC02FF0FE0E486E030E496E200E4A6E84
:100100002EC04BF02FC04CF0B0DFA60E006E002EBC
:10011000FED700001200456A446A43C045F042C061
:1001200044F044C046F0486A45C047F041C048F03A
:10013000030E496E1E0E4A6E46C04BF047C04CF08F
:1001400094DFA60E006E002EFED7000012002D6A6E
:10015000640E2C6ECADFFE0E486E020E496E180E3B
:100160004A6E010E4B6E4C6A80DF020E056E046A09
:10017000076AC80E066E096ADC0E086E030E0B6E67
:100180002A0E0A6E020E0D6E0C6A2B6A2B500408A2
:100190001FE3036A2B500E0FE96E000E0320EA6E78
:1001A000EFCF41F0D8902B34036A040FE96E000EB4
:1001B0000320EA6EECCF43F0ED52EFCF42F0ABDF1D
:1001C000A60E006E002EFED70000010E2B26DED7F5
:1001D0007AEF15F072C079F07651791B79AF05D0BE
:1001E000D894D89072BFD8802FD072C079F075C0E3
:1001F0007AF071517A5F06E079AF26D0D850010AC3
:10020000D86E22D076C07AF072517A5F06E079AF6C
:100210001BD0D850010AD86E17D077C07AF073512E
:100220007A5F06E079AF10D0D850010AD86E0CD0B2
:1002300078C07AF074517A5F06E079AF05D0D85073
:10024000010AD86E01D0D89012006D51D8B471D087
:10025000006E7151D8B46DD0002604E3810E0026E3
:1002600068E204D07F0E005E64E363E06EC075F068
:100270007251751B6E8F728F70517403F4CF77F0CB
:100280006F517303F4CF03F0F3CF76F07403F350A0
:100290007727F4507623000E032270517303F35036
:1002A0007727F4507623000E026A032202226E5151
:1002B0007403F3507627F4500322000E02226E518D
:1002C0007303F3500326F4500222000E016A012248
:1002D00070517203F3507627F4500322000E02226D
:1002E00001226F517203F3500326F4500222000ED4
:1002F00001226E517203F3500226F4500122002AAB
:1003000001BE05D076370336023601360006000EF0
:1003100076AF0AD0032A02220122015005E10250E1
:1003200003E1035001E1002A75BF018E75AF019E04
:1003300004D0006A016A026A036A12008E0E006E1F
:100340006D51005E6EC002F06FC001F0028E00526F
:1003500009E0D890025202E1015204E00232013277
:10036000002EF7D76EAF05D0011E021E012AD8B4A9
:10037000022A12008E0E006E72C001F071C002F0EF
:10038000036A015209E102C001F0026A080E005E30
:10039000015202E1006A08D0D89001BE04D00236B2
:1003A00001360006F9D7019E1200800ED8B2761BE6
:1003B0007B6B7C6B72C07AF076517A1B7151D8B42A
:1003C000DCD0796F006E7551D8B4E0D0795FD8B4C5
:1003D00081D03DE376C07FF07F8F77C07EF078C01C
:1003E0007DF07C6BD8907F337E337D337C33792FE7
:1003F000F8D77AAF03D07B81DDD07B9179917B896F
:10040000EA6A740EE96EE9D07B997ABF0AD079A1C5
:1004100013D07F337E337D337C33002AD8B4C5D0EC
:100420000BD07FBF0CD0D8907C377D377E377F379D
:100430000006D8B4BAD0F5D77B8D6BD07B9D72C047
:100440007AF072AF02D07F8FA9D07F9FA7D075C0FE
:1004500079F075C000F07151795F72C07FF07F8FC5
:1004600073C07EF074C07DF07C6BD8907F337E3398
:100470007D337C33792FF8D77AAF03D07B839AD042
:100480007B9379917B8BEA6A780EE96EA6D07B9B91
:100490007ABF0AD079A113D07F337E337D337C338A
:1004A000002AD8B482D00BD07FBF0CD0D8907C3734
:1004B0007D377E377F370006D8B477D0F5D77B8F6E
:1004C00028D07B9F76C07AF076AF02D07F8F66D03F
:1004D0007F9F64D076C07FF07F8F77C07EF078C03A
:1004E0007DF07AAF04D07F9F7B8564D07B957C6B59
:1004F0007991EA6A740EE96E70D07ABF1CD072C02E
:100500007AF079A106D07F337E337D337C33002AA5
:100510004CE07CAF0BD07D2B09E17E2B07E17F2BDC
:1005200005E17F337E337D33002A3FE07BBD86D7F4
:100530007BBFC7D71CD0800E7F1B7FAF04D03AD0C3
:1005400076C07AF00AD072C07AF07F5306E17E530B
:1005500004E17D5302E1006A21D07FBF08D0D8902A
:100560007C377D377E377F37002EF7D71ED07AAFA6
:1005700002D07F8F13D07F9F11D075C000F076C05E
:100580007FF077C07EF078C07DF008D071C000F0B9
:1005900072C07FF073C07EF074C07DF07FC001F048
:1005A0007EC002F07DC003F034D0006A016A026AA6
:1005B000036A2FD07C6B7D1F7E1F7F1F7C1F7C2BCF
:1005C00005E17D2B03E17E2B01E17F2B7BB115D76C
:1005D0007BB356D77BB58AD7B3D7EF507D2705E3DA
:1005E0007E2B03E17F2BD8B47981ED52EF507E272B
:1005F00003E37F2BD8B47981ED52EF50EFBE01D0E9
:10060000800A7F27D8B079817BB9FED67BBB3FD7E4
:1006100074D712003A6A396A386A7F0E376E7E0ED6
:10062000416E800E426E436A446A7A0E456E2A0E0F
:10063000466EAA0E476EA30E486E750E496EB60E34
:100640004A6E090E4B6EB40E4C6E6F0E4D6E4F0E11
:100650004E6EB60E4F6EAA0E506E690E516E8B0E18
:10066000526EF60E536EE80E546E2EC074F02DC00E
:1006700073F02CC072F02BC071F0786B776B766BD7
:10068000756BA8DD03E32C50800A2C6E2EC070F031
:100690002DC06FF02CC06EF02BC06DF0830E746F08
:1006A000F90E736F220E726F7E0E716FCEDD03C076
:1006B00070F002C06FF001C06EF000C06DF03EDE61
:1006C00001C03BF02EC070F02DC06FF02CC06EF05A
:1006D0002BC06DF0830E746FF90E736F220E726F64
:1006E0007E0E716FB2DD03C058F002C057F001C03A
:1006F00056F000C055F0726B3BC071F03BDED88203
:1007000058C074F057C073F056C072F055C071F005
:1007100003C078F002C077F001C076F000C075F039
:1007200044DE03C040F002C03FF001C03EF000C014
:100730003DF0030E3B163B5203E03B5002081AE12A
:1007400040C070F03FC06FF03EC06EF03DC06DF035
:10075000DB0E746F0F0E736F490E726F7F0E716F29
:1007600074DD03C036F002C035F001C034F000C0C3
:1007700033F063D03B2C31D0D882746B736B726BC7
:100780007F0E716F40C078F03FC077F03EC076F0CA
:100790003DC075F00ADE03C058F002C057F001C03A
:1007A00056F000C055F003C070F002C06FF001C0F9
:1007B0006EF000C06DF0DB0E746F0F0E736F490E9C
:1007C000726F7F0E716F41DD03C036F002C035F0ED
:1007D00001C034F000C033F030D0D88240C074F093
:1007E0003FC073F03EC072F03DC071F0786B776B24
:1007F000766B7F0E756FD9DD03C058F002C057F0DD
:1008000001C056F000C055F003C070F002C06FF098
:1008100001C06EF000C06DF0DB0E746F0F0E736FD1
:10082000490E726F7F0E716F10DD03C036F002C08B
:1008300035F001C034F000C033F0326A316A306AFA
:100840007F0E2F6E36C070F035C06FF034C06EF082
:1008500033C06DF036C074F035C073F034C072F040
:1008600033C071F0F2DC03C036F002C035F001C0D5
:1008700034F000C033F03C6A3C50040857E33AC0FF
:1008800070F039C06FF038C06EF037C06DF036C010
:1008900074F035C073F034C072F033C071F0D5DC41
:1008A00003C03AF002C039F001C038F000C037F0A0
:1008B0003C50040DF350036A410FE96E000E032013
:1008C000EA6EEFCF6DF0ECCF6EF0ECCF6FF0ECCFC7
:1008D00070F03AC074F039C073F038C072F037C0AD
:1008E00071F0B3DCEACF56F0E9CF55F0D89232C0C0
:1008F00074F031C073F030C072F02FC071F003C0DB
:1009000078F002C077F001C076F000C075F04DDDE0
:1009100056C0EAFF55C0E9FF03C032F002C031F013
:1009200001C030F000C02FF03C2AA6D73B5002088F
:1009300002E03B2C03D03050800A306E2FC000F014
:1009400030C001F031C002F032C003F0B1EF04F06A
:10095000F30E2E6E660E2D6E5F0E2C6E7E0E2B6EBF
:1009600059D6706B6F6B0C0E6E6F860E6D6F03C079
:1009700074F002C073F001C072F000C071F065DC69
:10098000EACF2CF0E9CF2BF0D892746B736B0C0E7E
:10099000726F850E716F03C078F002C077F001C0EE
:1009A00076F000C075F001DD2CC0EAFF2BC0E9FF36
:1009B00003C070F002C06FF001C06EF000C06DF0B7
:1009C000BDDC02C016F001C015F0146AD20E136E21
:1009D0007CEF15F07151D8B4A5D07D6F7551D8B4A6
:1009E000A1D07D5F05E37F0E7D27D8B09BD006D0D8
:1009F000810E7D5FD8A096D0D8B494D07DC000F091
:100A0000016A026A036A7C6B72C07BF07B8F73C0E1
:100A10007AF074C079F0190E7D6F7851795F0DE22C
:100A2000010E7A5F0AE27B5F08E27C5F06E27C2BC4
:100A30007B2B7A2B7851792728D077517A5F12E275
:100A4000010E7B5F0FE27C5F0DE27C2B7B2B7751ED
:100A50007A277851792719E37A2B17E17B2B15E157
:100A60007C2B13D0765180097B5F0EE2010E7C5FF8
:100A70000BE27C2B765180097B2777517A27E9E3BB
:100A80007B2BE7E17C2BE5D703807D2F01D00BD0BA
:100A9000D89079377A377B377C37D890033602364F
:100AA00001367E37BAD77EA106D0D8900132023205
:100AB00003327E3302D0000635E07EBF1ED0D890D0
:100AC00079377A377B377C377851795F07E2010EC7
:100AD0007A5F04E27B5F02E27C5F1AE377517A5F20
:100AE00005E2010E7B5F02E27C5F12E37651800932
:100AF0007B5F03E2010E7C5F0BE3032A09E1022A1C
:100B000007E1012A05E1002A0DE001320232033239
:100B100072C07DF076517D1B7DAF02D0018E06D074
:100B2000019E04D0006A016A026A036A12006C9195
:100B300060C065F05FC064F05EC063F05DC062F0ED
:100B400060C074F05FC073F05EC072F05DC071F0A1
:100B5000786B776B766B756BEAEC00F004E36C8175
:100B60006351800A636F65C074F064C073F063C042
:100B700072F062C071F0786B776B766B8E0E756F6A
:100B8000EAEC00F001E219E165C070F064C06FF0BA
:100B900063C06EF062C06DF09EEC01F002C072F0B6
:100BA00001C071F0BAEC01F003C069F002C068F056
:100BB00001C067F000C066F0C9D065C074F064C0C1
:100BC00073F063C072F062C071F0800E786F960EA1
:100BD000776F180E766F960E756FEAEC00F0D8A05E
:100BE000ADD065C070F064C06FF063C06EF062C0DD
:100BF0006DF0746B736B726B700E716F25EC01F09E
:100C000003C070F002C06FF001C06EF000C06DF064
:100C10009EEC01F002C06BF001C06AF065C070F09C
:100C200064C06FF063C06EF062C06DF0746B736B84
:100C3000726B700E716F25EC01F003C070F002C092
:100C40006FF001C06EF000C06DF06BC072F06AC052
:100C500071F0BAEC01F0D88270C074F06FC073F01C
:100C60006EC072F06DC071F003C078F002C077F012
:100C700001C076F000C075F0D5EC01F0706B6F6BC1
:100C80006E6B8E0E6D6F03C074F002C073F001C006
:100C900072F000C071F025EC01F003C065F002C0F5
:100CA00064F001C063F000C062F06BC072F06AC013
:100CB00071F0BAEC01F0706B6F6B6E6B8E0E6D6F36
:100CC00003C074F002C073F001C072F000C071F094
:100CD00025EC01F003C069F002C068F001C067F0C4
:100CE00000C066F065C070F064C06FF063C06EF065
:100CF00062C06DF09EEC01F002C072F001C071F0B4
:100D0000BAEC01F0D89269C074F068C073F067C0A3
:100D100072F066C071F003C078F002C077F001C0D5
:100D200076F000C075F0D5EC01F003C069F002C0A8
:100D300068F001C067F000C066F008D065C069F0D7
:100D400064C068F063C067F062C066F065C070F0B0
:100D500064C06FF063C06EF062C06DF09EEC01F095
:100D600002C072F001C071F0BAEC01F0D88265C027
:100D700074F064C073F063C072F062C071F003C0BD
:100D800078F002C077F001C076F000C075F0D5ECC5
:100D900001F003C065F002C064F001C063F000C060
:100DA00062F06CA103D06751800A676F65C074F070
:100DB00064C073F063C072F062C071F0786B776BDF
:100DC000766B756BEAEC00F038E06CA11AD06153D9
:100DD00018E1D88269C074F068C073F067C072F01F
:100DE00066C071F0786B776B766B7F0E756FD5ECA4
:100DF00001F003C069F002C068F001C067F000C0F4
:100E000066F06CB11AD0612D18D0D89269C074F018
:100E100068C073F067C072F066C071F0786B776B72
:100E2000766B7F0E756FD5EC01F003C069F002C0E0
:100E300068F001C067F000C066F060C074F05FC089
:100E400073F05EC072F05DC071F0786B776B766B9B
:100E5000756BEAEC00F004E1696B686B676B666BBD
:100E600066C000F067C001F068C002F069C003F01E
:100E700012005CC060F05BC05FF05AC05EF059C009
:100E80005DF0010E616F53DEACEF07F05CC060F007
:100E90005BC05FF05AC05EF059C05DF0616B47DE29
:100EA000CFEF07F050C074F04FC073F04EC072F037
:100EB0004DC071F0786B776B766B756BEAEC00F078
:100EC000D8B49BD04CC074F04BC073F04AC072F0E1
:100ED00049C071F050C078F04FC077F04EC076F046
:100EE0004DC075F077DD03C058F002C057F001C067
:100EF00056F000C055F003C074F002C073F001C09A
:100F000072F000C071F0786B776B766B756BEAEC02
:100F100000F023E34CC074F04BC073F04AC072F091
:100F200049C071F050C078F04FC077F04EC076F0F5
:100F30004DC075F04FDD03C058F002C057F001C03E
:100F400056F000C055F003C05CF002C05BF001C079
:100F50005AF000C059F08DD722D04CC074F04BC06D
:100F600073F04AC072F049C071F050C078F04FC0C1
:100F700077F04EC076F04DC075F02CDD03C058F010
:100F800002C057F001C056F000C055F003C05CF03D
:100F900002C05BF001C05AF000C059F077D703C01F
:100FA00054F002C053F001C052F000C051F054C0E0
:100FB00070F053C06FF052C06EF051C06DF050C071
:100FC00074F04FC073F04EC072F04DC071F025EC5C
:100FD00001F0D8824CC074F04BC073F04AC072F07C
:100FE00049C071F003C078F002C077F001C076F01C
:100FF00000C075F0D5EC01F000D012008E0E006E2E
:1010000064C001F063C002F0036A64AF05D0011E42
:10101000021E022A01E1012A015209E102C001F087
:10102000026A080E005E015202E1006A0AD0D890FE
:1010300001BE04D0023601360006F9D764BF01D0E4
:10104000019E120050C054F04FC053F04EC052F0F9
:101050004DC051F054C074F053C073F052C072F0E0
:1010600051C071F0786B776B766B7F0E756FEAEC21
:1010700000F0D8B487D1636B510EE96E63C0EAFF0C
:101080007E0EEF6ED88254C074F053C073F052C01D
:1010900072F051C071F0786B776B766B7F0E756F65
:1010A000D5EC01F003C065F002C064F001C063F04C
:1010B00000C062F0D89254C074F053C073F052C0B4
:1010C00072F051C071F0786B776B766B7F0E756F35
:1010D000D5EC01F065C074F064C073F063C072F0C9
:1010E00062C071F003C078F002C077F001C076F002
:1010F00000C075F06FDC03C054F002C053F001C0B3
:1011000052F000C051F054C070F053C06FF052C0A4
:101110006EF051C06DF054C074F053C073F052C003
:1011200072F051C071F025EC01F003C060F002C014
:101130005FF001C05EF000C05DF0990E706F470E69
:101140006F6F8A0E6E6F7F0E6D6F60C074F05FC040
:1011500073F05EC072F05DC071F025EC01F003C069
:1011600065F002C064F001C063F000C062F0D89284
:1011700003C074F002C073F001C072F000C071F0DF
:10118000786B776B766B800E756FD5EC01F003C0D2
:1011900058F002C057F001C056F000C055F04C0E98
:1011A000706FF30E6F6F3A0E6E6F7B0E6D6F60C0D7
:1011B00074F05FC073F05EC072F05DC071F025EC3A
:1011C00001F003C065F002C064F001C063F000C02C
:1011D00062F0D89203C074F002C073F001C072F0E4
:1011E00000C071F02B0E786F9D0E776FDF0E766F5B
:1011F0007E0E756FD5EC01F003C05CF002C05BF0B1
:1012000001C05AF000C059F05CC070F05BC06FF0D4
:101210005AC06EF059C06DF060C074F05FC073F0DA
:101220005EC072F05DC071F025EC01F003C065F0A6
:1012300002C064F001C063F000C062F0D89203C045
:1012400074F002C073F001C072F000C071F0786BEE
:10125000776B766B7F0E756FD5EC01F003C05CF099
:1012600002C05BF001C05AF000C059F054C070F0E9
:1012700053C06FF052C06EF051C06DF058C074F0A2
:1012800057C073F056C072F055C071F025EC01F0F4
:1012900003C065F002C064F001C063F000C062F0FA
:1012A00003C074F002C073F001C072F000C071F0AE
:1012B0005CC078F05BC077F05AC076F059C075F02A
:1012C000EAEC04F003C058F002C057F001C056F039
:1012D00000C055F0636B4D0EE96E63C0EAFF7E0EF1
:1012E000EF5C616F61AF12D0000ED8806155646B06
:1012F000636F63BF640782DE00C059F00150800A4B
:101300005A6E02C05BF003C05CF00ED0646B61C02B
:1013100063F063BF640772DE03C05CF002C05BF081
:1013200001C05AF000C059F05CC070F05BC06FF0B3
:101330005AC06EF059C06DF0180E746F720E736F54
:10134000310E726F7E0E716F25EC01F0D89258C08D
:1013500074F057C073F056C072F055C071F003C0FE
:1013600078F002C077F001C076F000C075F0D5ECDF
:1013700001F003C058F002C057F001C056F000C0A1
:1013800055F004D0586A576A566A556A55C000F03D
:1013900056C001F057C002F058C003F0120050C010
:1013A00070F04FC06FF04EC06EF04DC06DF03B0E50
:1013B000746FAA0E736F380E726F7F0E716F25EC0B
:1013C00001F003C070F002C06FF001C06EF000C009
:1013D0006DF09EEC01F001C05DF05E9050C054F0E5
:1013E0004FC053F04EC052F04DC051F050C074F099
:1013F0004FC073F04EC072F04DC071F0786B776BD8
:10140000766B756BEAEC00F005E35E805D6C525024
:10141000800A526E586A576A566A556A606B550E52
:10142000E96E60C0EAFF7F0E5D24EF6E54C070F07D
:1014300053C06FF052C06EF051C06DF03B0E746F30
:10144000AA0E736F380E726F7F0E716F25EC01F06C
:1014500003C062F002C061F001C060F000C05FF044
:10146000646B5DC063F063BF6407C8DDD88262C08F
:1014700074F061C073F060C072F05FC071F003C0BF
:1014800078F002C077F001C076F000C075F0D5ECBE
:1014900001F003C054F002C053F001C052F000C08C
:1014A00051F07C0E706F880E6F6F590E6E6F720E5A
:1014B0006D6F54C074F053C073F052C072F051C0DD
:1014C00071F025EC01F003C062F002C061F001C0D0
:1014D00060F000C05FF0D89203C074F002C073F0F7
:1014E00001C072F000C071F0E00E786F970E776F58
:1014F000260E766F750E756FD5EC01F003C05CF0AB
:1015000002C05BF001C05AF000C059F05CC070F03E
:101510005BC06FF05AC06EF059C06DF054C074F0EB
:1015200053C073F052C072F051C071F025EC01F05D
:1015300003C062F002C061F001C060F000C05FF063
:10154000D89203C074F002C073F001C072F000C002
:1015500071F0C40E786F1D0E776F1E0E766F780EC9
:10156000756FD5EC01F003C05CF002C05BF001C008
:101570005AF000C059F05CC070F05BC06FF05AC008
:101580006EF059C06DF054C074F053C073F052C087
:1015900072F051C071F025EC01F003C062F002C09E
:1015A00061F001C060F000C05FF0D89203C074F039
:1015B00002C073F001C072F000C071F05E0E786F6F
:1015C000500E776F630E766F7A0E756FD5EC01F063
:1015D00003C05CF002C05BF001C05AF000C059F0DB
:1015E0005CC070F05BC06FF05AC06EF059C06DF017
:1015F00054C074F053C073F052C072F051C071F017
:1016000025EC01F003C062F002C061F001C060F09F
:1016100000C05FF0D89203C074F002C073F001C044
:1016200072F000C071F01A0E786FFE0E776F750EB3
:10163000766F7C0E756FD5EC01F003C05CF002C0D4
:101640005BF001C05AF000C059F05CC070F05BC0A4
:101650006FF05AC06EF059C06DF054C074F053C0B2
:1016600073F052C072F051C071F025EC01F003C06C
:1016700062F002C061F001C060F000C05FF0D8927B
:1016800003C074F002C073F001C072F000C071F0CA
:10169000180E786F720E776F310E766F7E0E756F43
:1016A000D5EC01F003C05CF002C05BF001C05AF061
:1016B00000C059F054C070F053C06FF052C06EF0CB
:1016C00051C06DF05CC074F05BC073F05AC072F032
:1016D00059C071F025EC01F0D892746B736B726B8A
:1016E0007F0E716F03C078F002C077F001C076F012
:1016F00000C075F0D5EC01F058C070F057C06FF025
:1017000056C06EF055C06DF003C074F002C073F0A7
:1017100001C072F000C071F025EC01F003C058F078
:1017200002C057F001C056F000C055F05EA017D0BF
:10173000746B736B726B7F0E716F58C078F057C00B
:1017400077F056C076F055C075F0EAEC04F003C0AF
:1017500058F002C057F001C056F000C055F055C017
:1017600000F056C001F057C002F058C003F012005C
:1017700044C074F043C073F042C072F041C071F0D5
:10178000786B776B766B756BEAEC00F0D8A0CDD0F8
:1017900048C04CF047C04BF046C04AF045C049F045
:1017A000506A4F6A4E6A7F0E4D6E52EC07F003C0CE
:1017B0004CF002C04BF001C04AF000C049F003C039
:1017C00074F002C073F001C072F000C071F0786B69
:1017D000776B766B756BEAEC00F0D8A4A6D048C0A6
:1017E0004CF047C04BF046C04AF045C049F0506A43
:1017F0004F6A4E6A800E4D6E52EC07F003C04CF0FB
:1018000002C04BF001C04AF000C049F003C074F0C0
:1018100002C073F001C072F000C071F0786B776B9A
:10182000766B756BEAEC00F03FE141C049F0425045
:10183000800A4A6E43C04BF044C04CF044C050F0A4
:1018400043C04FF04E6E41C04DF022EC08F003C093
:101850004CF002C04BF001C04AF000C049F003C098
:1018600070F002C06FF001C06EF000C06DF048C0B3
:1018700074F047C073F046C072F045C071F025ECBB
:1018800001F003C04CF002C04BF001C04AF000C0B0
:1018900049F003C050F002C04FF001C04EF000C04C
:1018A0004DF07DDDD7D040D041C049F04250800A94
:1018B0004A6E43C04BF044C04CF044C050F043C0AB
:1018C0004FF04E6E41C04DF022EC08F003C04CF0DA
:1018D00002C04BF001C04AF000C049F003C070F0F4
:1018E00002C06FF001C06EF000C06DF048C074F02F
:1018F00047C073F046C072F045C071F025EC01F0AE
:1019000003C04CF002C04BF001C04AF000C049F0E7
:1019100003C050F002C04FF001C04EF000C04DF0C7
:101920003EDD800E011A96D095D044C074F043C0BD
:1019300073F042C072F041C071F0786B776B766BD8
:10194000756BEAEC00F02CE348C04CF047C04BF05C
:1019500046C04AF045C049F0506A4F6A4E6A7F0E51
:101960004D6E52EC07F003C04CF002C04BF001C0CA
:101970004AF000C049F003C074F002C073F001C027
:1019800072F000C071F0786B776B766B756BEAEC78
:1019900000F006E0006A016A026A036A5BD05AD06E
:1019A00044C074F043C073F042C072F041C071F0A3
:1019B000786B776B766B756BEAEC00F010E148C0E2
:1019C00074F047C073F046C072F045C071F0786B98
:1019D000776B766B756BEAEC00F001E237E144C09F
:1019E00050F043C04FF042C04EF041C04DF022ECE9
:1019F00008F003C04CF002C04BF001C04AF000C038
:101A000049F003C070F002C06FF001C06EF000C07A
:101A10006DF048C074F047C073F046C072F045C026
:101A200071F025EC01F003C04CF002C04BF001C096
:101A30004AF000C049F003C050F002C04FF001C0AE
:101A40004EF000C04DF0ABDC05D004D0006A016A56
:101A5000026A036A120066C074F065C073F064C065
:101A600072F063C071F0786B776B766B756BEAEC34
:101A700000F001E205E1006A016A026A036A73D0BC
:101A800066C06AF065C069F064C068F063C067F062
:101A9000706B670E6F6F6FC0E9FF70C0EAFFEF50A9
:101AA000746B736F7F0E7327000E7423D89074319C
:101AB000733170C0EAFF6FC0E9FFEF6E6AC06EF06D
:101AC00069C06DF068C06CF067C06BF066C074F000
:101AD00065C073F064C072F063C071F06AC078F0E2
:101AE00069C077F068C076F067C075F0EAEC04F082
:101AF000D8926AC074F069C073F068C072F067C0B1
:101B000071F003C078F002C077F001C076F000C039
:101B100075F0D5EC01F003C06AF002C069F001C0B5
:101B200068F000C067F06FC0E9FF70C0EAFFEF0621
:101B30006EC074F06DC073F06CC072F06BC071F069
:101B40006AC078F069C077F068C076F067C075F059
:101B5000EAEC00F0B3E16BC000F06CC001F06DC0C6
:101B600002F06EC003F012005590559248C04CF040
:101B700047C04BF046C04AF045C049F048C074F039
:101B800047C073F046C072F045C071F0786B776B58
:101B9000766B756BEAEC00F004E355804A50800ADE
:101BA0004A6E746B736B726B7F0E716F4CC078F002
:101BB0004BC077F04AC076F049C075F0EAEC00F00F
:101BC00018E3746B736B726B7F0E716F4CC078F09F
:101BD0004BC077F04AC076F049C075F0EAEC04F0EB
:101BE00003C04CF002C04BF001C04AF000C049F005
:101BF00055820A0E706F890E6F6F340E6E6F7C0EF9
:101C00006D6F4CC074F04BC073F04AC072F049C0A5
:101C100071F025EC01F003C059F002C058F001C08A
:101C200057F000C056F003C070F002C06FF001C062
:101C30006EF000C06DF04CC074F04BC073F04AC041
:101C400072F049C071F025EC01F003C059F002C0F8
:101C500058F001C057F000C056F0D89203C074F09D
:101C600002C073F001C072F000C071F07C0E786F9A
:101C7000790E776F350E766F810E756FD5EC01F0AA
:101C800003C050F002C04FF001C04EF000C04DF054
:101C900050C070F04FC06FF04EC06EF04DC06DF090
:101CA0004CC074F04BC073F04AC072F049C071F080
:101CB00025EC01F003C059F002C058F001C057F004
:101CC00000C056F003C070F002C06FF001C06EF0AB
:101CD00000C06DF04CC074F04BC073F04AC072F09D
:101CE00049C071F025EC01F003C059F002C058F072
:101CF00001C057F000C056F0D89203C074F002C083
:101D000073F001C072F000C071F03F0E786F020EE8
:101D1000776F330E766F830E756FD5EC01F003C0CD
:101D200050F002C04FF001C04EF000C04DF050C066
:101D300070F04FC06FF04EC06EF04DC06DF04CC0F3
:101D400074F04BC073F04AC072F049C071F025ECDA
:101D500001F003C059F002C058F001C057F000C0B4
:101D600056F003C070F002C06FF001C06EF000C00A
:101D70006DF04CC074F04BC073F04AC072F049C0B3
:101D800071F025EC01F003C059F002C058F001C019
:101D900057F000C056F0D89203C074F002C073F040
:101DA00001C072F000C071F0330E786F8C0E776F47
:101DB0001E0E766F830E756FD5EC01F003C050F0E8
:101DC00002C04FF001C04EF000C04DF0706B6F6B61
:101DD0006E6B7F0E6D6F4CC074F04BC073F04AC0D9
:101DE00072F049C071F025EC01F003C059F002C057
:101DF00058F001C057F000C056F003C070F002C0A8
:101E00006FF001C06EF000C06DF04CC074F04BC0BC
:101E100073F04AC072F049C071F025EC01F003C0C4
:101E200059F002C058F001C057F000C056F0D892E7
:101E300003C074F002C073F001C072F000C071F012
:101E40001B0E786FE40E776F350E766F820E756F0E
:101E5000D5EC01F003C054F002C053F001C052F0C1
:101E600000C051F054C070F053C06FF052C06EF01B
:101E700051C06DF04CC074F04BC073F04AC072F0AA
:101E800049C071F025EC01F003C059F002C058F0D0
:101E900001C057F000C056F003C070F002C06FF0F0
:101EA00001C06EF000C06DF04CC074F04BC073F018
:101EB0004AC072F049C071F025EC01F003C059F03E
:101EC00002C058F001C057F000C056F0D89203C0CD
:101ED00074F002C073F001C072F000C071F0A40E83
:101EE000786FDB0E776F670E766F830E756FD5ECAC
:101EF00001F003C054F002C053F001C052F000C022
:101F000051F054C070F053C06FF052C06EF051C029
:101F10006DF04CC074F04BC073F04AC072F049C011
:101F200071F025EC01F003C059F002C058F001C077
:101F300057F000C056F003C070F002C06FF001C04F
:101F40006EF000C06DF04CC074F04BC073F04AC02E
:101F500072F049C071F025EC01F003C059F002C0E5
:101F600058F001C057F000C056F0D89203C074F08A
:101F700002C073F001C072F000C071F0330E786FD0
:101F80008C0E776F1E0E766F830E756FD5EC01F099
:101F900003C054F002C053F001C052F000C051F031
:101FA0004CC070F04BC06FF04AC06EF049C06DF08D
:101FB00050C074F04FC073F04EC072F04DC071F05D
:101FC00025EC01F003C059F002C058F001C057F0F1
:101FD00000C056F003C074F002C073F001C072F08C
:101FE00000C071F054C078F053C077F052C076F062
:101FF00051C075F0EAEC04F003C050F002C04FF09D
:1020000001C04EF000C04DF055A21BD0D882DB0EAF
:10201000746F0F0E736F490E726F7F0E716F50C029
:1020200078F04FC077F04EC076F04DC075F0D5EC2B
:1020300001F003C050F002C04FF001C04EF000C0EC
:102040004DF055A003D04E50800A4E6E4DC000F0AA
:102050004EC001F04FC002F050C003F012005E907D
:102060004CC051F04BC050F04AC04FF049C04EF048
:102070004CC074F04BC073F04AC072F049C071F0AC
:10208000786B776B766B756BEAEC00F004E35E803F
:102090004F50800A4F6E746B736B726B7E0E716F54
:1020A00051C078F050C077F04FC076F04EC075F058
:1020B000EAEC00F042E3D882746B736B726B7F0EB4
:1020C000716F51C078F050C077F04FC076F04EC0BD
:1020D00075F0D5EC01F003C062F002C061F001C000
:1020E00060F000C05FF003C070F002C06FF001C08C
:1020F0006EF000C06DF0746B736B726B7E0E716F5F
:1021000025EC01F003C062F002C061F001C060F094
:1021100000C05FF003C066F002C065F001C064F06B
:1021200000C063F098DC03C051F002C050F001C061
:102130004FF000C04EF0020E4D2651C070F050C05E
:102140006FF04FC06EF04EC06DF051C074F050C0D3
:1021500073F04FC072F04EC071F025EC01F003C077
:102160005DF002C05CF001C05BF000C05AF0370EB9
:10217000706FBF0E6F6F7D0E6E6F6D6F5DC074F010
:102180005CC073F05BC072F05AC071F025EC01F0D6
:1021900003C062F002C061F001C060F000C05FF0F7
:1021A000D89203C074F002C073F001C072F000C096
:1021B00071F03D0E786FAA0E776F930E766F810ED9
:1021C000756FD5EC01F003C055F002C054F001C0AA
:1021D00053F000C052F055C070F054C06FF053C0BF
:1021E0006EF052C06DF05DC074F05CC073F05BC007
:1021F00072F05AC071F025EC01F003C062F002C029
:1022000061F001C060F000C05FF0D89203C074F0CC
:1022100002C073F001C072F000C071F0EE0E786F72
:10222000500E776F330E766F810E756FD5EC01F01F
:1022300003C055F002C054F001C053F000C052F08A
:10224000706B6F6B6E6B7F0E6D6F5DC074F05CC0FA
:1022500073F05BC072F05AC071F025EC01F003C05E
:1022600062F002C061F001C060F000C05FF0D8927F
:1022700003C074F002C073F001C072F000C071F0CE
:102280000A0E786F8D0E776FB10E766F810E756FB7
:10229000D5EC01F003C059F002C058F001C057F06E
:1022A00000C056F059C070F058C06FF057C06EF0C3
:1022B00056C06DF05DC074F05CC073F05BC072F02E
:1022C0005AC071F025EC01F003C062F002C061F069
:1022D00001C060F000C05FF0D89203C074F002C08B
:1022E00073F001C072F000C071F0EE0E786F500E06
:1022F000776F330E766F810E756FD5EC01F003C0EA
:1023000059F002C058F001C057F000C056F051C05B
:1023100070F050C06FF04FC06EF04EC06DF055C001
:1023200074F054C073F053C072F052C071F025ECD9
:1023300001F003C062F002C061F001C060F000C0B3
:102340005FF003C074F002C073F001C072F000C00F
:1023500071F059C078F058C077F057C076F056C089
:1023600075F0EAEC04F003C055F002C054F001C06F
:1023700053F000C052F04DA22AD0706B6F6B6E6BA1
:10238000800E6D6F55C074F054C073F053C072F07E
:1023900052C071F025EC01F0D882DB0E746F0F0E85
:1023A000736F490E726F7F0E716F03C078F002C0B9
:1023B00077F001C076F000C075F0D5EC01F003C0F5
:1023C00055F002C054F001C053F000C052F05EA0BE
:1023D00003D05350800A536E4DA01BD0D882DB0E21
:1023E000746F0F0E736F490E726F7F0E716F55C051
:1023F00078F054C077F053C076F052C075F0D5EC49
:1024000001F003C055F002C054F001C053F000C009
:1024100052F052C000F053C001F054C002F055C059
:1024200003F01EEF12F044C04CF043C04BF042C02A
:102430004AF041C049F0010E4D6E11D603C048F07C
:1024400002C047F001C046F000C045F045C000F0B2
:1024500046C001F047C002F048C003F01EEF14F080
:102460002EC044F02DC043F02CC042F02BC041F0F0
:10247000486A476A466A800E456EB8EC0BF003C0A6
:1024800070F002C06FF001C06EF000C06DF09EEC05
:1024900001F002C026F001C025F032C044F031C086
:1024A00043F030C042F02FC041F0486A476A466AA4
:1024B000800E456EB8EC0BF003C070F002C06FF0F8
:1024C00001C06EF000C06DF09EEC01F002C028F07B
:1024D00001C027F027502524296E285026202A6E77
:1024E0002AC072F029C071F0BAEC01F003C044F0C8
:1024F00002C043F001C042F000C041F003C066F0EA
:1025000002C065F001C064F000C063F02BEC0DF078
:1025100003C070F002C06FF001C06EF000C06DF03B
:102520009EEC01F002C01AF001C019F016501A5CBE
:10253000D8A08FD204E11950155CD8B08AD21A50B5
:10254000145CD8A086D204E11350195CD8B081D2B3
:102550003352D8A488D032C074F031C073F030C088
:1025600072F02FC071F02EC078F02DC077F02CC023
:1025700076F02BC075F0EAEC04F003C044F002C022
:1025800043F001C042F000C041F003C048F002C077
:1025900047F001C046F000C045F0B4EC0DF003C0B8
:1025A00044F002C043F001C042F000C041F003C05B
:1025B00070F002C06FF001C06EF000C06DF0E60E6A
:1025C000746F2E0E736F650E726F840E716F25EC33
:1025D00001F003C044F002C043F001C042F000C06B
:1025E00041F003C070F002C06FF001C06EF000C097
:1025F0006DF0410E746F440E736F540E726F800E47
:10260000716F25EC01F003C044F002C043F001C03B
:1026100042F000C041F0EACF46F0E9CF45F0D89251
:1026200003C074F002C073F001C072F000C071F01A
:10263000786B776B570E766F860E756FD5EC01F061
:1026400046C0EAFF45C0E9FF03C070F002C06FF06A
:1026500001C06EF000C06DF09EEC01F002C018F0F9
:1026600001C017F0A0D032C074F031C073F030C098
:1026700072F02FC071F02EC078F02DC077F02CC012
:1026800076F02BC075F0EAEC04F003C044F002C011
:1026900043F001C042F000C041F003C048F002C066
:1026A00047F001C046F000C045F0B4EC0DF003C0A7
:1026B00044F002C043F001C042F000C041F003C04A
:1026C00070F002C06FF001C06EF000C06DF0E60E59
:1026D000746F2E0E736F650E726F840E716F25EC22
:1026E00001F0EACF42F0E9CF41F0D882746B736B0E
:1026F000340E726F860E716F03C078F002C077F0EF
:1027000001C076F000C075F0D5EC01F042C0EAFFE0
:1027100041C0E9FF03C046F002C045F001C044F0EB
:1027200000C043F003C070F002C06FF001C06EF053
:1027300000C06DF0410E746F440E736F540E726FD3
:10274000800E716F25EC01F003C046F002C045F029
:1027500001C044F000C043F0EACF48F0E9CF47F0B1
:10276000D89203C074F002C073F001C072F000C0D0
:1027700071F0786B776B570E766F860E756FD5ECB0
:1027800001F048C0EAFF47C0E9FF03C070F002C093
:102790006FF001C06EF000C06DF09EEC01F002C061
:1027A00018F001C017F0460E195C006E000E1A58A2
:1027B000036E00C071F0726FBAEC01F003C037F025
:1027C00002C036F001C035F000C034F037C074F0FC
:1027D00036C073F035C072F034C071F0786B776B2F
:1027E000766B800E756FEAEC04F003C03BF002C01C
:1027F0003AF001C039F000C038F03BC074F03AC084
:1028000073F039C072F038C071F0786B776B0C0ED2
:10281000766F850E756FEAEC04F003C03FF002C0DE
:102820003EF001C03DF000C03CF03FC044F03EC06F
:1028300043F03DC042F03CC041F0F5D503C044F048
:1028400002C043F001C042F000C041F003C070F08C
:1028500002C06FF001C06EF000C06DF0746B736B5E
:10286000340E726F860E716F25EC01F003C044F0D8
:1028700002C043F001C042F000C041F003C074F058
:1028800002C073F001C072F000C071F0DB0E786F0F
:102890000F0E776F490E766F800E756FEAEC04F0BD
:1028A00003C01EF002C01DF001C01CF000C01BF0F0
:1028B0005A0E406E1EC070F01DC06FF01CC06EF04E
:1028C0001BC06DF0710E746F3D0E736F5A0E726FF8
:1028D000800E716F25EC01F0D882746B736B726B94
:1028E000880E716F03C078F002C077F001C076F0F7
:1028F00000C075F0D5EC01F003C070F002C06FF0BD
:1029000001C06EF000C06DF09EEC01F002C020F03E
:1029100001C01FF0706B6F6B6E6B800E6D6F1EC011
:1029200074F01DC073F01CC072F01BC071F025EC78
:1029300001F003C044F002C043F001C042F000C007
:1029400041F003C070F002C06FF001C06EF000C033
:102950006DF0710E746F3D0E736F5A0E726F800EB4
:10296000716F25EC01F0D882746B400E736F030E0B
:10297000726F880E716F03C078F002C077F001C0EB
:1029800076F000C075F0D5EC01F003C070F002C025
:102990006FF001C06EF000C06DF09EEC01F002C05F
:1029A00022F001C021F01EC070F01DC06FF01CC0ED
:1029B0006EF01BC06DF0710E746F3D0E736F5A0E8A
:1029C000726F800E716F25EC01F0D882746B400E2F
:1029D000736F4A0E726F880E716F03C078F002C079
:1029E00077F001C076F000C075F0D5EC01F003C0BF
:1029F00070F002C06FF001C06EF000C06DF09EEC90
:102A000001F002C024F001C023F00EC041F018C054
:102A100043F017C042F08BEC00F00FC041F020C033
:102A200043F01FC042F08BEC00F010C041F022C018
:102A300043F021C042F08BEC00F011C041F024C003
:102A400043F023C042F08BEC00F0140E416E10EC0A
:102A500000F098EF15F0F86AD08EB8862A0EAF6EA7
:102A6000000EB06EA60EAC6E900EAB6E939C8A8C70
:102A7000146A136A166A156A186A176A1A6A196A52
:102A80001E6A1D6A1C6A1B6A020E206E1F6A226E75
:102A9000216A246E236A0F01386B396B3A6B3B6BEA
:102AA0003C6B776A786A796A046A056A066A076A1B
:102AB000086A096A0A6A0B6A0C6A0D6A010E0E6ED0
:102AC000020E0F6E090E106E030E116E0E0E126EB8
:102AD000000102EF00F0040E2B6EFA0E416E10ECB6
:102AE00000F02B2EFAD72D6A640E2C6E75EC00F0D8
:102AF000A7EF00F0A8EF04F0010E2D6EF40E2C6E7F
:102B000075EC00F0040E2B6EFA0E416E10EC00F026
:102B10002B2EFAD72E6A2D6A200E2C6E860E2B6E67
:102B2000326A316A200E306E850E2F6E336A98D469
:042B3000F1D7FFD703
:020000040030CA
:0E00000000E2191C00BF00000FC00FE00F400F
:00000001FF
;PIC18F45K22
;CRC=80D1  CREATED="14-déc.-18 15:01"
