:080000006C98040000000000F0
:04003400B20A00000C
:0800400058050000A60B0000AA
:04004C00DA080000CE
:040088007E050000F1
:100200003220EF00C3102000008041001040BA00EF
:100210000160EF0000000600524500005345000059
:100220005420000033320000313600003534000025
:1002300039380000372000000D0000003220EF00A8
:10024000A3122000008041001040BA000160EF00BE
:10025000000006007E4B000050200000312000000E
:100260000D0000003220EF00E31320000080410069
:100270001040BA000160EF00000006007E4B000055
:1002800049200000312000000D0000003220EF0066
:1002900023152000008041001040BA000160EF00EB
:1002A000000006007E4B00004420000031200000CA
:1002B0000D0000003220EF00631620000080410096
:1002C0001040BA000160EF00000006007E4B000005
:1002D00050200000322000000D0000003220EF000E
:1002E000A3172000008041001040BA000160EF0019
:1002F000000006007E4B0000492000003220000074
:100300000D0000003220EF00E318200000804100C3
:100310001040BA000160EF00000006007E4B0000B4
:1003200044200000322000000D0000003220EF00C9
:10033000231A2000008041001040BA000160EF0045
:10034000000006007E4D0000414300002031000007
:10035000200D0000000000003220EF00831B200071
:10036000008041001040BA000160EF00000006006C
:100370007E4D000044450000432000003120000075
:100380000D0000003220EF00E31C2000008041003F
:100390001040BA000160EF00000006007E4D000032
:1003A0004143000020320000200D0000000000004A
:1003B0003220EF00431E2000008041001040BA00B0
:1003C0000160EF00000006007E4D00004445000083
:1003D00043200000322000000D0000003220EF001A
:1003E000630220008301500005003100A32020009B
:1003F000008041001040BA000160EF0000000600DC
:10040000A020200083814100808141001380BA0038
:10041000000006005E4B49005020200031203200D1
:10042000257520005F5E25004B49750020315F0077
:1004300020255E00755F4B005E4B44004420200089
:1004400031203200257520005F5E25004B5075007D
:100450002032200020250D00755F00005E4B00005B
:100460003220EF00E301200083015000050031003D
:10047000C3242000008041001040BA000160EF005A
:1004800000000600C02420008381410080814100DB
:100490001380BA00000006005E4D5F0041435E001D
:1004A00020314D0020254400755F45005E4D43001E
:1004B00044452000432032003120200025752500CE
:1004C0005F5E75004D41200043200D00322000008A
:1004D000257500003220EF006327200000804100D6
:1004E0001040BA000160EF00000006004545000022
:1004F00053410000562000000D0000003220EF00A4
:10050000A3282000008041001040BA000160EF00E5
:10051000000006003F440000520D000000000000F3
:100520003220EF00C3292000008041001040BA00B3
:100530000160EF00000006003F4100002031000094
:100540000D0000003220EF00E32A2000008041006F
:100550001040BA000160EF00000006003F410000BB
:10056000203200000D0000003220EF00032C20009C
:10057000008041001040BA000160EF00000006005A
:1005800021530000203100002025000030340000FD
:10059000755F00002153000020320000202500007C
:1005A00030340000752000000D0000003220EF0004
:1005B000232E2000008041001040BA000160EF00AF
:1005C00000000600215000005220000031200000F1
:1005D000256400005F21000050520000203200001E
:1005E00020250000642000000D0000003220EF00F4
:1005F00023302000008041001040BA000160EF006D
:1006000000000600215300002031000020330000CC
:10061000303000005F210000532000003220000035
:1006200033300000300D0000000000003220EF00E9
:1006300023322000008041001040BA000160EF002A
:100640000000060021500000522000003120000070
:10065000315F0000215000005220000032200000D5
:10066000310D0000000000003220EF0003342000B4
:10067000008041001040BA000160EF000000060059
:1006800021500000522000003120000025300000E1
:10069000376400005F21000050520000203200004B
:1006A0002025000030370000642000000D0000000D
:1006B0003220EF0043362000008041001040BA0095
:1006C0000160EF0000000600214D000053200000F3
:1006D000310D0000000000003220EF0083372000C1
:1006E000008041001040BA000160EF0000000600E9
:1006F000214D000053200000320D000000000000DA
:100700003220EF00C3382000008041001040BA00C2
:100710000160EF00000006005E4D00004D4F00003C
:100720004420000031200000305F00005E4D0000DA
:100730004D4F00004420000032200000300D00002A
:10074000000000003220EF00E33A2000008041006A
:100750001040BA000160EF00000006005E4D00008E
:100760004D4F00004420000031200000335F0000A6
:100770005E4D00004D4F000044200000322000007C
:10078000330D0000000000003220EF00033D200088
:10079000008041001040BA000160EF000000060038
:1007A0004361000072740000652000005072000078
:1007B000696E000063690000706100006C650000F4
:1007C000203A0000204300006F6D00006D610000C2
:1007D0006E64000065200000496E0000636F000039
:1007E0006E6E0000756500000D0000003220EF0005
:1007F00023402000008041001040BA000160EF005B
:1008000000000600214D0000470D00000000000020
:100810003220EF0043412000008041001040BA0028
:100820000160EF00000006005E4D0000444500003E
:10083000432000003120000039300000303000003B
:100840005F5E00004D440000454300002032000080
:100850002039000030300000300D000000000000A2
:100860003220EF00C3432000008041001040BA0056
:100870000160EF000000060021530000203100005D
:10088000203000005F2100005320000032200000D3
:10089000300D0000000000003220EF0083452000F2
:1008A000008041001040BA000160EF000000060027
:1008B0005E4D000044450000432000003120000050
:1008C00036300000303000005F5E00004D44000014
:1008D0004543000020320000203600003030000088
:1008E000300D0000000000003220EF00034820001F
:1008F000008041001040BA000160EF0000000600D7
:10090000215300002031000020250000755F000009
:10091000215300002032000020250000750D00004A
:10092000000000003220EF00E34920000080410079
:100930001040BA000160EF000000060021450000F1
:10094000582000000D000000969CBF000080B200FF
:100950000100320008003700981CE20002003A0053
:10096000D682A90001003700D682A800D282A90051
:10097000C004040000000000C004040000000000E7
:1009800000000600851F7800861F7800923CEF006B
:1009900094E480006120E10042003D0094E4800086
:1009A0006820B8008002780062804200045821006C
:1009B000040040009002780094E480006823B800AE
:1009C000045821000400430000027800140078005D
:1009D0000028E1000F003D00921CF800961CF90071
:1009E00014002000C4E48800A404020000000000F9
:1009F00094E480006820B8008002780062804200A1
:100A00000458210084024000950AE8004C050400C7
:100A10000000000094E480006820B80080027800A4
:100A200062804200045821000400400090027800D7
:100A3000540C20000520E1000E003400921CF80048
:100A4000961CF900983CEF00A4040200000000008E
:100A500094E480006820B800800278006280420040
:100A60000458210084024000950AE8004C05040067
:100A70000000000094E480006820B8008002780044
:100A8000628042000458210084024000804AEB004A
:100A900000C0B30090429800923CEC00C8040400EF
:100AA000000000004F037800CF027800000006002D
:100AB0004200F8003600F8003200F800801F78008D
:100AC000200020000C000900B01F78000621EF0074
:100AD000C20402000000000084C0A900A0012000A0
:100AE0000C0009004F1078004F0078003200F90028
:100AF0003600F9004200F900004006004200F8000C
:100B00003600F8003200F800801F78002000200036
:100B10000C000900B01F78001802AE00FEFF37007D
:100B2000E01080006CFCB700D4AF80004822DE00EB
:100B300043892000830242006C9CBF0080429800E1
:100B4000FB75EC0064E380006D24E10003003A00D3
:100B5000FBD5BF00FAF5B700FB75EF008700A900D1
:100B6000A00120000C0009004F1078004F00780011
:100B70003200F9003600F9004200F900004006009A
:100B8000851F78004499200084E388006E7CEF0084
:100B900074E380000960EF0083E38000048041007B
:100BA000104278006D24E1001400320074E38000EC
:100BB0000960EF0083E38000048041001042780068
:100BC0006324E1000D00320074E380000960EF004F
:100BD00083E3800004804100904278000540780063
:100BE0000F22AF00FEFF370010E2B7001162EF00E6
:100BF0006E7CEC00C80504000000000074E3800077
:100C00000960EF0083E38000048041009042780097
:100C1000054078000F22AF00FEFF370010E2B7005A
:100C20001162EF0074E380000960EF004399200037
:100C30008302420074E380000960EF0083E38000D8
:100C400004804100904A7800CF027800000006003E
:100C5000851F7800C500200003000900B51F78003B
:100C60000202B80003F0A600020037000383B900B7
:100C7000010037000303B8004200A90085024300C9
:100C800060844B0001F0A60002003700028BB9001F
:100C900001003700020BB80085024B0008844B00AE
:100CA0000980B000038BB90008044B0087834C0017
:100CB000870178000801780085007800040078003A
:100CC0002501200003000900CF127800CF02780030
:100CD00000000600851F7800861F7800871F7800B7
:100CE0008E3CEF008A3CEF00A400200064E4880002
:100CF000863CEF00883CEF00821CE20003003A00D3
:100D00000000200001002000E80037008E9CBF009A
:100D10008E3CEC008002780005007800821CB40054
:100D200024E480000042900024E4880024E4800051
:100D3000D4C2B2000C003A001400200054E4880031
:100D40008E9CBF008E3CEC0080027800050078008D
:100D5000821CB40024E480000042900024E4880057
:100D6000CA0604000000000024E48000B4C2B200FF
:100D700008003A008E9CBF008E3CEC008002780098
:100D800005007800821CB40024E48000004290003A
:100D900024E4880024E4800003032000041CE10014
:100DA000B2003C0024E4800093032000041CE10016
:100DB000AE00350024E4800004C3B20015003A0000
:100DC0008E9CBF00821CB4001042780084C7B20021
:100DD000050032008E9CBF00821CB40010427800D7
:100DE00084C5B2000B003A000401200064E48800CE
:100DF0008E3CEC008E9CBF008E3CEC0080027800A4
:100E000005007800821CB40024E4800000429000B9
:100E100024E4880064E480006A20E10028003A00AD
:100E200024E4800003032000041CE10022003C00B5
:100E300024E4800093032000041CE1001E00350020
:100E4000A00020000100200032E4800043E4800084
:100E500028060200000000008002780001037800EC
:100E600024E480000443B1000440780000E0B700AF
:100E70000000FB008000EB0000F0A7008080EB008A
:100E80000500400086BCB7000680480088BCB7005B
:100E90008E9CBF008E3CEC0080027800050078003C
:100EA000821CB40024E480000042900024E4880006
:100EB00010070400000000003608040000000000D5
:100EC00064E480007020E10068003A0024E48000BF
:100ED00013062000041CE10007003E0024E480000B
:100EE000A3072000041CE1000300390084DCBF00DC
:100EF000F04DB2000100370084DCBF0084FCB70075
:100F000024E4800003032000041CE10005003C00F1
:100F100024E4800093032000041CE100010035005C
:100F20000800370024E4800013042000041CE100C2
:100F30004E003C0024E4800063042000041CE10017
:100F40004A00350024E4800003032000041CE10073
:100F50001B003C0024E4800093032000041CE100FB
:100F6000170035004400200035E4800046E480008E
:100F70000402E8000402E900030032008502D00008
:100F80000683D200FBFF370024E480000443B10055
:100F90000440780000E0B7000000FB008000EB0098
:100FA00000F0A7008080EB000500400086BCB70081
:100FB0000680480088BCB700080804000000000054
:100FC0004400200035E4800046E480000402E8008C
:100FD0000402E900030032008502D0000683D2003B
:100FE000FBFF370024E480001444B1000440780083
:100FF00000E0B7000080FB006A00400005004000F0
:1010000086BCB7000400200006004A0088BCB70078
:101010008E9CBF008E3CEC008002780005007800BA
:10102000821CB40024E480000042900024E4880084
:1010300024E4800013062000041CE10007003E00A9
:1010400024E48000A3072000041CE1000300390011
:1010500084DCBF00F04DB2000100370084DCBF002B
:1010600084FCB700800704000000000064E48000F6
:101070006A20E1000B003A0054E480006120E100A6
:1010800008003A000400200033E48000030052000E
:1010900086BCB7000400200043E4800003005A002F
:1010A00088BCB700869CBF0041E48000CF03780075
:1010B0004F037800CF02780000000600851F7800FB
:1010C00010C0B30072FCB700737CEF00747CEF00BB
:1010D000763CEF00783CEF007A3CEF007C3CEF0080
:1010E0007E3CEF00807CEF0094E380000960EF001D
:1010F000040078006E1CB400104278006324E10004
:101100002A00320094E380000960EF0004007800B8
:101110006E1CB4001042780004C2B2000D00320010
:1011200094E380004822DE0063C72100830242006E
:1011300094E380000960EF00040078006E1CB400A6
:10114000904A7800727CEC00737CEC00820804000A
:101150000000000094E380004822DE0063C7210005
:1011600083024200804AEB00727CEC00737CEF004B
:1011700074DCBF000160EF004200DD0084E380000A
:101180008402400064C7210014E488006A0602005B
:101190000000000004002000B41A7800B41A78009F
:1011A000747CEC007408040000000000CF0278009A
:1011B000000006004200F8003600F8003200F80097
:1011C000801F7800200020000C000900B01F78006C
:1011D0001136AF00B00037001156A8000E02AE0065
:1011E000AD0037000E02AE00FEFF37009010800009
:1011F0006CFCB7001176AE000700370064E3800096
:101200006624E10004003A001176A900147BEF0087
:10121000480A0400000000001176AE0011003700FB
:1012200064E380007524E1000E003A0014DBBF0087
:10123000E4A580004822DE000024E100050036001D
:10124000C005020000000000147BEC002E09040021
:10125000000000001176A900147BEF00480A04008A
:101260000000000064E380006224E1000A003A000C
:101270001357E20008003A00187BEF0018DBBF00AC
:1012800017FBB70010C0B30013F7B7001277EF00D9
:10129000480A04000000000064E380006324E100C9
:1012A00040003A0094B880004822DE006524E10046
:1012B0003C003A00B4D880004822DE006324E100FC
:1012C00004003200B4D880004822DE006D24E10022
:1012D00001003A00177BEC00C4D880006324E100D1
:1012E00003003200C4D880006D24E10001003A0000
:1012F000187BEC0017DBBF00155BE3001E003A0013
:1013000018DBBF00165BE3001B003A0094B88000B6
:101310000960EF00236121008302420030C0B30066
:10132000804A78002461210074E388004471210020
:1013300084E388005E080200000000001497BF00EC
:10134000BE14E3000A003A001697BF00C014E30081
:1013500007003A001136A80060C0B3000F22AF00AA
:10136000FEFF370010E2B7001162EF001176A8000F
:10137000C60904000000000050C1B3000F22AF00F6
:10138000FEFF370010E2B7001162EF001377EF00A5
:101390001277EF00147BEF001156A900480A0400F1
:1013A0000000000094B880004822DE006124E100C3
:1013B00004003A0020C0B30013F7B700480A040045
:1013C0000000000094B880004822DE006224E100A2
:1013D00006003A006CDCBF0015FBB70030C0B3005C
:1013E00013F7B700480A04000000000094B880001A
:1013F0004822DE006324E10004003A0040C0B3004C
:1014000013F7B700480A04000000000094B88000F9
:101410004822DE006424E10006003A006CDCBF00D4
:1014200016FBB70050C0B30013F7B700480A04001A
:101430000000000094B880004822DE006524E1002E
:1014400013003A0017DBBF006C5CB40017FBB70059
:1014500018DBBF006C5CB4000AE0B70094B88000F1
:101460000960EF00610042000B60EF000028B80047
:1014700018FBB70094B880000960EF0023612100D9
:10148000830242006C9CBF00804298001277EC00FF
:10149000EE080400000000008520A900A001200043
:1014A0000C0009004F1078004F0078003200F9005E
:1014B0003600F9004200F90000400600851F780060
:1014C000C500200003000900B51F780009002000B6
:1014D0004300AF0019002000891F78000002EB00D4
:1014E0008002EB000003EB008003EB0003046900C3
:1014F00011003200080220004200A9000080D20042
:101500008180D2000482D2008582D2000328E100CB
:1015100001003A0002A0E10003003900020252007B
:1015200083825A004200A8000683D2008783D2003B
:101530000804E900F0FF3A00870078000600780010
:10154000CF0478000900E000010032000400BE0072
:101550002501200003000900CF127800CF02780097
:10156000000006004200F8003600F8003200F800E3
:10157000801F7800200020000C000900B01F7800B8
:101580006228EC004220AF006428EC006608E2000C
:1015900002003A006808E20016003200144380009E
:1015A00033438000030052006AA8B7002443800040
:1015B0004343800003005A006CA8B7004300A80012
:1015C0006A88BF0061438000823E20000300200043
:1015D0005E0A02000000000080027800010378002B
:1015E0000500E00003003A000600E00001003A00B8
:1015F0006168EC00044380004822DE00C4C5B200EC
:1016000001003A005A08A8006608E20002003A0009
:101610006808E2000E0032004300A8006A88BF009C
:101620006143800022A68000030020005E0A0200C1
:101630000000000080027800010378000500E0004F
:1016400003003A000600E00001003A005A48A800F2
:101650006608E20002003A006808E2000E0032006C
:101660004300A8006A88BF0061438000421F200039
:10167000030020005E0A02000000000080027800E3
:10168000010378000500E00003003A000600E000D6
:1016900001003A005A88AA001156AE000D0037002A
:1016A000263BEC00BCD4BF000160EF0034D98000C1
:1016B0000020E100050039001377EF001277EF00FA
:1016C000147BEF001176A9001156A9006C0B0400E1
:1016D00000000000263BEF006608E20002003A002E
:1016E0006808E20006003200044380004822DE0061
:1016F00083052000041CE10001003E005A28A800D8
:101700006608E20002003A006808E20006003200C3
:10171000044380004822DE00C3052000041CE100D1
:1017200001003E005A08A8008460A900A001200022
:101730000C0009004F1078004F0078003200F900CB
:101740003600F9004200F900004006004200F800AF
:101750003600F8003200F800801F780020002000DA
:101760000C000900B01F78005A68AE000100370075
:101770001196AA0084E0A900A00120000C00090035
:101780004F1078004F0078003200F9003600F90061
:101790004200F90000400600881F78002801200060
:1017A00004000900B81F78008005EB006066B800EF
:1017B0000304780087047800FA7F20004200A90023
:1017C0004220A90044C4DE00080465000800E000CF
:1017D000710032004200A9004220A900C4CCDE0002
:1017E000890465000900E0006B00320008844400B1
:1017F00009B0A70004003700F83FB10066003200CE
:1018000065003900030037001A402000854245007A
:1018100061003100878669004200A9004220A900CA
:10182000F300B2000340A000F700B2000740A000A0
:10183000881F78000124B800002DB8000A05440074
:101840008B854C000C80B0000224B8008B0544004E
:101850000C864C00012CB8000005EB008B05440001
:101860000C864C000A80B0000034B8008B054400A0
:101870000C864C000A80B0008005EB000324B80001
:101880000C0644000A854C000B80B000022CB80006
:101890000C0644000A854C000B80B0000134B800EF
:1018A0000C0644000A854C000B80B000003CB800D8
:1018B0000C0644000A854C000B80B0000C00780038
:1018C0000006EB00032CB8000A0544008B854C0091
:1018D0000C80B0000234B8000A0544008B854C002F
:1018E0000C80B0000334B8008B0544000C864C001B
:1018F000013CB8000A0544008B854C000C80B00008
:10190000023CB8008B0544000C864C00033CB80038
:101910000C0644008A0078000B0178008C017800E6
:10192000540020004200A9008381D3000281D3002B
:101930008180D3000080D3000402E900F9FF3A005F
:101940004F0478000804E800010370000100320031
:101950000200370003037100080032000340A700B3
:10196000060037004200A9000080D2008180D2002A
:101970000281D2008381D2000804E9004444DD00E2
:1019800003F0A1000DF0A70003F0A0000340A100A8
:1019900083016C00030037006000B8006001B800EC
:1019A00000003700A8012000040009004F1478004F
:1019B0004F04780000000600881F780028012000EE
:1019C00004000900B81F78008786690003047800C6
:1019D00087047800FA7F20004200A9004220A90075
:1019E00044C4DE00080465000800E0006C0032001A
:1019F0004200A9004220A900C4CCDE008904650091
:101A00000900E000660032000005EB000906540002
:101A100003003900FC3FB0006100310004003700D2
:101A20001B4020000B0656005D0039005C003200B0
:101A30000004EB008004EB000005EB008005EB00E8
:101A4000F301B2000340A000F701B2000740A0007C
:101A50008C1F78006C032000040050008580580023
:101A60000601590087815900020033000600310049
:101A700006003A0004004000858048000601490045
:101A800087814900010037000800A0000C06E9002A
:101A90000B0032004200A9000080D2008180D200F9
:101AA0000281D2008381D2004200A9000884D200C2
:101AB0008984D2000A85D2008B85D200E6FF3700E8
:101AC0004F0678000B50A7000100370006003700D2
:101AD0004200A9008B85D3000A85D3008984D300F6
:101AE0000884D300030037000C06E9004200A90077
:101AF0002B0032004200AF00090037000080D20006
:101B00008180D2000281D2008381D2000402500081
:101B10008582580006035900878359001500390053
:101B20000804E80013003A008904E80011003A00B4
:101B30000A05E8000F003A008B05E8000D003A00A6
:101B40000C06E800160032000A0037000C06E90017
:101B5000130032000B40A700060037004200A90026
:101B60000884D2008984D2000A85D2008B85D200F5
:101B7000F8FF37004466DD004200A9000CF0A10028
:101B80000DF0A7000CF0A0000B40A1008B016E002F
:101B90000A01780089007800080078000500370005
:101BA00000002000010020000200200003002000AF
:101BB00000003700A8012000040009004F1478003D
:101BC0004F04780000000600F0FF2F000862AE000E
:101BD0000500370009C2AF00FEFF37001110880072
:101BE00009C2AF00FEFF37000000200009E2AF008D
:101BF0000000E800000006002CDBBF002BFBB70054
:101C00002DDBBF0032FBB7002EDBBF0033FBB7007C
:101C10002FDBBF0034FBB70030DBBF0035FBB70064
:101C200031DBBF0036FBB7000862AE0004003700AE
:101C30000622A8000622AF00FEFF3700030037008F
:101C40000602A8000602AF00FEFF37002ADBBF0035
:101C500002E0B700E40D0200000000000004E00014
:101C60001D003A0071C3B300E40D02000000000043
:101C70002BDBBF0080407800E40D02000000000074
:101C800032DBBF0002E0B700E40D020000000000FC
:101C900033DBBF0080407800E40D0200000000004C
:101CA00034DBBF0002E0B700E40D020000000000DA
:101CB00035DBBF0080407800E40D0200000000002A
:101CC00036DBBF0002E0B700E40D020000000000B8
:101CD0007E0E040000000000F00120000602B600A5
:101CE000FDFF3A000642A8000642AF00FEFF3700A3
:101CF00020C0B30000E0B70008003700F00120006A
:101D00000602B600FDFF3A000642A8000642AF00F8
:101D1000FEFF370010C0B30000E0B700000006006F
:101D20000000E0004220AF00060037001B0E090053
:101D300000000000FE3F0900000000000000E90074
:101D4000FAFF3A00000006002CDBBF002BFBB700B7
:101D50002DDBBF0034FBB7002EDBBF0035FBB70027
:101D60002FDBBF0036FBB70030DBBF0037FBB7000F
:101D700031DBBF0038FBB70032DBBF0039FBB700F7
:101D800033DBBF003AFBB7000862AE000400370047
:101D90000622A8000622AF00FEFF3700030037002E
:101DA0000602A8000602AF00FEFF37002ADBBF00D4
:101DB00002E0B700E40D0200000000000004E000B3
:101DC00025003A0091C2B300E40D020000000000BB
:101DD0002BDBBF0080407800E40D02000000000013
:101DE00034DBBF0002E0B700E40D02000000000099
:101DF00035DBBF0080407800E40D020000000000E9
:101E000036DBBF0002E0B700E40D02000000000076
:101E100037DBBF0080407800E40D020000000000C6
:101E200038DBBF0002E0B700E40D02000000000054
:101E300039DBBF0080407800E40D020000000000A4
:101E40003ADBBF0002E0B700E40D02000000000032
:101E50003E0F040000000000F00120000602B60062
:101E6000FDFF3A000642A8000642AF00FEFF370021
:101E700020C0B30000E0B70008003700F0012000E8
:101E80000602B600FDFF3A000642A8000642AF0077
:101E9000FEFF370010C0B30000E0B70000000600EE
:101EA000046C230004168800C222EF00C403200043
:101EB00034168800C822EF00CC22EF00CE22EF00BB
:101EC000D222EF00D422EF0044012000F416880053
:101ED000E022EF00C400200024178800E622EF0073
:101EE000F4002800341088000421EF0004E22400EC
:101EF0001408880004002800240888001221EF003C
:101F000024A127007408880004022800940888008F
:101F10008C60A8008CE0A8008F00A80081E0A900D8
:101F20004220EF0081E0A80000CCB3002AFBB700FC
:101F3000840C200064D988001400200074D9880023
:101F4000303BEF00FC0D02000000000020CCB3008D
:101F50002AFBB700840C200064D9880014002000FC
:101F600074D98800303BEF00FC0D02000000000037
:101F7000A0002000900E02000000000000CCB30082
:101F80002AFBB7008438210064D9880084382100F6
:101F900074D98800843E200084D98800C41C2100A4
:101FA00094D98800A40E02000000000020CCB300E9
:101FB0002AFBB7008438210064D9880084382100C6
:101FC00074D98800047D200084D98800323BEF005A
:101FD000A40E02000000000040CCB3002AFBB700B2
:101FE0008438210064D988008438210074D988009D
:101FF000843E200084D98800323BEF00A40E02000A
:1020000000000000A0002000900E02000000000070
:10201000000006008D20A800000006002EDBBF0097
:1020200070E8B7005B48A800000006000862AE0038
:10203000040037000622A8000622AF00FEFF37008A
:10204000030037000602A8000602AF00FEFF3700BB
:1020500001C2B300E40D02000000000001C1B300A2
:10206000E40D0200000000002ADBBF0002E0B70020
:10207000E40D0200000000002BDBBF008040780070
:10208000E40D0200000000002CDBBF0002E0B700FE
:10209000E40D02000000000001C4B300E40D0200E2
:1020A00000000000F00120000602B600FDFF3A002B
:1020B0000642A8000642AF00FEFF370000000600FF
:1020C000C942A800C962A8002F5BE20008003200E4
:1020D00000002F00C822B700C942A900C962A900A8
:1020E000C942A800C962A800B210040000000000A4
:1020F0002EDBBF000000FB0000027800A3002000E0
:10210000110009000302D80096B5B7002EDBBF000E
:102110000000FB0000027800A3002000110009006D
:102120000302D8000100780098B5B7009695BF006B
:102130004C00DD0096B5B7009895BF004C00DD005F
:1021400098B5B700C942A9009615F800C802F90071
:10215000C942A800C962A9009815F800C802F90090
:10216000C962A80000000600851F780064D98000BD
:10217000831320000320B8008002780074D9800007
:102180007820B80085024000C4C1200004804200CD
:10219000901F7800A414F90064D9800083132000F4
:1021A0000320B8008002780074D980007820B8003D
:1021B0008502400062804200C4C12000040040004B
:1021C000901F7800A614F90064D9800083132000C2
:1021D0000320B8008002780074D980007820B8000D
:1021E0008502400064804200C4C120000400400019
:1021F000901F7800A814F90064D980008313200090
:102200000320B8008002780074D980007820B800DC
:102210008502400066804200C4C1200004004000E6
:10222000901F7800AA14F90064D98000831320005D
:102230000320B8008002780074D980007820B800AC
:102240008502400068804200C4C1200004004000B4
:10225000901F7800AC14F90064D98000831320002B
:102260000320B8008002780074D980007820B8007C
:10227000850240006A804200C4C120000400400082
:10228000901F7800AE14F90064D9800083132000F9
:102290000320B8008002780074D980007820B8004C
:1022A000850240006C804200C4C120000400400050
:1022B000901F7800B014F90064D9800083132000C7
:1022C0000320B8008002780074D980007820B8001C
:1022D000850240006E804200C4C12000040040001E
:1022E000901F7800B214F90064D980008313200095
:1022F0000320B8008002780074D980007820B800EC
:102300008502400070804200C4C1200004004000EB
:10231000901F7800B414F90064D980008313200062
:102320000320B8008002780074D980007820B800BB
:102330008502400072804200C4C1200004004000B9
:10234000901F7800B614F90064D980008313200030
:102350000320B8008002780074D980007820B8008B
:102360008502400074804200C4C120000400400087
:10237000901F7800B814F90064D9800083132000FE
:102380000320B8008002780074D980007820B8005B
:102390008502400076804200C4C120000400400055
:1023A000901F7800BA14F9005B68AE002D0037006A
:1023B000A894BF000080B200030032001080B20079
:1023C000110032002500370024A58000430B2000B7
:1023D0000418E10006003500440B200023A580000E
:1023E00003005200A4B4B700001204000000000073
:1023F000C421200023A5800003005200A4B4B7002C
:1024000032120400000000008444800023A58000F4
:1024100003005200A4B4B70064A580006120E1006D
:1024200004003A002400200064A588002A12040059
:102430000000000064A580006220E10004003A0072
:102440001400200064A588002A1204000000000087
:10245000AC34EF003212040000000000321204001D
:1024600000000000CF0278000000060001002F00ED
:1024700083814000F1072000E0804800910188003E
:102480000500A1000500E00003003200331ABA0085
:102490008582E900FCFF3A0000000600851F7800F5
:1024A000861F7800363BEF00383BEF003A3BEF00E9
:1024B0003C3BEF00381BE20042003A00E3AC8000F6
:1024C0000400200025002000361202000000000059
:1024D0003CBBB700E4AC8000E2024200851F7800FC
:1024E000850178000400200025002000361202003B
:1024F00000000000CF0278003ABBB700E4D98000AA
:10250000F3FF2F000418E1002A003200363BEF00F1
:10251000B4D980007820E1001F003100E4D98000A8
:10252000831320000320B80080027800D4D98000F3
:102530007820B80085024000B6D980004133DE0023
:102540004130DD0005004000C4C12000840240008D
:10255000B4D9800064034200060078009C15B400E2
:1025600000037800851F78008601780004002000B1
:10257000250020003612020000000000CF02780083
:10258000800A7800B4D980006200420036BBB700F0
:102590008812040000000000E4AC80007C004200CF
:1025A0009CB5B7003C1BF800C614F900DE1204000D
:1025B0000000000014002000C4D988005A12040052
:1025C000000000004F037800CF02780000000600F2
:1025D000851F7800C500200003000900B51F7800A2
:1025E00000027800810278000203780083037800FB
:1025F0000000EB008000EB000001EB008001EB002D
:102600000800A10007F0A600080037000800A0009D
:102610008783EA000683EA008582EA000402EA0072
:10262000E0824A0060034B00E0834B0085047200A7
:1026300002003A0087047300150032003947200079
:102640000340A7000B0037004200A9000482D2001B
:102650008582D2000683D2008783D2000080D20018
:102660008180D2000281D2008381D2008904E900F6
:10267000F3FF3A00C44CDD004200A90009F0A100BC
:102680000340A10083816C000800A70003F0A000B4
:102690002501200003000900CF127800CF02780046
:1026A00000000600851F7800861F7800871F7800CD
:1026B000881F78000332200004002000250020003D
:1026C0003612020000000000BCB5B7002332200023
:1026D0000400200025002000361202000000000047
:1026E000BEB5B700433220000400200025002000C2
:1026F0003612020000000000C0B5B700C382AE0071
:102700001200370084448000E3AD800003005200D3
:10271000BCB5B70004AE8000430B20000418E100F4
:1027200006003500440B200003AE80000300520079
:10273000C0B5B700A613040000000000C4212000AB
:1027400003AE800003005200C0B5B700C095BF00C3
:102750008001EB0000F0A7008081EB00830078008F
:1027600003017800E81202000000000084D122007A
:1027700045442500B61F220097002400CC0B020020
:1027800000000000800278000103780082037800D6
:1027900003047800851F7800861F7800871F780063
:1027A000050078008600780007017800880178002D
:1027B0000400200005002000060028006706240011
:1027C000DC0C020000000000CF0378004F0378000B
:1027D000CF027800CAB5B70061AE880072AE88003B
:1027E00083AE88004F047800CF0378004F03780051
:1027F000CF02780000000600881F78002801200022
:1028000004000900B81F7800080028004300AF004A
:1028100087036C000000E00007003A000100E000C0
:1028200005003A000200E00003003A00FAFF27002A
:102830000A8561004220AE00030578008A856B009E
:10284000030478008704780007067800FD7F2000E5
:102850004220A9004200A90044C4DE0008846600AA
:102860000800E000BC0032004220A9004200A9009C
:10287000C4CCDE00898466000900E000BE0032009E
:102880008006EB004220A9004200A9000848E100B0
:10289000BA003200C10033000D00A1000D10A000ED
:1028A00008845400F300B2000340A000F700B20017
:1028B0000740A0004803B10016003B004803B000E9
:1028C0004220A9004200A9008381D3000281D300E5
:1028D0008180D3000080D3000804E900F8FF3A00AB
:1028E000140037004803B1000F003B004803B0005C
:1028F0004220A9004200A9008783D3000683D300A9
:102900008582D3000482D3000804E900F8FF3A006E
:102910001B0037000400780085007800060178006D
:10292000870178000C866D000CF0A7000BF0A20068
:10293000790037000BF0A6001F0037000D40A700FC
:102940008C0578000080EA008180EA000281EA00BC
:1029500083C1EA00F341B2000000E80005003A003C
:102960008100E80003003A000201E80001003A009B
:102970008341E8000D40A700320037000E00370009
:102980000BF0A6000C0037000482EA008582EA0002
:102990000683EA0087C3EA00F741B2000402E800B8
:1029A00005003A008502E80003003A000603E8004B
:1029B00001003A008743E8004220A9004200A90034
:1029C00004004000858048000601490087C1490095
:1029D0000350A7000D30A0000D00A700090037002C
:1029E0000D10A700010037000B0037000BF0A70007
:1029F000140037000D30A700290037000D60A0003B
:102A0000210037000BF0A7000E0037000D30A700A3
:102A1000230037001C0037000BF0A700040037002C
:102A20008A0578000D30A7001D0037003A003700F6
:102A30000D40A00003C1B2000340A700BFFF370054
:102A40008A057800F301B2000284710002003A00A6
:102A5000008470000C0032000340A7000A00370019
:102A60004220A9004200A9000080D2008180D2004B
:102A70000281D2008381D2008904E9004220AF00A4
:102A800032003700F4FF37000D00A7008A057800F8
:102A90000D10A7008C0578000D50A6001E00370011
:102AA0004200A90083C1D3000281D3008180D300FA
:102AB0000080D3004200AF000D50A0008904E80060
:102AC0004220AF00210037000D50A6000E00370055
:102AD0000000E8000C003A008100E8000A003A001B
:102AE0000201E80008003A008301E80006003A000D
:102AF00083C1D3000281D3008180D3000080D30042
:102B00008904E800110032000D00A7008A05780052
:102B10000D10A7008C0578000102700002003A0039
:102B200003027100260032000340A1004220A900E8
:102B30004200A900C44CDD0083816C0003F0A000BA
:102B40000BF0A60003F0A1001D0037006000B800E4
:102B50006011B8001A003700080028000AF0A7002A
:102B600087036C0085007800040078000601780077
:102B7000870178001200370011003700F700B2001B
:102B80000740A000F300B2000340A0000BF0A70034
:102B90000740A1000D20A00079FF3700F300B2002C
:102BA0000340A000F700B2000740A0000904540051
:102BB000890444000D10A1000D00A00049FF37005A
:102BC000A8012000040009004F1478004F04780089
:102BD00000000600881F7800891F78008A1F78008F
:102BE0008784690009F0A600060037004200A900AA
:102BF0004220A90003F0A600340037004200A800DC
:102C000032003700FA7F2000030478008704780040
:102C100044C4DE0008046500C4CCDE0089046500FD
:102C2000088554000500320003F0A6002700370095
:102C30001000200042E0B6002400370003047800B2
:102C400087047800F301B200F701B2000340A1004D
:102C50000740A10003C553000500320008F0A6009C
:102C60001A0037001000200042E0B60017003700BD
:102C7000020553000500320008F0A60013003700DB
:102C80001000200042E0B60010003700018552001D
:102C90000500320008F0A6000C00370010002000EC
:102CA00042E0B6000900370000055200050032007E
:102CB00008F0A600050037001000200042E0B60032
:102CC000020037004200A900000037004F057800DD
:102CD000CF0478004F04780000000600851F7800BC
:102CE000C500200004000900B51F78006E3BEF000E
:102CF000942AEF00703BEF0084DB80006A20E10043
:102D00000A003D0084DB80006220B800E4A92000B6
:102D100084024000804AEB0000C0B300904298005B
:102D2000703BEC007C160400000000004300A8008B
:102D30004E9BBF0081DA800092DA8000A3DA800027
:102D4000F4D9800005DA800016DA800027DA8000E6
:102D5000FC1302000000000072BBB700A1DB88007A
:102D6000B2DB8800C3DB88004300A800569BBF008D
:102D7000C1DA8000D2DA8000E3DA800034DA800041
:102D800045DA800056DA800067DA8000FC13020022
:102D9000000000007ABBB700E1DB8800F2DB8800AE
:102DA00003DC8800823BEF00823BEC00829BBF008B
:102DB0008001EB0000F0A7008081EB008300780029
:102DC00003017800E8120200000000000002780011
:102DD000810278000203780083037800729BBF00B1
:102DE000A1DB8000B2DB8000C3DB8000CC0B0200E3
:102DF0000000000080027800010378008203780060
:102E000003047800851F7800861F7800871F7800EC
:102E100005007800860078000701780088017800B6
:102E20000400200005002000060020009705240073
:102E3000DC0C020000000000CF0378004F03780094
:102E4000CF0278005EBBB70001DB880012DB880090
:102E500023DB8800829BBF008001EB0000F0A7000D
:102E60008081EB008300780003017800E812020003
:102E70000000000000027800810278000203780060
:102E8000830378007A9BBF00E1DB8000F2DB8000E7
:102E900003DC8000CC0B0200000000008002780000
:102EA000010378008203780003047800851F78000E
:102EB000861F7800871F780005007800860078005C
:102EC0000701780088017800040020000500200038
:102ED0000600200097052400DC0C02000000000022
:102EE000CF0378004F037800CF02780066BBB700AD
:102EF00041DB880052DB880063DB88006E3BEF001B
:102F000074DB80006A20E100C2003D004300A9009C
:102F10005E9BBF0001DB800012DB800023DB8000B2
:102F2000F4D9800005DA800016DA800027DA800004
:102F3000FC1302000000000080027800010378000A
:102F4000820378000304780074DB80007020B800EE
:102F50008004780024B72000048044000002780038
:102F600003002000B4197800B41978000200200092
:102F700003002000E812020000000000851F780016
:102F8000861F7800871F7800050278008602780087
:102F90000703780088037800EA15020000000000AB
:102FA000CF0378004F037800CF0278000100310092
:102FB00095003A004300A900851F7800861F78001D
:102FC000871F78005E9BBF0001DB800012DB800062
:102FD00023DB8000F4D9800005DA800016DA800057
:102FE00027DA8000FC13020000000000CF03780005
:102FF0004F037800CF027800800278000103780048
:10300000820378000304780074DB80007025B80028
:103010006800450024B7200004004000000278004A
:1030200003002000B4197800B419780002002000D1
:1030300003002000E812020000000000851F780055
:10304000861F7800871F780000027800050078004E
:10305000810278008600780002037800070178007A
:103060008303780088017800EA1502000000000060
:10307000CF0378004F037800CF02780001003100C1
:1030800061003A004300A900669BBF0041DB80005D
:1030900052DB800063DB800034DA800045DA800098
:1030A00056DA800067DA8000FC130200000000009E
:1030B000800278000103780082037800030478001E
:1030C00074DB80007020B8008004780064804400C5
:1030D00024B7200004004000000278000300200014
:1030E000B4197800B4197800020020000300200011
:1030F000E812020000000000851F7800861F78009B
:10310000871F7800050278008602780007037800A0
:1031100088037800EA15020000000000CF03780061
:103120004F037800CF0278000100310036003A00EA
:103130004300A900669BBF0041DB800052DB80009A
:1031400063DB800034DA800045DA800056DA8000E4
:1031500067DA8000FC1302000000000080027800A3
:1031600001037800820378000304780074DB800098
:103170007020B800800478006C80440024B72000E0
:10318000040040000002780003002000B419780019
:10319000B41978000200200003002000E8120200A9
:1031A00000000000851F7800861F7800871F7800C8
:1031B000000278000500780081027800860078001F
:1031C0000203780007017800830378008801780003
:1031D000EA15020000000000CF0378004F037800DA
:1031E000CF0278000100310007003A00A4548000AB
:1031F0006220B800E4A920008402400074DB800053
:1032000084029800942AEC006E3BEC0080170400C6
:103210000000000014DC8000430620000418E100D8
:1032200002003400940AE200DFFE3200A454800061
:103230006020E10003003400962AEF002619040004
:103240000000000014002000B45488004501200054
:1032500004000900CF127800CF02780000000600B9
:10326000962AEF00BC95BF008001EB0000F0A7009C
:103270008081EB008300780003017800E8120200EF
:103280000000000052ABB700A15A8800B25A880073
:10329000C35A8800BE95BF008001EB0000F0A70074
:1032A0008081EB008300780003017800E8120200BF
:1032B000000000005AABB700E15A8800F25A8800BB
:1032C000035B8800A494BF008001EB0000F0A7001E
:1032D0008081EB008300780003017800E81202008F
:1032E0000000000062ABB700215B8800325B880001
:1032F000435B8800A694BF008001EB0000F0A700AC
:103300008081EB008300780003017800E81202005E
:10331000000000006AABB700615B8800725B880048
:10332000835B8800520BF8003E1BF900540BF80039
:10333000401BF900560BF800421BF900580BF8002F
:10334000441BF9005A0BF800461BF9005C0BF8000F
:10335000481BF9005E0BF8004A1BF900600BF800EF
:103360004C1BF900620BF8004E1BF900640BF800CF
:10337000501BF900660BF800521BF900680BF800AF
:10338000541BF9006A0BF800561BF9006C0BF8008F
:10339000581BF9006E0BF8005A1BF900700BF8006F
:1033A0005C1BF9006E16020000000000A4548000AF
:1033B0006020E10003003400962AEF00E6190400C3
:1033C0000000000014002000B4548800960AF800A1
:1033D0000000F90000000600851F7800C5002000ED
:1033E00005000900B51F7800030478008203780007
:1033F0000103780080027800830478003B472000B6
:10340000C499DE00FA7F20008301650083855500A2
:10341000F801B2000840A0000000EB008000EB00C3
:103420000001EB008001EB004200A9000884D300FA
:103430008783D3000683D3008582D3008381D300A2
:103440000281D3008180D3000080D3008B05E90086
:10345000F5FF3A0009F0A600090037000080EA00F5
:103460008180EA000281EA008381EA000000E8002E
:103470000180B0000280B0000380B000000037007F
:103480006501200005000900CF127800CF02780006
:10349000000006005C9BBF00A4DA80000020E10071
:1034A000140034005E9BBF00B4DA80000020E1000D
:1034B000040034004400200004DB8800761A040075
:1034C000000000005A9BBF00B4DA80000020E10039
:1034D000040034003400200004DB8800761A040065
:1034E000000000002400200004DB8800CC1A040047
:1034F00000000000589BBF00A4DA80000020E1001B
:10350000140034005E9BBF00B4DA80000020E100AC
:10351000040034005400200004DB8800A61A0400D4
:10352000000000005A9BBF00B4DA80000020E100D8
:10353000040034008400200004DB8800A61A040084
:10354000000000001400200004DB8800CC1A0400F6
:10355000000000005E9BBF00B4DA80000020E100A4
:10356000040034006400200004DB8800CC1A04004E
:10357000000000005A9BBF00B4DA80000020E10088
:10358000040034007400200004DB8800CC1A04001E
:1035900000000000603BEF00601BF8000000F90035
:1035A00000000600851F7800C50020000500090006
:1035B000B51F7800030478008203780001037800C7
:1035C00080027800830478003B472000C499DE0025
:1035D000FA7F20008301650083855500F801B20061
:1035E0000840A0000000EB008000EB000001EB00B1
:1035F0008001EB004200A9000884D3008783D30038
:103600000683D3008582D3008381D3000281D30057
:103610008180D3000080D3008B05E900F5FF3A00DC
:1036200009F0A600090037000080EA008180EA0066
:103630000281EA008381EA000000E8000180B00016
:103640000280B0000380B000000037006501200058
:1036500005000900CF127800CF02780000000600B4
:10366000851F7800C500200003000900B51F780001
:10367000000278008102780002037800830378005A
:103680000000EB008000EB000001EB008001EB008C
:103690000800A10007F0A600080037000800A000FD
:1036A0008783EA000683EA008582EA000402EA00D2
:1036B000E0824A0060034B00E0834B008504720007
:1036C00002003A00870473001500320039472000D9
:1036D0000340A7000B0037004200A9000482D2007B
:1036E0008582D2000683D2008783D2000080D20078
:1036F0008180D2000281D2008381D2008904E90056
:10370000F3FF3A00C44CDD004200A90009F0A1001B
:103710000340A10083816C000800A70003F0A00013
:103720002501200003000900CF127800CF027800A5
:1037300000000600851F7800861F7800871F78002C
:10374000881F7800FF1BA900F61BF800001CF90079
:10375000F81BF800021CF900FA1BF800041CF90021
:10376000FC1BF800061CF900F69BBF00C1DF8000BF
:10377000D2DF8000E3DF800004002000050020008D
:103780000600200007002000EA15020000000000EB
:1037900006003900FF1BA80000C0210001C0210065
:1037A00007000900B018780007FCAA00009CBF00C1
:1037B00011E0800022E0800033E08000040020005F
:1037C0000500200006002000070E2400EA15020074
:1037D000000000000100310011003A00009CBF0011
:1037E00011E0800022E0800033E08000D21A020065
:1037F0000000000001002000020020000300200063
:10380000301B02000000000008BCB70051E0880037
:1038100062E0880073E08800241D040000000000BE
:10382000009CBF0011E0800022E0800033E08000B7
:1038300004002000050020000600200007332400BB
:10384000EA1502000000000073003900009CBF0070
:1038500011E0800022E0800033E0800004002000BE
:10386000050020000600200007F02300CC0B02001A
:1038700000000000EC1902000000000010BCB700BE
:1038800091E08800A2E08800B3E08800009CBF00BF
:1038900011E0800022E0800033E08000040020007E
:1038A000050020000600200007F02300CC0B0200DA
:1038B0000000000080027800010378008203780095
:1038C00003047800109CBF0091E08000A2E080001B
:1038D000B3E08000E8120200000000004300A800EE
:1038E000851F7800861F7800871F78000002780007
:1038F00005007800810278008600780002037800D5
:10390000070178008303780088017800FC13020027
:1039100000000000CF0378004F037800CF0278004A
:1039200000027800810278000203780083037800A7
:10393000000020000100200002002000030E2400EF
:10394000CC0B02000000000000BCB70011E08800B2
:1039500022E0880033E08800109CBF0091E08000E6
:10396000A2E08000B3E08000E81202000000000046
:103970000002780081027800020378008303780057
:10398000000020000100200002002000030E24009F
:10399000CC0B02000000000008BCB70051E088001A
:1039A00062E0880073E08800009CBF0011E08000A6
:1039B00022E0800033E08000D21A02000000000004
:1039C000010020000200200003002000301B020044
:1039D000000000004300A900000278008102780086
:1039E0000203780083037800089CBF0051E0800048
:1039F00062E0800073E08000FC1302000000000021
:103A000008BCB70051E0880062E0880073E08800DD
:103A1000241D040000000000001CF800081CF90030
:103A2000021CF8000A1CF900041CF8000C1CF90028
:103A3000061CF8000E1CF900003CEF00023CEF00F1
:103A4000043CEF00063CEF00009CBF0011E080004A
:103A500022E0800033E08000040020000500200008
:103A60000600200007002000EA1502000000000008
:103A70001A003200009CBF0011E0800022E08000AC
:103A800033E08000D21A0200000000000100200094
:103A90000200200003002000301B02000000000094
:103AA0004300A80000027800810278000203780039
:103AB00083037800009CBF0011E0800022E08000BA
:103AC00033E08000FC1302000000000000BCB700DF
:103AD00011E0880022E0880033E08800FF1BAE0080
:103AE0000500370080C0210081C0210007000900C7
:103AF000B01878000FFCAA00009CBF0011E0800005
:103B000022E0800033E08000040020000500200057
:103B10000600200007002000EA1502000000000057
:103B200027003200FF1BAE0011003700FE5BE200F1
:103B30000F003A004300A800089CBF0051E080003D
:103B400062E0800073E08000040020000500200097
:103B50000600200007FF2300FC1302000000000005
:103B600008BCB70051E0880062E0880073E088007C
:103B7000FF1BAF0012003700F4DF80006124E1007A
:103B80000F003A004300A900089CBF0051E08000EC
:103B900062E0800073E08000040020000500200047
:103BA0000600200007FF2300FC13020000000000B5
:103BB00008BCB70051E0880062E0880073E088002C
:103BC000F69BBF00C1DF8000D2DF8000E3DF800012
:103BD000040020000500200006002000070020004F
:103BE000EA1502000000000004003A00083CEF0063
:103BF0000A3CEF000C3CEF000E3CEF00089CBF00BD
:103C000051E0800062E0800073E080004F047800A3
:103C1000CF0378004F037800CF0278000000060041
:103C200010C0B300FEFBB700E41BF800F61BF90060
:103C3000E61BF800F81BF900E81BF800FA1BF90076
:103C4000EA1BF800FC1BF9009A1B020000000000B0
:103C500000000600FE7BEF00E41BF800F61BF900F5
:103C6000E61BF800F81BF900E81BF800FA1BF90046
:103C7000EA1BF800FC1BF9009A1B02000000000080
:103C800000000600851F7800861F7800871F7800D7
:103C9000881F7800CC9BBF0071DE800082DE800030
:103CA00093DE8000040020000500200006002000B4
:103CB00007002000EA150200000000006500320045
:103CC000C49BBF0031DE800042DE800053DE8000F6
:103CD00064DE800075DE800086DE800097DE800076
:103CE000DC0C020000000000800278000103780074
:103CF0008203780003047800851F7800861F78000F
:103D0000871F78000500780086007800070178009A
:103D10008801780004002000050020000600200033
:103D200007002000EA15020000000000CF03780021
:103D30004F037800CF02780016003900C49BBF0003
:103D400031DE800042DE800053DE800064DE8000D1
:103D500075DE800086DE800097DE8000DC0C0200CD
:103D600000000000800278000103780082037800E0
:103D70000304780025DF880036DF880047DF8800ED
:103D800058DF8800101E020000000000F21E040030
:103D900000000000C49BBF0031DE800042DE8000D6
:103DA00053DE800064DE800075DE800086DE8000E9
:103DB00097DE8000DC0C020000000000800278002A
:103DC00001037800820378000304780025DF88006F
:103DD00036DF880047DF880058DF88002A1E02008F
:103DE00000000000D4BBB700B1DE8800C2DE88004E
:103DF000D3DE8800D49BBF00B1DE8000C2DE80002D
:103E0000D3DE800064DE800075DE800086DE800008
:103E100097DE8000CC0B0200000000004300A800E9
:103E200000027800810278000203780083037800A2
:103E3000C49BBF0031DE800042DE800053DE800084
:103E4000FC13020000000000020037002A1F0400DB
:103E5000000000004F047800CF0378004F03780083
:103E6000CF02780000000600851F7800861F7800CA
:103E7000871F7800881F7800C41BF800CC1BF9004E
:103E8000C61BF800CE1BF900C81BF800D01BF900B8
:103E9000CA1BF800D21BF900CC9BBF0071DE80006A
:103EA00082DE800093DE80000400200005002000F8
:103EB0000600200007FF2300EA15020000000000B2
:103EC000B801320024BD210084DF8800F09BBF00D0
:103ED000901F7800EC1BF900F09BBF00901F78004A
:103EE000EE1BF900E43F200064DF8800EC9BBF007C
:103EF0004400DD00ECBBB700EFFBAE000200370072
:103F0000C4BE210014F0A000EE9BBF006F00600053
:103F1000EEBBB700EE9BBF00ECBBB60085DF8000B8
:103F200064DF8000840298004300A800CC9BBF009F
:103F300071DE800082DE800093DE800004002000BD
:103F4000050020000600200007FF2300FC130200EC
:103F500000000000800278000103780082037800EE
:103F6000030478004300A900851F7800861F7800AD
:103F7000871F7800CC9BBF0071DE800082DE80004E
:103F800093DE8000040020000500200006002000D1
:103F900007FF2300FC13020000000000CF0378009D
:103FA0004F037800CF027800851F7800861F7800C5
:103FB000871F7800000278000500780081027800F1
:103FC00086007800020378000701780083037800F8
:103FD00088017800DC0C020000000000CF037800AC
:103FE0004F037800CF027800CCBBB70071DE8800A9
:103FF00082DE880093DE8800CC9BBF0071DE8000EB
:1040000082DE800093DE800064DE800075DE80004A
:1040100086DE800097DE8000CC0B020000000000EE
:10402000E4BBB70031DF880042DF880053DF88003F
:1040300050D02B00A1A92400A2612A0023FC2B0050
:1040400024DF800035DF800046DF800057DF8000FE
:10405000CC0B020000000000800278000103780011
:1040600082037800030478004300A900851F7800CC
:10407000861F7800871F780005007800860078008A
:104080000701780088017800449B2B00A5D221000D
:1040900076902D0057FF2300FC1302000000000063
:1040A000CF0378004F037800CF027800D4BBB7006D
:1040B000B1DE8800C2DE8800D3DE8800D49BBF005A
:1040C000B1DE8000C2DE8000D3DE800024DF80000D
:1040D00035DF800046DF800057DF8000CC0B020018
:1040E000000000008002780001037800820378005D
:1040F000030478004300A900851F7800861F78001C
:10410000871F780005007800860078000701780096
:104110008801780024B02E0095782600B66D2F0017
:1041200087002C00FC13020000000000CF03780081
:104130004F037800CF027800D4BBB700B1DE88000F
:10414000C2DE8800D3DE8800D49BBF00B1DE8000D1
:10415000C2DE8000D3DE800024DF800035DF8000F7
:1041600046DF800057DF8000CC0B0200000000001B
:10417000800278000103780082037800030478004D
:104180004300A900851F7800861F7800871F7800EC
:104190000500780086007800070178008801780023
:1041A0000400200005002000060020000700240075
:1041B000FC13020000000000CF0378004F037800DA
:1041C000CF027800D4BBB700B1DE8800C2DE880021
:1041D000D3DE8800B0222F0031B9280032542C00E1
:1041E00083F7230024DF800035DF800046DF800076
:1041F00057DF8000CC0B0200000000008002780036
:104200000103780082037800030478004300A900CA
:10421000851F7800861F7800871F780005007800CA
:10422000860078000701780088017800F4042E00E9
:10423000D5252A0046982A00A7FC2B00FC13020073
:1042400000000000CF0378004F037800CF02780011
:10425000DCBBB700F1DE880002DF880013DF8800D6
:10426000DC9BBF00F1DE800002DF800013DF8000F6
:1042700024DF800035DF800046DF800057DF8000CC
:10428000CC0B0200000000008002780001037800DF
:1042900082037800030478004300A900851F78009A
:1042A000861F7800871F7800050078008600780058
:1042B000070178008801780084F32800C5FA2E00F1
:1042C000562B2D0017FF2300FC13020000000000F6
:1042D000CF0378004F037800CF027800DCBBB70033
:1042E000F1DE880002DF880013DF8800DC9BBF005E
:1042F000F1DE800002DF800013DF800024DF800019
:1043000035DF800046DF800057DF8000CC0B0200E5
:10431000000000008002780001037800820378002A
:10432000030478004300A900851F7800861F7800E9
:10433000871F780005007800860078000701780064
:104340008801780084FD2300F5CD2B0006C32400EE
:10435000E7FF2B00FC13020000000000CF037800F1
:104360004F037800CF027800DCBBB700F1DE880095
:1043700002DF880013DF8800DC9BBF00F1DE8000D5
:1043800002DF800013DF800024DF800035DF800043
:1043900046DF800057DF8000CC0B020000000000E9
:1043A000800278000103780082037800030478001B
:1043B0004300A900851F7800861F7800871F7800BA
:1043C00005007800860078000701780088017800F1
:1043D00004002000050020000600200007FF230045
:1043E000FC13020000000000CF0378004F037800A8
:1043F000CF027800DCBBB700F1DE880002DF880066
:1044000013DF8800CC9BBF0071DE800082DE80005D
:1044100093DE8000A4DE8000B5DE8000C6DE800072
:10442000D7DE8000CC0B0200000000008002780084
:10443000010378008203780003047800851F780068
:10444000861F7800871F78000500780086007800B6
:104450000701780088017800E4DE8000F5DE800046
:1044600006DF800017DF8000DC0C02000000000087
:10447000CF0378004F037800CF027800D4BBB70099
:10448000B1DE8800C2DE8800D3DE8800A4BC210033
:1044900084DF8800F09BBF00901F7800EC1BF900C0
:1044A000C4BE210014F0A100EC9BBF004400DE005C
:1044B000ECBBB70064DF8000E43FB10094DF88000C
:1044C00094DF80006020E1000F003D000400200028
:1044D00093DF800003005200010020000200200052
:1044E00003002000E812020000000000DCBBB7005F
:1044F000F1DE880002DF880013DF8800E3FBAA00FA
:104500009C22040000000000F29BBF008001EB0031
:1045100000F0A7008081EB008300780003017800A1
:10452000E812020000000000DCBBB700F1DE8800EA
:1045300002DF880013DF8800DC9BBF00F1DE800013
:1045400002DF800013DF8000E49E2300A5EF2F0030
:1045500026E4220067FE2300CC0B020000000000CE
:104560004300A9000002780081027800020378006D
:1045700083037800D49BBF00B1DE8000C2DE8000E0
:10458000D3DE8000FC13020000000000D4BBB700A3
:10459000B1DE8800C2DE8800D3DE8800DA220400A3
:1045A00000000000D43BEF00D63BEF00D83BEF000B
:1045B000DA3BEF00D49BBF00B1DE8000C2DE80009A
:1045C000D3DE80004F047800CF0378004F037800DB
:1045D000CF02780000000600851F7800861F780053
:1045E000871F7800881F7800C49BBF0031DE8000E1
:1045F00042DE800053DE8000E42F2800B552260002
:104600007654210077FF2300CC0B0200000000004D
:10461000CEBBB70081DE880092DE8800A3DE880072
:10462000CE9BBF0081DE800092DE8000A3DE800092
:10463000EC19020000000000ECBBB700CC1BA90085
:10464000C41BF800CE1BF900C61BF800D01BF900F4
:10465000C81BF800D21BF900CA1BF800D41BF900D4
:10466000C49BBF0031DE800042DE800053DE80004C
:1046700004002000050020000600200007002000A4
:10468000EA150200000000000A003900CC1BA80057
:104690000400200063DF800003005200ECBBB70081
:1046A000E0BC2100E1BC210007000900B01878003F
:1046B000D5FBAA00D63BEF00D83BEF00DA3BEF007A
:1046C000DC3BEF00C4BD210054DF8800EA9BBF0043
:1046D000901F7800E61BF900EA9BBF00901F78004E
:1046E000E81BF900F43F200063DF800004804100F4
:1046F000E6BBB700E69BBF004400DD00E6BBB700A9
:10470000E9FBAE000200370064BE210014F0A000F7
:10471000E89BBF006F006000E8BBB700E89BBF00EC
:10472000E6BBB600C5BD210034DF800084029800DE
:10473000CE9BBF0081DE800092DE8000A3DE800081
:10474000E42F2800B55226007654210077FF23007D
:10475000CC0B02000000000080027800010378000A
:104760008203780003047800EC9BBF008001EB001B
:1047700000F0A7008081EB0083007800030178003F
:10478000E8120200000000004300A800851F780026
:10479000861F7800871F78000002780005007800E7
:1047A0008102780086007800020378000701780013
:1047B0008303780088017800FC13020000000000E9
:1047C000CF0378004F037800CF027800CEBBB7004C
:1047D00081DE880092DE8800A3DE8800F0C0280019
:1047E00051652A002258290093DD230074DE8000E1
:1047F00085DE800096DE8000A7DE8000CC0B020004
:104800000000000080027800010378008203780035
:10481000030478004300A900851F7800861F7800F4
:10482000871F78000500780086007800070178006F
:1048300088017800647E2D00F55F2E00960C29001B
:1048400077DC2B00FC13020000000000CF0378008F
:104850004F037800CF027800DEBBB70001DF88008D
:1048600012DF880023DF8800DE9BBF0001DF8000AD
:1048700012DF800023DF800074DE800085DE800090
:1048800096DE8000A7DE8000CC0B02000000000056
:104890008002780001037800820378000304780026
:1048A0004300A900851F7800861F7800871F7800C5
:1048B00005007800860078000701780088017800FC
:1048C000E40C240025712400C6702B0027E423008B
:1048D000FC13020000000000CF0378004F037800B3
:1048E000CF027800DEBBB70001DF880012DF88004E
:1048F00023DF8800DE9BBF0001DF800012DF800025
:1049000023DF800074DE800085DE800096DE80007C
:10491000A7DE8000CC0B02000000000080027800BF
:104920000103780082037800030478004300A900A3
:10493000851F7800861F7800871F780005007800A3
:10494000860078000701780088017800F4D92600F5
:1049500045392C0056D22600A7E72300FC1302009D
:1049600000000000CF0378004F037800CF027800EA
:10497000DEBBB70001DF880012DF880023DF88007C
:10498000DE9BBF0001DF800012DF800023DF80009C
:1049900074DE800085DE800096DE8000A7DE800069
:1049A000CC0B0200000000008002780001037800B8
:1049B00082037800030478004300A900851F780073
:1049C000861F7800871F7800050078008600780031
:1049D0000701780088017800A42D2300E5E02B0072
:1049E000F6E9230067EB2300FC130200000000003F
:1049F000CF0378004F037800CF027800DEBBB7000A
:104A000001DF880012DF880023DF8800DE9BBF0003
:104A100001DF800012DF800023DF800074DE800071
:104A200085DE800096DE8000A7DE8000CC0B0200D1
:104A30000000000080027800010378008203780003
:104A4000030478004300A900851F7800861F7800C2
:104A5000871F78000500780086007800070178003D
:104A600088017800D4A62A0085222C0046AB2F00AE
:104A7000F7EE2300FC13020000000000CF037800D3
:104A80004F037800CF027800DEBBB70001DF88005B
:104A900012DF880023DF8800DE9BBF0001DF80007B
:104AA00012DF800023DF800074DE800085DE80005E
:104AB00096DE8000A7DE8000CC0B02000000000024
:104AC00080027800010378008203780003047800F4
:104AD0004300A900851F7800861F7800871F780093
:104AE00005007800860078000701780088017800CA
:104AF00094082E0095522E00460A230047F2230008
:104B0000FC13020000000000CF0378004F03780080
:104B1000CF027800DEBBB70001DF880012DF88001B
:104B200023DF8800DE9BBF0001DF800012DF8000F2
:104B300023DF800074DE800085DE800096DE80004A
:104B4000A7DE8000CC0B020000000000800278008D
:104B50000103780082037800030478004300A90071
:104B6000851F7800861F7800871F78000500780071
:104B700086007800070178008801780034EA280070
:104B8000A53F2E00E6872D0057F52300FC130200F9
:104B900000000000CF0378004F037800CF027800B8
:104BA000DEBBB70001DF880012DF880023DF88004A
:104BB000DE9BBF0001DF800012DF800023DF80006A
:104BC00074DE800085DE800096DE8000A7DE800037
:104BD000CC0B020000000000800278000103780086
:104BE00082037800030478004300A900851F780041
:104BF000861F7800871F78000500780086007800FF
:104C00000701780088017800644C2000A5882700FF
:104C1000B62A2B0037F82300FC1302000000000026
:104C2000CF0378004F037800CF027800DEBBB700D7
:104C300001DF880012DF880023DF8800DE9BBF00D1
:104C400001DF800012DF800023DF800074DE80003F
:104C500085DE800096DE8000A7DE8000CC0B02009F
:104C600000000000800278000103780082037800D1
:104C7000030478004300A900851F7800861F780090
:104C8000871F78000500780086007800070178000B
:104C900088017800D4DC2E00656A2D0086B02600DD
:104CA000C7FA2300FC13020000000000CF037800C5
:104CB0004F037800CF027800DEBBB70001DF880029
:104CC00012DF880023DF8800DE9BBF0001DF800049
:104CD00012DF800023DF800074DE800085DE80002C
:104CE00096DE8000A7DE8000CC0B020000000000F2
:104CF00080027800010378008203780003047800C2
:104D00004300A900851F7800861F7800871F780060
:104D10000500780086007800070178008801780097
:104D2000D41F2D0045F82F00D6FB2B00E7FC2300F5
:104D3000FC13020000000000CF0378004F0378004E
:104D4000CF027800DEBBB70001DF880012DF8800E9
:104D500023DF8800DE9BBF0001DF800012DF8000C0
:104D600023DF800074DE800085DE800096DE800018
:104D7000A7DE8000CC0B020000000000800278005B
:104D80000103780082037800030478004300A9003F
:104D9000851F7800861F7800871F7800050078003F
:104DA000860078000701780088017800145A2300F3
:104DB000A5EF2F0026E4220067FE2300FC1302006B
:104DC00000000000CF0378004F037800CF02780086
:104DD000DEBBB70001DF880012DF880023DF880018
:104DE000CE9BBF0081DE800092DE8000A3DE8000CB
:104DF000F4DE800005DF800016DF800027DF800002
:104E0000CC0B0200000000004300A9000002780063
:104E100081027800020378008303780000002000FC
:104E2000010020000200200003FF2300FC13020009
:104E30000000000000027800810278000203780080
:104E400083037800D69BBF00C1DE8000D2DE8000E5
:104E5000E3DE8000CC0B020000000000D6BBB700F0
:104E6000C1DE8800D2DE8800E3DE8800CC1BAE0005
:104E70000E0037000000200001002000020020008A
:104E800003FF2300B4DE8000C5DE8000D6DE800094
:104E9000E7DE8000DC0C020000000000D6BBB7009B
:104EA000C1DE8800D2DE8800E3DE8800D69BBF002A
:104EB000C1DE8000D2DE8000E3DE80004F04780097
:104EC000CF0378004F037800CF027800000006007F
:104ED000851F7800C500200006000900B51F780076
:104EE000AA9BBF0061DD800072DD800083DD800051
:104EF000040020000500200006002000070020001C
:104F0000EA15020000000000A1003900B21BF80001
:104F1000C41BF900B41BF800C61BF900B61BF8004F
:104F2000C81BF900B81BF800CA1BF900CC3BEF0006
:104F3000CE3BEF00D03BEF0004FF230094DE88005F
:104F4000421E020000000000800478000105780085
:104F50008205780003067800851F7800861F780098
:104F6000871F7800090078008A0078000B0178001C
:104F70008C017800040020000500200006002000BD
:104F800007002000EA15020000000000CF037800AF
:104F90004F037800CF0278007D003A00B21BF80082
:104FA000C41BF900B41BF800C61BF900B61BF800BF
:104FB000C81BF900B81BF800CA1BF900CC3BEF0076
:104FC000CE3BEF00D03BEF000400240094DE8800CD
:104FD000421E0200000000008004780001057800F5
:104FE0008205780003067800851F7800861F780008
:104FF000871F7800090078008A0078000B0178008C
:105000008C0178000400200005002000060020002C
:1050100007002000EA15020000000000CF0378001E
:105020004F037800CF0278002C003A0055DD800055
:1050300066DD800077DD800088DD800008F0A2005A
:1050400025DE880036DE880047DE880058DE8800CE
:10505000341F020000000000800278000103780085
:105060008203780003047800851F7800861F78008B
:10507000871F780005007800860078000701780017
:105080008801780094DD8000A5DD8000B6DD800019
:10509000C7DD8000CC0B020000000000CF037800C9
:1050A0004F037800CF027800800278000103780077
:1050B000820378000304780025DE880036DE88004D
:1050C00047DE880058DE8800EC2202000000000065
:1050D000AC003700C42804000000000055DD80004B
:1050E00066DD800077DD800088DD800008F0A200AA
:1050F00025DE880036DE880047DE880058DE88001E
:10510000341F0200000000008002780001037800D4
:105110008203780003047800851F7800861F7800DA
:10512000871F780005007800860078000701780066
:105130008801780094DD8000A5DD8000B6DD800068
:10514000C7DD8000CC0B020000000000CF03780018
:105150004F037800CF0278008002780001037800C6
:10516000820378000304780025DE880036DE88009C
:1051700047DE880058DE8800EC22020000000000B4
:1051800003F0A2007F003700C229040000000000E5
:10519000AA9BBF0061DD800072DD800083DD80009E
:1051A0000400200005002000060020000700200069
:1051B000EA150200000000002B003900B21BF800C5
:1051C000C41BF900B41BF800C61BF900B61BF8009D
:1051D000C81BF900B81BF800CA1BF900CC3BEF0054
:1051E000CE3BEF00D03BEF0004FF230094DE8800AD
:1051F000421E0200000000008004780001057800D3
:105200008205780003067800851F7800861F7800E5
:10521000871F7800090078008A0078000B01780069
:105220008C0178000400200005002000060020000A
:1052300007002000EA15020000000000CF037800FC
:105240004F037800CF0278000700320000002000F2
:105250000100200002002000030020004900370068
:10526000C229040000000000AA9BBF0061DD80008D
:1052700072DD800083DD8000040020000500200036
:105280000600200007002000EA15020000000000D0
:105290000C003A00B29BBF00A1DD8000B2DD8000AF
:1052A000C3DD80000400200005002000060020006F
:1052B00007002000EA150200000000000100310094
:1052C0002B003A00AA1BF800C41BF900AC1BF80025
:1052D000C61BF900AE1BF800C81BF900B01BF80094
:1052E000CA1BF900341F0200000000008002780091
:1052F000010378008203780003047800851F78009A
:10530000861F7800871F78000500780086007800E7
:10531000070178008801780094DD8000A5DD800019
:10532000B6DD8000C7DD8000CC0B0200000000006D
:10533000CF0378004F037800CF0278008002780016
:1053400001037800820378000304780025DE8800DA
:1053500036DE880047DE880058DE8800EC22020036
:105360000000000007003700C22904000000000010
:1053700000002000010020000200200003002000A7
:10538000000037008501200006000900CF127800D8
:10539000CF02780000000600851F7800861F780085
:1053A000871F7800C29BBF0021DE800032DE8000B4
:1053B00043DE8000040020000500200006002000DD
:1053C00007002000EA150200000000000100310083
:1053D00005003A000000200001002000020020002B
:1053E0000300200076003700C21BF800CA1BF9003A
:1053F000C41BF800CC1BF900C61BF800CE1BF9003B
:10540000C81BF800D01BF90004BD2100D4DE8800C1
:10541000DA9BBF00901F7800DC1BF900DA9BBF000D
:10542000901F7800DE1BF900C4BD210014F0A1001C
:10543000E5DE8000C42ADE00F43F20000480420044
:10544000DCBBB700DC3BD500E5DE8000C42ADD0014
:1054500000FF2F0005006000DCBBB700DFFBAE00E3
:1054600002003700C4BD210014F0A000DE9BBF0085
:105470006F006000DEBBB700DE9BBF00DCBBB60088
:10548000D5DE8000E4DE800084029800CA1BF800AC
:10549000D21BF900CC1BF800D41BF900CE1BF8007E
:1054A000D61BF900D01BF800D81BF900C29BBF0027
:1054B00021DE800032DE800043DE800054DE80008A
:1054C00065DE800076DE800087DE8000DC0C020076
:1054D000000000004300A90000027800810278006B
:1054E0000203780083037800CA9BBF0061DE80005E
:1054F00072DE800083DE8000FC13020000000000EA
:10550000CABBB70061DE880072DE880083DE8800D7
:10551000DA9BBF00901F7800DC1BF900DA9BBF000C
:10552000901F7800DE1BF900C4BD210014F0A1001B
:10553000DC9BBF004400DE00DCBBB700DC3BED00C1
:10554000E5DE8000C42ADD0000FF2F0005006000BA
:10555000DCBBB700DFFBAE0002003700C4BD21009A
:1055600014F0A000DE9BBF006F006000DEBBB70040
:10557000DE9BBF00DCBBB600D5DE8000E4DE800031
:1055800084029800D29BBF00A1DE8000B2DE8000C2
:10559000C3DE800054DE800065DE800076DE8000A1
:1055A00087DE8000EA15020000000000B7FF3A0025
:1055B000D29BBF00A1DE8000B2DE8000C3DE80008F
:1055C000CF0378004F037800CF0278000000060078
:1055D000851F7800C500200006000900B51F78006F
:1055E0004300A8008A9BBF0061DC800072DC800061
:1055F00083DC8000D4DB8000E5DB8000F6DB80000C
:1056000007DC8000FC13020000000000800278002C
:1056100001037800820378000304780055DD8800D8
:1056200066DD880077DD880088DD8800B23BEF000A
:10563000B43BEF00B63BEF0004002400C4DD88005B
:105640006827020000000000800278000103780053
:10565000820378000304780015DE880026DE8800C7
:1056600037DE880048DE8800CC29020000000000F8
:105670008002780001037800820378000304780038
:105680004300A800851F7800861F7800871F7800D8
:10569000929BBF00A1DC8000B2DC8000C3DC8000F4
:1056A00014DC800025DC800036DC800047DC8000D4
:1056B000FC13020000000000CF0378004F037800C5
:1056C000CF02780080047800010578008205780018
:1056D0000306780059DD88006ADD88007BDD8800DC
:1056E0008CDD8800B23BEF00B43BEF00B63BEF002F
:1056F00004002400C4DD88006827020000000000C8
:105700004300A900851F7800861F7800871F780056
:105710000002780005007800810278008600780099
:10572000020378000701780083037800880178007D
:10573000FC13020000000000CF0378004F03780044
:10574000CF0278008501200006000900CF12780002
:10575000CF02780000000600851F7800C5002000F9
:1057600007000900B51F7800F4D980006220B80056
:10577000E4A92000040040009002780005027800AF
:105780007020B8008002780024B720000480420016
:1057900010037800F4D980006220B800E4A920004A
:1057A0000400400090037800070278007020B800E1
:1057B000800378006480430024B720000400400088
:1057C00090037800F4D980006220B800E4A920009A
:1057D0000400400010047800080278007024B8002B
:1057E0006800440024B72000040040001004780042
:1057F000F4D980006220B800E4A920000400400031
:1058000090047800090278007020B80080047800C5
:105810006C80440024B7200004004000900478000D
:10582000361BF800541BF900381BF800561BF90012
:10583000C6DA8800D7DA8800E8DA8800F9DA880062
:105840004A1A02000000000040BBB700F4D98000F3
:105850006220B800E4A92000040040001003780092
:10586000060278007023B80024B72000040043002B
:1058700090037800F4D980006220B800E4A92000E9
:105880000400400010047800080278007024B8007A
:105890006400440024B72000040040001004780095
:1058A000F4D980006220B800E4A920000400400080
:1058B00090047800090278007020B8008004780015
:1058C0006880440024B72000040040009004780061
:1058D000F4D980006220B800E4A920000400400050
:1058E000100578000A0278007025B8006C004500A9
:1058F00024B7200004004000100578003A1BF8008F
:10590000541BF9003C1BF800561BF900C7DA88004D
:10591000D8DA8800E9DA8800FADA88004A1A020040
:105920000000000042BBB700443BEF0004DA8000F7
:105930006820E1000300320014DA80006820E100F2
:1059400003003A00962AEF00745E04000000000095
:10595000409BBF000080B200110032001080B200F6
:10596000ED0232003080B200480632001080B200F2
:10597000140932007080B2006C0C32001080B2004A
:105980004B0F32003080B200A31232001080B20000
:105990006F153200F080B200CA183200CC18370000
:1059A00014DA80006320E10040003A00D454800003
:1059B0007020B8008002780024AB200004834200ED
:1059C000F4D980006220B800E4A92000040040005F
:1059D00090037800070278007020B80080037800F8
:1059E00014D980006420B8000700400024B72000CC
:1059F000040040000002780003002000B419780081
:105A0000B41978000200200003002000E812020010
:105A1000000000000400200003000900341B78008F
:105A2000D45480007020B800800278006880420062
:105A300024AB200084024000F4D980006220B8002A
:105A4000E4A920000400400010037800060278005A
:105A50007023B80024D980006420B80006004000FC
:105A600024B720000400400000027800030020005A
:105A7000B4197800B4197800020020000300200057
:105A8000E8120200000000000400200003000900EA
:105A9000B41A78001400200024DA880014002000D2
:105AA000B4548800883204000000000014DA80003A
:105AB0006420E10055023A00369BBF008001EB00F4
:105AC00000F0A7008081EB008300780003017800DC
:105AD000E812020000000000800278000103780054
:105AE0008203780003047800389BBF008001EB003C
:105AF00000F0A7008081EB008300780003017800AC
:105B0000E81202000000000080047800010578001F
:105B10008205780003067800F4D980006220B8007E
:105B2000E4A9200004004000900678000D027800EF
:105B30007020B80080067800F4D880006420B80097
:105B40000D00400024B7200004004000000278004F
:105B500003002000B4197800B41978000200200076
:105B600003002000E8120200000000008006780018
:105B7000010778008207780003087800F4D98000D4
:105B80006220B800E4A9200004004000901F7800C3
:105B90004C1BF90064DA80007020B8004CBBB700E1
:105BA00004D980006420B80064DA8000040040005A
:105BB00024B7200004004000000278000300200009
:105BC000B4197800B4197800020020000300200006
:105BD000E8120200000000004CBBB70071DA880038
:105BE00082DA880093DA8800D5DB8800E6DB88005B
:105BF000F7DB880008DC880019DC88002ADC8800D4
:105C00003BDC88004CDC88005DDC88006EDC8800B2
:105C10007FDC8800901F7800901BF9004C1BF80077
:105C2000921BF9004E1BF800941BF900501BF80062
:105C3000961BF900521BF800981BF900E82A020095
:105C400000000000800278000103780082037800E1
:105C500003047800F4D980006220B800E4A9200091
:105C60000400400090047800090278007020B80019
:105C700080047800F4D880006420B8000900400057
:105C800024B7200004004000000278000300200038
:105C9000B4197800B4197800020020000300200035
:105CA000E81202000000000080047800010578007E
