:10000000BFEF01F0F76A140FF66E000EF722090039
:10001000F5501200380C0106F76A280FF66E000E34
:10002000F7220900F5501200746573742061726440
:1000300075696E6F203132330000F76A4A0FF66E31
:10004000000EF7220900F550120068656C6C6F0015
:10005000F76A600FF66E000EF7220900F5501200E5
:100060005A00544553542053504900006374726C35
:10007000203A2025752000006374726C203A2025F8
:10008000752000006374726C203A202575200000F2
:10009000DF0E926E93689568966AD60E946ED8EFCE
:1000A00001F0EA6A1E0EE96EEF500DE0060E016ED9
:1000B000006A002EFED7012EFBD77B0E006E002EAD
:1000C000FED7EF2EF3D71200FF0E956E848200004C
:1000D00084840000956883CF23F08494000E956E8D
:1000E00023C001F076EF00F08490EED701C023F03A
:1000F00001BEFBD721A0849021B0848000008492AF
:1001000000008494000E956E956A22C08CFF00005A
:100110008484080E006E002EFED784941200849012
:10012000849284940F0E1E6EBCDF1A6A1A50030864
:100130000DE3036A1A5066DF1B6E216A226ED4DF5C
:10014000080E006E002EFED71A2AF0D7D9EF01F064
:100150001F50010A03E0030A04E006D0800E206E5F
:1001600005D0C00E206E02D0800E206E010E1E5CE7
:100170002026216A20C022F0B7DF12001D500C0A91
:1001800005E0060A0DE0020A12E016D0216A010E0F
:10019000226EAADF010E046E0A0E1E6E82DF11D0DF
:1001A000042A010E1E6E04C01FF0D2DF0AD0216A9D
:1001B000100E226E99DF05D0010E216E1DC022F0B7
:1001C00093DF12000900F5520CE0F6CF1AF0F7CFDA
:1001D0001BF0F5CF1DF0D2DF1AC0F6FF1BC0F7FFF2
:1001E000F1D7E2EF01F01B50100802E2100E1B6E77
:1001F000809A00D000D00000C9501AC0C9FFC73093
:10020000FEE31AC01FF0C9501BC0C9FFC730FEE390
:100210001B501F261E6A1B501E5C17E21E501C241A
:10022000E96E000E1D20EA6EEFCF20F0C95020C00D
:10023000C9FFC730FEE31E501C24E96E000E1D20CE
:10024000EA6EEF501F261E2AE6D7FF0ED8801F54F5
:10025000010F1F6EC9501FC0C9FFC730FEE3100E4B
:10026000006E002EFED70000808A12001C6A809A61
:1002700000D000D00000C950C96AC730FEE3C9CF22
:100280001CF01AC0E9FF1BC0EAFF1C50070BEF6E01
:10029000010E1A24E96E000E1B20EA6E1C50180B8A
:1002A000006E0032003200321F0E001600C0EFFF59
:1002B000020E1A24E96E000E1B20EA6E1C50E00BA1
:1002C000006E003A0032070E001600C0EFFF808A71
:1002D00012000900F6CF1BF0F7CF1CF0F5CF1DF090
:1002E0004DDF1BC0F6FF1CC0F7FF1A2EF2D712001D
:1002F0001D50016A1C5C03E21CC000F00CD0006AB7
:10030000080E1E6E1C3600361D50005CD8B0006E04
:1003100001361E2EF7D7120001501AC01CF0640ED1
:100320001D6EE6DF00C01AF00150300E07E11BA27F
:100330000CD01BB60AD01BB8200E03D01B961B98FE
:100340001B80012601C01DF019DF1AC01CF00A0E27
:100350001D6ECEDF00C01AF00150300E06E11BB654
:1003600008D01BA006D01BB8200E012601C01DF02E
:1003700005DF300E1A261AC01DF000DF1200F86AE1
:10038000D09EC69A400EC76E030EC86E2A0EC66E69
:10039000949A94889496196A186A0F01386B396B8D
:1003A0003A6B3B6B3C6B776A786A796A000170D66E
:1003B000B6D6010E1E6E1F6ECBDE620EF66E000EFE
:1003C000F76E00D7156A166A176AEA6A050EE96EB3
:1003D000100E016EF76A000E1FDE0A000900F5CF4D
:1003E000EEFF012EFBD7050E1A6E100E1B6E1D6A56
:1003F000050E1C6EF8DE1B6A150E1A6E37DF010E35
:100400001E6E020E1F6EA4DE6C0EF66E000EF76EF0
:10041000070E1A6E5EDF16C01AF01B0E1B6E7CDF15
:10042000200E1D6EABDE040E1A6EFA0E1E6E39DE45
:100430001A2EFBD7EA6A050EE96E100E016EF76AF6
:10044000000EFBDD0A000900F5CFEEFF012EFBD701
:10045000020E1A6E050E1B6E1D6A1C6EC4DE1B6A30
:10046000150E1A6E03DF010E1E6E020E1F6E70DE79
:10047000780EF66E000EF76E070E1A6E2ADF16C0A3
:100480001AF01B0E1B6E48DF200E1D6E77DE040E69
:100490001A6EFA0E1E6E05DE1A2EFBD7EA6A050EDC
:1004A000E96E100E016EF76A000ED2DD0A00090037
:1004B000F5CFEEFF012EFBD7130E1A6E010E1B6E49
:1004C0001D6A050E1C6E8FDE1B6A150E1A6ECEDEBF
:1004D000010E1E6E020E1F6E3BDE840EF66E000EC7
:1004E000F76E070E1A6EF5DE16C01AF01B0E1B6EA5
:1004F00013DF200E1D6E42DE040E1A6EFA0E1E6E03
:0A050000D0DD1A2EFBD761D70300EF
:020000040030CA
:0E00000000E2183C00BF81000FC00FE00F406F
:00000001FF
;PIC18F45K22
;CRC=7D87  CREATED="21-févr.-19 09:09"
