:080000004CA9040000000000FF
:04003400320B00008B
:08004000D8050000240C0000AB
:04004C005A0900004D
:04008800FE05000071
:100200003220EF00C3102000008041001040BA00EF
:100210000160EF00000006003F440000520D0000A6
:10022000000000003220EF00E311200000804100B8
:100230001040BA000160EF00000006003F410000DE
:10024000203100000D0000003220EF0003132000D9
:10025000008041001040BA000160EF00000006007D
:100260003F410000203200000D0000003220EF006E
:1002700023142000008041001040BA000160EF000C
:10028000000006002153000020310000202500005E
:1002900030340000755F0000215300002032000060
:1002A0002025000030340000752000000D00000003
:1002B0003220EF0043162000008041001040BA00B9
:1002C0000160EF00000006002150000052200000F5
:1002D00031200000256400005F2100005052000022
:1002E0002032000020250000642000000D000000E6
:1002F0003220EF0043182000008041001040BA0077
:100300000160EF00000006002153000020310000D2
:1003100020310000303000005F2100005320000039
:100320003220000031300000300D000000000000DD
:100330003220EF00431A2000008041001040BA0034
:100340000160EF0000000600215000005220000074
:1003500031200000315F00002150000052200000D9
:1003600032200000310D0000000000003220EF00BC
:10037000231C2000008041001040BA000160EF0003
:100380000000060021500000522000003120000033
:1003900025300000376400005F210000505200004B
:1003A00020320000202500003037000064200000CB
:1003B0000D0000003220EF00631E2000008041008D
:1003C0001040BA000160EF0000000600214D00005F
:1003D00053200000310D0000000000003220EF002B
:1003E000A31F2000008041001040BA000160EF0010
:1003F00000000600214D000053200000320D0000D7
:10040000000000003220EF00E320200000804100C7
:100410001040BA000160EF00000006005E4D0000D1
:100420004D4F00004420000031200000305F0000EC
:100430005E4D00004D4F00004420000032200000BF
:10044000300D0000000000003220EF0003232000E8
:10045000008041001040BA000160EF00000006007B
:100460005E4D00004D4F0000442000003120000090
:10047000335F00005E4D00004D4F0000442000003F
:1004800032200000330D0000000000003220EF0099
:1004900023252000008041001040BA000160EF00D9
:1004A00000000600524500005345000054200000A3
:1004B0003332000031360000353400003938000096
:1004C000372000000D0000003220EF00032720003D
:1004D000008041001040BA000160EF0000000600FB
:1004E0007E4B000050200000312000000D00000075
:1004F0003220EF0043282000008041001040BA0065
:100500000160EF00000006007E4B00004920000063
:10051000312000000D0000003220EF008329200070
:10052000008041001040BA000160EF0000000600AA
:100530007E4B000044200000312000000D00000030
:100540003220EF00C32A2000008041001040BA0092
:100550000160EF00000006007E4B0000502000000C
:10056000322000000D0000003220EF00032C20009C
:10057000008041001040BA000160EF00000006005A
:100580007E4B000049200000322000000D000000DA
:100590003220EF00432D2000008041001040BA00BF
:1005A0000160EF00000006007E4B000044200000C8
:1005B000322000000D0000003220EF00832E2000CA
:1005C000008041001040BA000160EF00000006000A
:1005D0007E4D00004143000020310000200D00004E
:1005E000000000003220EF00E32F200000804100D7
:1005F0001040BA000160EF00000006007E4D0000D0
:100600004445000043200000312000000D000000A0
:100610003220EF0043312000008041001040BA003A
:100620000160EF00000006007E4D00004143000025
:1006300020320000200D0000000000003220EF00FA
:10064000A3322000008041001040BA000160EF009A
:10065000000006007E4D00004445000043200000DD
:10066000322000000D0000003220EF006302200065
:100670008301500005003100033520000080410057
:100680001040BA000160EF000000060000352000B5
:1006900083814100808141001380BA000000060080
:1006A0005E4B49005020200031203200257520008B
:1006B0005F5E25004B49750020315F0020255E00FC
:1006C000755F4B005E4B4400442020003120320017
:1006D000257520005F5E25004B50750020322000FC
:1006E00020250D00755F00005E4B00003220EF00FA
:1006F000E301200083015000050031002339200070
:10070000008041001040BA000160EF0000000600C8
:100710002039200083814100808141001380BA008C
:10072000000006005E4D5F0041435E0020314D0039
:1007300020254400755F45005E4D43004445200080
:100740004320320031202000257525005F5E7500B2
:100750004D41200043200D0032200000257500008F
:100760003220EF00C33B2000008041001040BA005F
:100770000160EF0000000600454500005341000005
:10078000562000000D0000003220EF00033D200045
:10079000008041001040BA000160EF000000060038
:1007A00021530000203100002025000030370000D8
:1007B000645F00002153000020320000202500006B
:1007C00030370000642000000D0000003220EF00F0
:1007D000233F2000008041001040BA000160EF007C
:1007E00000000600214D000053200000315F000092
:1007F000214D000053200000320D000000000000D9
:100800003220EF00C3402000008041001040BA00B9
:100810000160EF00000006005E6D00006D6F0000DB
:100820006420000031200000305F00005E6D000099
:100830006D6F00006420000032200000300D0000C9
:10084000000000003220EF00E34220000080410061
:100850001040BA000160EF00000006005E6D00006D
:100860006D6F00006420000031200000335F000045
:100870005E6D00006D6F00006420000032200000FB
:10088000330D0000000000003220EF00034520007F
:10089000008041001040BA000160EF000000060037
:1008A0004361000072740000652000005072000077
:1008B000696E000063690000706100006C650000F3
:1008C000203A0000204300006F6D00006D610000C1
:1008D0006E64000065200000496E0000636F000038
:1008E0006E6E0000756500000D0000003220EF0004
:1008F00023482000008041001040BA000160EF0052
:1009000000000600214D0000470D0000000000001F
:100910003220EF0043492000008041001040BA001F
:100920000160EF00000006005E4D0000444500003D
:10093000432000003120000039300000303000003A
:100940005F5E00004D44000045430000203200007F
:100950002039000030300000300D000000000000A1
:100960003220EF00C34B2000008041001040BA004D
:100970000160EF000000060021530000203100005C
:10098000203000005F2100005320000032200000D2
:10099000300D0000000000003220EF00834D2000E9
:1009A000008041001040BA000160EF000000060026
:1009B0005E4D00004445000043200000312000004F
:1009C00036300000303000005F5E00004D44000013
:1009D0004543000020320000203600003030000087
:1009E000300D0000000000003220EF000350200016
:1009F000008041001040BA000160EF0000000600D6
:100A0000215300002031000020250000755F000008
:100A1000215300002032000020250000750D000049
:100A2000000000003220EF00E35120000080410070
:100A30001040BA000160EF000000060021450000F0
:100A4000582000000D0000009C9CBF000080B200F8
:100A500001003200080037009E1CE20002003A004C
:100A6000D682A90001003700D682A800D282A90050
:100A700040050400000000004005040000000000E4
:100A800000000600851F7800861F78009A3CEF0062
:100A9000D4E480006120E10042003D00D4E4800005
:100AA0006820B8008002780062804200E45621008D
:100AB0000400400090027800D4E480006823B8006D
:100AC000E45621000400430000027800140078007E
:100AD0000028E1000F003D009A1CF8009C1CF90062
:100AE00014002000F4E48800240502000000000047
:100AF000D4E480006820B800800278006280420060
:100B0000E456210084024000950AE800CC05040068
:100B100000000000D4E480006820B8008002780063
:100B200062804200E45621000400400090027800F8
:100B3000540C20000520E1000E0034009A1CF8003F
:100B40009C1CF9009E3CEF00240502000000000000
:100B5000D4E480006820B8008002780062804200FF
:100B6000E456210084024000950AE800CC05040008
:100B700000000000D4E480006820B8008002780003
:100B800062804200E456210084024000804AEB006B
:100B900000C0B300904298009A3CEC004805040065
:100BA000000000004F037800CF027800000006002C
:100BB0004200F8003600F8003200F800801F78008C
:100BC000200020000C000900B01F78000621EF0073
:100BD000420502000000000084C0A900A00120001E
:100BE0000C0009004F1078004F0078003200F90027
:100BF0003600F9004200F900004006004200F8000B
:100C00003600F8003200F800801F78002000200035
:100C10000C000900B01F78001802AE00FEFF37007C
:100C2000E010800074FCB70024AE80004822DE0093
:100C30002388200083024200749CBF0080429800F9
:100C4000C575EC00A4E380006D24E10003003A00C8
:100C5000C5D5BF00C4F5B700C575EF008700A90072
:100C6000A00120000C0009004F1078004F00780010
:100C70003200F9003600F9004200F9000040060099
:100C8000851F780024982000C4E38800767CEF005C
:100C9000B4E380000960EF00C3E3800004804100FA
:100CA000104278006D24E10014003200B4E38000AB
:100CB0000960EF00C3E38000048041001042780027
:100CC0006324E1000D003200B4E380000960EF000E
:100CD000C3E3800004804100904278000540780022
:100CE0000F22AF00FEFF370010E2B7001162EF00E5
:100CF000767CEC004806040000000000B4E38000AD
:100D00000960EF00C3E38000048041009042780056
:100D1000054078000F22AF00FEFF370010E2B70059
:100D20001162EF00B4E380000960EF002398200017
:100D300083024200B4E380000960EF00C3E3800057
:100D400004804100904A7800CF027800000006003D
:100D5000851F7800C500200003000900B51F78003A
:100D60000202B80003F0A600020037000383B900B6
:100D7000010037000303B8004200A90085024300C8
:100D800060844B0001F0A60002003700028BB9001E
:100D900001003700020BB80085024B0008844B00AD
:100DA0000980B000038BB90008044B0087834C0016
:100DB0008701780008017800850078000400780039
:100DC0002501200003000900CF127800CF0278002F
:100DD00000000600851F7800861F7800871F7800B6
:100DE000963CEF00923CEF00A4002000A4E48800B1
:100DF0008E3CEF00903CEF008A1CE20003003A00BA
:100E00000000200001002000E8003700969CBF0091
:100E1000963CEC0080027800050078008A1CB40043
:100E200064E480000042900064E4880064E4800090
:100E3000D4C2B2000C003A001400200094E48800F0
:100E4000969CBF00963CEC0080027800050078007C
:100E50008A1CB40064E480000042900064E48800CE
:100E60004A0704000000000064E48000B4C2B2003D
:100E700008003A00969CBF00963CEC008002780087
:100E8000050078008A1CB40064E4800000429000F1
:100E900064E4880064E4800003032000041CE10093
:100EA000B2003C0064E4800093032000041CE100D5
:100EB000AE00350064E4800004C3B20015003A00BF
:100EC000969CBF008A1CB4001042780084C7B20010
:100ED00005003200969CBF008A1CB40010427800C6
:100EE00084C5B2000B003A0004012000A4E488008D
:100EF000963CEC00969CBF00963CEC00800278008B
:100F0000050078008A1CB40064E480000042900070
:100F100064E48800A4E480006A20E10028003A002C
:100F200064E4800003032000041CE10022003C0074
:100F300064E4800093032000041CE1001E003500DF
:100F4000A00020000100200072E4800083E4800003
:100F5000A80602000000000080027800010378006B
:100F600064E480000443B1000440780000E0B7006E
:100F70000000FB008000EB0000F0A7008080EB0089
:100F8000050040008EBCB7000680480090BCB7004A
:100F9000969CBF00963CEC0080027800050078002B
:100FA0008A1CB40064E480000042900064E488007D
:100FB0009007040000000000B608040000000000D4
:100FC000A4E480007020E10068003A0064E480003E
:100FD00013062000041CE10007003E0064E48000CA
:100FE000A3072000041CE100030039008CDCBF00D3
:100FF000F04DB200010037008CDCBF008CFCB70064
:1010000064E4800003032000041CE10005003C00B0
:1010100064E4800093032000041CE100010035001B
:101020000800370064E4800013042000041CE10081
:101030004E003C0064E4800063042000041CE100D6
:101040004A00350064E4800003032000041CE10032
:101050001B003C0064E4800093032000041CE100BA
:10106000170035004400200075E4800086E480000D
:101070000402E8000402E900030032008502D00007
:101080000683D200FBFF370064E480000443B10014
:101090000440780000E0B7000000FB008000EB0097
:1010A00000F0A7008080EB00050040008EBCB70078
:1010B0000680480090BCB7008808040000000000CB
:1010C0004400200075E4800086E480000402E8000B
:1010D0000402E900030032008502D0000683D2003A
:1010E000FBFF370064E480001444B1000440780042
:1010F00000E0B7000080FB006A00400005004000EF
:101100008EBCB7000400200006004A0090BCB70067
:10111000969CBF00963CEC008002780005007800A9
:101120008A1CB40064E480000042900064E48800FB
:1011300064E4800013062000041CE10007003E0068
:1011400064E48000A3072000041CE10003003900D0
:101150008CDCBF00F04DB200010037008CDCBF001A
:101160008CFCB7000008040000000000A4E480002C
:101170006A20E1000B003A0094E480006120E10065
:1011800008003A000400200073E4800003005200CD
:101190008EBCB7000400200083E4800003005A00E6
:1011A00090BCB7008E9CBF0081E48000CF03780024
:1011B0004F037800CF02780000000600851F7800FA
:1011C00010C0B3007AFCB7007B7CEF007C7CEF00A2
:1011D0007E3CEF00803CEF00823CEF00843CEF005F
:1011E000863CEF00887CEF00D4E380000960EF00CC
:1011F00004007800761CB400104278006324E100FB
:101200002A003200D4E380000960EF000400780077
:10121000761CB4001042780004C2B2000D00320007
:10122000D4E380004822DE00E3C7210083024200AD
:10123000D4E380000960EF0004007800761CB4005D
:10124000904A78007A7CEC007B7CEC000209040078
:1012500000000000D4E380004822DE00E3C7210044
:1012600083024200804AEB007A7CEC007B7CEF003A
:101270007CDCBF000160EF004200DD00C4E38000C1
:1012800084024000E4C7210054E48800EA0602001A
:101290000000000004002000B41A7800B41A78009E
:1012A0007C7CEC00F408040000000000CF02780011
:1012B000000006004200F8003600F8003200F80096
:1012C000801F7800200020000C000900B01F78006B
:1012D0001756AF00B00037001776A8000E02AE0018
:1012E000AD0037000E02AE00FEFF37009010800008
:1012F00074FCB7001796AE0007003700A4E3800027
:101300006624E10004003A001796A9001C7BEF0058
:10131000C80A0400000000001796AE001100370054
:10132000A4E380007524E1000E003A001CDBBF003E
:1013300054A580004822DE000024E10005003600AC
:1013400040060200000000001C7BEC00AE09040017
:10135000000000001796A9001C7BEF00C80A0400DB
:1013600000000000A4E380006224E1000A003A00CB
:101370001B57E20008003A00207BEF0020DBBF0093
:101380001FFBB70010C0B3001BF7B7001A77EF00C0
:10139000C80A040000000000A4E380006324E10008
:1013A00040003A00D4B880004822DE006524E10005
:1013B0003C003A00F4D880004822DE006324E100BB
:1013C00004003200F4D880004822DE006D24E100E1
:1013D00001003A001F7BEC0004D980006324E10087
:1013E0000300320004D980006D24E10001003A00BE
:1013F000207BEC001FDBBF001D5BE3001E003A00FA
:1014000020DBBF001E5BE3001B003A00D4B8800065
:101410000960EF00A36121008302420030C0B300E5
:10142000804A7800A4612100B4E38800C4712100DF
:10143000C4E38800DE080200000000001C97BF0023
:10144000AC14E3000A003A001E97BF00AE14E3009C
:1014500007003A001756A80060C0B3000F22AF0083
:10146000FEFF370010E2B7001162EF001796A800E8
:10147000460A04000000000050C1B3000F22AF0074
:10148000FEFF370010E2B7001162EF001B77EF009C
:101490001A77EF001C7BEF001776A900C80A04003A
:1014A00000000000D4B880004822DE006124E10082
:1014B00004003A0020C0B3001BF7B700C80A0400BC
:1014C00000000000D4B880004822DE006224E10061
:1014D00006003A0074DCBF001DFBB70030C0B3004B
:1014E0001BF7B700C80A040000000000D4B8800051
:1014F0004822DE006324E10004003A0040C0B3004B
:101500001BF7B700C80A040000000000D4B8800030
:101510004822DE006424E10006003A0074DCBF00CB
:101520001EFBB70050C0B3001BF7B700C80A040089
:1015300000000000D4B880004822DE006524E100ED
:1015400013003A001FDBBF00745CB4001FFBB70040
:1015500020DBBF00745CB4000AE0B700D4B88000A0
:101560000960EF00610042000B60EF000028B80046
:1015700020FBB700D4B880000960EF00A361210010
:1015800083024200749CBF00804298001A77EC00EE
:101590006E090400000000008520A900A0012000C1
:1015A0000C0009004F1078004F0078003200F9005D
:1015B0003600F9004200F90000400600851F78005F
:1015C000C500200003000900B51F780009002000B5
:1015D0004300AF0019002000891F78000002EB00D3
:1015E0008002EB000003EB008003EB0003046900C2
:1015F00011003200080220004200A9000080D20041
:101600008180D2000482D2008582D2000328E100CA
:1016100001003A0002A0E10003003900020252007A
:1016200083825A004200A8000683D2008783D2003A
:101630000804E900F0FF3A0087007800060078000F
:10164000CF0478000900E000010032000400BE0071
:101650002501200003000900CF127800CF02780096
:10166000000006004200F8003600F8003200F800E2
:10167000801F7800200020000C000900B01F7800B7
:101680006228EC004220AF006428EC006608E2000B
:1016900002003A006808E20016003200144380009D
:1016A00033438000030052006AA8B700244380003F
:1016B0004343800003005A006CA8B7004300A80011
:1016C0006A88BF0061438000823E20000300200042
:1016D000DE0A0200000000008002780001037800AA
:1016E0000500E00003003A000600E00001003A00B7
:1016F0006168EC00044380004822DE00C4C5B200EB
:1017000001003A005A08A8006608E20002003A0008
:101710006808E2000E0032004300A8006A88BF009B
:101720006143800092A5800003002000DE0A0200D1
:101730000000000080027800010378000500E0004E
:1017400003003A000600E00001003A005A48A800F1
:101750006608E20002003A006808E2000E0032006B
:101760004300A8006A88BF0061438000421F200038
:1017700003002000DE0A0200000000008002780062
:10178000010378000500E00003003A000600E000D5
:1017900001003A005A88AA001776AE000D00370003
:1017A0002E3BEC00AAD4BF000160EF0074D980008A
:1017B0000020E100050039001B77EF001A77EF00E9
:1017C0001C7BEF001796A9001776A900EC0B04000C
:1017D000000000002E3BEF006608E20002003A0025
:1017E0006808E20006003200044380004822DE0060
:1017F00023062000041CE10001003E005A28A80036
:101800006608E20002003A006808E20005003200C3
:10181000044380004822DE00C3052000041CE100D0
:1018200000003E008460A900A00120000C00090017
:101830004F1078004F0078003200F9003600F900B0
:101840004200F900004006004200F8003600F800AF
:101850003200F800801F7800200020000C000900F2
:10186000B01F78005A68AE000100370017B6AA0012
:1018700084E0A900A00120000C0009004F107800AE
:101880004F0078003200F9003600F9004200F900FC
:1018900000400600881F780028012000040009008D
:1018A000B81F78008005EB006066B800030478007C
:1018B00087047800FA7F20004200A9004220A90096
:1018C00044C4DE00080465000800E0007100320036
:1018D0004200A9004220A900C4CCDE0089046500B2
:1018E0000900E0006B0032000884440009B0A70042
:1018F00004003700F83FB10066003200650039008F
:10190000030037001A402000854245006100310085
:10191000878669004200A9004220A900F300B200B6
:101920000340A000F700B2000740A000881F780025
:101930000124B800002DB8000A0544008B854C0036
:101940000C80B0000224B8008B0544000C864C00CB
:10195000012CB8000005EB008B0544000C864C0000
:101960000A80B0000034B8008B0544000C864C009F
:101970000A80B0008005EB000324B8000C06440088
:101980000A854C000B80B000022CB8000C06440005
:101990000A854C000B80B0000134B8000C064400EE
:1019A0000A854C000B80B000003CB8000C064400D7
:1019B0000A854C000B80B0000C0078000006EB009C
:1019C000032CB8000A0544008B854C000C80B00045
:1019D0000234B8000A0544008B854C000C80B0002E
:1019E0000334B8008B0544000C864C00013CB80061
:1019F0000A0544008B854C000C80B000023CB80006
:101A00008B0544000C864C00033CB8000C064400D7
:101A10008A0078000B0178008C01780054002000C7
:101A20004200A9008381D3000281D3008180D300CA
:101A30000080D3000402E900F9FF3A004F04780067
:101A40000804E800010370000100320002003700C2
:101A500003037100080032000340A70006003700AE
:101A60004200A9000080D2008180D2000281D20011
:101A70008381D2000804E9004444DD0003F0A100A2
:101A80000DF0A70003F0A0000340A10083016C004B
:101A9000030037006000B8006001B80000003700A4
:101AA000A8012000040009004F1478004F047800BA
:101AB00000000600881F78002801200004000900AB
:101AC000B81F7800878669000304780087047800CF
:101AD000FA7F20004200A9004220A90044C4DE0091
:101AE000080465000800E0006C0032004200A90014
:101AF0004220A900C4CCDE00890465000900E00092
:101B0000660032000005EB000906540003003900AE
:101B1000FC3FB00061003100040037001B40200092
:101B20000B0656005D0039005C0032000004EB003B
:101B30008004EB000005EB008005EB00F301B20030
:101B40000340A000F701B2000740A0008C1F7800FE
:101B50006C032000040050008580580006015900E5
:101B600087815900020033000600310006003A0068
:101B70000400400085804800060149008781490033
:101B8000010037000800A0000C06E9000B0032003D
:101B90004200A9000080D2008180D2000281D200E0
:101BA0008381D2004200A9000884D2008984D20037
:101BB0000A85D2008B85D200E6FF37004F067800F9
:101BC0000B50A70001003700060037004200A900B3
:101BD0008B85D3000A85D3008984D3000884D30081
:101BE000030037000C06E9004200A9002B00320078
:101BF0004200AF00090037000080D2008180D2008F
:101C00000281D2008381D2000402500085825800F4
:101C10000603590087835900150039000804E800BD
:101C200013003A008904E80011003A000A05E800B0
:101C30000F003A008B05E8000D003A000C06E800A2
:101C4000160032000A0037000C06E90013003200CB
:101C50000B40A700060037004200A9000884D2000C
:101C60008984D2000A85D2008B85D200F8FF370024
:101C70004466DD004200A9000CF0A1000DF0A700B1
:101C80000CF0A0000B40A1008B016E000A0178004F
:101C90008900780008007800050037000000200067
:101CA0000100200002002000030020000000370097
:101CB000A8012000040009004F1478004F047800A8
:101CC00000000600F0FF2F000862AE00050037009C
:101CD00009C2AF00FEFF37001110880009C2AF0033
:101CE000FEFF37000000200009E2AF000000E8001E
:101CF0000000060034DBBF0033FBB70035DBBF005C
:101D00003AFBB70036DBBF003BFBB70037DBBF0059
:101D10003CFBB70038DBBF003DFBB70039DBBF0041
:101D20003EFBB7000862AE00040037000622A800A0
:101D30000622AF00FEFF3700030037000602A800AE
:101D40000602AF00FEFF370032DBBF0002E0B70043
:101D5000620E0200000000000004E0001D003A00D6
:101D600071C3B300620E02000000000033DBBF004D
:101D700080407800620E0200000000003ADBBF00E5
:101D800002E0B700620E0200000000003BDBBF0073
:101D900080407800620E0200000000003CDBBF00C3
:101DA00002E0B700620E0200000000003DDBBF0051
:101DB00080407800620E0200000000003EDBBF00A1
:101DC00002E0B700620E020000000000FC0E0400FA
:101DD00000000000F00120000602B600FDFF3A00FE
:101DE0000642A8000642AF00FEFF370020C0B30045
:101DF00000E0B70008003700F00120000602B6003E
:101E0000FDFF3A000642A8000642AF00FEFF370081
:101E100010C0B30000E0B700000006000000E000C2
:101E20004220AF00060037001B0E09000000000032
:101E3000FE3F0900000000000000E900FAFF3A0040
:101E40000000060034DBBF0033FBB70035DBBF000A
:101E50003CFBB70036DBBF003DFBB70037DBBF0004
:101E60003EFBB70038DBBF003FFBB70039DBBF00EC
:101E700040FBB7003ADBBF0041FBB7003BDBBF00D4
:101E800042FBB7000862AE00040037000622A8003B
:101E90000622AF00FEFF3700030037000602A8004D
:101EA0000602AF00FEFF370032DBBF0002E0B700E2
:101EB000620E0200000000000004E00025003A006D
:101EC00091C2B300620E02000000000033DBBF00CD
:101ED00080407800620E0200000000003CDBBF0082
:101EE00002E0B700620E0200000000003DDBBF0010
:101EF00080407800620E0200000000003EDBBF0060
:101F000002E0B700620E0200000000003FDBBF00ED
:101F100080407800620E02000000000040DBBF003D
:101F200002E0B700620E02000000000041DBBF00CB
:101F300080407800620E02000000000042DBBF001B
:101F400002E0B700620E020000000000BC0F0400B7
:101F500000000000F00120000602B600FDFF3A007C
:101F60000642A8000642AF00FEFF370020C0B300C3
:101F700000E0B70008003700F00120000602B600BC
:101F8000FDFF3A000642A8000642AF00FEFF370000
:101F900010C0B30000E0B70000000600046C23008E
:101FA00004168800C222EF00C40320003416880003
:101FB000C822EF00CC22EF00CE22EF00040F200059
:101FC00094168800D422EF0044012000F416880003
:101FD000E022EF00C400200024178800E622EF0072
:101FE000F4002800341088000421EF0004E22400EB
:101FF0001408880004002800240888001221EF003B
:1020000024A127007408880004022800940888008E
:102010008C60A8008CE0A8008F00A80081E0A900D7
:102020004220EF0081E0A80000CCB30032FBB700F3
:10203000840C2000A4D9880014002000B4D98800A2
:10204000383BEF007A0E02000000000020CCB30005
:1020500032FBB700840C2000A4D9880014002000B3
:10206000B4D98800383BEF007A0E0200000000006F
:10207000A00020000E0F02000000000000CCB30002
:1020800032FBB70084382100A4D9880084382100AD
:10209000B4D98800047D2000C4D9880004802500BC
:1020A000D4D98800220F02000000000020CCB30029
:1020B00032FBB70084382100A4D98800843821007D
:1020C000B4D98800047D2000C4D9880004E022002F
:1020D000D4D98800220F020000000000A0002000D8
:1020E0000E0F020000000000000006008D20A80076
:1020F000000006003ADBBF0070E8B7005B48A800AC
:10210000000006000862AE00040037000622A800A6
:102110000622AF00FEFF3700030037000602A800CA
:102120000602AF00FEFF370001C2B300620E0200DC
:102130000000000001C1B300620E020000000000B8
:1021400032DBBF0002E0B700620E020000000000B8
:1021500033DBBF0080407800620E02000000000008
:1021600034DBBF0002E0B700620E02000000000096
:1021700001C4B300620E020000000000F001200064
:102180000602B600FDFF3A000642A8000642AF0074
:10219000FEFF370000000600851F7800007D20004C
:1021A0000E0F020000000000447BEF003FDBBF0089
:1021B0000160EF00C402DD0040DBBF000160EF0002
:1021C0004300DD008502400041DBBF000160EF00FD
:1021D0004200DD008502400042DBBF000160EF00ED
:1021E0004100DD008502400005007800435BB4003B
:1021F00044FBB7000862AE00040037000622A800C6
:102200000622AF00FEFF3700030037000602A800D9
:102210000602AF00FEFF37003EDBBF0002E0B70062
:10222000620E0200000000000004E00006003A0018
:1022300044DBBF0002E0B700620E020000000000B5
:102240003411040000000000F00120000602B60076
:10225000FDFF3A000642A8000642AF00FEFF37002D
:102260000060EF000B003700F00120000602B6000E
:10227000FDFF3A000642A8000642AF00FEFF37000D
:10228000007D20000E0F02000000000010C0B3000F
:1022900000E0B700CF02780000000600851F78003C
:1022A000861F78003EDBBF000000FB00E7026000F5
:1022B000C52ADD003DDBBF000000FB0061036000BC
:1022C0004430DD00850240003FDBBF000000FB0022
:1022D00067006000050040004CFBB70040DBBF001A
:1022E00046FBB70041DBBF0047FBB70042DBBF0046
:1022F00048FBB70043DBBF0049FBB70044DBBF002E
:102300004AFBB70045DBBF004BFBB7000862AE00DD
:10231000040037000622A8000622AF00FEFF3700A7
:10232000030037000602A8000602AF00FEFF3700D8
:102330003CDBBF0002E0B700620E020000000000BC
:102340000004E00021003A0081C4B300620E0200E4
:10235000000000004CDBBF0002E0B700620E02008C
:102360000000000046DBBF0002E0B700620E020082
:102370000000000047DBBF0080407800620E0200D2
:102380000000000048DBBF0002E0B700620E020060
:102390000000000049DBBF0080407800620E0200B0
:1023A000000000004ADBBF0002E0B700620E02003E
:1023B000000000004BDBBF0080407800620E02008E
:1023C00000000000F811040000000000F0012000EF
:1023D0000602B600FDFF3A000642A8000642AF0022
:1023E000FEFF370020C0B30000E0B7000800370050
:1023F000F00120000602B600FDFF3A000642A800E8
:102400000642AF00FEFF370010C0B30000E0B70087
:102410004F037800CF02780000000600851F780087
:102420000862AE00040037000622A8000622AF00B2
:10243000FEFF3700030037000602A8000602AF00C7
:10244000FEFF37003ADBBF0002E0B700620E020079
:10245000000000000004E0000A003A00D5D9800026
:10246000C82ADE00C42ADD00F0826200E182420058
:1024700085407800620E0200000000005412040043
:1024800000000000F00120000602B600FDFF3A0047
:102490000642A8000642AF00FEFF370020C0B3008E
:1024A00000E0B70008003700F00120000602B60087
:1024B000FDFF3A000642A8000642AF00FEFF3700CB
:1024C00010C0B30000E0B700CF02780000000600A3
:1024D000851F7800B194AF000500370004DC2B00A5
:1024E00054B088000C36EF007E120400000000009B
:1024F0000424240054B088000CB6EF00C2E2AF0000
:10250000090037000ED6BF000000FB000000E0000D
:1025100005003A0010C0B30000E0B7003A003700F1
:1025200004130400000000000ED6BF000000FB00F2
:102530006100E1001D00320000F6AF00040037002A
:10254000400120000E0F02000000000000F6A8006D
:1025500020CCB3003CFBB7003D7BEF0010C0B300C4
:102560003EFBB70020C0B3003FFBB700440620008D
:1025700004DA88000A16F800421BF9000C16F8006D
:10258000441BF9004E110200000000000EF6B700D7
:10259000400120000E0F0200000000000060EF006C
:1025A000190037000413040000000000C2E2AF006D
:1025B000130037000E76EF0000F6A90020CCB30020
:1025C0003AFBB7003B7BEF000E1202000000000058
:1025D000F4A480006820E10003003A005BE8A90051
:1025E000F6120400000000005BE8A80010C0B30071
:1025F00000E0B700040037000413040000000000EE
:102600000060EF0000003700CF02780000000600F5
:10261000F0FF2F000862AE0011003700321080007A
:102620007F016100FDFF3A000662A8000100A700DB
:1026300006A2A9000100A60006A2A8003210800090
:102640007F016100FDFF3A000682A8000822AE006B
:10265000FEFF37000082BF0008C2AF0008C2A90019
:1026600000000600851F7800457BEF00467BEF00E9
:102670000862AE00040037000622A8000622AF0060
:10268000FEFF3700030037000602A8000602AF0075
:10269000FEFF370044DBBF000000FB00E10240000A
:1026A00085407800620E02000000000046FBB70083
:1026B00046DBBF000000FB000000E00006003A001F
:1026C0008040EB00081302000000000045FBB7004B
:1026D000701304000000000050C0B30045FBB700B9
:1026E000F00120000602B600FDFF3A000642A800F5
:1026F0000642AF00FEFF370045DBBF00CF02780087
:1027000000000600C942A800C962A8003B5BE200C5
:102710000800320000002F00C822B700C942A900FB
:10272000C962A900C942A800C962A800D413040064
:10273000000000003ADBBF000000FB000002780050
:10274000A3002000110009000302D800E4B5B7007F
:102750003ADBBF000000FB0000027800A30020006D
:10276000110009000302D80001007800E6B5B700A7
:10277000E495BF004C00DD00E4B5B700E695BF006E
:102780004C00DD00E6B5B700C942A900E415F80029
:10279000C802F900C942A800C962A900E615F800FC
:1027A000C802F900C962A80000000600851F780071
:1027B0003B7BEF003ADBBF0044FBB7003213020063
:1027C000000000006104E1003C0032000862AE003D
:1027D000040037000622A8000622AF00FEFF3700E3
:1027E000030037000602A8000602AF00FEFF370014
:1027F0003ADBBF000000FB00E102400085407800AA
:10280000620E0200000000003BFBB7003BDBBF0094
:102810000000FB000000E0001D003A0011C0B30002
:10282000081302000000000011C0B30008130200EA
:10283000000000003CFBB70011C0B3000813020009
:10284000000000003DFBB70011C0B30008130200F8
:10285000000000003EFBB7008040EB0008130200C0
:10286000000000003FFBB7003FDBBF0043FBB700A9
:102870003EDBBF0042FBB7003DDBBF0041FBB700C2
:102880003CDBBF0040FBB7004E140400000000001A
:10289000403BEF000400280014DA8800F00120001B
:1028A0000602B600FDFF3A000642A8000642AF004D
:1028B000FEFF3700641404000000000040BBEF007E
:1028C000F4FF270014DA8800409BBF0011DA800073
:1028D000CF02780000000600851F7800861F780070
:1028E000383BEF0036DBBF0044FBB7003213020079
:1028F0000000000016F6B700400120000E0F020095
:102900000000000016D6BF000160EF000080B2009A
:102910000B0032001080B200110032003080B20093
:102920002F0032001080B200B20032007080B2007E
:102930009D0132001080B200BB013200D901370086
:102940008168EF001036EF001236EF0010C0B300C0
:1029500000E0B700D3013700521804000000000067
:10296000B4D9800004CCB20007003A00A0C0B30084
:102970003AFBB7003B7BEF0082130200000000002F
:10298000E814040000000000B4D9800024CCB20098
:1029900007003A00B0C0B3003AFBB7003B7BEF0042
:1029A0008213020000000000E81404000000000090
:1029B000B4D9800044CCB20005003A00C0C0B300D6
:1029C0003AFBB7003B7BEF008213020000000000DF
:1029D0000060EF00B301370052180400000000004F
:1029E000B4D9800004CCB2006D003A001716AF00D5
:1029F0006900370018D6BF000160EF000080B20008
:102A0000030032001080B2002E0032006000370058
:102A10001736AF000B00370000CCB3003AFBB7000D
:102A20003B7BEF000E1202000000000000CCB30060
:102A30003AFBB700D61302000000000038BBB70015
:102A40001736A800C4B080004822DE006124E100EF
:102A500017003200C4D98000A40FB10084027800AE
:102A600000CCB3003CFBB70010C0B3003DFBB70087
:102A700010C0B3003EFBB70010C0B3003FFBB7006F
:102A8000DE15F800401BF90015DA88000002EB00A3
:102A900043FBAF000082EB0024DA88004E110200F5
:102AA0000000000019F6B7005E15040000000000E9
:102AB0001976EF001876EC001736A900C815040047
:102AC0000000000000CCB30044FBB700321302004A
:102AD0000000000016F6B7001656E2002A003A0081
:102AE0001736AF000D003700C4D98000A40FB10025
:102AF000C4D98800389BBF008000EB0000F0A7001D
:102B00008080EB0004AF80000000520014AF800012
:102B100081005A0014B6B7001736A800C4B0800070
:102B20004822DE006124E10016003200389BBF001D
:102B30001416B4008002780000CCB3003CFBB70050
:102B40003D7BEF0010C0B3003EFBB70010C0B300E8
:102B50003FFBB700DE15F800401BF90015DA8800CE
:102B60000002EB0043FBAF000082EB0024DA880098
:102B70004E1102000000000019F6B700C415040051
:102B8000000000001716A800C8150400000000008F
:102B9000F614040000000000F0150400000000001E
:102BA000B4D9800024CCB20006003A00B0C0B30013
:102BB0003AFBB7007A10020000000000F015040094
:102BC00000000000B4D9800044CCB20004003A00F8
:102BD000C0C0B3003AFBB7007A100200000000004A
:102BE0001716A9000060EF002E01370052180400EC
:102BF00000000000B4D9800004CCB20007003A0005
:102C000000C1B3003AFBB7003B7BEF008213020028
:102C1000000000003216040000000000B4D980005B
:102C200024CCB20007003A0010C1B3003AFBB70051
:102C30003B7BEF008213020000000000321604000C
:102C400000000000B4D9800044CCB20005003A0076
:102C500020C1B3003AFBB7003B7BEF0082130200B8
:102C6000000000001016E20008003A001216E20010
:102C700006003A006A08F8001016F9006C08F8001F
:102C80001216F900CC170400000000005443800025
:102C900083B08000830252006443800093B08000C0
:102CA00003035A006030E100BB00390003003E001E
:102CB000046080000520E100B7003E001036EF0000
:102CC0001236EF00B4D9800004CCB2002D003A00D7
:102CD00000CCB3003AFBB700D6130200000000009E
:102CE00038BBB700389BBF008000EB0000F0A700A6
:102CF0008080EB0004AF80008402500014AF80009D
:102D0000048358000500E00002003A000600E000DD
:102D10001A003200389BBF008000EB0000F0A700D3
:102D20008080EB0004AF80000000520014AF8000F0
:102D300081005A0014B6B70000CCB3003CFBB700CA
:102D40003D7BEF0010C0B3003EFBB70010C0B300E6
:102D50003FFBB700DE15F800401BF9001416F80021
:102D6000421BF9000002EB0043FBAF000082EB00C6
:102D700024DA88004E110200000000008E170400C3
:102D800000000000B4D9800024CCB20041003A0019
:102D9000544380001360800083025200644380002B
:102DA0002360800003035A00446080000620E10095
:102DB0003600390003003E00346080000520E10049
:102DC000320036005443800013608000030052003C
:102DD000644380002360800083005A0034608000D8
:102DE0000000520006ACB7004460800001005A00A9
:102DF00008ACB700D4AE80004822DE006124E100B8
:102E000012003A0020CCB3003CFBB70010C0B30066
:102E10003DFBB70020C0B3003EFBB70030C0B3009D
:102E20003FFBB7004406200004DA8800060CF800D7
:102E3000421BF900080CF800441BF9004E11020077
:102E400000000000461704000000000020CCB30082
:102E50003CFBB70010C0B3003DFBB70020C0B3007F
:102E60003EFBB70030C0B3003FFBB7009401200029
:102E700004DA8800060CF800421BF900080CF80080
:102E8000441BF9004E110200000000008E170400E0
:102E900000000000B4D9800044CCB2001F003A000A
:102EA000B1B4AE000F00370040CCB3003CFBB7001C
:102EB0003D7BEF0020C0B3003EFBB7003F7BEF003F
:102EC0004406200004DA8800840C200014DA88000C
:102ED000443BEF004E110200000000008E1704007A
:102EE0000000000040CCB3003CFBB70010C0B300B2
:102EF0003DFBB70020C0B3003EFBB7003F7BEF00B7
:102F00004406200004DA8800840C200014DA8800CB
:102F1000443BEF004E110200000000000F76EC0071
:102F200081C8BF0074B080004822DE000024E100A8
:102F300019003600B4D9800004CCB20006003A0073
:102F4000D0C0B3003AFBB7007A10020000000000C6
:102F5000CC17040000000000B4D9800024CCB200DB
:102F600006003A00E0C0B3003AFBB7007A10020056
:102F700000000000CC17040000000000B4D980005D
:102F800044CCB20004003A00F0C0B3003AFBB700F2
:102F90007A100200000000000060EF0041003700DE
:102FA0005218040000000000B4D9800004CCB20024
:102FB00007003A00D0C0B3003AFBB7003B7BEF00FC
:102FC00082130200000000000C1804000000000042
:102FD000B4D9800024CCB20007003A00E0C0B300AE
:102FE0003AFBB7003B7BEF008213020000000000B9
:102FF0000C18040000000000B4D9800044CCB200DA
:1030000005003A00F0C0B3003AFBB7003B7BEF008D
:1030100082130200000000000060EF002100370072
:103020005218040000000000B4D9800004CCB200A3
:1030300006003A0000C1B3003AFBB7007A10020064
:10304000000000004A18040000000000B4D980000D
:1030500024CCB20006003A0010C1B3003AFBB7001E
:103060007A100200000000004A180400000000006E
:10307000B4D9800044CCB20006003A0020C1B300AD
:103080003AFBB7007A100200000000004A18040062
:10309000000000000060EF0002003700521804003A
:1030A000000000004F037800CF0278000000060007
:1030B00003D6BF000000FB000080B2000300320016
:1030C0001080B200210032004800370004D6BF0053
:1030D0000000FB006100E1001200320000CCB300F0
:1030E0003CFBB7003D7BEF0020C0B3003EFBB700C8
:1030F0003F7BEF004406200004DA8800E42E200025
:1031000014DA8800443BEF004E110200000000007A
:1031100004F6B7000060EF0034003700A218040086
:10312000000000000476EF0010C0B30003F6B70003
:10313000400620000E0F0200000000000060EF00BB
:103140002A003700F61804000000000000CCB3008D
:1031500036FBB7006C1402000000000005F6B70053
:1031600005D6BF000000FB006100E1001D003A0031
:1031700004D6BF000000FB006100E1001400320033
:1031800000CCB3003CFBB70010C0B3003DFBB70060
:1031900010C0B3003EFBB70020C0B3003FFBB70038
:1031A0008438210004DA88000453270014DA8800E8
:1031B000443BEF004E1102000000000004F6B7008F
:1031C0000060EF0009003700F21804000000000062
:1031D0000476EF000376EF0010C0B30000E0B70004
:1031E00002003700F618040000000000000006008E
:1031F000851F7800A4D98000831320000320B80025
:1032000080027800B4D980007820B80085024000A0
:10321000A4C0200004804200901F78009214F9009E
:10322000A4D98000831320000320B8008002780016
:10323000B4D980007820B800850240006280420046
:10324000A4C0200004004000901F78009414F900EE
:10325000A4D98000831320000320B80080027800E6
:10326000B4D980007820B800850240006480420014
:10327000A4C0200004004000901F78009614F900BC
:10328000A4D98000831320000320B80080027800B6
:10329000B4D980007820B8008502400066804200E2
:1032A000A4C0200004004000901F78009814F9008A
:1032B000A4D98000831320000320B8008002780086
:1032C000B4D980007820B8008502400068804200B0
:1032D000A4C0200004004000901F78009A14F90058
:1032E000A4D98000831320000320B8008002780056
:1032F000B4D980007820B800850240006A8042007E
:10330000A4C0200004004000901F78009C14F90025
:10331000A4D98000831320000320B8008002780025
:10332000B4D980007820B800850240006C8042004B
:10333000A4C0200004004000901F78009E14F900F3
:10334000A4D98000831320000320B80080027800F5
:10335000B4D980007820B800850240006E80420019
:10336000A4C0200004004000901F7800A014F900C1
:10337000A4D98000831320000320B80080027800C5
:10338000B4D980007820B8008502400070804200E7
:10339000A4C0200004004000901F7800A214F9008F
:1033A000A4D98000831320000320B8008002780095
:1033B000B4D980007820B8008502400072804200B5
:1033C000A4C0200004004000901F7800A414F9005D
:1033D000A4D98000831320000320B8008002780065
:1033E000B4D980007820B800850240007480420083
:1033F000A4C0200004004000901F7800A614F9002B
:10340000A4D98000831320000320B8008002780034
:10341000B4D980007820B800850240007680420050
:10342000A4C0200004004000901F7800A814F900F8
:103430005B68AE002D0037009694BF000080B2009C
:10344000030032001080B200110032002500370066
:1034500094A48000430B20000418E100060035000E
:10346000440B200093A480000300520092B4B700E4
:10347000441A040000000000C421200093A480002E
:103480000300520092B4B700761A04000000000056
:10349000F443800093A480000300520092B4B7006C
:1034A000D4A480006120E10004003A002400200040
:1034B000D4A488006E1A040000000000D4A4800088
:1034C0006220E10004003A0014002000D4A4880027
:1034D0006E1A0400000000009A34EF00761A04000F
:1034E00000000000761A040000000000CF027800FF
:1034F0000000060001002F0083814000F10720003A
:10350000E0804800910188000500A1000500E0006E
:1035100003003200331ABA008582E900FCFF3A004A
:1035200000000600851F7800861F78003E3BEF00F4
:10353000403BEF00423BEF00443BEF00401BE2000A
:1035400042003A0053AF8000040020002500200014
:103550007A1A02000000000044BBB70054AF80009C
:10356000E2024200851F78008501780004002000F7
:10357000250020007A1A020000000000CF02780027
:1035800042BBB70024DA8000F3FF2F000418E100EB
:103590002A0032003E3BEF00F4D980007820E100A1
:1035A0001F00310024DA8000831320000320B800BC
:1035B0008002780014DA80007820B800850240008C
:1035C000F6D980004133DE004130DD0005004000C7
:1035D000A4C0200084024000F4D9800064034200AB
:1035E00006007800EA15B40000037800851F780013
:1035F0008601780004002000250020007A1A0200CD
:1036000000000000CF027800800A7800F4D9800022
:10361000620042003EBBB700CC1A0400000000006C
:1036200054AF80007C004200EAB5B700441BF800AC
:10363000B414F900221B0400000000001400200054
:1036400004DA88009E1A0400000000004F0378008E
:10365000CF02780000000600851F7800C50020001A
:1036600003000900B51F780000027800810278008D
:1036700002037800830378000000EB008000EB0079
:103680000001EB008001EB000800A10007F0A6009C
:10369000080037000800A0008783EA000683EA00DC
:1036A0008582EA000402EA00E0824A0060034B00DF
:1036B000E0834B008504720002003A008704730027
:1036C00015003200394720000340A7000B003700E7
:1036D0004200A9000482D2008582D2000683D20073
:1036E0008783D2000080D2008180D2000281D20084
:1036F0008381D2008904E900F3FF3A00C44CDD0065
:103700004200A90009F0A1000340A10083816C00E0
:103710000800A70003F0A000250120000300090015
:10372000CF127800CF02780000000600851F7800D5
:10373000861F7800871F7800881F780003322000DA
:1037400004002000250020007A1A0200000000007A
:1037500086B5B70023322000040020002500200099
:103760007A1A02000000000088B5B700433220003A
:1037700004002000250020007A1A0200000000004A
:103780008AB5B7005B68AE0012003700F4438000D2
:1037900033AC80000300520086B5B70054AC800003
:1037A000430B20000418E10006003500440B200004
:1037B00053AC8000030052008AB5B700EA1B040036
:1037C00000000000C421200053AC80000300520020
:1037D0008AB5B7008A95BF008001EB0000F0A70012
:1037E0008081EB0083007800030178002C1B02002D
:1037F0000000000084D1220045442500B61F2200AD
:10380000970024004A0C02000000000080027800AB
:10381000010378008203780003047800851F780094
:10382000861F7800871F78000500780086007800E2
:1038300007017800880178000400200005002000BE
:1038400006002800670624005A0D02000000000050
:10385000CF0378004F037800CF02780094B5B7000B
:10386000B1AC8800C2AC8800D3AC88004F047800AB
:10387000CF0378004F037800CF02780000000600E5
:10388000881F78002801200004000900B81F780074
:10389000080028004300AF0087036C000000E00030
:1038A00007003A000100E00005003A000200E000D5
:1038B00003003A00FAFF27000A8561004220AE00AB
:1038C000030578008A856B0003047800870478007C
:1038D00007067800FD7F20004220A9004200A900D1
:1038E00044C4DE00088466000800E000BC0032002A
:1038F0004220A9004200A900C4CCDE0089846600F1
:103900000900E000BE0032008006EB004220A90062
:103910004200A9000848E100BA003200C1003300AB
:103920000D00A1000D10A00008845400F300B200A7
:103930000340A000F700B2000740A0004803B10018
:1039400016003B004803B0004220A9004200A90035
:103950008381D3000281D3008180D3000080D30013
:103960000804E900F8FF3A00140037004803B100EA
:103970000F003B004803B0004220A9004200A9000C
:103980008783D3000683D3008582D3000482D300CB
:103990000804E900F8FF3A001B0037000400780033
:1039A0008500780006017800870178000C866D009C
:1039B0000CF0A7000BF0A200790037000BF0A60076
:1039C0001F0037000D40A7008C0578000080EA003A
:1039D0008180EA000281EA0083C1EA00F341B2007B
:1039E0000000E80005003A008100E80003003A000A
:1039F0000201E80001003A008341E8000D40A70001
:103A0000320037000E0037000BF0A6000C00370024
:103A10000482EA008582EA000683EA0087C3EA009E
:103A2000F741B2000402E80005003A008502E80010
:103A300003003A000603E80001003A008743E8006B
:103A40004220A9004200A9000400400085804800EF
:103A50000601490087C149000350A7000D30A000AE
:103A60000D00A700090037000D10A7000100370066
:103A70000B0037000BF0A700140037000D30A70033
:103A8000290037000D60A000210037000BF0A700CF
:103A90000E0037000D30A700230037001C00370050
:103AA0000BF0A700040037008A0578000D30A7004E
:103AB0001D0037003A0037000D40A00003C1B200DE
:103AC0000340A700BFFF37008A057800F301B2006A
:103AD0000284710002003A00008470000C00320081
:103AE0000340A7000A0037004220A9004200A900B5
:103AF0000080D2008180D2000281D2008381D20076
:103B00008904E9004220AF0032003700F4FF37009B
:103B10000D00A7008A0578000D10A7008C0578001D
:103B20000D50A6001E0037004200A90083C1D3003B
:103B30000281D3008180D3000080D3004200AF0017
:103B40000D50A0008904E8004220AF00210037009A
:103B50000D50A6000E0037000000E8000C003A00EF
:103B60008100E8000A003A000201E80008003A007B
:103B70008301E80006003A0083C1D3000281D3002C
:103B80008180D3000080D3008904E8001100320056
:103B90000D00A7008A0578000D10A7008C0578009D
:103BA0000102700002003A00030271002600320098
:103BB0000340A1004220A9004200A900C44CDD003E
:103BC00083816C0003F0A0000BF0A60003F0A100BD
:103BD0001D0037006000B8006011B8001A003700FF
:103BE000080028000AF0A70087036C008500780011
:103BF0000400780006017800870178001200370081
:103C000011003700F700B2000740A000F300B20037
:103C10000340A0000BF0A7000740A1000D20A0006A
:103C200079FF3700F300B2000340A000F700B200B4
:103C30000740A00009045400890444000D10A100AD
:103C40000D00A00049FF3700A80120000400090072
:103C50004F1478004F04780000000600881F780099
:103C6000891F78008A1F78008784690009F0A60000
:103C7000060037004200A9004220A90003F0A60078
:103C8000340037004200A80032003700FA7F2000DD
:103C9000030478008704780044C4DE00080465004B
:103CA000C4CCDE008904650008855400050032009C
:103CB00003F0A600270037001000200042E0B60005
:103CC000240037000304780087047800F301B20071
:103CD000F701B2000340A1000740A10003C5530053
:103CE0000500320008F0A6001A003700100020007E
:103CF00042E0B6001700370002055300050032000D
:103D000008F0A600130037001000200042E0B600C3
:103D100010003700018552000500320008F0A600AF
:103D20000C0037001000200042E0B6000900370008
:103D3000000552000500320008F0A600050037001B
:103D40001000200042E0B600020037004200A90047
:103D5000000037004F057800CF0478004F0478004A
:103D600000000600851F7800C5002000040009003F
:103D7000B51F7800763BEF00822AEF00783BEF001A
:103D8000C4DB80006A20E1000A003D00C4DB800043
:103D90006220B800C4A8200084024000804AEB00E2
:103DA00000C0B30090429800783BEC00C01E0400B5
:103DB000000000004300A800569BBF00C1DA80004D
:103DC000D2DA8000E3DA800034DA800045DA80005D
:103DD00056DA800067DA8000401C02000000000014
:103DE0007ABBB700E1DB8800F2DB880003DC8800E7
:103DF0004300A8005E9BBF0001DB800012DB800057
:103E000023DB800074DA800085DA800096DA800097
:103E1000A7DA8000401C02000000000082BBB7004F
:103E200021DC880032DC880043DC88008A3BEF001C
:103E30008A3BEC008A9BBF008001EB0000F0A700EA
:103E40008081EB0083007800030178002C1B0200C6
:103E50000000000000027800810278000203780070
:103E6000830378007A9BBF00E1DB8000F2DB8000F7
:103E700003DC80004A0C0200000000008002780091
:103E8000010378008203780003047800851F78001E
:103E9000861F7800871F780005007800860078006C
:103EA0000701780088017800040020000500200048
:103EB00006002000970524005A0D020000000000B3
:103EC000CF0378004F037800CF02780066BBB700BD
:103ED00041DB880052DB880063DB88008A9BBF00DF
:103EE0008001EB0000F0A7008081EB0083007800E8
:103EF000030178002C1B0200000000000002780083
:103F0000810278000203780083037800829BBF005F
:103F100021DC800032DC800043DC80004A0C02009F
:103F2000000000008002780001037800820378001E
:103F300003047800851F7800861F7800871F7800AB
:103F40000500780086007800070178008801780075
:103F50000400200005002000060020009705240032
:103F60005A0D020000000000CF0378004F037800D4
:103F7000CF0278006EBBB70081DB880092DB88003F
:103F8000A3DB8800763BEF00B4DB80006A20E10011
:103F9000C2003D004300A900669BBF0041DB8000DA
:103FA00052DB800063DB800034DA800045DA800079
:103FB00056DA800067DA8000401C02000000000032
:103FC00080027800010378008203780003047800FF
:103FD000B4DB80007020B8008004780004B62000B4
:103FE000048044000002780003002000B419780027
:103FF000B419780002002000030020002C1B0200EE
:1040000000000000851F7800861F7800871F780059
:10401000050278008602780007037800880378009C
:104020002E1E020000000000CF0378004F0378002E
:10403000CF0278000100310095003A004300A9004A
:10404000851F7800861F7800871F7800669BBF0059
:1040500041DB800052DB800063DB800034DA8000CB
:1040600045DA800056DA800067DA8000401C0200E2
:1040700000000000CF0378004F037800CF027800E3
:10408000800278000103780082037800030478003E
:10409000B4DB80007025B8006800450004B620003D
:1040A000040040000002780003002000B4197800EA
:1040B000B419780002002000030020002C1B02002D
:1040C00000000000851F7800861F7800871F780099
:1040D00000027800050078008102780086007800F0
:1040E00002037800070178008303780088017800D4
:1040F0002E1E020000000000CF0378004F0378005E
:10410000CF0278000100310061003A004300A900AD
:104110006E9BBF0081DB800092DB8000A3DB800010
:1041200074DA800085DA800096DA8000A7DA8000F1
:10413000401C0200000000008002780001037800AB
:104140008203780003047800B4DB80007020B8009C
:10415000800478006480440004B62000040040001D
:104160000002780003002000B4197800B419780028
:1041700002002000030020002C1B020000000000B1
:10418000851F7800861F7800871F78000502780059
:104190008602780007037800880378002E1E02004C
:1041A00000000000CF0378004F037800CF027800B2
:1041B0000100310036003A004300A9006E9BBF00A9
:1041C00081DB800092DB8000A3DB800074DA80005A
:1041D00085DA800096DA8000A7DA8000401C0200B1
:1041E000000000008002780001037800820378005C
:1041F00003047800B4DB80007020B80080047800ED
:104200006C80440004B620000400400000027800E6
:1042100003002000B4197800B419780002002000CF
:10422000030020002C1B020000000000851F780006
:10423000861F7800871F780000027800050078004C
:104240008102780086007800020378000701780078
:1042500083037800880178002E1E02000000000011
:10426000CF0378004F037800CF02780001003100BF
:1042700007003A00145480006220B800C4A820004F
:1042800084024000B4DB800084029800822AEC00A3
:10429000763BEC00C41F04000000000054DC8000EA
:1042A000430620000418E10002003400820AE20004
:1042B000DFFE3200145480006020E100030034006F
:1042C000842AEF006A21040000000000140020008E
:1042D000245488004501200004000900CF12780012
:1042E000CF02780000000600842AEF008695BF0008
:1042F0008001EB0000F0A7008081EB0083007800D4
:10430000030178002C1B02000000000040ABB70046
:10431000115A8800225A8800335A88008895BF00B5
:104320008001EB0000F0A7008081EB0083007800A3
:10433000030178002C1B02000000000048ABB7000E
:10434000515A8800625A8800735A88009294BF00BC
:104350008001EB0000F0A7008081EB008300780073
:10436000030178002C1B02000000000050ABB700D6
:10437000915A8800A25A8800B35A88009494BF00CA
:104380008001EB0000F0A7008081EB008300780043
:10439000030178002C1B02000000000058ABB7009E
:1043A000D15A8800E25A8800F35A8800400BF8007E
:1043B000461BF900420BF800481BF900440BF800BB
:1043C0004A1BF900460BF8004C1BF900480BF8009B
:1043D0004E1BF9004A0BF800501BF9004C0BF8007B
:1043E000521BF9004E0BF800541BF900500BF8005B
:1043F000561BF900520BF800581BF900540BF8003B
:104400005A1BF900560BF8005C1BF900580BF8001A
:104410005E1BF9005A0BF800601BF9005C0BF800FA
:10442000621BF9005E0BF800641BF900B21E02006B
:1044300000000000145480006020E10003003400FC
:10444000842AEF002A22040000000000140020004B
:1044500024548800840AF8000000F90000000600D7
:10446000851F7800C500200005000900B51F7800F1
:10447000030478008203780001037800800278004A
:10448000830478003B472000C499DE00FA7F2000B7
:104490008301650083855500F801B2000840A00043
:1044A0000000EB008000EB000001EB008001EB005E
:1044B0004200A9000884D3008783D3000683D30079
:1044C0008582D3008381D3000281D3008180D30011
:1044D0000080D3008B05E900F5FF3A0009F0A60043
:1044E000090037000080EA008180EA000281EA00CA
:1044F0008381EA000000E8000180B0000280B00083
:104500000380B000000037006501200005000900AD
:10451000CF127800CF02780000000600649BBF0035
:10452000E4DA80000020E10014003400669BBF0044
:10453000F4DA80000020E100040034004400200090
:1045400044DB8800BA22040000000000629BBF0028
:10455000F4DA80000020E100040034003400200080
:1045600044DB8800BA220400000000002400200080
:1045700044DB88001023040000000000609BBF00A3
:10458000E4DA80000020E10014003400669BBF00E4
:10459000F4DA80000020E100040034005400200020
:1045A00044DB8800EA22040000000000629BBF0098
:1045B000F4DA80000020E1000400340084002000D0
:1045C00044DB8800EA220400000000001400200000
:1045D00044DB88001023040000000000669BBF003D
:1045E000F4DA80000020E1000400340064002000C0
:1045F00044DB88001023040000000000629BBF0021
:10460000F4DA80000020E10004003400740020008F
:1046100044DB88001023040000000000683BEF002A
:10462000681BF8000000F90000000600851F7800F4
:10463000C500200005000900B51F780003047800BC
:1046400082037800010378008002780083047800F8
:104650003B472000C499DE00FA7F200083016500FB
:1046600083855500F801B2000840A0000000EB006F
:104670008000EB000001EB008001EB004200A9008C
:104680000884D3008783D3000683D3008582D300B8
:104690008381D3000281D3008180D3000080D300C6
:1046A0008B05E900F5FF3A0009F0A6000900370084
:1046B0000080EA008180EA000281EA008381EA004A
:1046C0000000E8000180B0000280B0000380B0006C
:1046D000000037006501200005000900CF127800B6
:1046E000CF02780000000600851F7800C50020007A
:1046F00003000900B51F78000002780081027800ED
:1047000002037800830378000000EB008000EB00D8
:104710000001EB008001EB000800A10007F0A600FB
:10472000080037000800A0008783EA000683EA003B
:104730008582EA000402EA00E0824A0060034B003E
:10474000E0834B008504720002003A008704730086
:1047500015003200394720000340A7000B00370046
:104760004200A9000482D2008582D2000683D200D2
:104770008783D2000080D2008180D2000281D200E3
:104780008381D2008904E900F3FF3A00C44CDD00C4
:104790004200A90009F0A1000340A10083816C0040
:1047A0000800A70003F0A000250120000300090075
:1047B000CF127800CF02780000000600851F780035
:1047C000861F7800871F7800881F7800071CA900C3
:1047D000FE1BF800081CF900001CF8000A1CF90078
:1047E000021CF8000C1CF900041CF8000E1CF90057
:1047F000FE9BBF0001E0800012E0800023E080000B
:104800000400200005002000060020000700200012
:104810002E1E02000000000006003900071CA80040
:1048200080C0210081C0210007000900B018780075
:104830000FFCAA00089CBF0051E0800062E08000ED
:1048400073E0800004002000050020000600200026
:10485000070E24002E1E020000000000010031009F
:1048600011003A00089CBF0051E0800062E0800027
:1048700073E0800016230200000000000100200009
:10488000020020000300200074230200000000004A
:1048900010BCB70091E08800A2E08800B3E0880077
:1048A0006825040000000000089CBF0051E0800063
:1048B00062E0800073E0800004002000050020001A
:1048C00006002000073324002E1E02000000000016
:1048D00073003900089CBF0051E0800062E0800056
:1048E00073E0800004002000050020000600200086
:1048F00007F023004A0C02000000000030220200F2
:104900000000000018BCB700D1E08800E2E0880099
:10491000F3E08800089CBF0051E0800062E0800066
:1049200073E0800004002000050020000600200045
:1049300007F023004A0C020000000000800278000B
:10494000010378008203780003047800189CBF00FC
:10495000D1E08000E2E08000F3E080002C1B020048
:10496000000000004300A800851F7800861F780023
:10497000871F780000027800050078008102780027
:10498000860078000203780007017800830378002E
:1049900088017800401C020000000000CF0378006E
:1049A0004F037800CF02780000027800810278007F
:1049B000020378008303780000002000010020003B
:1049C00002002000030E24004A0C02000000000038
:1049D00008BCB70051E0880062E0880073E08800FE
:1049E000189CBF00D1E08000E2E08000F3E080008E
:1049F0002C1B0200000000000002780081027800F9
:104A000002037800830378000000200001002000EA
:104A100002002000030E24004A0C020000000000E7
:104A200010BCB70091E08800A2E08800B3E08800E5
:104A3000089CBF0051E0800062E0800073E08000CD
:104A400016230200000000000100200002002000E8
:104A50000300200074230200000000004300A900AE
:104A60000002780081027800020378008303780056
:104A7000109CBF0091E08000A2E08000B3E08000C5
:104A8000401C02000000000010BCB70091E088004C
:104A9000A2E08800B3E08800682504000000000060
:104AA000081CF800101CF9000A1CF800121CF90080
:104AB0000C1CF800141CF9000E1CF800161CF90060
:104AC000083CEF000A3CEF000C3CEF000E3CEF000E
:104AD000089CBF0051E0800062E0800073E080002D
:104AE0000400200005002000060020000700200030
:104AF0002E1E0200000000001A003200089CBF00B9
:104B000051E0800062E0800073E080001623020024
:104B1000000000000100200002002000030020002F
:104B200074230200000000004300A8000002780087
:104B3000810278000203780083037800089CBF009C
:104B400051E0800062E0800073E08000401C0200C1
:104B50000000000008BCB70051E0880062E0880057
:104B600073E08800071CAE000500370000C121007B
:104B700001C1210007000900B018780017FCAA0045
:104B8000089CBF0051E0800062E0800073E080007C
:104B9000040020000500200006002000070020007F
:104BA0002E1E02000000000027003200071CAE008D
:104BB00011003700065CE2000F003A004300A80035
:104BC000109CBF0091E08000A2E08000B3E0800074
:104BD00004002000050020000600200007FF23003D
:104BE000401C02000000000010BCB70091E08800EB
:104BF000A2E08800B3E08800071CAF001200370075
:104C000034E080006124E1000F003A004300A90075
:104C1000109CBF0091E08000A2E08000B3E0800023
:104C200004002000050020000600200007FF2300EC
:104C3000401C02000000000010BCB70091E088009A
:104C4000A2E08800B3E08800FE9BBF0001E0800086
:104C500012E0800023E08000040020000500200016
:104C600006002000070020002E1E020000000000A9
:104C700004003A00103CEF00123CEF00143CEF003F
:104C8000163CEF00109CBF0091E08000A2E0800085
:104C9000B3E080004F047800CF0378004F03780022
:104CA000CF0278000000060010C0B30006FCB70079
:104CB000EC1BF800FE1BF900EE1BF800001CF900CD
:104CC000F01BF800021CF900F21BF800041CF900AC
:104CD000DE2302000000000000000600067CEF005A
:104CE000EC1BF800FE1BF900EE1BF800001CF9009D
:104CF000F01BF800021CF900F21BF800041CF9007C
:104D0000DE2302000000000000000600851F78007E
:104D1000861F7800871F7800881F7800D49BBF000B
:104D2000B1DE8000C2DE8000D3DE800004002000FF
:104D30000500200006002000070020002E1E0200B3
:104D40000000000065003200CC9BBF0071DE8000D7
:104D500082DE800093DE8000A4DE8000B5DE80006D
:104D6000C6DE8000D7DE80005A0D02000000000081
:104D70008002780001037800820378000304780041
:104D8000851F7800861F7800871F7800050078004F
:104D90008600780007017800880178000400200070
:104DA0000500200006002000070020002E1E020043
:104DB00000000000CF0378004F037800CF02780096
:104DC00016003900CC9BBF0071DE800082DE8000BF
:104DD00093DE8000A4DE8000B5DE8000C6DE8000A9
:104DE000D7DE80005A0D020000000000800278002B
:104DF00001037800820378000304780065DF8800EF
:104E000076DF880087DF880098DF8800542602005C
:104E1000000000003627040000000000CC9BBF000B
:104E200071DE800082DE800093DE8000A4DE8000E0
:104E3000B5DE8000C6DE8000D7DE80005A0D02009D
:104E400000000000800278000103780082037800EF
:104E50000304780065DF880076DF880087DF88003C
:104E600098DF88006E26020000000000DCBBB7005F
:104E7000F1DE880002DF880013DF8800DC9BBF00C2
:104E8000F1DE800002DF800013DF8000A4DE8000FE
:104E9000B5DE8000C6DE8000D7DE80004A0C02004E
:104EA000000000004300A8000002780081027800A2
:104EB0000203780083037800CC9BBF0071DE800082
:104EC00082DE800093DE8000401C020000000000B3
:104ED000020037006E270400000000004F04780035
:104EE000CF0378004F037800CF027800000006005F
:104EF000851F7800861F7800871F7800881F78003C
:104F0000CC1BF800D41BF900CE1BF800D61BF9000F
:104F1000D01BF800D81BF900D21BF800DA1BF900EF
:104F2000D49BBF00B1DE8000C2DE8000D3DE8000F3
:104F300004002000050020000600200007FF2300D9
:104F40002E1E020000000000B8013200A4BD2100A6
:104F5000C4DF8800F89BBF00901F7800F41BF900A5
:104F6000F89BBF00901F7800F61BF900E43F20007B
:104F7000A4DF8800F49BBF004400DD00F4BBB70051
:104F8000F7FBAE000200370044BF210014F0A00080
:104F9000F69BBF006F006000F6BBB700F69BBF003A
:104FA000F4BBB600C5DF8000A4DF80008402980057
:104FB0004300A800D49BBF00B1DE8000C2DE8000A9
:104FC000D3DE800004002000050020000600200041
:104FD00007FF2300401C0200000000008002780050
:104FE0000103780082037800030478004300A900DD
:104FF000851F7800861F7800871F7800D49BBF002C
:10500000B1DE8000C2DE8000D3DE8000040020001C
:10501000050020000600200007FF2300401C0200BE
:1050200000000000CF0378004F037800CF02780023
:10503000851F7800861F7800871F7800000278009F
:10504000050078008102780086007800020378006D
:105050000701780083037800880178005A0D020068
:1050600000000000CF0378004F037800CF027800E3
:10507000D4BBB700B1DE8800C2DE8800D3DE880072
:10508000D49BBF00B1DE8000C2DE8000D3DE800092
:10509000A4DE8000B5DE8000C6DE8000D7DE8000A2
:1050A0004A0C020000000000ECBBB70071DF880072
:1050B00082DF880093DF880050D02B00A1A9240054
:1050C000A2612A0023FC2B0064DF800075DF8000D2
:1050D00086DF800097DF80004A0C0200000000009D
:1050E00080027800010378008203780003047800CE
:1050F0004300A900851F7800861F7800871F78006D
:1051000005007800860078000701780088017800A3
:10511000449B2B00A5D2210076902D0057FF230041
:10512000401C020000000000CF0378004F0378000D
:10513000CF027800DCBBB700F1DE880002DF880018
:1051400013DF8800DC9BBF00F1DE800002DF8000FF
:1051500013DF800064DF800075DF800086DF800061
:1051600097DF80004A0C02000000000080027800F7
:105170000103780082037800030478004300A9004B
:10518000851F7800861F7800871F7800050078004B
:1051900086007800070178008801780024B02E008E
:1051A00095782600B66D2F0087002C00401C020069
:1051B00000000000CF0378004F037800CF02780092
:1051C000DCBBB700F1DE880002DF880013DF880057
:1051D000DC9BBF00F1DE800002DF800013DF800077
:1051E00064DF800075DF800086DF800097DF80004D
:1051F0004A0C0200000000008002780001037800E1
:1052000082037800030478004300A900851F78001A
:10521000861F7800871F78000500780086007800D8
:1052200007017800880178000400200005002000B4
:105230000600200007002400401C020000000000BF
:10524000CF0378004F037800CF027800DCBBB700B3
:10525000F1DE880002DF880013DF8800B0222F0013
:1052600031B9280032542C0083F7230064DF80001A
:1052700075DF800086DF800097DF80004A0C020027
:1052800000000000800278000103780082037800AB
:10529000030478004300A900851F7800861F78006A
:1052A000871F7800050078008600780007017800E5
:1052B00088017800F4042E00D5252A0046982A009B
:1052C000A7FC2B00401C020000000000CF03780068
:1052D0004F037800CF027800E4BBB70031DF8800CD
:1052E00042DF880053DF8800E49BBF0031DF80008D
:1052F00042DF800053DF800064DF800075DF8000C4
:1053000086DF800097DF80004A0C0200000000006A
:10531000800278000103780082037800030478009B
:105320004300A900851F7800861F7800871F78003A
:105330000500780086007800070178008801780071
:1053400084F32800C5FA2E00562B2D0017FF2300EA
:10535000401C020000000000CF0378004F037800DB
:10536000CF027800E4BBB70031DF880042DF88005D
:1053700053DF8800E49BBF0031DF800042DF800004
:1053800053DF800064DF800075DF800086DF8000EF
:1053900097DF80004A0C02000000000080027800C5
:1053A0000103780082037800030478004300A90019
:1053B000851F7800861F7800871F78000500780019
:1053C00086007800070178008801780084FD2300BA
:1053D000F5CD2B0006C32400E7FF2B00401C020084
:1053E00000000000CF0378004F037800CF02780060
:1053F000E4BBB70031DF880042DF880053DF88005C
:10540000E49BBF0031DF800042DF800053DF80007B
:1054100064DF800075DF800086DF800097DF80001A
:105420004A0C0200000000008002780001037800AE
:1054300082037800030478004300A900851F7800E8
:10544000861F7800871F78000500780086007800A6
:105450000701780088017800040020000500200082
:105460000600200007FF2300401C0200000000008F
:10547000CF0378004F037800CF027800E4BBB70079
:1054800031DF880042DF880053DF8800D49BBF00F3
:10549000B1DE8000C2DE8000D3DE8000E4DE80006A
:1054A000F5DE800006DF800017DF80004A0C020076
:1054B0000000000080027800010378008203780079
:1054C00003047800851F7800861F7800871F780006
:1054D00005007800860078000701780088017800D0
:1054E00024DF800035DF800046DF800057DF80004A
:1054F0005A0D020000000000CF0378004F0378002F
:10550000CF027800DCBBB700F1DE880002DF880044
:1055100013DF880024BD2100C4DF8800F89BBF0092
:10552000901F7800F41BF90044BF210014F0A10083
:10553000F49BBF004400DE00F4BBB700A4DF800092
:10554000E43FB100D4DF8800D4DF80006020E100B8
:105550000F003D0004002000D3DF80000300520054
:105560000100200002002000030020002C1B02008C
:1055700000000000E4BBB70031DF880042DF880094
:1055800053DF8800EBFBAA00E02A040000000000C3
:10559000FA9BBF008001EB0000F0A7008081EB00C8
:1055A00083007800030178002C1B0200000000003B
:1055B000E4BBB70031DF880042DF880053DF88009A
:1055C000E49BBF0031DF800042DF800053DF8000BA
:1055D000E49E2300A5EF2F0026E4220067FE2300AF
:1055E0004A0C0200000000004300A90000027800FD
:1055F000810278000203780083037800DC9BBF00FF
:10560000F1DE800002DF800013DF8000401C02001A
:1056100000000000DCBBB700F1DE880002DF88007C
:1056200013DF88001E2B040000000000DC3BEF00AD
:10563000DE3BEF00E03BEF00E23BEF00DC9BBF0016
:10564000F1DE800002DF800013DF80004F0478006D
:10565000CF0378004F037800CF02780000000600E7
:10566000851F7800861F7800871F7800881F7800C4
:10567000CC9BBF0071DE800082DE800093DE800064
:10568000E42F2800B55226007654210077FF23002E
:105690004A0C020000000000D6BBB700C1DE880043
:1056A000D2DE8800E3DE8800D69BBF00C1DE80002A
:1056B000D2DE8000E3DE8000302202000000000025
:1056C000F4BBB700D41BA900CC1BF800D61BF90013
:1056D000CE1BF800D81BF900D01BF800DA1BF9002C
:1056E000D21BF800DC1BF900CC9BBF0071DE8000F0
:1056F00082DE800093DE8000040020000500200090
:1057000006002000070020002E1E020000000000FE
:105710000A003900D41BA80004002000A3DF800089
:1057200003005200F4BBB70060BD210061BD210041
:1057300007000900B0187800DDFBAA00DE3BEF008F
:10574000E03BEF00E23BEF00E43BEF0044BE210012
:1057500094DF8800F29BBF00901F7800EE1BF900D9
:10576000F29BBF00901F7800F01BF900F43F20006F
:10577000A3DF800004804100EEBBB700EE9BBF00BA
:105780004400DD00EEBBB700F1FBAE0002003700C5
:10579000E4BE210014F0A000F09BBF006F00600089
:1057A000F0BBB700F09BBF00EEBBB60045BE2100CA
:1057B00074DF800084029800D69BBF00C1DE8000A9
:1057C000D2DE8000E3DE8000E42F2800B552260000
:1057D0007654210077FF23004A0C020000000000ED
:1057E00080027800010378008203780003047800C7
:1057F000F49BBF008001EB0000F0A7008081EB006C
:1058000083007800030178002C1B020000000000D8
:105810004300A800851F7800861F7800871F780046
:105820000002780005007800810278008600780088
:10583000020378000701780083037800880178006C
:10584000401C020000000000CF0378004F037800E6
:10585000CF027800D6BBB700C1DE8800D2DE880058
:10586000E3DE8800F0C0280051652A002258290094
:1058700093DD2300B4DE8000C5DE8000D6DE80002C
:10588000E7DE80004A0C0200000000008002780081
:105890000103780082037800030478004300A90024
:1058A000851F7800861F7800871F78000500780024
:1058B000860078000701780088017800647E2D005A
:1058C000F55F2E00960C290077DC2B00401C0200AF
:1058D00000000000CF0378004F037800CF0278006B
:1058E000E6BBB70041DF880052DF880063DF880035
:1058F000E69BBF0041DF800052DF800063DF800055
:10590000B4DE8000C5DE8000D6DE8000E7DE8000E9
:105910004A0C0200000000008002780001037800B9
:1059200082037800030478004300A900851F7800F3
:10593000861F7800871F78000500780086007800B1
:105940000701780088017800E40C24002571240008
:10595000C6702B0027E42300401C0200000000005A
:10596000CF0378004F037800CF027800E6BBB70082
:1059700041DF880052DF880063DF8800E69BBF00BC
:1059800041DF800052DF800063DF8000B4DE8000F2
:10599000C5DE8000D6DE8000E7DE80004A0C020013
:1059A0000000000080027800010378008203780084
:1059B000030478004300A900851F7800861F780043
:1059C000871F7800050078008600780007017800BE
:1059D00088017800F4D9260045392C0056D22600DB
:1059E000A7E72300401C020000000000CF0378005E
:1059F0004F037800CF027800E6BBB70041DF880094
:105A000052DF880063DF8800E69BBF0041DF800033
:105A100052DF800063DF8000B4DE8000C5DE8000DE
:105A2000D6DE8000E7DE80004A0C020000000000A5
:105A30008002780001037800820378000304780074
:105A40004300A900851F7800861F7800871F780013
:105A5000050078008600780007017800880178004A
:105A6000A42D2300E5E02B00F6E9230067EB2300DB
:105A7000401C020000000000CF0378004F037800B4
:105A8000CF027800E6BBB70041DF880052DF880014
:105A900063DF8800E69BBF0041DF800052DF8000AB
:105AA00063DF8000B4DE8000C5DE8000D6DE8000CB
:105AB000E7DE80004A0C020000000000800278004F
:105AC0000103780082037800030478004300A900F2
:105AD000851F7800861F7800871F780005007800F2
:105AE000860078000701780088017800D4A62A0093
:105AF00085222C0046AB2F00F7EE2300401C02004D
:105B000000000000CF0378004F037800CF02780038
:105B1000E6BBB70041DF880052DF880063DF880002
:105B2000E69BBF0041DF800052DF800063DF800022
:105B3000B4DE8000C5DE8000D6DE8000E7DE8000B7
:105B40004A0C020000000000800278000103780087
:105B500082037800030478004300A900851F7800C1
:105B6000861F7800871F780005007800860078007F
:105B7000070178008801780094082E0095522E00C5
:105B8000460A230047F22300401C020000000000E8
:105B9000CF0378004F037800CF027800E6BBB70050
:105BA00041DF880052DF880063DF8800E69BBF008A
:105BB00041DF800052DF800063DF8000B4DE8000C0
:105BC000C5DE8000D6DE8000E7DE80004A0C0200E1
:105BD0000000000080027800010378008203780052
:105BE000030478004300A900851F7800861F780011
:105BF000871F78000500780086007800070178008C
:105C00008801780034EA2800A53F2E00E6872D00A1
:105C100057F52300401C020000000000CF0378006D
:105C20004F037800CF027800E6BBB70041DF880061
:105C300052DF880063DF8800E69BBF0041DF800001
:105C400052DF800063DF8000B4DE8000C5DE8000AC
:105C5000D6DE8000E7DE80004A0C02000000000073
:105C60008002780001037800820378000304780042
:105C70004300A900851F7800861F7800871F7800E1
:105C80000500780086007800070178008801780018
:105C9000644C2000A5882700B62A2B0037F8230083
:105CA000401C020000000000CF0378004F03780082
